{
  "contractName": "AccountManager",
  "abi": [
    {
      "inputs": [
        {
          "name": "_council",
          "type": "address"
        },
        {
          "name": "_amount",
          "type": "uint256"
        }
      ],
      "payable": false,
      "stateMutability": "nonpayable",
      "type": "constructor"
    },
    {
      "anonymous": false,
      "inputs": [
        {
          "indexed": true,
          "name": "_index",
          "type": "uint256"
        },
        {
          "indexed": true,
          "name": "_walletAddress",
          "type": "address"
        },
        {
          "indexed": false,
          "name": "_userName",
          "type": "string"
        }
      ],
      "name": "RegisterNewAccount",
      "type": "event"
    },
    {
      "anonymous": false,
      "inputs": [
        {
          "indexed": true,
          "name": "_buyer",
          "type": "address"
        },
        {
          "indexed": true,
          "name": "_contentsAddress",
          "type": "address"
        },
        {
          "indexed": false,
          "name": "_episodeIndex",
          "type": "uint256"
        },
        {
          "indexed": false,
          "name": "_episodePrice",
          "type": "uint256"
        }
      ],
      "name": "PurchaseHistory",
      "type": "event"
    },
    {
      "anonymous": false,
      "inputs": [
        {
          "indexed": true,
          "name": "_supporter",
          "type": "address"
        },
        {
          "indexed": true,
          "name": "_contentsAddress",
          "type": "address"
        },
        {
          "indexed": true,
          "name": "_fundAddress",
          "type": "address"
        },
        {
          "indexed": false,
          "name": "_investedAmount",
          "type": "uint256"
        },
        {
          "indexed": false,
          "name": "_refund",
          "type": "bool"
        }
      ],
      "name": "SupportHistory",
      "type": "event"
    },
    {
      "constant": false,
      "inputs": [
        {
          "name": "_userName",
          "type": "string"
        },
        {
          "name": "_password",
          "type": "string"
        },
        {
          "name": "_privateKey",
          "type": "string"
        },
        {
          "name": "_wallet",
          "type": "address"
        }
      ],
      "name": "createNewAccount",
      "outputs": [],
      "payable": false,
      "stateMutability": "nonpayable",
      "type": "function"
    },
    {
      "constant": true,
      "inputs": [
        {
          "name": "_userName",
          "type": "string"
        },
        {
          "name": "_password",
          "type": "string"
        }
      ],
      "name": "login",
      "outputs": [
        {
          "name": "key_",
          "type": "string"
        },
        {
          "name": "result_",
          "type": "bool"
        }
      ],
      "payable": false,
      "stateMutability": "view",
      "type": "function"
    },
    {
      "constant": false,
      "inputs": [
        {
          "name": "_buyer",
          "type": "address"
        },
        {
          "name": "_contentsAddress",
          "type": "address"
        },
        {
          "name": "_episodeIndex",
          "type": "uint256"
        },
        {
          "name": "_episodePrice",
          "type": "uint256"
        }
      ],
      "name": "setPurchaseHistory",
      "outputs": [],
      "payable": false,
      "stateMutability": "nonpayable",
      "type": "function"
    },
    {
      "constant": false,
      "inputs": [
        {
          "name": "_newPassword",
          "type": "string"
        },
        {
          "name": "_passwordValidation",
          "type": "string"
        }
      ],
      "name": "setNewPassword",
      "outputs": [],
      "payable": false,
      "stateMutability": "nonpayable",
      "type": "function"
    },
    {
      "constant": false,
      "inputs": [
        {
          "name": "_supporter",
          "type": "address"
        },
        {
          "name": "_contentsAddress",
          "type": "address"
        },
        {
          "name": "_fundAddress",
          "type": "address"
        },
        {
          "name": "_investedAmount",
          "type": "uint256"
        },
        {
          "name": "_refund",
          "type": "bool"
        }
      ],
      "name": "setSupportHistory",
      "outputs": [],
      "payable": false,
      "stateMutability": "nonpayable",
      "type": "function"
    },
    {
      "constant": false,
      "inputs": [
        {
          "name": "_user",
          "type": "address"
        },
        {
          "name": "_contentAddress",
          "type": "address"
        }
      ],
      "name": "changeFavoriteContent",
      "outputs": [],
      "payable": false,
      "stateMutability": "nonpayable",
      "type": "function"
    },
    {
      "constant": true,
      "inputs": [
        {
          "name": "_user",
          "type": "address"
        },
        {
          "name": "_contentAddress",
          "type": "address"
        }
      ],
      "name": "getFavoriteContent",
      "outputs": [
        {
          "name": "isFavoriteContent_",
          "type": "bool"
        }
      ],
      "payable": false,
      "stateMutability": "view",
      "type": "function"
    },
    {
      "constant": true,
      "inputs": [
        {
          "name": "_userName",
          "type": "string"
        }
      ],
      "name": "isRegistered",
      "outputs": [
        {
          "name": "isRegistered_",
          "type": "bool"
        }
      ],
      "payable": false,
      "stateMutability": "view",
      "type": "function"
    },
    {
      "constant": true,
      "inputs": [
        {
          "name": "_wallet",
          "type": "address"
        }
      ],
      "name": "getUserName",
      "outputs": [
        {
          "name": "userName_",
          "type": "string"
        },
        {
          "name": "result_",
          "type": "bool"
        }
      ],
      "payable": false,
      "stateMutability": "view",
      "type": "function"
    },
    {
      "constant": true,
      "inputs": [
        {
          "name": "_wallet",
          "type": "address[]"
        }
      ],
      "name": "getUserNames",
      "outputs": [
        {
          "name": "writer_",
          "type": "address[]"
        },
        {
          "name": "writerName_",
          "type": "bytes"
        },
        {
          "name": "spos_",
          "type": "uint256[]"
        },
        {
          "name": "epos_",
          "type": "uint256[]"
        }
      ],
      "payable": false,
      "stateMutability": "view",
      "type": "function"
    }
  ],
  "bytecode": "0x608060405234801561001057600080fd5b5060405160408062003466833981018060405281019080805190602001909291908051906020019092919050505081600260006101000a81548173ffffffffffffffffffffffffffffffffffffffff021916908373ffffffffffffffffffffffffffffffffffffffff160217905550600260009054906101000a900473ffffffffffffffffffffffffffffffffffffffff1673ffffffffffffffffffffffffffffffffffffffff166321df0da76040518163ffffffff167c0100000000000000000000000000000000000000000000000000000000028152600401602060405180830381600087803b15801561010557600080fd5b505af1158015610119573d6000803e3d6000fd5b505050506040513d602081101561012f57600080fd5b8101908080519060200190929190505050600360006101000a81548173ffffffffffffffffffffffffffffffffffffffff021916908373ffffffffffffffffffffffffffffffffffffffff1602179055508060058190555050506132cd80620001996000396000f3006080604052600436106100a4576000357c0100000000000000000000000000000000000000000000000000000000900463ffffffff16806358467dbc146100a95780635f695cfe1461018057806384a7fcc0146101f7578063b6425e4914610383578063ba7e26d2146103fe578063c822d7f014610461578063d84f55ee146104e2578063da1ca0a8146105a9578063ec8f72ea14610642578063f42789c7146106cd575b600080fd5b3480156100b557600080fd5b506100fa600480360381019080803590602001908201803590602001919091929391929390803590602001908201803590602001919091929391929390505050610720565b604051808060200183151515158152602001828103825284818151815260200191508051906020019080838360005b83811015610144578082015181840152602081019050610129565b50505050905090810190601f1680156101715780820380516001836020036101000a031916815260200191505b50935050505060405180910390f35b34801561018c57600080fd5b506101f5600480360381019080803573ffffffffffffffffffffffffffffffffffffffff169060200190929190803573ffffffffffffffffffffffffffffffffffffffff1690602001909291908035906020019092919080359060200190929190505050610ada565b005b34801561020357600080fd5b50610230600480360381019080803590602001908201803590602001919091929391929390505050610f3c565b6040518080602001806020018060200180602001858103855289818151815260200191508051906020019060200280838360005b8381101561027f578082015181840152602081019050610264565b50505050905001858103845288818151815260200191508051906020019080838360005b838110156102be5780820151818401526020810190506102a3565b50505050905090810190601f1680156102eb5780820380516001836020036101000a031916815260200191505b50858103835287818151815260200191508051906020019060200280838360005b8381101561032757808201518184015260208101905061030c565b50505050905001858103825286818151815260200191508051906020019060200280838360005b8381101561036957808201518184015260208101905061034e565b505050509050019850505050505050505060405180910390f35b34801561038f57600080fd5b506103e4600480360381019080803573ffffffffffffffffffffffffffffffffffffffff169060200190929190803573ffffffffffffffffffffffffffffffffffffffff1690602001909291905050506111dd565b604051808215151515815260200191505060405180910390f35b34801561040a57600080fd5b5061045f600480360381019080803573ffffffffffffffffffffffffffffffffffffffff169060200190929190803573ffffffffffffffffffffffffffffffffffffffff169060200190929190505050611291565b005b34801561046d57600080fd5b506104c8600480360381019080803590602001908201803590602001908080601f01602080910402602001604051908101604052809392919081815260200183838082843782019150505050505091929192905050506117e3565b604051808215151515815260200191505060405180910390f35b3480156104ee57600080fd5b50610523600480360381019080803573ffffffffffffffffffffffffffffffffffffffff169060200190929190505050611a3b565b604051808060200183151515158152602001828103825284818151815260200191508051906020019080838360005b8381101561056d578082015181840152602081019050610552565b50505050905090810190601f16801561059a5780820380516001836020036101000a031916815260200191505b50935050505060405180910390f35b3480156105b557600080fd5b50610640600480360381019080803573ffffffffffffffffffffffffffffffffffffffff169060200190929190803573ffffffffffffffffffffffffffffffffffffffff169060200190929190803573ffffffffffffffffffffffffffffffffffffffff16906020019092919080359060200190929190803515159060200190929190505050611c80565b005b34801561064e57600080fd5b506106cb600480360381019080803590602001908201803590602001919091929391929390803590602001908201803590602001919091929391929390803590602001908201803590602001919091929391929390803573ffffffffffffffffffffffffffffffffffffffff1690602001909291905050506120b8565b005b3480156106d957600080fd5b5061071e6004803603810190808035906020019082018035906020019190919293919293908035906020019082018035906020019190919293919293905050506127e4565b005b6060600085858080601f0160208091040260200160405190810160405280939291908181526020018383808284378201915050505050506000815111151561076757600080fd5b86868080601f016020809104026020016040519081016040528093929190818152602001838380828437820191505050505050600081511115156107aa57600080fd5b600060048054905014806107f657506107f488888080601f0160208091040260200160405190810160405280939291908181526020018383808284378201915050505050506117e3565b155b1561086357606060405190810160405280602681526020017f4c6f67696e206661696c65643a20506c6561736520726567697374657220616381526020017f636f756e742e0000000000000000000000000000000000000000000000000000815250935060009250610acf565b61097c600460008a8a6040518083838082843782019150509250505090815260200160405180910390205481548110151561089a57fe5b90600052602060002090600502016001018054600181600116156101000203166002900480601f01602080910402602001604051908101604052809291908181526020018280546001816001161561010002031660029004801561093f5780601f106109145761010080835404028352916020019161093f565b820191906000526020600020905b81548152906001019060200180831161092257829003601f168201915b505050505087878080601f016020809104026020016040519081016040528093929190818152602001838380828437820191505050505050612b83565b15156109ea57606060405190810160405280602581526020017f4c6f67696e206661696c65643a20636865636b2072656769737465722061636381526020017f6f756e742e000000000000000000000000000000000000000000000000000000815250935060009250610acf565b60046000898960405180838380828437820191505092505050908152602001604051809103902054815481101515610a1e57fe5b90600052602060002090600502016002018054600181600116156101000203166002900480601f016020809104026020016040519081016040528092919081815260200182805460018160011615610100020316600290048015610ac35780601f10610a9857610100808354040283529160200191610ac3565b820191906000526020600020905b815481529060010190602001808311610aa657829003601f168201915b50505050509350600192505b505094509492505050565b82600073ffffffffffffffffffffffffffffffffffffffff168173ffffffffffffffffffffffffffffffffffffffff1614151515610b1757600080fd5b3073ffffffffffffffffffffffffffffffffffffffff168173ffffffffffffffffffffffffffffffffffffffff1614151515610b5257600080fd5b84600073ffffffffffffffffffffffffffffffffffffffff168173ffffffffffffffffffffffffffffffffffffffff1614151515610b8f57600080fd5b3073ffffffffffffffffffffffffffffffffffffffff168173ffffffffffffffffffffffffffffffffffffffff1614151515610bca57600080fd5b3373ffffffffffffffffffffffffffffffffffffffff16600260009054906101000a900473ffffffffffffffffffffffffffffffffffffffff1673ffffffffffffffffffffffffffffffffffffffff16630cec1ecd6040518163ffffffff167c0100000000000000000000000000000000000000000000000000000000028152600401602060405180830381600087803b158015610c6757600080fd5b505af1158015610c7b573d6000803e3d6000fd5b505050506040513d6020811015610c9157600080fd5b810190808051906020019092919050505073ffffffffffffffffffffffffffffffffffffffff16141515610d2d576040517f08c379a000000000000000000000000000000000000000000000000000000000815260040180806020018281038252601f8152602001807f5075726368617365206661696c65643a204163636573732064656e6965642e0081525060200191505060405180910390fd5b610e2d6004600160008973ffffffffffffffffffffffffffffffffffffffff1673ffffffffffffffffffffffffffffffffffffffff16815260200190815260200160002054815481101515610d7e57fe5b90600052602060002090600502016000018054600181600116156101000203166002900480601f016020809104026020016040519081016040528092919081815260200182805460018160011615610100020316600290048015610e235780601f10610df857610100808354040283529160200191610e23565b820191906000526020600020905b815481529060010190602001808311610e0657829003601f168201915b50505050506117e3565b1515610ec7576040517f08c379a00000000000000000000000000000000000000000000000000000000081526004018080602001828103825260298152602001807f5075726368617365206661696c65643a20506c6561736520726567697374657281526020017f206163636f756e742e000000000000000000000000000000000000000000000081525060400191505060405180910390fd5b8473ffffffffffffffffffffffffffffffffffffffff168673ffffffffffffffffffffffffffffffffffffffff167f821c0f64fe7dc3cab700ae278520b8a5162d29e490c88202eb37a82bd9d463b18686604051808381526020018281526020019250505060405180910390a3505050505050565b60608060608060008060006060898990509350898980806020026020016040519081016040528093929190818152602001838360200280828437820191505050505050975083604051908082528060200260200182016040528015610fb05781602001602082028038833980820191505090505b50955083604051908082528060200260200182016040528015610fe25781602001602082028038833980820191505090505b509450600091505b838210156111d0576004600160008a8581518110151561100657fe5b9060200190602002015173ffffffffffffffffffffffffffffffffffffffff1673ffffffffffffffffffffffffffffffffffffffff1681526020019081526020016000205481548110151561105757fe5b90600052602060002090600502016000018054600181600116156101000203166002900480601f0160208091040260200160405190810160405280929190818152602001828054600181600116156101000203166002900480156110fc5780601f106110d1576101008083540402835291602001916110fc565b820191906000526020600020905b8154815290600101906020018083116110df57829003601f168201915b5050505050905082868381518110151561111257fe5b90602001906020020181815250506111338188612c5c90919063ffffffff16565b9650600083146111695761116461115560028351612ce690919063ffffffff16565b84612d2490919063ffffffff16565b6111a4565b6111a3611194600261118660028551612ce690919063ffffffff16565b612d2490919063ffffffff16565b84612d2490919063ffffffff16565b5b92508285838151811015156111b557fe5b90602001906020020181815250508180600101925050610fea565b5050505092959194509250565b60006004600160008573ffffffffffffffffffffffffffffffffffffffff1673ffffffffffffffffffffffffffffffffffffffff1681526020019081526020016000205481548110151561122d57fe5b906000526020600020906005020160040160008373ffffffffffffffffffffffffffffffffffffffff1673ffffffffffffffffffffffffffffffffffffffff16815260200190815260200160002060009054906101000a900460ff16905092915050565b80600073ffffffffffffffffffffffffffffffffffffffff168173ffffffffffffffffffffffffffffffffffffffff16141515156112ce57600080fd5b3073ffffffffffffffffffffffffffffffffffffffff168173ffffffffffffffffffffffffffffffffffffffff161415151561130957600080fd5b82600073ffffffffffffffffffffffffffffffffffffffff168173ffffffffffffffffffffffffffffffffffffffff161415151561134657600080fd5b3073ffffffffffffffffffffffffffffffffffffffff168173ffffffffffffffffffffffffffffffffffffffff161415151561138157600080fd5b61138a83612d45565b1515611424576040517f08c379a00000000000000000000000000000000000000000000000000000000081526004018080602001828103825260388152602001807f4368616e6765206661766f7269746520636f6e74656e74206661696c65643a2081526020017f496e76616c696420636f6e74656e7420616464726573732e000000000000000081525060400191505060405180910390fd5b6115246004600160008773ffffffffffffffffffffffffffffffffffffffff1673ffffffffffffffffffffffffffffffffffffffff1681526020019081526020016000205481548110151561147557fe5b90600052602060002090600502016000018054600181600116156101000203166002900480601f01602080910402602001604051908101604052809291908181526020018280546001816001161561010002031660029004801561151a5780601f106114ef5761010080835404028352916020019161151a565b820191906000526020600020905b8154815290600101906020018083116114fd57829003601f168201915b50505050506117e3565b15156115be576040517f08c379a00000000000000000000000000000000000000000000000000000000081526004018080602001828103825260388152602001807f4368616e6765206661766f7269746520636f6e74656e74206661696c65643a2081526020017f506c65617365207265676973746572206163636f756e742e000000000000000081525060400191505060405180910390fd5b6004600160008673ffffffffffffffffffffffffffffffffffffffff1673ffffffffffffffffffffffffffffffffffffffff1681526020019081526020016000205481548110151561160c57fe5b906000526020600020906005020160040160008473ffffffffffffffffffffffffffffffffffffffff1673ffffffffffffffffffffffffffffffffffffffff16815260200190815260200160002060009054906101000a900460ff16156117275760006004600160008773ffffffffffffffffffffffffffffffffffffffff1673ffffffffffffffffffffffffffffffffffffffff168152602001908152602001600020548154811015156116bd57fe5b906000526020600020906005020160040160008573ffffffffffffffffffffffffffffffffffffffff1673ffffffffffffffffffffffffffffffffffffffff16815260200190815260200160002060006101000a81548160ff0219169083151502179055506117dd565b60016004600160008773ffffffffffffffffffffffffffffffffffffffff1673ffffffffffffffffffffffffffffffffffffffff1681526020019081526020016000205481548110151561177757fe5b906000526020600020906005020160040160008573ffffffffffffffffffffffffffffffffffffffff1673ffffffffffffffffffffffffffffffffffffffff16815260200190815260200160002060006101000a81548160ff0219169083151502179055505b50505050565b600081600081511115156117f657600080fd5b600080846040518082805190602001908083835b60208310151561182f578051825260208201915060208101905060208303925061180a565b6001836020036101000a03801982511681845116808217855250505050505090500191505090815260200160405180910390205411156118725760019150611a35565b60006004805490501180156118f15750600080846040518082805190602001908083835b6020831015156118bb5780518252602082019150602081019050602083039250611896565b6001836020036101000a038019825116818451168082178552505050505050905001915050908152602001604051809103902054145b8015611a265750611a2560046000856040518082805190602001908083835b6020831015156119355780518252602082019150602081019050602083039250611910565b6001836020036101000a03801982511681845116808217855250505050505090500191505090815260200160405180910390205481548110151561197557fe5b90600052602060002090600502016000018054600181600116156101000203166002900480601f016020809104026020016040519081016040528092919081815260200182805460018160011615610100020316600290048015611a1a5780601f106119ef57610100808354040283529160200191611a1a565b820191906000526020600020905b8154815290600101906020018083116119fd57829003601f168201915b505050505084612b83565b5b15611a345760019150611a35565b5b50919050565b6060600082600073ffffffffffffffffffffffffffffffffffffffff168173ffffffffffffffffffffffffffffffffffffffff1614151515611a7c57600080fd5b3073ffffffffffffffffffffffffffffffffffffffff168173ffffffffffffffffffffffffffffffffffffffff1614151515611ab757600080fd5b6000600480549050118015611b7657508373ffffffffffffffffffffffffffffffffffffffff166004600160008773ffffffffffffffffffffffffffffffffffffffff1673ffffffffffffffffffffffffffffffffffffffff16815260200190815260200160002054815481101515611b2c57fe5b906000526020600020906005020160030160009054906101000a900473ffffffffffffffffffffffffffffffffffffffff1673ffffffffffffffffffffffffffffffffffffffff16145b15611c7a576004600160008673ffffffffffffffffffffffffffffffffffffffff1673ffffffffffffffffffffffffffffffffffffffff16815260200190815260200160002054815481101515611bc957fe5b90600052602060002090600502016000018054600181600116156101000203166002900480601f016020809104026020016040519081016040528092919081815260200182805460018160011615610100020316600290048015611c6e5780601f10611c4357610100808354040283529160200191611c6e565b820191906000526020600020905b815481529060010190602001808311611c5157829003601f168201915b50505050509250600191505b50915091565b84600073ffffffffffffffffffffffffffffffffffffffff168173ffffffffffffffffffffffffffffffffffffffff1614151515611cbd57600080fd5b3073ffffffffffffffffffffffffffffffffffffffff168173ffffffffffffffffffffffffffffffffffffffff1614151515611cf857600080fd5b83600073ffffffffffffffffffffffffffffffffffffffff168173ffffffffffffffffffffffffffffffffffffffff1614151515611d3557600080fd5b3073ffffffffffffffffffffffffffffffffffffffff168173ffffffffffffffffffffffffffffffffffffffff1614151515611d7057600080fd5b85600073ffffffffffffffffffffffffffffffffffffffff168173ffffffffffffffffffffffffffffffffffffffff1614151515611dad57600080fd5b3073ffffffffffffffffffffffffffffffffffffffff168173ffffffffffffffffffffffffffffffffffffffff1614151515611de857600080fd5b611df28688612f88565b1515611e8c576040517f08c379a00000000000000000000000000000000000000000000000000000000081526004018080602001828103825260288152602001807f537570706f727420686973746f7279206661696c65643a20496e76616c69642081526020017f616464726573732e00000000000000000000000000000000000000000000000081525060400191505060405180910390fd5b611f8c6004600160008b73ffffffffffffffffffffffffffffffffffffffff1673ffffffffffffffffffffffffffffffffffffffff16815260200190815260200160002054815481101515611edd57fe5b90600052602060002090600502016000018054600181600116156101000203166002900480601f016020809104026020016040519081016040528092919081815260200182805460018160011615610100020316600290048015611f825780601f10611f5757610100808354040283529160200191611f82565b820191906000526020600020905b815481529060010190602001808311611f6557829003601f168201915b50505050506117e3565b1515612026576040517f08c379a00000000000000000000000000000000000000000000000000000000081526004018080602001828103825260308152602001807f537570706f727420686973746f7279206661696c65643a20506c65617365207281526020017f65676973746572206163636f756e742e0000000000000000000000000000000081525060400191505060405180910390fd5b8573ffffffffffffffffffffffffffffffffffffffff168773ffffffffffffffffffffffffffffffffffffffff168973ffffffffffffffffffffffffffffffffffffffff167f7d918215f8a4ba3690e5513f1add09bb9ddbf3808e68f8cb51a567d15bab8b2f888860405180838152602001821515151581526020019250505060405180910390a45050505050505050565b80600073ffffffffffffffffffffffffffffffffffffffff168173ffffffffffffffffffffffffffffffffffffffff16141515156120f557600080fd5b3073ffffffffffffffffffffffffffffffffffffffff168173ffffffffffffffffffffffffffffffffffffffff161415151561213057600080fd5b87878080601f0160208091040260200160405190810160405280939291908181526020018383808284378201915050505050506000815111151561217357600080fd5b86868080601f016020809104026020016040519081016040528093929190818152602001838380828437820191505050505050600081511115156121b657600080fd5b85858080601f016020809104026020016040519081016040528093929190818152602001838380828437820191505050505050600081511115156121f957600080fd5b6122348b8b8080601f0160208091040260200160405190810160405280939291908181526020018383808284378201915050505050506117e3565b1515156122cf576040517f08c379a00000000000000000000000000000000000000000000000000000000081526004018080602001828103825260308152602001807f437265617465206e6577206163636f756e74206661696c65643a20526567697381526020017f74657265642075736572206e616d652e0000000000000000000000000000000081525060400191505060405180910390fd5b60046080604051908101604052808d8d8080601f01602080910402602001604051908101604052809392919081815260200183838082843782019150505050505081526020018b8b8080601f016020809104026020016040519081016040528093929190818152602001838380828437820191505050505050815260200189898080601f01602080910402602001604051908101604052809392919081815260200183838082843782019150505050505081526020018773ffffffffffffffffffffffffffffffffffffffff168152509080600181540180825580915050906001820390600052602060002090600502016000909192909190915060008201518160000190805190602001906123e692919061317c565b50602082015181600101908051906020019061240392919061317c565b50604082015181600201908051906020019061242092919061317c565b5060608201518160030160006101000a81548173ffffffffffffffffffffffffffffffffffffffff021916908373ffffffffffffffffffffffffffffffffffffffff160217905550505050612484600160048054905061315b90919063ffffffff16565b60008c8c604051808383808284378201915050925050509081526020016040518091039020819055506124c6600160048054905061315b90919063ffffffff16565b600160008773ffffffffffffffffffffffffffffffffffffffff1673ffffffffffffffffffffffffffffffffffffffff1681526020019081526020016000208190555060006005541180156126145750600554600360009054906101000a900473ffffffffffffffffffffffffffffffffffffffff1673ffffffffffffffffffffffffffffffffffffffff166370a08231306040518263ffffffff167c0100000000000000000000000000000000000000000000000000000000028152600401808273ffffffffffffffffffffffffffffffffffffffff1673ffffffffffffffffffffffffffffffffffffffff168152602001915050602060405180830381600087803b1580156125d657600080fd5b505af11580156125ea573d6000803e3d6000fd5b505050506040513d602081101561260057600080fd5b810190808051906020019092919050505010155b1561275657600360009054906101000a900473ffffffffffffffffffffffffffffffffffffffff1673ffffffffffffffffffffffffffffffffffffffff16634cbb72a8336005546040518363ffffffff167c0100000000000000000000000000000000000000000000000000000000028152600401808373ffffffffffffffffffffffffffffffffffffffff1673ffffffffffffffffffffffffffffffffffffffff168152602001828152602001806020018281038252601a8152602001807fec9790ec96b4eb939ceba1ad20ed94bdec858020ec9e85eab8880000000000008152506020019350505050602060405180830381600087803b15801561271957600080fd5b505af115801561272d573d6000803e3d6000fd5b505050506040513d602081101561274357600080fd5b8101908080519060200190929190505050505b8473ffffffffffffffffffffffffffffffffffffffff16612786600160048054905061315b90919063ffffffff16565b7f4504555238ffe753aefdea064ba3eccd8e7c7011ff785864368cc811524809638d8d604051808060200182810382528484828181526020019250808284378201915050935050505060405180910390a35050505050505050505050565b83838080601f0160208091040260200160405190810160405280939291908181526020018383808284378201915050505050506000815111151561282757600080fd5b82828080601f0160208091040260200160405190810160405280939291908181526020018383808284378201915050505050506000815111151561286a57600080fd5b61296a6004600160003373ffffffffffffffffffffffffffffffffffffffff1673ffffffffffffffffffffffffffffffffffffffff168152602001908152602001600020548154811015156128bb57fe5b90600052602060002090600502016000018054600181600116156101000203166002900480601f0160208091040260200160405190810160405280929190818152602001828054600181600116156101000203166002900480156129605780601f1061293557610100808354040283529160200191612960565b820191906000526020600020905b81548152906001019060200180831161294357829003601f168201915b50505050506117e3565b1515612a04576040517f08c379a00000000000000000000000000000000000000000000000000000000081526004018080602001828103825260318152602001807f536574206e65772070617373776f72642066616c6964203a20506c656173652081526020017f7265676973746572206163636f756e742e00000000000000000000000000000081525060400191505060405180910390fd5b612a7286868080601f01602080910402602001604051908101604052809392919081815260200183838082843782019150505050505085858080601f016020809104026020016040519081016040528093929190818152602001838380828437820191505050505050612b83565b1515612b0c576040517f08c379a000000000000000000000000000000000000000000000000000000000815260040180806020018281038252602f8152602001807f536574206e65772070617373776f72642066616c6964203a20436865636b207081526020017f617373776f726420737472696e672e000000000000000000000000000000000081525060400191505060405180910390fd5b85856004600160003373ffffffffffffffffffffffffffffffffffffffff1673ffffffffffffffffffffffffffffffffffffffff16815260200190815260200160002054815481101515612b5c57fe5b90600052602060002090600502016001019190612b7a9291906131fc565b50505050505050565b6000816040518082805190602001908083835b602083101515612bbb5780518252602082019150602081019050602083039250612b96565b6001836020036101000a038019825116818451168082178552505050505050905001915050604051809103902060001916836040518082805190602001908083835b602083101515612c225780518252602082019150602081019050602083039250612bfd565b6001836020036101000a03801982511681845116808217855250505050505090500191505060405180910390206000191614905092915050565b6060806040519050835180825260208201818101602087015b81831015612c925780518352602083019250602081019050612c75565b50855192508351830184528091508282019050602086015b81831015612cc75780518352602083019250602081019050612caa565b50601f19601f8851850115830101166040525050508091505092915050565b6000806000841415612cfb5760009150612d1d565b8284029050828482811515612d0c57fe5b04141515612d1957600080fd5b8091505b5092915050565b6000808284019050838110151515612d3b57600080fd5b8091505092915050565b600060606000600260009054906101000a900473ffffffffffffffffffffffffffffffffffffffff1673ffffffffffffffffffffffffffffffffffffffff16631fbd35646040518163ffffffff167c0100000000000000000000000000000000000000000000000000000000028152600401602060405180830381600087803b158015612dd157600080fd5b505af1158015612de5573d6000803e3d6000fd5b505050506040513d6020811015612dfb57600080fd5b810190808051906020019092919050505073ffffffffffffffffffffffffffffffffffffffff16635f8775396040518163ffffffff167c0100000000000000000000000000000000000000000000000000000000028152600401600060405180830381600087803b158015612e6f57600080fd5b505af1158015612e83573d6000803e3d6000fd5b505050506040513d6000823e3d601f19601f820116820180604052506020811015612ead57600080fd5b810190808051640100000000811115612ec557600080fd5b82810190506020810184811115612edb57600080fd5b8151856020820283011164010000000082111715612ef857600080fd5b50509291905050509150600082511415612f1157612f81565b600090505b8151811015612f80578373ffffffffffffffffffffffffffffffffffffffff168282815181101515612f4457fe5b9060200190602002015173ffffffffffffffffffffffffffffffffffffffff161415612f735760019250612f80565b8080600101915050612f16565b5b5050919050565b600080600260009054906101000a900473ffffffffffffffffffffffffffffffffffffffff1673ffffffffffffffffffffffffffffffffffffffff16636c7113e46040518163ffffffff167c0100000000000000000000000000000000000000000000000000000000028152600401602060405180830381600087803b15801561301157600080fd5b505af1158015613025573d6000803e3d6000fd5b505050506040513d602081101561303b57600080fd5b810190808051906020019092919050505073ffffffffffffffffffffffffffffffffffffffff1663b42c1d40846040518263ffffffff167c0100000000000000000000000000000000000000000000000000000000028152600401808273ffffffffffffffffffffffffffffffffffffffff1673ffffffffffffffffffffffffffffffffffffffff168152602001915050602060405180830381600087803b1580156130e657600080fd5b505af11580156130fa573d6000803e3d6000fd5b505050506040513d602081101561311057600080fd5b810190808051906020019092919050505090508373ffffffffffffffffffffffffffffffffffffffff168173ffffffffffffffffffffffffffffffffffffffff161491505092915050565b60008083831115151561316d57600080fd5b82840390508091505092915050565b828054600181600116156101000203166002900490600052602060002090601f016020900481019282601f106131bd57805160ff19168380011785556131eb565b828001600101855582156131eb579182015b828111156131ea5782518255916020019190600101906131cf565b5b5090506131f8919061327c565b5090565b828054600181600116156101000203166002900490600052602060002090601f016020900481019282601f1061323d57803560ff191683800117855561326b565b8280016001018555821561326b579182015b8281111561326a57823582559160200191906001019061324f565b5b509050613278919061327c565b5090565b61329e91905b8082111561329a576000816000905550600101613282565b5090565b905600a165627a7a72305820935a539fca90fe7faed16e117eb2b1b9ad626cdc1ee6b2d21d358f6363f5e4fd0029",
  "source": "pragma solidity ^0.4.24;\r\n\r\nimport \"openzeppelin-solidity/contracts/token/ERC20/SafeERC20.sol\";\r\n\r\nimport \"contracts/interface/ICouncil.sol\";\r\nimport \"contracts/interface/IContent.sol\";\r\nimport \"contracts/interface/IContentsManager.sol\";\r\nimport \"contracts/interface/IFundManager.sol\";\r\nimport \"contracts/interface/IAccountManager.sol\";\r\nimport \"contracts/token/CustomToken.sol\";\r\n\r\nimport \"contracts/utils/ValidValue.sol\";\r\nimport \"contracts/utils/BytesLib.sol\";\r\n\r\ncontract AccountManager is IAccountManager, ValidValue {\r\n    using SafeERC20 for IERC20;\r\n    using SafeMath for uint256;\r\n    using BytesLib for bytes;\r\n\r\n    struct Account {\r\n        string userName;\r\n        string password;\r\n        string privateKey;\r\n        address wallet;\r\n        mapping(address => bool) addressToFavorite;\r\n    }\r\n\r\n    mapping(string => uint256) userNameToIndex;\r\n    mapping(address => uint256) addressToIndex;\r\n\r\n    ICouncil council;\r\n    IERC20 token;\r\n    Account[] account;\r\n    uint256 airdropAmount;\r\n\r\n    constructor (address _council, uint256 _amount) public {\r\n        council = ICouncil(_council);\r\n        token = IERC20(council.getToken());\r\n        airdropAmount = _amount;\r\n    }\r\n\r\n    /**\r\n    * @dev   \r\n    * @param _userName  (ID)\r\n    * @param _password \r\n    * @param _privateKey    private key\r\n    * @param _wallet    public address\r\n    */\r\n    function createNewAccount(\r\n        string _userName,\r\n        string _password,\r\n        string _privateKey,\r\n        address _wallet\r\n    )\r\n        external\r\n        validAddress(_wallet) validString(_userName)\r\n        validString(_password) validString(_privateKey)\r\n    {\r\n        require(!isRegistered(_userName), \"Create new account failed: Registered user name.\");\r\n\r\n        account.push(Account(_userName, _password, _privateKey, _wallet));\r\n        userNameToIndex[_userName] = account.length.sub(1);\r\n        addressToIndex[_wallet] = account.length.sub(1);\r\n\r\n        if (airdropAmount > 0 && token.balanceOf(address(this)) >= airdropAmount) {\r\n            CustomToken(address(token)).transferPxl(msg.sender, airdropAmount, \"  \");\r\n        }\r\n\r\n        emit RegisterNewAccount(account.length.sub(1), _wallet, _userName);\r\n    }\r\n\r\n    /**\r\n    * @dev  \r\n    * @param _userName  (ID)\r\n    * @param _password \r\n    * @return key_    private key ,    \r\n    * @return result_   \r\n    */\r\n    function login(\r\n        string _userName,\r\n        string _password\r\n    )\r\n        external\r\n        view\r\n        validString(_userName) validString(_userName)\r\n        returns (string key_, bool result_)\r\n    {\r\n        if(account.length == 0 || !isRegistered(_userName)) {\r\n            key_ = \"Login failed: Please register account.\";\r\n            result_ = false;\r\n            return;\r\n        }\r\n\r\n        if(!_compareString(account[userNameToIndex[_userName]].password, _password)) {\r\n            key_ = \"Login failed: check register account.\";\r\n            result_ = false;\r\n            return;\r\n        }\r\n\r\n        key_ = account[userNameToIndex[_userName]].privateKey;\r\n        result_ = true;\r\n    }\r\n\r\n    /**\r\n    * @dev    \r\n    * @param _buyer  \r\n    * @param _contentsAddress    \r\n    * @param _episodeIndex    \r\n    * @param _episodePrice    \r\n    */\r\n    function setPurchaseHistory(\r\n        address _buyer,\r\n        address _contentsAddress,\r\n        uint256 _episodeIndex,\r\n        uint256 _episodePrice\r\n    )\r\n        external\r\n        validAddress(_contentsAddress) validAddress(_buyer)\r\n    {\r\n        require(council.getPixelDistributor() == msg.sender, \"Purchase failed: Access denied.\");\r\n        require(isRegistered(account[addressToIndex[_buyer]].userName), \"Purchase failed: Please register account.\");\r\n\r\n        emit PurchaseHistory(_buyer, _contentsAddress, _episodeIndex, _episodePrice);\r\n    }\r\n\r\n    /**\r\n    * @dev   \r\n    * @param _newPassword  \r\n    * @param _passwordValidation   \r\n    */\r\n    function setNewPassword(\r\n        string _newPassword,\r\n        string _passwordValidation\r\n    )\r\n        external\r\n        validString(_newPassword) validString(_passwordValidation)\r\n    {\r\n        require(isRegistered(account[addressToIndex[msg.sender]].userName), \"Set new password falid : Please register account.\");\r\n        require(_compareString(_newPassword, _passwordValidation), \"Set new password falid : Check password string.\");\r\n\r\n        account[addressToIndex[msg.sender]].password = _newPassword;\r\n    }\r\n\r\n    /** \r\n    * @dev   \r\n    * @param _supporter  \r\n    * @param _contentsAddress   \r\n    * @param _fundAddress fund contract \r\n    * @param _investedAmount  \r\n    * @param _refund  \r\n    */\r\n    function setSupportHistory(\r\n        address _supporter, \r\n        address _contentsAddress,\r\n        address _fundAddress,\r\n        uint256 _investedAmount,\r\n        bool _refund\r\n    )\r\n        external\r\n        validAddress(_supporter) validAddress(_fundAddress) validAddress(_contentsAddress)\r\n    {\r\n        require(_isFundContract(_fundAddress, _contentsAddress), \"Support history failed: Invalid address.\");\r\n        require(isRegistered(account[addressToIndex[_supporter]].userName), \"Support history failed: Please register account.\");\r\n\r\n        emit SupportHistory(_supporter, _contentsAddress, _fundAddress, _investedAmount, _refund);\r\n    }\r\n\r\n    function changeFavoriteContent(\r\n        address _user,\r\n        address _contentAddress\r\n    )\r\n        external\r\n        validAddress(_contentAddress) validAddress(_user)\r\n    {\r\n        require(_isContentContract(_contentAddress), \"Change favorite content failed: Invalid content address.\");\r\n        require(isRegistered(account[addressToIndex[_user]].userName), \"Change favorite content failed: Please register account.\");\r\n\r\n        if(account[addressToIndex[_user]].addressToFavorite[_contentAddress]) {\r\n            account[addressToIndex[_user]].addressToFavorite[_contentAddress] = false;\r\n        } else {\r\n            account[addressToIndex[_user]].addressToFavorite[_contentAddress] = true;\r\n        }\r\n    }\r\n\r\n    function getFavoriteContent(\r\n        address _user,\r\n        address _contentAddress\r\n    )\r\n        external\r\n        view\r\n        returns (bool isFavoriteContent_)\r\n    {\r\n        isFavoriteContent_ = account[addressToIndex[_user]].addressToFavorite[_contentAddress];\r\n    }\r\n\r\n    /**\r\n    * @dev   ID \r\n    * @param _userName  ID\r\n    * @return isRegistered_  \r\n    */\r\n    function isRegistered(\r\n        string _userName\r\n    )\r\n        public\r\n        view\r\n        validString(_userName)\r\n        returns (bool isRegistered_)\r\n    {\r\n        if(userNameToIndex[_userName] > 0) {\r\n            isRegistered_ = true;\r\n            return;\r\n        }\r\n\r\n        if(account.length > 0 && userNameToIndex[_userName] == 0 && _compareString(account[userNameToIndex[_userName]].userName, _userName)) {\r\n            isRegistered_ = true;\r\n            return;\r\n        }\r\n\r\n    }\r\n\r\n    /**\r\n    * @dev ID \r\n    * @param _wallet   \r\n    * @return userName_ ID\r\n    * @return result_  \r\n    */\r\n    function getUserName(\r\n        address _wallet\r\n    )\r\n        external\r\n        view\r\n        validAddress(_wallet)\r\n        returns (string memory userName_, bool result_)\r\n    {\r\n        if(account.length > 0 && account[addressToIndex[_wallet]].wallet == _wallet) {\r\n            userName_ = account[addressToIndex[_wallet]].userName;\r\n            result_ = true;\r\n        }\r\n    }\r\n\r\n    /**\r\n    * @dev ID \r\n    * @param _wallet    \r\n    * @return writer_  \r\n    * @return writerName_ bytes   \r\n    * @return spos_ bytes   writerName_ start index\r\n    * @return epos_ bytes   writerName_ end index\r\n    */\r\n    function getUserNames(\r\n        address[] _wallet\r\n    )\r\n        external\r\n        view\r\n        returns (address[] memory writer_, bytes memory writerName_, uint256[] memory spos_, uint256[] memory epos_)\r\n    {\r\n        uint256 writerNameLength = _wallet.length;\r\n\r\n        writer_ = _wallet;\r\n        spos_ = new uint256[](writerNameLength);\r\n        epos_ = new uint256[](writerNameLength);\r\n\r\n        uint256 tempLength;\r\n        for(uint256 i = 0 ; i < writerNameLength ; i++) {\r\n            bytes memory str = bytes(account[addressToIndex[writer_[i]]].userName);\r\n            spos_[i] = tempLength;\r\n            writerName_ = writerName_.concat(str);\r\n            tempLength = (tempLength == 0)? tempLength.add((str.length).mul(2).add(2)) : tempLength.add((str.length).mul(2));\r\n            epos_[i] = tempLength;\r\n        }\r\n    }\r\n\r\n    function _isFundContract(\r\n        address _fundAddress,\r\n        address _contentsAddress\r\n    )\r\n        private\r\n        view\r\n        returns (bool isFundContract_)\r\n    {\r\n        address fundAddress = IFundManager(council.getFundManager()).getFund(_contentsAddress);\r\n        \r\n        isFundContract_ = (fundAddress == _fundAddress);\r\n    }\r\n\r\n    function _isContentContract(\r\n        address _contentsAddress\r\n    )\r\n        private\r\n        view\r\n        returns (bool isContentContract_)\r\n    {\r\n        address[] memory contentsAddress = IContentsManager(council.getContentsManager()).getContentsAddress();\r\n        \r\n        if(contentsAddress.length == 0) {\r\n            return;\r\n        }\r\n\r\n        for(uint256 i = 0 ; i < contentsAddress.length ; i++){\r\n            if(contentsAddress[i] == _contentsAddress) {\r\n                isContentContract_ = true;\r\n                break;\r\n            }\r\n        }\r\n    }\r\n\r\n    function _compareString(\r\n        string _a,\r\n        string _b\r\n    )\r\n        private\r\n        pure\r\n        returns (bool)\r\n    {\r\n        return keccak256(_a) == keccak256(_b);\r\n    }\r\n}\r\n",
  "sourcePath": "C:\\piction\\piction-poc\\contracts\\user\\AccountManager.sol",
  "compiler": {
    "name": "solc",
    "version": "0.4.24+commit.e67f0147.Emscripten.clang"
  },
  "schemaVersion": "2.0.1",
  "updatedAt": "2018-11-12T08:32:35.175Z"
}