{
  "contractName": "Api",
  "abi": [
    {
      "constant": false,
      "inputs": [
        {
          "name": "guest",
          "type": "address"
        }
      ],
      "name": "addOwner",
      "outputs": [],
      "payable": false,
      "stateMutability": "nonpayable",
      "type": "function"
    },
    {
      "constant": false,
      "inputs": [
        {
          "name": "newOwner",
          "type": "address"
        }
      ],
      "name": "transferOwnership",
      "outputs": [],
      "payable": false,
      "stateMutability": "nonpayable",
      "type": "function"
    },
    {
      "inputs": [
        {
          "name": "_councilAddress",
          "type": "address"
        }
      ],
      "payable": false,
      "stateMutability": "nonpayable",
      "type": "constructor"
    },
    {
      "anonymous": false,
      "inputs": [
        {
          "indexed": true,
          "name": "previousOwner",
          "type": "address"
        },
        {
          "indexed": true,
          "name": "newOwner",
          "type": "address"
        }
      ],
      "name": "OwnershipTransferred",
      "type": "event"
    },
    {
      "anonymous": false,
      "inputs": [
        {
          "indexed": true,
          "name": "host",
          "type": "address"
        },
        {
          "indexed": true,
          "name": "guest",
          "type": "address"
        }
      ],
      "name": "OwnershipExtended",
      "type": "event"
    },
    {
      "constant": true,
      "inputs": [
        {
          "name": "contents",
          "type": "address[]"
        }
      ],
      "name": "getContentRecord",
      "outputs": [
        {
          "name": "records_",
          "type": "bytes"
        },
        {
          "name": "spos_",
          "type": "uint256[]"
        },
        {
          "name": "epos_",
          "type": "uint256[]"
        }
      ],
      "payable": false,
      "stateMutability": "view",
      "type": "function"
    },
    {
      "constant": true,
      "inputs": [
        {
          "name": "ids",
          "type": "uint256[]"
        }
      ],
      "name": "getReportResult",
      "outputs": [
        {
          "name": "complete_",
          "type": "bool[]"
        },
        {
          "name": "completeValid_",
          "type": "bool[]"
        },
        {
          "name": "completeAmount_",
          "type": "uint256[]"
        }
      ],
      "payable": false,
      "stateMutability": "view",
      "type": "function"
    }
  ],
  "bytecode": "0x608060405234801561001057600080fd5b50604051602080610d3a8339810180604052810190808051906020019092919050505060016000803373ffffffffffffffffffffffffffffffffffffffff1673ffffffffffffffffffffffffffffffffffffffff16815260200190815260200160002060006101000a81548160ff02191690831515021790555080600073ffffffffffffffffffffffffffffffffffffffff168173ffffffffffffffffffffffffffffffffffffffff16141515156100c757600080fd5b3073ffffffffffffffffffffffffffffffffffffffff168173ffffffffffffffffffffffffffffffffffffffff161415151561010257600080fd5b81600160006101000a81548173ffffffffffffffffffffffffffffffffffffffff021916908373ffffffffffffffffffffffffffffffffffffffff1602179055505050610be6806101546000396000f300608060405260043610610062576000357c0100000000000000000000000000000000000000000000000000000000900463ffffffff1680637065cb4814610067578063a8485ae1146100aa578063e900cc89146101ca578063f2fde38b1461030e575b600080fd5b34801561007357600080fd5b506100a8600480360381019080803573ffffffffffffffffffffffffffffffffffffffff169060200190929190505050610351565b005b3480156100b657600080fd5b506100e3600480360381019080803590602001908201803590602001919091929391929390505050610498565b60405180806020018060200180602001848103845287818151815260200191508051906020019060200280838360005b8381101561012e578082015181840152602081019050610113565b50505050905001848103835286818151815260200191508051906020019060200280838360005b83811015610170578082015181840152602081019050610155565b50505050905001848103825285818151815260200191508051906020019060200280838360005b838110156101b2578082015181840152602081019050610197565b50505050905001965050505050505060405180910390f35b3480156101d657600080fd5b506102036004803603810190808035906020019082018035906020019190919293919293905050506107d7565b60405180806020018060200180602001848103845287818151815260200191508051906020019080838360005b8381101561024b578082015181840152602081019050610230565b50505050905090810190601f1680156102785780820380516001836020036101000a031916815260200191505b50848103835286818151815260200191508051906020019060200280838360005b838110156102b4578082015181840152602081019050610299565b50505050905001848103825285818151815260200191508051906020019060200280838360005b838110156102f65780820151818401526020810190506102db565b50505050905001965050505050505060405180910390f35b34801561031a57600080fd5b5061034f600480360381019080803573ffffffffffffffffffffffffffffffffffffffff16906020019092919050505061099b565b005b6000803373ffffffffffffffffffffffffffffffffffffffff1673ffffffffffffffffffffffffffffffffffffffff16815260200190815260200160002060009054906101000a900460ff1615156103a857600080fd5b600073ffffffffffffffffffffffffffffffffffffffff168173ffffffffffffffffffffffffffffffffffffffff16141515156103e457600080fd5b60016000808373ffffffffffffffffffffffffffffffffffffffff1673ffffffffffffffffffffffffffffffffffffffff16815260200190815260200160002060006101000a81548160ff0219169083151502179055508073ffffffffffffffffffffffffffffffffffffffff163373ffffffffffffffffffffffffffffffffffffffff167f1d95aed2b82ae4cbdcccc214bb64bc277a20e8490d69a59d7f426c67fe46c61d60405160405180910390a350565b60608060606000858590506040519080825280602002602001820160405280156104d15781602001602082028038833980820191505090505b509350858590506040519080825280602002602001820160405280156105065781602001602082028038833980820191505090505b5092508585905060405190808252806020026020018201604052801561053b5781602001602082028038833980820191505090505b509150600090505b858590508110156107cf57600160009054906101000a900473ffffffffffffffffffffffffffffffffffffffff1673ffffffffffffffffffffffffffffffffffffffff1663e4085d676040518163ffffffff167c0100000000000000000000000000000000000000000000000000000000028152600401602060405180830381600087803b1580156105d457600080fd5b505af11580156105e8573d6000803e3d6000fd5b505050506040513d60208110156105fe57600080fd5b810190808051906020019092919050505073ffffffffffffffffffffffffffffffffffffffff16634e7f9b19878784818110151561063857fe5b905060200201356040518263ffffffff167c010000000000000000000000000000000000000000000000000000000002815260040180828152602001915050600060405180830381600087803b15801561069157600080fd5b505af11580156106a5573d6000803e3d6000fd5b505050506040513d6000823e3d601f19601f8201168201806040525060c08110156106cf57600080fd5b81019080805190602001909291908051906020019092919080516401000000008111156106fb57600080fd5b8281019050602081018481111561071157600080fd5b815185600182028301116401000000008211171561072e57600080fd5b5050929190602001805190602001909291908051906020019092919080519060200190929190505050909192939450909192935090919250868481518110151561077457fe5b906020019060200201868581518110151561078b57fe5b90602001906020020186868151811015156107a257fe5b90602001906020020183815250831515151581525083151515158152505050508080600101915050610543565b509250925092565b606080606060008060006060600091505b8888905082101561099057888883818110151561080157fe5b9050602002013573ffffffffffffffffffffffffffffffffffffffff1673ffffffffffffffffffffffffffffffffffffffff1663f18ad6fb6040518163ffffffff167c0100000000000000000000000000000000000000000000000000000000028152600401600060405180830381600087803b15801561088157600080fd5b505af1158015610895573d6000803e3d6000fd5b505050506040513d6000823e3d601f19601f8201168201806040525060208110156108bf57600080fd5b8101908080516401000000008111156108d757600080fd5b828101905060208101848111156108ed57600080fd5b815185600182028301116401000000008211171561090a57600080fd5b5050929190505050905083868481518110151561092357fe5b90602001906020020181815250506109448188610b3090919063ffffffff16565b96506000841461095a5760028151028401610964565b6002808251020184015b935083858481518110151561097557fe5b906020019060200201818152505081806001019250506107e8565b505050509250925092565b6000803373ffffffffffffffffffffffffffffffffffffffff1673ffffffffffffffffffffffffffffffffffffffff16815260200190815260200160002060009054906101000a900460ff1615156109f257600080fd5b600073ffffffffffffffffffffffffffffffffffffffff168173ffffffffffffffffffffffffffffffffffffffff1614151515610a2e57600080fd5b60016000808373ffffffffffffffffffffffffffffffffffffffff1673ffffffffffffffffffffffffffffffffffffffff16815260200190815260200160002060006101000a81548160ff0219169083151502179055506000803373ffffffffffffffffffffffffffffffffffffffff1673ffffffffffffffffffffffffffffffffffffffff16815260200190815260200160002060006101000a81549060ff02191690558073ffffffffffffffffffffffffffffffffffffffff163373ffffffffffffffffffffffffffffffffffffffff167f8be0079c531659141344cd1fd0a4f28419497f9722a3daafe3b4186f6b6457e060405160405180910390a350565b6060806040519050835180825260208201818101602087015b81831015610b665780518352602083019250602081019050610b49565b50855192508351830184528091508282019050602086015b81831015610b9b5780518352602083019250602081019050610b7e565b50601f19601f88518501158301011660405250505080915050929150505600a165627a7a72305820b4c593a70fa8df7dbcfe238802b5689dadebc3c8e09a6a68c7b22b970e8898aa0029",
  "source": "pragma solidity ^0.4.24;\r\n\r\nimport \"contracts/interface/ICouncil.sol\";\r\nimport \"contracts/interface/IContent.sol\";\r\nimport \"contracts/interface/IReport.sol\";\r\n\r\nimport \"contracts/utils/ValidValue.sol\";\r\nimport \"contracts/utils/ExtendsOwnable.sol\";\r\nimport \"contracts/utils/BytesLib.sol\";\r\n\r\ncontract Api is ValidValue, ExtendsOwnable {\r\n    using BytesLib for bytes;\r\n\r\n    //위원회\r\n    ICouncil council;\r\n\r\n    constructor(address _councilAddress) public validAddress(_councilAddress) {\r\n        council = ICouncil(_councilAddress);\r\n    }\r\n\r\n    /**\r\n    * @dev 컨텐츠의 주소 배열로 컨텐츠 내용을 records에 담아 회신한다\r\n    * @param contents 컨텐츠 주소 목록\r\n    */\r\n    function getContentRecord(address[] contents) external view returns(bytes memory records_, uint256[] memory spos_, uint256[] memory epos_) {\r\n        uint tempLength;\r\n        uint index;\r\n\r\n        for(uint i = 0; i < contents.length; i++) {\r\n            bytes memory str = bytes(IContent(contents[i]).getRecord());\r\n            spos_[index] = tempLength;\r\n            records_ = records_.concat(str);\r\n            tempLength = (tempLength == 0)? tempLength + ((str.length * 2) + 2): tempLength + (str.length * 2);\r\n            epos_[index] = tempLength;\r\n        }\r\n    }\r\n\r\n    /**\r\n    * @dev 신고 목록의 id 값으로 처리여부, 처리 결과, 토큰량을 회신한다\r\n    * @param ids 신고 id 목록\r\n    */\r\n    function getReportResult(uint256[] ids) external view returns(bool[] memory complete_, bool[] memory completeValid_, uint256[] memory completeAmount_) {\r\n        complete_ = new bool[](ids.length);\r\n        completeValid_ = new bool[](ids.length);\r\n        completeAmount_ = new uint256[](ids.length);\r\n\r\n        for(uint i = 0; i < ids.length; i++) {\r\n            (,,,complete_[i], completeValid_[i], completeAmount_[i]) = IReport(council.getReport()).getReport(ids[i]);\r\n        }\r\n    }\r\n}\r\n",
  "sourcePath": "C:\\piction\\piction-poc\\contracts\\api\\Api.sol",
  "compiler": {
    "name": "solc",
    "version": "0.4.24+commit.e67f0147.Emscripten.clang"
  },
  "schemaVersion": "2.0.1",
  "updatedAt": "2018-10-25T01:33:55.098Z"
}