{
  "contractName": "ApiContents",
  "abi": [
    {
      "constant": true,
      "inputs": [],
      "name": "contentsManager",
      "outputs": [
        {
          "name": "",
          "type": "address"
        }
      ],
      "payable": false,
      "stateMutability": "view",
      "type": "function"
    },
    {
      "constant": true,
      "inputs": [],
      "name": "council",
      "outputs": [
        {
          "name": "",
          "type": "address"
        }
      ],
      "payable": false,
      "stateMutability": "view",
      "type": "function"
    },
    {
      "inputs": [
        {
          "name": "_council",
          "type": "address"
        },
        {
          "name": "_contentsManager",
          "type": "address"
        }
      ],
      "payable": false,
      "stateMutability": "nonpayable",
      "type": "constructor"
    },
    {
      "constant": false,
      "inputs": [
        {
          "name": "_record",
          "type": "string"
        }
      ],
      "name": "createComic",
      "outputs": [],
      "payable": false,
      "stateMutability": "nonpayable",
      "type": "function"
    },
    {
      "constant": false,
      "inputs": [
        {
          "name": "_comicAddress",
          "type": "address"
        },
        {
          "name": "_record",
          "type": "string"
        }
      ],
      "name": "updateComic",
      "outputs": [],
      "payable": false,
      "stateMutability": "nonpayable",
      "type": "function"
    },
    {
      "constant": false,
      "inputs": [
        {
          "name": "_comicAddress",
          "type": "address"
        },
        {
          "name": "_record",
          "type": "string"
        },
        {
          "name": "_cuts",
          "type": "string"
        },
        {
          "name": "_price",
          "type": "uint256"
        },
        {
          "name": "_isPublished",
          "type": "bool"
        },
        {
          "name": "_publishDate",
          "type": "uint256"
        }
      ],
      "name": "createEpisode",
      "outputs": [],
      "payable": false,
      "stateMutability": "nonpayable",
      "type": "function"
    },
    {
      "constant": false,
      "inputs": [
        {
          "name": "_comicAddress",
          "type": "address"
        },
        {
          "name": "_index",
          "type": "uint256"
        },
        {
          "name": "_record",
          "type": "string"
        },
        {
          "name": "_cuts",
          "type": "string"
        },
        {
          "name": "_price",
          "type": "uint256"
        },
        {
          "name": "_isPublished",
          "type": "bool"
        },
        {
          "name": "_publishDate",
          "type": "uint256"
        }
      ],
      "name": "updateEpisode",
      "outputs": [],
      "payable": false,
      "stateMutability": "nonpayable",
      "type": "function"
    },
    {
      "constant": false,
      "inputs": [
        {
          "name": "_comicAddress",
          "type": "address"
        }
      ],
      "name": "updateFavorite",
      "outputs": [],
      "payable": false,
      "stateMutability": "nonpayable",
      "type": "function"
    },
    {
      "constant": true,
      "inputs": [
        {
          "name": "_comicAddress",
          "type": "address"
        }
      ],
      "name": "getFavorite",
      "outputs": [
        {
          "name": "isFavoriteContent_",
          "type": "bool"
        }
      ],
      "payable": false,
      "stateMutability": "view",
      "type": "function"
    },
    {
      "constant": true,
      "inputs": [],
      "name": "getComics",
      "outputs": [
        {
          "name": "comicAddress_",
          "type": "address[]"
        },
        {
          "name": "records_",
          "type": "bytes"
        },
        {
          "name": "writer_",
          "type": "address[]"
        },
        {
          "name": "totalPurchasedCount_",
          "type": "uint256[]"
        },
        {
          "name": "totalPurchasedAmount_",
          "type": "uint256[]"
        },
        {
          "name": "contentCreationTime_",
          "type": "uint256[]"
        },
        {
          "name": "episodeLastUpdatedTime_",
          "type": "uint256[]"
        }
      ],
      "payable": false,
      "stateMutability": "view",
      "type": "function"
    },
    {
      "constant": true,
      "inputs": [
        {
          "name": "_comicAddress",
          "type": "address[]"
        }
      ],
      "name": "getComicsByAddress",
      "outputs": [
        {
          "name": "comicAddress_",
          "type": "address[]"
        },
        {
          "name": "records_",
          "type": "bytes"
        },
        {
          "name": "writer_",
          "type": "address[]"
        },
        {
          "name": "totalPurchasedCount_",
          "type": "uint256[]"
        },
        {
          "name": "totalPurchasedAmount_",
          "type": "uint256[]"
        },
        {
          "name": "contentCreationTime_",
          "type": "uint256[]"
        },
        {
          "name": "episodeLastUpdatedTime_",
          "type": "uint256[]"
        }
      ],
      "payable": false,
      "stateMutability": "view",
      "type": "function"
    },
    {
      "constant": true,
      "inputs": [
        {
          "name": "_comicAddress",
          "type": "address"
        }
      ],
      "name": "getComic",
      "outputs": [
        {
          "name": "records_",
          "type": "string"
        },
        {
          "name": "writer_",
          "type": "address"
        },
        {
          "name": "writerName_",
          "type": "string"
        },
        {
          "name": "isFavorite",
          "type": "bool"
        }
      ],
      "payable": false,
      "stateMutability": "view",
      "type": "function"
    },
    {
      "constant": true,
      "inputs": [
        {
          "name": "_comicAddress",
          "type": "address"
        }
      ],
      "name": "getEpisodes",
      "outputs": [
        {
          "name": "records_",
          "type": "bytes"
        },
        {
          "name": "price_",
          "type": "uint256[]"
        },
        {
          "name": "isPurchased_",
          "type": "bool[]"
        },
        {
          "name": "episodeCreationTime_",
          "type": "uint256[]"
        },
        {
          "name": "episodeIndex_",
          "type": "uint256[]"
        }
      ],
      "payable": false,
      "stateMutability": "view",
      "type": "function"
    },
    {
      "constant": true,
      "inputs": [
        {
          "name": "_comicAddress",
          "type": "address"
        },
        {
          "name": "_index",
          "type": "uint256"
        }
      ],
      "name": "getEpisode",
      "outputs": [
        {
          "name": "records_",
          "type": "string"
        },
        {
          "name": "price_",
          "type": "uint256"
        },
        {
          "name": "buyCount_",
          "type": "uint256"
        },
        {
          "name": "isPurchased_",
          "type": "bool"
        },
        {
          "name": "isPublished_",
          "type": "bool"
        },
        {
          "name": "publishDate_",
          "type": "uint256"
        },
        {
          "name": "episodeCreationTime_",
          "type": "uint256"
        }
      ],
      "payable": false,
      "stateMutability": "view",
      "type": "function"
    },
    {
      "constant": true,
      "inputs": [],
      "name": "getMyComics",
      "outputs": [
        {
          "name": "comicAddress_",
          "type": "address[]"
        },
        {
          "name": "isBlockComic_",
          "type": "bool[]"
        },
        {
          "name": "records_",
          "type": "bytes"
        },
        {
          "name": "totalPurchasedAmount_",
          "type": "uint256[]"
        },
        {
          "name": "publishedEpisode_",
          "type": "uint256[]"
        },
        {
          "name": "privateEpisode_",
          "type": "uint256[]"
        }
      ],
      "payable": false,
      "stateMutability": "view",
      "type": "function"
    },
    {
      "constant": true,
      "inputs": [
        {
          "name": "_comicAddress",
          "type": "address"
        }
      ],
      "name": "getMyEpisodes",
      "outputs": [
        {
          "name": "records_",
          "type": "bytes"
        },
        {
          "name": "price_",
          "type": "uint256[]"
        },
        {
          "name": "purchasedAmount_",
          "type": "uint256[]"
        },
        {
          "name": "isPublished_",
          "type": "bool[]"
        },
        {
          "name": "publishDate_",
          "type": "uint256[]"
        },
        {
          "name": "episodeIndex_",
          "type": "uint256[]"
        }
      ],
      "payable": false,
      "stateMutability": "view",
      "type": "function"
    },
    {
      "constant": true,
      "inputs": [
        {
          "name": "_comicAddress",
          "type": "address"
        }
      ],
      "name": "getComicSales",
      "outputs": [
        {
          "name": "totalPurchasedAmount_",
          "type": "uint256"
        },
        {
          "name": "totalPurchasedCount_",
          "type": "uint256"
        },
        {
          "name": "favoriteCount_",
          "type": "uint256"
        },
        {
          "name": "totalPurchasedUserCount_",
          "type": "uint256"
        }
      ],
      "payable": false,
      "stateMutability": "view",
      "type": "function"
    },
    {
      "constant": true,
      "inputs": [
        {
          "name": "_comicAddress",
          "type": "address"
        },
        {
          "name": "_index",
          "type": "uint256"
        }
      ],
      "name": "getCuts",
      "outputs": [
        {
          "name": "cuts_",
          "type": "string"
        }
      ],
      "payable": false,
      "stateMutability": "view",
      "type": "function"
    },
    {
      "constant": true,
      "inputs": [
        {
          "name": "_writerAddress",
          "type": "address"
        }
      ],
      "name": "getInitialDeposit",
      "outputs": [
        {
          "name": "initialDeposit_",
          "type": "uint256"
        }
      ],
      "payable": false,
      "stateMutability": "view",
      "type": "function"
    },
    {
      "constant": true,
      "inputs": [
        {
          "name": "_contentsAddress",
          "type": "address"
        }
      ],
      "name": "getEpisodeLength",
      "outputs": [
        {
          "name": "episodeLength_",
          "type": "uint256"
        }
      ],
      "payable": false,
      "stateMutability": "view",
      "type": "function"
    },
    {
      "constant": true,
      "inputs": [
        {
          "name": "_comicAddress",
          "type": "address"
        },
        {
          "name": "_index",
          "type": "uint256"
        },
        {
          "name": "_user",
          "type": "address"
        }
      ],
      "name": "isPurchasedEpisode",
      "outputs": [
        {
          "name": "isPurchased_",
          "type": "bool"
        }
      ],
      "payable": false,
      "stateMutability": "view",
      "type": "function"
    }
  ],
  "bytecode": "0x60806040523480156200001157600080fd5b506040516040806200557b833981018060405281019080805190602001909291908051906020019092919050505081600073ffffffffffffffffffffffffffffffffffffffff168173ffffffffffffffffffffffffffffffffffffffff16141515156200007d57600080fd5b3073ffffffffffffffffffffffffffffffffffffffff168173ffffffffffffffffffffffffffffffffffffffff1614151515620000b957600080fd5b81600073ffffffffffffffffffffffffffffffffffffffff168173ffffffffffffffffffffffffffffffffffffffff1614151515620000f757600080fd5b3073ffffffffffffffffffffffffffffffffffffffff168173ffffffffffffffffffffffffffffffffffffffff16141515156200013357600080fd5b836000806101000a81548173ffffffffffffffffffffffffffffffffffffffff021916908373ffffffffffffffffffffffffffffffffffffffff16021790555082600160006101000a81548173ffffffffffffffffffffffffffffffffffffffff021916908373ffffffffffffffffffffffffffffffffffffffff160217905550505050506153b380620001c86000396000f300608060405260043610610112576000357c0100000000000000000000000000000000000000000000000000000000900463ffffffff168063213c667e146101175780632a29ba58146101725780634578be36146101cd57806352724af3146103c5578063550ac3cc146104315780637526e3f1146104c4578063785721291461072857806385c5eb39146108205780638a339fcf1461086357806397c9e79c146108ba5780639e3a639814610ade578063a3cb97a714610cba578063b65b4ad114610d3f578063ba922de914610f7f578063c35b283314610fd6578063c3e870de14611073578063c78fdd91146111d9578063d000d89214611230578063e2c6d41c146112f6578063e4680e671461134d575b600080fd5b34801561012357600080fd5b50610158600480360381019080803573ffffffffffffffffffffffffffffffffffffffff169060200190929190505050611388565b604051808215151515815260200191505060405180910390f35b34801561017e57600080fd5b506101cb600480360381019080803573ffffffffffffffffffffffffffffffffffffffff16906020019092919080359060200190820180359060200191909192939192939050505061155a565b005b3480156101d957600080fd5b506101e2611809565b6040518080602001806020018060200180602001806020018060200187810387528d818151815260200191508051906020019060200280838360005b8381101561023957808201518184015260208101905061021e565b5050505090500187810386528c818151815260200191508051906020019060200280838360005b8381101561027b578082015181840152602081019050610260565b5050505090500187810385528b818151815260200191508051906020019080838360005b838110156102ba57808201518184015260208101905061029f565b50505050905090810190601f1680156102e75780820380516001836020036101000a031916815260200191505b5087810384528a818151815260200191508051906020019060200280838360005b83811015610323578082015181840152602081019050610308565b50505050905001878103835289818151815260200191508051906020019060200280838360005b8381101561036557808201518184015260208101905061034a565b50505050905001878103825288818151815260200191508051906020019060200280838360005b838110156103a757808201518184015260208101905061038c565b505050509050019c5050505050505050505050505060405180910390f35b3480156103d157600080fd5b50610406600480360381019080803573ffffffffffffffffffffffffffffffffffffffff169060200190929190505050611f2c565b6040518085815260200184815260200183815260200182815260200194505050505060405180910390f35b34801561043d57600080fd5b506104c2600480360381019080803573ffffffffffffffffffffffffffffffffffffffff1690602001909291908035906020019082018035906020019190919293919293908035906020019082018035906020019190919293919293908035906020019092919080351515906020019092919080359060200190929190505050612006565b005b3480156104d057600080fd5b506104fd60048036038101908080359060200190820180359060200191909192939192939050505061233c565b604051808060200180602001806020018060200180602001806020018060200188810388528f818151815260200191508051906020019060200280838360005b8381101561055857808201518184015260208101905061053d565b5050505090500188810387528e818151815260200191508051906020019080838360005b8381101561059757808201518184015260208101905061057c565b50505050905090810190601f1680156105c45780820380516001836020036101000a031916815260200191505b5088810386528d818151815260200191508051906020019060200280838360005b838110156106005780820151818401526020810190506105e5565b5050505090500188810385528c818151815260200191508051906020019060200280838360005b83811015610642578082015181840152602081019050610627565b5050505090500188810384528b818151815260200191508051906020019060200280838360005b83811015610684578082015181840152602081019050610669565b5050505090500188810383528a818151815260200191508051906020019060200280838360005b838110156106c65780820151818401526020810190506106ab565b50505050905001888103825289818151815260200191508051906020019060200280838360005b838110156107085780820151818401526020810190506106ed565b505050509050019e50505050505050505050505050505060405180910390f35b34801561073457600080fd5b50610773600480360381019080803573ffffffffffffffffffffffffffffffffffffffff16906020019092919080359060200190929190505050612760565b60405180806020018881526020018781526020018615151515815260200185151515158152602001848152602001838152602001828103825289818151815260200191508051906020019080838360005b838110156107df5780820151818401526020810190506107c4565b50505050905090810190601f16801561080c5780820380516001836020036101000a031916815260200191505b509850505050505050505060405180910390f35b34801561082c57600080fd5b50610861600480360381019080803573ffffffffffffffffffffffffffffffffffffffff16906020019092919050505061292d565b005b34801561086f57600080fd5b50610878612be8565b604051808273ffffffffffffffffffffffffffffffffffffffff1673ffffffffffffffffffffffffffffffffffffffff16815260200191505060405180910390f35b3480156108c657600080fd5b506108fb600480360381019080803573ffffffffffffffffffffffffffffffffffffffff169060200190929190505050612c0e565b6040518080602001806020018060200180602001806020018060200187810387528d818151815260200191508051906020019080838360005b8381101561094f578082015181840152602081019050610934565b50505050905090810190601f16801561097c5780820380516001836020036101000a031916815260200191505b5087810386528c818151815260200191508051906020019060200280838360005b838110156109b857808201518184015260208101905061099d565b5050505090500187810385528b818151815260200191508051906020019060200280838360005b838110156109fa5780820151818401526020810190506109df565b5050505090500187810384528a818151815260200191508051906020019060200280838360005b83811015610a3c578082015181840152602081019050610a21565b50505050905001878103835289818151815260200191508051906020019060200280838360005b83811015610a7e578082015181840152602081019050610a63565b50505050905001878103825288818151815260200191508051906020019060200280838360005b83811015610ac0578082015181840152602081019050610aa5565b505050509050019c5050505050505050505050505060405180910390f35b348015610aea57600080fd5b50610b1f600480360381019080803573ffffffffffffffffffffffffffffffffffffffff1690602001909291905050506131f3565b60405180806020018060200180602001806020018060200186810386528b818151815260200191508051906020019080838360005b83811015610b6f578082015181840152602081019050610b54565b50505050905090810190601f168015610b9c5780820380516001836020036101000a031916815260200191505b5086810385528a818151815260200191508051906020019060200280838360005b83811015610bd8578082015181840152602081019050610bbd565b50505050905001868103845289818151815260200191508051906020019060200280838360005b83811015610c1a578082015181840152602081019050610bff565b50505050905001868103835288818151815260200191508051906020019060200280838360005b83811015610c5c578082015181840152602081019050610c41565b50505050905001868103825287818151815260200191508051906020019060200280838360005b83811015610c9e578082015181840152602081019050610c83565b505050509050019a505050505050505050505060405180910390f35b348015610cc657600080fd5b50610d25600480360381019080803573ffffffffffffffffffffffffffffffffffffffff16906020019092919080359060200190929190803573ffffffffffffffffffffffffffffffffffffffff169060200190929190505050613780565b604051808215151515815260200191505060405180910390f35b348015610d4b57600080fd5b50610d54613869565b604051808060200180602001806020018060200180602001806020018060200188810388528f818151815260200191508051906020019060200280838360005b83811015610daf578082015181840152602081019050610d94565b5050505090500188810387528e818151815260200191508051906020019080838360005b83811015610dee578082015181840152602081019050610dd3565b50505050905090810190601f168015610e1b5780820380516001836020036101000a031916815260200191505b5088810386528d818151815260200191508051906020019060200280838360005b83811015610e57578082015181840152602081019050610e3c565b5050505090500188810385528c818151815260200191508051906020019060200280838360005b83811015610e99578082015181840152602081019050610e7e565b5050505090500188810384528b818151815260200191508051906020019060200280838360005b83811015610edb578082015181840152602081019050610ec0565b5050505090500188810383528a818151815260200191508051906020019060200280838360005b83811015610f1d578082015181840152602081019050610f02565b50505050905001888103825289818151815260200191508051906020019060200280838360005b83811015610f5f578082015181840152602081019050610f44565b505050509050019e50505050505050505050505050505060405180910390f35b348015610f8b57600080fd5b50610fc0600480360381019080803573ffffffffffffffffffffffffffffffffffffffff169060200190929190505050613d22565b6040518082815260200191505060405180910390f35b348015610fe257600080fd5b50611071600480360381019080803573ffffffffffffffffffffffffffffffffffffffff169060200190929190803590602001909291908035906020019082018035906020019190919293919293908035906020019082018035906020019190919293919293908035906020019092919080351515906020019092919080359060200190929190505050613e23565b005b34801561107f57600080fd5b506110b4600480360381019080803573ffffffffffffffffffffffffffffffffffffffff169060200190929190505050614207565b60405180806020018573ffffffffffffffffffffffffffffffffffffffff1673ffffffffffffffffffffffffffffffffffffffff1681526020018060200184151515158152602001838103835287818151815260200191508051906020019080838360005b83811015611134578082015181840152602081019050611119565b50505050905090810190601f1680156111615780820380516001836020036101000a031916815260200191505b50838103825285818151815260200191508051906020019080838360005b8381101561119a57808201518184015260208101905061117f565b50505050905090810190601f1680156111c75780820380516001836020036101000a031916815260200191505b50965050505050505060405180910390f35b3480156111e557600080fd5b5061121a600480360381019080803573ffffffffffffffffffffffffffffffffffffffff16906020019092919050505061445a565b6040518082815260200191505060405180910390f35b34801561123c57600080fd5b5061127b600480360381019080803573ffffffffffffffffffffffffffffffffffffffff16906020019092919080359060200190929190505050614502565b6040518080602001828103825283818151815260200191508051906020019080838360005b838110156112bb5780820151818401526020810190506112a0565b50505050905090810190601f1680156112e85780820380516001836020036101000a031916815260200191505b509250505060405180910390f35b34801561130257600080fd5b5061130b614651565b604051808273ffffffffffffffffffffffffffffffffffffffff1673ffffffffffffffffffffffffffffffffffffffff16815260200191505060405180910390f35b34801561135957600080fd5b50611386600480360381019080803590602001908201803590602001919091929391929390505050614676565b005b60008060009054906101000a900473ffffffffffffffffffffffffffffffffffffffff1673ffffffffffffffffffffffffffffffffffffffff1663b3032be86040518163ffffffff167c0100000000000000000000000000000000000000000000000000000000028152600401602060405180830381600087803b15801561140f57600080fd5b505af1158015611423573d6000803e3d6000fd5b505050506040513d602081101561143957600080fd5b810190808051906020019092919050505073ffffffffffffffffffffffffffffffffffffffff1663b6425e4933846040518363ffffffff167c0100000000000000000000000000000000000000000000000000000000028152600401808373ffffffffffffffffffffffffffffffffffffffff1673ffffffffffffffffffffffffffffffffffffffff1681526020018273ffffffffffffffffffffffffffffffffffffffff1673ffffffffffffffffffffffffffffffffffffffff16815260200192505050602060405180830381600087803b15801561151857600080fd5b505af115801561152c573d6000803e3d6000fd5b505050506040513d602081101561154257600080fd5b81019080805190602001909291905050509050919050565b600083600073ffffffffffffffffffffffffffffffffffffffff168173ffffffffffffffffffffffffffffffffffffffff161415151561159957600080fd5b3073ffffffffffffffffffffffffffffffffffffffff168173ffffffffffffffffffffffffffffffffffffffff16141515156115d457600080fd5b83838080601f0160208091040260200160405190810160405280939291908181526020018383808284378201915050505050506000815111151561161757600080fd5b61162086614dd7565b15156116ba576040517f08c379a00000000000000000000000000000000000000000000000000000000081526004018080602001828103825260368152602001807f55706461746520636f6e74656e7473206661696c65643a20556e72656769737481526020017f6572656420636f6e74656e747320616464726573732e0000000000000000000081525060400191505060405180910390fd5b8592506116c683614fb7565b1515611760576040517f08c379a00000000000000000000000000000000000000000000000000000000081526004018080602001828103825260268152602001807f55706461746520636f6e74656e7473206661696c65643a20416363657373206481526020017f656e6965642e000000000000000000000000000000000000000000000000000081525060400191505060405180910390fd5b8273ffffffffffffffffffffffffffffffffffffffff1663339218d986866040518363ffffffff167c01000000000000000000000000000000000000000000000000000000000281526004018080602001828103825284848281815260200192508082843782019150509350505050600060405180830381600087803b1580156117e957600080fd5b505af11580156117fd573d6000803e3d6000fd5b50505050505050505050565b606080606080606080600080600160009054906101000a900473ffffffffffffffffffffffffffffffffffffffff1673ffffffffffffffffffffffffffffffffffffffff16632b4e75a9336040518263ffffffff167c0100000000000000000000000000000000000000000000000000000000028152600401808273ffffffffffffffffffffffffffffffffffffffff1673ffffffffffffffffffffffffffffffffffffffff168152602001915050600060405180830381600087803b1580156118d257600080fd5b505af11580156118e6573d6000803e3d6000fd5b505050506040513d6000823e3d601f19601f82011682018060405250602081101561191057600080fd5b81019080805164010000000081111561192857600080fd5b8281019050602081018481111561193e57600080fd5b815185602082028301116401000000008211171561195b57600080fd5b5050929190505050975060008851141561197457611f22565b87516040519080825280602002602001820160405280156119a45781602001602082028038833980820191505090505b50965087516040519080825280602002602001820160405280156119d75781602001602082028038833980820191505090505b5094508751604051908082528060200260200182016040528015611a0a5781602001602082028038833980820191505090505b5093508751604051908082528060200260200182016040528015611a3d5781602001602082028038833980820191505090505b509250611a498861509b565b9550600090505b8751811015611f21573373ffffffffffffffffffffffffffffffffffffffff168882815181101515611a7e57fe5b9060200190602002015173ffffffffffffffffffffffffffffffffffffffff1663d66e57266040518163ffffffff167c0100000000000000000000000000000000000000000000000000000000028152600401602060405180830381600087803b158015611aeb57600080fd5b505af1158015611aff573d6000803e3d6000fd5b505050506040513d6020811015611b1557600080fd5b810190808051906020019092919050505073ffffffffffffffffffffffffffffffffffffffff161415611f14578781815181101515611b5057fe5b9060200190602002015173ffffffffffffffffffffffffffffffffffffffff1663e5c37bf76040518163ffffffff167c0100000000000000000000000000000000000000000000000000000000028152600401602060405180830381600087803b158015611bbd57600080fd5b505af1158015611bd1573d6000803e3d6000fd5b505050506040513d6020811015611be757600080fd5b81019080805190602001909291905050508782815181101515611c0657fe5b90602001906020020190151590811515815250508781815181101515611c2857fe5b9060200190602002015173ffffffffffffffffffffffffffffffffffffffff1663ff6e67926040518163ffffffff167c0100000000000000000000000000000000000000000000000000000000028152600401602060405180830381600087803b158015611c9557600080fd5b505af1158015611ca9573d6000803e3d6000fd5b505050506040513d6020811015611cbf57600080fd5b81019080805190602001909291905050508582815181101515611cde57fe5b90602001906020020181815250508781815181101515611cfa57fe5b9060200190602002015173ffffffffffffffffffffffffffffffffffffffff16632ea1f9aa6040518163ffffffff167c0100000000000000000000000000000000000000000000000000000000028152600401602060405180830381600087803b158015611d6757600080fd5b505af1158015611d7b573d6000803e3d6000fd5b505050506040513d6020811015611d9157600080fd5b810190808051906020019092919050505091508781815181101515611db257fe5b9060200190602002015173ffffffffffffffffffffffffffffffffffffffff1663c645888a6040518163ffffffff167c0100000000000000000000000000000000000000000000000000000000028152600401600060405180830381600087803b158015611e1f57600080fd5b505af1158015611e33573d6000803e3d6000fd5b505050506040513d6000823e3d601f19601f820116820180604052506020811015611e5d57600080fd5b810190808051640100000000811115611e7557600080fd5b82810190506020810184811115611e8b57600080fd5b8151856020820283011164010000000082111715611ea857600080fd5b5050929190505050518482815181101515611ebf57fe5b9060200190602002018181525050611ef78482815181101515611ede57fe5b90602001906020020151836152dc90919063ffffffff16565b8382815181101515611f0557fe5b90602001906020020181815250505b8080600101915050611a50565b5b5050909192939495565b6000806000808473ffffffffffffffffffffffffffffffffffffffff166319ce5ee16040518163ffffffff167c0100000000000000000000000000000000000000000000000000000000028152600401608060405180830381600087803b158015611f9657600080fd5b505af1158015611faa573d6000803e3d6000fd5b505050506040513d6080811015611fc057600080fd5b8101908080519060200190929190805190602001909291908051906020019092919080519060200190929190505050809450819550829650839750505050509193509193565b600088600073ffffffffffffffffffffffffffffffffffffffff168173ffffffffffffffffffffffffffffffffffffffff161415151561204557600080fd5b3073ffffffffffffffffffffffffffffffffffffffff168173ffffffffffffffffffffffffffffffffffffffff161415151561208057600080fd5b88888080601f016020809104026020016040519081016040528093929190818152602001838380828437820191505050505050600081511115156120c357600080fd5b87878080601f0160208091040260200160405190810160405280939291908181526020018383808284378201915050505050506000815111151561210657600080fd5b61210f8c614dd7565b15156121a9576040517f08c379a00000000000000000000000000000000000000000000000000000000081526004018080602001828103825260328152602001807f41646420657069736f6465206661696c65643a20556e7265676973746572656481526020017f20636f6e74656e747320616464726573732e000000000000000000000000000081525060400191505060405180910390fd5b8b93506121b584614fb7565b151561224f576040517f08c379a00000000000000000000000000000000000000000000000000000000081526004018080602001828103825260228152602001807f41646420657069736f6465206661696c65643a204163636573732064656e696581526020017f642e00000000000000000000000000000000000000000000000000000000000081525060400191505060405180910390fd5b8373ffffffffffffffffffffffffffffffffffffffff16633c87a0178c8c8c8c8c8c8c6040518863ffffffff167c01000000000000000000000000000000000000000000000000000000000281526004018080602001806020018681526020018515151515815260200184815260200183810383528a8a828181526020019250808284378201915050838103825288888281815260200192508082843782019150509950505050505050505050600060405180830381600087803b15801561231657600080fd5b505af115801561232a573d6000803e3d6000fd5b50505050505050505050505050505050565b60608060608060608060606000808a8a9050141561235957612753565b6123918a8a8080602002602001604051908101604052809392919081815260200183836020028082843782019150505050505061509b565b96508989808060200260200160405190810160405280939291908181526020018383602002808284378201915050505050509750898990506040519080825280602002602001820160405280156123f75781602001602082028038833980820191505090505b5095508989905060405190808252806020026020018201604052801561242c5781602001602082028038833980820191505090505b509450898990506040519080825280602002602001820160405280156124615781602001602082028038833980820191505090505b509350898990506040519080825280602002602001820160405280156124965781602001602082028038833980820191505090505b509250898990506040519080825280602002602001820160405280156124cb5781602001602082028038833980820191505090505b509150600090505b898990508110156127525789898281811015156124ec57fe5b9050602002013573ffffffffffffffffffffffffffffffffffffffff1673ffffffffffffffffffffffffffffffffffffffff1663a57ed0ea6040518163ffffffff167c0100000000000000000000000000000000000000000000000000000000028152600401600060405180830381600087803b15801561256c57600080fd5b505af1158015612580573d6000803e3d6000fd5b505050506040513d6000823e3d601f19601f8201168201806040525060e08110156125aa57600080fd5b8101908080516401000000008111156125c257600080fd5b828101905060208101848111156125d857600080fd5b81518560018202830111640100000000821117156125f557600080fd5b505092919060200180519060200190929190805164010000000081111561261b57600080fd5b8281019050602081018481111561263157600080fd5b815185600182028301116401000000008211171561264e57600080fd5b5050929190602001805190602001909291908051906020019092919080519060200190929190805190602001909291905050509091929394955090919293508a8681518110151561269b57fe5b9060200190602002018a878151811015156126b257fe5b9060200190602002018a888151811015156126c957fe5b9060200190602002018a898151811015156126e057fe5b9060200190602002018a8a8151811015156126f757fe5b906020019060200201858152508581525085815250858152508573ffffffffffffffffffffffffffffffffffffffff1673ffffffffffffffffffffffffffffffffffffffff16815250505050505080806001019150506124d3565b5b5092959891949750929550565b6060600080600080600080612776898933613780565b151561278157612921565b8873ffffffffffffffffffffffffffffffffffffffff166345d839a189336040518363ffffffff167c0100000000000000000000000000000000000000000000000000000000028152600401808381526020018273ffffffffffffffffffffffffffffffffffffffff1673ffffffffffffffffffffffffffffffffffffffff16815260200192505050600060405180830381600087803b15801561282457600080fd5b505af1158015612838573d6000803e3d6000fd5b505050506040513d6000823e3d601f19601f8201168201806040525061010081101561286357600080fd5b81019080805164010000000081111561287b57600080fd5b8281019050602081018481111561289157600080fd5b81518560018202830111640100000000821117156128ae57600080fd5b5050929190602001805190602001909291908051906020019092919080519060200190929190805190602001909291908051906020019092919080519060200190929190805190602001909291905050509091929350809750819850829950839a50849b50859c50869d50505050505050505b92959891949750929550565b600081600073ffffffffffffffffffffffffffffffffffffffff168173ffffffffffffffffffffffffffffffffffffffff161415151561296c57600080fd5b3073ffffffffffffffffffffffffffffffffffffffff168173ffffffffffffffffffffffffffffffffffffffff16141515156129a757600080fd5b6129b083611388565b91508273ffffffffffffffffffffffffffffffffffffffff16633a14771a836040518263ffffffff167c01000000000000000000000000000000000000000000000000000000000281526004018082151515158152602001915050600060405180830381600087803b158015612a2557600080fd5b505af1158015612a39573d6000803e3d6000fd5b505050506000809054906101000a900473ffffffffffffffffffffffffffffffffffffffff1673ffffffffffffffffffffffffffffffffffffffff1663b3032be86040518163ffffffff167c0100000000000000000000000000000000000000000000000000000000028152600401602060405180830381600087803b158015612ac257600080fd5b505af1158015612ad6573d6000803e3d6000fd5b505050506040513d6020811015612aec57600080fd5b810190808051906020019092919050505073ffffffffffffffffffffffffffffffffffffffff1663ba7e26d233856040518363ffffffff167c0100000000000000000000000000000000000000000000000000000000028152600401808373ffffffffffffffffffffffffffffffffffffffff1673ffffffffffffffffffffffffffffffffffffffff1681526020018273ffffffffffffffffffffffffffffffffffffffff1673ffffffffffffffffffffffffffffffffffffffff16815260200192505050600060405180830381600087803b158015612bcb57600080fd5b505af1158015612bdf573d6000803e3d6000fd5b50505050505050565b600160009054906101000a900473ffffffffffffffffffffffffffffffffffffffff1681565b606080606080606080600060608060608060003373ffffffffffffffffffffffffffffffffffffffff168d73ffffffffffffffffffffffffffffffffffffffff1663d66e57266040518163ffffffff167c0100000000000000000000000000000000000000000000000000000000028152600401602060405180830381600087803b158015612c9c57600080fd5b505af1158015612cb0573d6000803e3d6000fd5b505050506040513d6020811015612cc657600080fd5b810190808051906020019092919050505073ffffffffffffffffffffffffffffffffffffffff16141515612cf9576131e4565b8c73ffffffffffffffffffffffffffffffffffffffff16632ea1f9aa6040518163ffffffff167c0100000000000000000000000000000000000000000000000000000000028152600401602060405180830381600087803b158015612d5d57600080fd5b505af1158015612d71573d6000803e3d6000fd5b505050506040513d6020811015612d8757600080fd5b810190808051906020019092919050505095506000861415612da8576131e4565b85604051908082528060200260200182016040528015612dd75781602001602082028038833980820191505090505b509a5085604051908082528060200260200182016040528015612e095781602001602082028038833980820191505090505b50995085604051908082528060200260200182016040528015612e3b5781602001602082028038833980820191505090505b50985085604051908082528060200260200182016040528015612e6d5781602001602082028038833980820191505090505b50975085604051908082528060200260200182016040528015612e9f5781602001602082028038833980820191505090505b5096506040805190810160405280600181526020017f5b0000000000000000000000000000000000000000000000000000000000000081525094506040805190810160405280600181526020017f5d0000000000000000000000000000000000000000000000000000000000000081525093506040805190810160405280600181526020017f2c000000000000000000000000000000000000000000000000000000000000008152509250612f5d858d6152fd90919063ffffffff16565b9b50600090505b858110156131ce578c73ffffffffffffffffffffffffffffffffffffffff166345d839a182336040518363ffffffff167c0100000000000000000000000000000000000000000000000000000000028152600401808381526020018273ffffffffffffffffffffffffffffffffffffffff1673ffffffffffffffffffffffffffffffffffffffff16815260200192505050600060405180830381600087803b15801561300f57600080fd5b505af1158015613023573d6000803e3d6000fd5b505050506040513d6000823e3d601f19601f8201168201806040525061010081101561304e57600080fd5b81019080805164010000000081111561306657600080fd5b8281019050602081018481111561307c57600080fd5b815185600182028301116401000000008211171561309957600080fd5b50509291906020018051906020019092919080519060200190929190805190602001909291908051906020019092919080519060200190929190805190602001909291908051906020019092919050505090919293945090919250508f8681518110151561310357fe5b9060200190602002018f8781518110151561311a57fe5b9060200190602002018f8881518110151561313157fe5b9060200190602002018f8981518110151561314857fe5b9060200190602002018481525084151515158152508481525084815250849650505050505080878281518110151561317c57fe5b906020019060200201818152505061319d828d6152fd90919063ffffffff16565b9b5060018603811415156131c1576131be838d6152fd90919063ffffffff16565b9b505b8080600101915050612f64565b6131e1848d6152fd90919063ffffffff16565b9b505b50505050505091939550919395565b606080606080606080606080606060008a73ffffffffffffffffffffffffffffffffffffffff1663e5c37bf76040518163ffffffff167c0100000000000000000000000000000000000000000000000000000000028152600401602060405180830381600087803b15801561326757600080fd5b505af115801561327b573d6000803e3d6000fd5b505050506040513d602081101561329157600080fd5b8101908080519060200190929190505050156132ac57613772565b8a73ffffffffffffffffffffffffffffffffffffffff1663c645888a6040518163ffffffff167c0100000000000000000000000000000000000000000000000000000000028152600401600060405180830381600087803b15801561331057600080fd5b505af1158015613324573d6000803e3d6000fd5b505050506040513d6000823e3d601f19601f82011682018060405250602081101561334e57600080fd5b81019080805164010000000081111561336657600080fd5b8281019050602081018481111561337c57600080fd5b815185602082028301116401000000008211171561339957600080fd5b505092919050505095506000865114156133b257613772565b85516040519080825280602002602001820160405280156133e25781602001602082028038833980820191505090505b50985085516040519080825280602002602001820160405280156134155781602001602082028038833980820191505090505b50975085516040519080825280602002602001820160405280156134485781602001602082028038833980820191505090505b5096506040805190810160405280600181526020017f5b0000000000000000000000000000000000000000000000000000000000000081525094506040805190810160405280600181526020017f5d0000000000000000000000000000000000000000000000000000000000000081525093506040805190810160405280600181526020017f2c000000000000000000000000000000000000000000000000000000000000008152509250613506858b6152fd90919063ffffffff16565b9950600090505b855181101561375c578a73ffffffffffffffffffffffffffffffffffffffff166345d839a1878381518110151561354057fe5b90602001906020020151336040518363ffffffff167c0100000000000000000000000000000000000000000000000000000000028152600401808381526020018273ffffffffffffffffffffffffffffffffffffffff1673ffffffffffffffffffffffffffffffffffffffff16815260200192505050600060405180830381600087803b1580156135d057600080fd5b505af11580156135e4573d6000803e3d6000fd5b505050506040513d6000823e3d601f19601f8201168201806040525061010081101561360f57600080fd5b81019080805164010000000081111561362757600080fd5b8281019050602081018481111561363d57600080fd5b815185600182028301116401000000008211171561365a57600080fd5b505092919060200180519060200190929190805190602001909291908051906020019092919080519060200190929190805190602001909291908051906020019092919080519060200190929190505050909192939450909192935090915090508c858151811015156136c957fe5b9060200190602002018c868151811015156136e057fe5b9060200190602002018c878151811015156136f757fe5b906020019060200201838152508315151515815250838152508395505050505061372a828b6152fd90919063ffffffff16565b995060018651038114151561374f5761374c838b6152fd90919063ffffffff16565b99505b808060010191505061350d565b61376f848b6152fd90919063ffffffff16565b99505b505050505091939590929450565b60008373ffffffffffffffffffffffffffffffffffffffff1663a3ad167684846040518363ffffffff167c0100000000000000000000000000000000000000000000000000000000028152600401808381526020018273ffffffffffffffffffffffffffffffffffffffff1673ffffffffffffffffffffffffffffffffffffffff16815260200192505050602060405180830381600087803b15801561382557600080fd5b505af1158015613839573d6000803e3d6000fd5b505050506040513d602081101561384f57600080fd5b810190808051906020019092919050505090509392505050565b60608060608060608060606000600160009054906101000a900473ffffffffffffffffffffffffffffffffffffffff1673ffffffffffffffffffffffffffffffffffffffff1663b690b3056040518163ffffffff167c0100000000000000000000000000000000000000000000000000000000028152600401600060405180830381600087803b1580156138fc57600080fd5b505af1158015613910573d6000803e3d6000fd5b505050506040513d6000823e3d601f19601f82011682018060405250602081101561393a57600080fd5b81019080805164010000000081111561395257600080fd5b8281019050602081018481111561396857600080fd5b815185602082028301116401000000008211171561398557600080fd5b5050929190505050975060008851141561399e57613d18565b6139a78861509b565b965087516040519080825280602002602001820160405280156139d95781602001602082028038833980820191505090505b5095508751604051908082528060200260200182016040528015613a0c5781602001602082028038833980820191505090505b5094508751604051908082528060200260200182016040528015613a3f5781602001602082028038833980820191505090505b5093508751604051908082528060200260200182016040528015613a725781602001602082028038833980820191505090505b5092508751604051908082528060200260200182016040528015613aa55781602001602082028038833980820191505090505b509150600090505b8751811015613d17578781815181101515613ac457fe5b9060200190602002015173ffffffffffffffffffffffffffffffffffffffff1663a57ed0ea6040518163ffffffff167c0100000000000000000000000000000000000000000000000000000000028152600401600060405180830381600087803b158015613b3157600080fd5b505af1158015613b45573d6000803e3d6000fd5b505050506040513d6000823e3d601f19601f8201168201806040525060e0811015613b6f57600080fd5b810190808051640100000000811115613b8757600080fd5b82810190506020810184811115613b9d57600080fd5b8151856001820283011164010000000082111715613bba57600080fd5b5050929190602001805190602001909291908051640100000000811115613be057600080fd5b82810190506020810184811115613bf657600080fd5b8151856001820283011164010000000082111715613c1357600080fd5b5050929190602001805190602001909291908051906020019092919080519060200190929190805190602001909291905050509091929394955090919293508a86815181101515613c6057fe5b9060200190602002018a87815181101515613c7757fe5b9060200190602002018a88815181101515613c8e57fe5b9060200190602002018a89815181101515613ca557fe5b9060200190602002018a8a815181101515613cbc57fe5b906020019060200201858152508581525085815250858152508573ffffffffffffffffffffffffffffffffffffffff1673ffffffffffffffffffffffffffffffffffffffff1681525050505050508080600101915050613aad565b5b5090919293949596565b6000600160009054906101000a900473ffffffffffffffffffffffffffffffffffffffff1673ffffffffffffffffffffffffffffffffffffffff1663ba922de9836040518263ffffffff167c0100000000000000000000000000000000000000000000000000000000028152600401808273ffffffffffffffffffffffffffffffffffffffff1673ffffffffffffffffffffffffffffffffffffffff168152602001915050602060405180830381600087803b158015613de157600080fd5b505af1158015613df5573d6000803e3d6000fd5b505050506040513d6020811015613e0b57600080fd5b81019080805190602001909291905050509050919050565b600089600073ffffffffffffffffffffffffffffffffffffffff168173ffffffffffffffffffffffffffffffffffffffff1614151515613e6257600080fd5b3073ffffffffffffffffffffffffffffffffffffffff168173ffffffffffffffffffffffffffffffffffffffff1614151515613e9d57600080fd5b88888080601f01602080910402602001604051908101604052809392919081815260200183838082843782019150505050505060008151111515613ee057600080fd5b87878080601f01602080910402602001604051908101604052809392919081815260200183838082843782019150505050505060008151111515613f2357600080fd5b613f2c8d614dd7565b1515613fc6576040517f08c379a00000000000000000000000000000000000000000000000000000000081526004018080602001828103825260358152602001807f55706461746520657069736f6465206661696c65643a20556e7265676973746581526020017f72656420636f6e74656e747320616464726573732e000000000000000000000081525060400191505060405180910390fd5b8c9350613fd284614fb7565b151561406c576040517f08c379a00000000000000000000000000000000000000000000000000000000081526004018080602001828103825260258152602001807f55706461746520657069736f6465206661696c65643a2041636365737320646581526020017f6e6965642e00000000000000000000000000000000000000000000000000000081525060400191505060405180910390fd5b8b6140768e61445a565b111515614111576040517f08c379a00000000000000000000000000000000000000000000000000000000081526004018080602001828103825260318152602001807f55706461746520657069736f6465206661696c65643a20657069736f6465206981526020017f6e646578206f7574206f662072616e676500000000000000000000000000000081525060400191505060405180910390fd5b8373ffffffffffffffffffffffffffffffffffffffff1663a5bbcf1f8d8d8d8d8d8d8d8d6040518963ffffffff167c01000000000000000000000000000000000000000000000000000000000281526004018089815260200180602001806020018681526020018515151515815260200184815260200183810383528a8a828181526020019250808284378201915050838103825288888281815260200192508082843782019150509a5050505050505050505050600060405180830381600087803b1580156141e057600080fd5b505af11580156141f4573d6000803e3d6000fd5b5050505050505050505050505050505050565b60606000606060008473ffffffffffffffffffffffffffffffffffffffff1663e5c37bf76040518163ffffffff167c0100000000000000000000000000000000000000000000000000000000028152600401602060405180830381600087803b15801561427357600080fd5b505af1158015614287573d6000803e3d6000fd5b505050506040513d602081101561429d57600080fd5b8101908080519060200190929190505050156142b857614453565b8473ffffffffffffffffffffffffffffffffffffffff1663a57ed0ea6040518163ffffffff167c0100000000000000000000000000000000000000000000000000000000028152600401600060405180830381600087803b15801561431c57600080fd5b505af1158015614330573d6000803e3d6000fd5b505050506040513d6000823e3d601f19601f8201168201806040525060e081101561435a57600080fd5b81019080805164010000000081111561437257600080fd5b8281019050602081018481111561438857600080fd5b81518560018202830111640100000000821117156143a557600080fd5b50509291906020018051906020019092919080516401000000008111156143cb57600080fd5b828101905060208101848111156143e157600080fd5b81518560018202830111640100000000821117156143fe57600080fd5b5050929190602001805190602001909291908051906020019092919080519060200190929190805190602001909291905050509091925090915090505080945081955082965050505061445085611388565b90505b9193509193565b60008173ffffffffffffffffffffffffffffffffffffffff16632ea1f9aa6040518163ffffffff167c0100000000000000000000000000000000000000000000000000000000028152600401602060405180830381600087803b1580156144c057600080fd5b505af11580156144d4573d6000803e3d6000fd5b505050506040513d60208110156144ea57600080fd5b81019080805190602001909291905050509050919050565b606061450f838333613780565b1561464b578273ffffffffffffffffffffffffffffffffffffffff1663aed8ff6e83336040518363ffffffff167c0100000000000000000000000000000000000000000000000000000000028152600401808381526020018273ffffffffffffffffffffffffffffffffffffffff1673ffffffffffffffffffffffffffffffffffffffff16815260200192505050600060405180830381600087803b1580156145b757600080fd5b505af11580156145cb573d6000803e3d6000fd5b505050506040513d6000823e3d601f19601f8201168201806040525060208110156145f557600080fd5b81019080805164010000000081111561460d57600080fd5b8281019050602081018481111561462357600080fd5b815185600182028301116401000000008211171561464057600080fd5b505092919050505090505b92915050565b6000809054906101000a900473ffffffffffffffffffffffffffffffffffffffff1681565b6060600083838080601f016020809104026020016040519081016040528093929190818152602001838380828437820191505050505050600081511115156146bd57600080fd5b6000809054906101000a900473ffffffffffffffffffffffffffffffffffffffff1673ffffffffffffffffffffffffffffffffffffffff166330b3409e6040518163ffffffff167c0100000000000000000000000000000000000000000000000000000000028152600401602060405180830381600087803b15801561474257600080fd5b505af1158015614756573d6000803e3d6000fd5b505050506040513d602081101561476c57600080fd5b810190808051906020019092919050505061478633613d22565b141515614821576040517f08c379a000000000000000000000000000000000000000000000000000000000815260040180806020018281038252603f8152602001807f436f6e74656e74206372656174696f6e206661696c65643a20636865636b206381526020017f6f6e74656e747320696e697469616c206465706f73697420616d6f756e742e0081525060400191505060405180910390fd5b600073ffffffffffffffffffffffffffffffffffffffff166000809054906101000a900473ffffffffffffffffffffffffffffffffffffffff1673ffffffffffffffffffffffffffffffffffffffff16633de1a4bc6040518163ffffffff167c0100000000000000000000000000000000000000000000000000000000028152600401602060405180830381600087803b1580156148be57600080fd5b505af11580156148d2573d6000803e3d6000fd5b505050506040513d60208110156148e857600080fd5b810190808051906020019092919050505073ffffffffffffffffffffffffffffffffffffffff16141515156149d1576040517f08c379a00000000000000000000000000000000000000000000000000000000081526004018080602001828103825260458152602001807f436f6e74656e74206372656174696f6e206661696c65643a2050696374696f6e81526020017f206e6574776f726b206572726f722e20636865636b20636f756e63696c20636f81526020017f6e6669672e00000000000000000000000000000000000000000000000000000081525060600191505060405180910390fd5b6000809054906101000a900473ffffffffffffffffffffffffffffffffffffffff1673ffffffffffffffffffffffffffffffffffffffff1663b3032be86040518163ffffffff167c0100000000000000000000000000000000000000000000000000000000028152600401602060405180830381600087803b158015614a5657600080fd5b505af1158015614a6a573d6000803e3d6000fd5b505050506040513d6020811015614a8057600080fd5b810190808051906020019092919050505073ffffffffffffffffffffffffffffffffffffffff1663d84f55ee336040518263ffffffff167c0100000000000000000000000000000000000000000000000000000000028152600401808273ffffffffffffffffffffffffffffffffffffffff1673ffffffffffffffffffffffffffffffffffffffff168152602001915050600060405180830381600087803b158015614b2b57600080fd5b505af1158015614b3f573d6000803e3d6000fd5b505050506040513d6000823e3d601f19601f820116820180604052506040811015614b6957600080fd5b810190808051640100000000811115614b8157600080fd5b82810190506020810184811115614b9757600080fd5b8151856001820283011164010000000082111715614bb457600080fd5b5050929190602001805190602001909291905050508093508194505050811515614c6c576040517f08c379a00000000000000000000000000000000000000000000000000000000081526004018080602001828103825260318152602001807f436f6e74656e74206372656174696f6e206661696c65643a20506c656173652081526020017f7265676973746572206163636f756e742e00000000000000000000000000000081525060400191505060405180910390fd5b600160009054906101000a900473ffffffffffffffffffffffffffffffffffffffff1673ffffffffffffffffffffffffffffffffffffffff166339cbfb84338588886040518563ffffffff167c0100000000000000000000000000000000000000000000000000000000028152600401808573ffffffffffffffffffffffffffffffffffffffff1673ffffffffffffffffffffffffffffffffffffffff1681526020018060200180602001838103835286818151815260200191508051906020019080838360005b83811015614d4f578082015181840152602081019050614d34565b50505050905090810190601f168015614d7c5780820380516001836020036101000a031916815260200191505b50838103825285858281815260200192508082843782019150509650505050505050600060405180830381600087803b158015614db857600080fd5b505af1158015614dcc573d6000803e3d6000fd5b505050505050505050565b600060606000600160009054906101000a900473ffffffffffffffffffffffffffffffffffffffff1673ffffffffffffffffffffffffffffffffffffffff16632b4e75a9336040518263ffffffff167c0100000000000000000000000000000000000000000000000000000000028152600401808273ffffffffffffffffffffffffffffffffffffffff1673ffffffffffffffffffffffffffffffffffffffff168152602001915050600060405180830381600087803b158015614e9a57600080fd5b505af1158015614eae573d6000803e3d6000fd5b505050506040513d6000823e3d601f19601f820116820180604052506020811015614ed857600080fd5b810190808051640100000000811115614ef057600080fd5b82810190506020810184811115614f0657600080fd5b8151856020820283011164010000000082111715614f2357600080fd5b50509291905050509150600082511415614f405760009250614fb0565b600090505b8151811015614faf578373ffffffffffffffffffffffffffffffffffffffff168282815181101515614f7357fe5b9060200190602002015173ffffffffffffffffffffffffffffffffffffffff161415614fa25760019250614faf565b8080600101915050614f45565b5b5050919050565b60003373ffffffffffffffffffffffffffffffffffffffff168273ffffffffffffffffffffffffffffffffffffffff1663d66e57266040518163ffffffff167c0100000000000000000000000000000000000000000000000000000000028152600401602060405180830381600087803b15801561503457600080fd5b505af1158015615048573d6000803e3d6000fd5b505050506040513d602081101561505e57600080fd5b810190808051906020019092919050505073ffffffffffffffffffffffffffffffffffffffff1614615091576000615094565b60015b9050919050565b60608060608060006040805190810160405280600181526020017f5b0000000000000000000000000000000000000000000000000000000000000081525093506040805190810160405280600181526020017f5d0000000000000000000000000000000000000000000000000000000000000081525092506040805190810160405280600181526020017f2c00000000000000000000000000000000000000000000000000000000000000815250915061515e84866152fd90919063ffffffff16565b9450600090505b85518110156152be5761528c868281518110151561517f57fe5b9060200190602002015173ffffffffffffffffffffffffffffffffffffffff1663f18ad6fb6040518163ffffffff167c0100000000000000000000000000000000000000000000000000000000028152600401600060405180830381600087803b1580156151ec57600080fd5b505af1158015615200573d6000803e3d6000fd5b505050506040513d6000823e3d601f19601f82011682018060405250602081101561522a57600080fd5b81019080805164010000000081111561524257600080fd5b8281019050602081018481111561525857600080fd5b815185600182028301116401000000008211171561527557600080fd5b5050929190505050866152fd90919063ffffffff16565b94506001865103811415156152b1576152ae82866152fd90919063ffffffff16565b94505b8080600101915050615165565b6152d183866152fd90919063ffffffff16565b945050505050919050565b6000808383111515156152ee57600080fd5b82840390508091505092915050565b6060806040519050835180825260208201818101602087015b818310156153335780518352602083019250602081019050615316565b50855192508351830184528091508282019050602086015b81831015615368578051835260208301925060208101905061534b565b50601f19601f88518501158301011660405250505080915050929150505600a165627a7a72305820be8bbb116ebf8f459b160f1160b4f0d28e7d6fa8572dc8546c3f6f511fdffc7a0029",
  "source": "pragma solidity ^0.4.24;\r\n\r\nimport \"openzeppelin-solidity/contracts/token/ERC20/SafeERC20.sol\";\r\n\r\nimport \"contracts/token/ContractReceiver.sol\";\r\nimport \"contracts/token/CustomToken.sol\";\r\n\r\nimport \"contracts/interface/ICouncil.sol\";\r\nimport \"contracts/interface/IContent.sol\";\r\nimport \"contracts/interface/IContentsManager.sol\";\r\nimport \"contracts/interface/IAccountManager.sol\";\r\n\r\nimport \"contracts/utils/ValidValue.sol\";\r\nimport \"contracts/utils/BytesLib.sol\";\r\n\r\ncontract ApiContents is ValidValue {\r\n    using BytesLib for bytes;\r\n    using SafeMath for uint256;\r\n\r\n    ICouncil public council;\r\n    IContentsManager public contentsManager;\r\n\r\n    constructor (\r\n        address _council,\r\n        address _contentsManager\r\n    )\r\n        public\r\n        validAddress(_council) validAddress(_contentsManager)\r\n    {\r\n        council = ICouncil(_council);\r\n        contentsManager = IContentsManager(_contentsManager);\r\n    }\r\n\r\n    /**\r\n    * @dev contents \r\n    *\r\n    * @notice  publish   \r\n    * @param _record Json string    \r\n    */\r\n    function createComic (\r\n        string _record\r\n    )\r\n        external\r\n        validString(_record)\r\n    {\r\n        require(getInitialDeposit(msg.sender) == council.getInitialDeposit(), \"Content creation failed: check contents initial deposit amount.\");\r\n\r\n        require(council.getDepositPool() != address(0), \"Content creation failed: Piction network error. check council config.\");\r\n\r\n        string memory writerName;\r\n        bool result;\r\n        (writerName, result) = IAccountManager(council.getAccountManager()).getUserName(msg.sender);\r\n\r\n        require(result, \"Content creation failed: Please register account.\");\r\n        contentsManager.addContents(msg.sender, writerName, _record);\r\n    }\r\n\r\n    /**\r\n    * @dev contents \r\n    *\r\n    * @notice  publish    \r\n    * @param _comicAddress    \r\n    * @param _record Json string    \r\n    */\r\n    function updateComic(\r\n        address _comicAddress,\r\n        string _record\r\n    )\r\n        external\r\n        validAddress(_comicAddress) validString(_record)\r\n    {\r\n        require(_checkWriterContents(_comicAddress), \"Update contents failed: Unregistered contents address.\");\r\n\r\n        IContent content = IContent(_comicAddress);\r\n        require(_checkAccessRole(content), \"Update contents failed: Access denied.\");\r\n\r\n        content.updateContent(_record);\r\n    }\r\n\r\n    /**\r\n    * @dev episode \r\n    *\r\n    * @notice  publish episode \r\n    * @param _record Json string    \r\n    * @param _isPublished   \r\n    * @param _publishDate   \r\n    */\r\n    function createEpisode(\r\n        address _comicAddress,\r\n        string _record,\r\n        string _cuts,\r\n        uint256 _price,\r\n        bool _isPublished,\r\n        uint256 _publishDate\r\n    )\r\n        external\r\n        validAddress(_comicAddress) validString(_record) validString(_cuts)\r\n    {\r\n        require(_checkWriterContents(_comicAddress), \"Add episode failed: Unregistered contents address.\");\r\n\r\n        IContent content = IContent(_comicAddress);\r\n        require(_checkAccessRole(content), \"Add episode failed: Access denied.\");\r\n\r\n        content.addEpisode(_record, _cuts, _price, _isPublished, _publishDate);\r\n    }\r\n\r\n    /**\r\n    * @dev episode \r\n    *\r\n    * @notice  publish episode \r\n    * @param _record Json string    \r\n    * @param _isPublished   \r\n    * @param _publishDate   \r\n    */\r\n    function updateEpisode(\r\n        address _comicAddress,\r\n        uint256 _index,\r\n        string _record,\r\n        string _cuts,\r\n        uint256 _price,\r\n        bool _isPublished,\r\n        uint256 _publishDate\r\n    )\r\n        external\r\n        validAddress(_comicAddress) validString(_record) validString(_cuts)\r\n    {\r\n        require(_checkWriterContents(_comicAddress), \"Update episode failed: Unregistered contents address.\");\r\n\r\n        IContent content = IContent(_comicAddress);\r\n        require(_checkAccessRole(content), \"Update episode failed: Access denied.\");\r\n        require(getEpisodeLength(_comicAddress) > _index, \"Update episode failed: episode index out of range\");\r\n\r\n        content.updateEpisode(_index, _record, _cuts, _price, _isPublished, _publishDate);\r\n    }\r\n\r\n    /**\r\n    * @dev favorite   \r\n    *\r\n    * @notice  comics-detail    \r\n    * @param _comicAddress  \r\n    */\r\n    function updateFavorite(\r\n        address _comicAddress\r\n    )\r\n        external\r\n        validAddress(_comicAddress)\r\n    {\r\n        bool status = getFavorite(_comicAddress);\r\n        IContent(_comicAddress).updateFavoriteCount(status);\r\n        IAccountManager(council.getAccountManager()).changeFavoriteContent(msg.sender, _comicAddress);\r\n    }\r\n\r\n    /**\r\n    * @dev  favorite \r\n    *\r\n    * @notice  comics-detail    \r\n    * @param _comicAddress  \r\n    * @return isFavoriteContent_ on/off \r\n    */\r\n    function getFavorite (\r\n        address _comicAddress\r\n    )\r\n        public\r\n        view\r\n        returns (bool isFavoriteContent_)\r\n    {\r\n        isFavoriteContent_ = IAccountManager(council.getAccountManager()).getFavoriteContent(msg.sender, _comicAddress);\r\n    }\r\n\r\n    /**\r\n    * @dev   \r\n    *\r\n    * @notice  comics   \r\n    * @return comicAddress_     \r\n    * @return records_ Json string    \r\n    * @return writer_  \r\n    * @return totalPurchasedCount_   \r\n    * @return contentCreationTime_   \r\n    * @return episodeLastUpdatedTime_      \r\n    */\r\n    function getComics()\r\n        external\r\n        view\r\n        returns (\r\n            address[] memory comicAddress_,\r\n            bytes memory records_,\r\n            address[] memory writer_,\r\n            uint256[] memory totalPurchasedCount_,\r\n            uint256[] memory totalPurchasedAmount_,\r\n            uint256[] memory contentCreationTime_,\r\n            uint256[] memory episodeLastUpdatedTime_\r\n        )\r\n    {\r\n        comicAddress_ = contentsManager.getPublishContentsAddress();\r\n\r\n        if(comicAddress_.length == 0) {\r\n            return;\r\n        }\r\n\r\n        records_ = _getComicRecords(comicAddress_);\r\n\r\n        writer_ = new address[](comicAddress_.length);\r\n        totalPurchasedCount_ = new uint256[](comicAddress_.length);\r\n        totalPurchasedAmount_ = new uint256[](comicAddress_.length);\r\n        contentCreationTime_ = new uint256[](comicAddress_.length);\r\n        episodeLastUpdatedTime_ = new uint256[](comicAddress_.length);\r\n\r\n        for(uint256 i = 0 ; i < comicAddress_.length ; i++) {\r\n            (, writer_[i], , totalPurchasedCount_[i], totalPurchasedAmount_[i], contentCreationTime_[i],\r\n                episodeLastUpdatedTime_[i]) = IContent(comicAddress_[i]).getComicsInfo();\r\n        }\r\n    }\r\n\r\n    /**\r\n    * @dev     \r\n    *\r\n    * @return comicAddress_     \r\n    * @return records_ Json string    \r\n    * @return writer_  \r\n    * @return totalPurchasedCount_   \r\n    * @return contentCreationTime_   \r\n    * @return episodeLastUpdatedTime_      \r\n    */\r\n    function getComicsByAddress(\r\n        address[] _comicAddress\r\n    )\r\n        external\r\n        view\r\n        returns(\r\n            address[] memory comicAddress_,\r\n            bytes memory records_,\r\n            address[] memory writer_,\r\n            uint256[] memory totalPurchasedCount_,\r\n            uint256[] memory totalPurchasedAmount_,\r\n            uint256[] memory contentCreationTime_,\r\n            uint256[] memory episodeLastUpdatedTime_\r\n        )\r\n    {\r\n        if(_comicAddress.length == 0) {\r\n            return;\r\n        }\r\n\r\n        records_ = _getComicRecords(_comicAddress);\r\n\r\n        comicAddress_ = _comicAddress;\r\n        writer_ = new address[](_comicAddress.length);\r\n        totalPurchasedCount_ = new uint256[](_comicAddress.length);\r\n        totalPurchasedAmount_ = new uint256[](_comicAddress.length);\r\n        contentCreationTime_ = new uint256[](_comicAddress.length);\r\n        episodeLastUpdatedTime_ = new uint256[](_comicAddress.length);\r\n\r\n        for(uint256 i = 0 ; i < _comicAddress.length ; i++) {\r\n            (, writer_[i], , totalPurchasedCount_[i], totalPurchasedAmount_[i], contentCreationTime_[i],\r\n                episodeLastUpdatedTime_[i]) = IContent(_comicAddress[i]).getComicsInfo();\r\n        }\r\n    }\r\n\r\n    /**\r\n    * @dev    \r\n    *\r\n    * @notice  comics-detail   \r\n    * @param _comicAddress  \r\n    * @return records_ Json string    \r\n    * @return writer_  \r\n    * @return writerName_  \r\n    * @return isFavorite     \r\n    */\r\n    function getComic(\r\n        address _comicAddress\r\n    )\r\n        external\r\n        view\r\n        returns (\r\n            string records_,\r\n            address writer_,\r\n            string writerName_,\r\n            bool isFavorite\r\n        )\r\n    {\r\n        if(IContent(_comicAddress).getIsBlocked()) {\r\n            return;\r\n        }\r\n\r\n        (records_, writer_, writerName_, , , ,) = IContent(_comicAddress).getComicsInfo();\r\n        isFavorite = getFavorite(_comicAddress);\r\n    }\r\n\r\n    /**\r\n    * @dev    \r\n    *\r\n    * @notice  comics-detail   \r\n    * @param _comicAddress  \r\n    * @return records_ Json string  episode \r\n    * @return price_  \r\n    * @return isPurchased_  \r\n    * @return episodeCreationTime_ episode   \r\n    * @return episodeIndex_ episode \r\n    */\r\n    function getEpisodes(\r\n        address _comicAddress\r\n    )\r\n        external\r\n        view\r\n        returns (\r\n            bytes records_,\r\n            uint256[] memory price_,\r\n            bool[] memory isPurchased_,\r\n            uint256[] memory episodeCreationTime_,\r\n            uint256[] memory episodeIndex_\r\n        )\r\n    {\r\n        if(IContent(_comicAddress).getIsBlocked()) {\r\n            return;\r\n        }\r\n\r\n        episodeIndex_ = IContent(_comicAddress).getPublishEpisodeIndex();\r\n\r\n        if(episodeIndex_.length == 0) {\r\n            return;\r\n        }\r\n\r\n        price_ = new uint256[](episodeIndex_.length);\r\n        isPurchased_ = new bool[](episodeIndex_.length);\r\n        episodeCreationTime_ = new uint256[](episodeIndex_.length);\r\n\r\n        bytes memory start = \"[\";\r\n        bytes memory end = \"]\";\r\n        bytes memory separator = \",\";\r\n        records_ = records_.concat(start);\r\n\r\n        string memory strRecord;\r\n        for(uint256 i = 0 ; i < episodeIndex_.length ; i++) {\r\n            (strRecord, price_[i], , , isPurchased_[i], , , episodeCreationTime_[i]) = IContent(_comicAddress).getEpisodeDetail(episodeIndex_[i], msg.sender);\r\n\r\n            records_ = records_.concat(bytes(strRecord));\r\n            if(i != episodeIndex_.length - 1) {\r\n                records_ = records_.concat(separator);\r\n            }\r\n        }\r\n        records_ = records_.concat(end);\r\n    }\r\n\r\n    /**\r\n    * @dev    \r\n    *\r\n    * @param _comicAddress  \r\n    * @param _index episode \r\n    * @return records_ Json string   \r\n    * @return price_   pxl\r\n    * @return buyCount_  episode \r\n    * @return isPurchased_ episode  \r\n    * @return isPublished_ episode  \r\n    * @return publishDate_ episode  \r\n    * @return episodeCreationTime_ episode  \r\n    */\r\n    function getEpisode(\r\n        address _comicAddress,\r\n        uint256 _index\r\n    )\r\n        external\r\n        view\r\n        returns(\r\n            string records_,\r\n            uint256 price_,\r\n            uint256 buyCount_,\r\n            bool isPurchased_,\r\n            bool isPublished_,\r\n            uint256 publishDate_,\r\n            uint256 episodeCreationTime_\r\n        )\r\n    {\r\n        if(!isPurchasedEpisode(_comicAddress, _index, msg.sender)) {\r\n            return;\r\n        }\r\n\r\n        (records_, price_, buyCount_, , isPurchased_, isPublished_, publishDate_,\r\n            episodeCreationTime_) = IContent(_comicAddress).getEpisodeDetail(_index, msg.sender);\r\n    }\r\n\r\n    /**\r\n    * @dev   \r\n    *\r\n    * @notice  publish   \r\n    * @return comicAddress_   \r\n    * @return isBlockComic_   \r\n    * @return records_ Json string   \r\n    * @return totalPurchasedAmount_   pxl\r\n    * @return publishedEpisode_  episode \r\n    * @return privateEpisode_   episode \r\n    */\r\n    function getMyComics()\r\n        external\r\n        view\r\n        returns (\r\n            address[] comicAddress_,\r\n            bool[] isBlockComic_,\r\n            bytes records_,\r\n            uint256[] totalPurchasedAmount_,\r\n            uint256[] publishedEpisode_,\r\n            uint256[] privateEpisode_\r\n        )\r\n    {\r\n        comicAddress_ = contentsManager.getWriterContentsAddress(msg.sender);\r\n\r\n        if(comicAddress_.length == 0) {\r\n            return;\r\n        }\r\n\r\n        isBlockComic_ = new bool[](comicAddress_.length);\r\n        totalPurchasedAmount_ = new uint256[](comicAddress_.length);\r\n        publishedEpisode_ = new uint256[](comicAddress_.length);\r\n        privateEpisode_ = new uint256[](comicAddress_.length);\r\n\r\n        records_ = _getComicRecords(comicAddress_);\r\n\r\n        uint256 episodeLength;\r\n        for(uint256 i = 0 ; i < comicAddress_.length ; i++) {\r\n            if(IContent(comicAddress_[i]).getWriter() == msg.sender){\r\n                isBlockComic_[i] = IContent(comicAddress_[i]).getIsBlocked();\r\n                totalPurchasedAmount_[i] = IContent(comicAddress_[i]).getTotalPurchasedAmount();\r\n\r\n                episodeLength = IContent(comicAddress_[i]).getEpisodeLength();\r\n                publishedEpisode_[i] = IContent(comicAddress_[i]).getPublishEpisodeIndex().length;\r\n                privateEpisode_[i] = episodeLength.sub(publishedEpisode_[i]);\r\n            }\r\n        }\r\n    }\r\n\r\n    /**\r\n    * @dev    \r\n    *\r\n    * @notice  publish   \r\n    * @param _comicAddress  \r\n    * @return records_ Json string  episode \r\n    * @return price_  \r\n    * @return purchasedAmount_   \r\n    * @return buyCount_   \r\n    * @return isPublished  \r\n    * @return publishDate_ episode  \r\n    * @return episodeIndex_ episode \r\n    */\r\n    function getMyEpisodes(\r\n        address _comicAddress\r\n    )\r\n        external\r\n        view\r\n        returns (\r\n            bytes records_,\r\n            uint256[] memory price_,\r\n            uint256[] memory purchasedAmount_,\r\n            bool[] memory isPublished_,\r\n            uint256[] memory publishDate_,\r\n            uint256[] memory episodeIndex_\r\n        )\r\n    {\r\n        if(IContent(_comicAddress).getWriter() != msg.sender) {\r\n            return;\r\n        }\r\n\r\n        uint256 episodeLength = IContent(_comicAddress).getEpisodeLength();\r\n        if(episodeLength == 0){\r\n            return;\r\n        }\r\n\r\n        price_ = new uint256[](episodeLength);\r\n        purchasedAmount_ = new uint256[](episodeLength);\r\n        isPublished_ = new bool[](episodeLength);\r\n        publishDate_ = new uint256[](episodeLength);\r\n        episodeIndex_ = new uint256[](episodeLength);\r\n\r\n        bytes memory start = \"[\";\r\n        bytes memory end = \"]\";\r\n        bytes memory separator = \",\";\r\n        records_ = records_.concat(start);\r\n\r\n        string memory strRecord;\r\n        for(uint256 i = 0 ; i < episodeLength ; i++) {\r\n            (strRecord, price_[i], , purchasedAmount_[i], , isPublished_[i], publishDate_[i], ) = IContent(_comicAddress).getEpisodeDetail(i, msg.sender);\r\n            episodeIndex_[i] = i;\r\n\r\n            records_ = records_.concat(bytes(strRecord));\r\n            if(i != episodeLength - 1) {\r\n                records_ = records_.concat(separator);\r\n            }\r\n        }\r\n        records_ = records_.concat(end);\r\n    }\r\n\r\n    /**\r\n    * @dev    \r\n    *\r\n    * @notice publish   info    \r\n    * @param _comicAddress  \r\n    * @return totalPurchasedAmount_   pxl \r\n    * @return totalPurchasedCount_   \r\n    * @return favoriteCount_ favorite  \r\n    * @return totalPurchasedUserCount_   \r\n    */\r\n    function getComicSales(\r\n        address _comicAddress\r\n    )\r\n        external\r\n        view\r\n        returns (\r\n            uint256 totalPurchasedAmount_,\r\n            uint256 totalPurchasedCount_,\r\n            uint256 favoriteCount_,\r\n            uint256 totalPurchasedUserCount_\r\n        )\r\n    {\r\n        (totalPurchasedAmount_, totalPurchasedCount_, favoriteCount_, totalPurchasedUserCount_) = IContent(_comicAddress).getSalesInfo();\r\n    }\r\n\r\n    /**\r\n    * @dev   \r\n    *\r\n    * @notice comics, publish     \r\n    * @param _comicAddress  \r\n    * @param _index episode index\r\n    * @return cuts_ Json type  \r\n    */\r\n    function getCuts(\r\n        address _comicAddress,\r\n        uint256 _index\r\n    )\r\n        external\r\n        view\r\n        returns (string cuts_)\r\n    {\r\n        if(isPurchasedEpisode(_comicAddress, _index, msg.sender)) {\r\n            cuts_ = IContent(_comicAddress).getEpisodeCuts(_index, msg.sender);\r\n        }\r\n    }\r\n\r\n    /**\r\n    * @dev    \r\n    * @param _writerAddress  \r\n    * @return initialDeposit_ \r\n    */\r\n    function getInitialDeposit(\r\n        address _writerAddress\r\n    )\r\n        public\r\n        view\r\n        returns (uint256 initialDeposit_)\r\n    {\r\n        initialDeposit_ = contentsManager.getInitialDeposit(_writerAddress);\r\n    }\r\n\r\n    /**\r\n    * @dev      \r\n    * @param _contentsAddress    \r\n    * @return episodeLength_    \r\n    */\r\n    function getEpisodeLength(\r\n        address _contentsAddress\r\n    )\r\n        public\r\n        view\r\n        returns (uint256 episodeLength_)\r\n    {\r\n        episodeLength_ = IContent(_contentsAddress).getEpisodeLength();\r\n    }\r\n\r\n    function isPurchasedEpisode(\r\n        address _comicAddress,\r\n        uint256 _index,\r\n        address _user\r\n    )\r\n        public\r\n        view\r\n        returns (bool isPurchased_)\r\n    {\r\n        isPurchased_ = IContent(_comicAddress).isPurchasedEpisode(_index, _user);\r\n    }\r\n\r\n    function _getComicRecords (\r\n        address[] _comicAddress\r\n    )\r\n        private\r\n        view\r\n        returns (bytes records_)\r\n    {\r\n        bytes memory start = \"[\";\r\n        bytes memory end = \"]\";\r\n        bytes memory separator = \",\";\r\n        records_ = records_.concat(start);\r\n        for(uint256 i = 0 ; i < _comicAddress.length ; i++) {\r\n            records_ = records_.concat(bytes(IContent(_comicAddress[i]).getRecord()));\r\n            if(i != _comicAddress.length - 1) {\r\n                records_ = records_.concat(separator);\r\n            }\r\n        }\r\n        records_ = records_.concat(end);\r\n    }\r\n\r\n    function _checkWriterContents(\r\n        address _contentsAddress\r\n    )\r\n        private\r\n        view\r\n        returns (bool isRegisterd_)\r\n    {\r\n        address[] memory writerContents = contentsManager.getWriterContentsAddress(msg.sender);\r\n\r\n        if(writerContents.length == 0) {\r\n            isRegisterd_ = false;\r\n            return;\r\n        }\r\n\r\n        for(uint256 i = 0 ; i < writerContents.length ; i++) {\r\n            if(writerContents[i] == _contentsAddress) {\r\n                isRegisterd_ = true;\r\n                break;\r\n            }\r\n        }\r\n    }\r\n\r\n    function _checkAccessRole(\r\n        IContent _content\r\n    )\r\n        private\r\n        view\r\n        returns (bool isAccessible_)\r\n    {\r\n        isAccessible_ = (_content.getWriter() == msg.sender) ? true : false;\r\n    }\r\n}",
  "sourcePath": "C:\\piction\\piction-poc\\contracts\\api\\ApiContents.sol",
  "compiler": {
    "name": "solc",
    "version": "0.4.24+commit.e67f0147.Emscripten.clang"
  },
  "schemaVersion": "2.0.1",
  "updatedAt": "2018-11-12T08:34:14.902Z"
}