{
  "contractName": "ApiFund",
  "abi": [
    {
      "inputs": [
        {
          "name": "_councilAddress",
          "type": "address"
        }
      ],
      "payable": false,
      "stateMutability": "nonpayable",
      "type": "constructor"
    },
    {
      "anonymous": false,
      "inputs": [
        {
          "indexed": true,
          "name": "_fund",
          "type": "address"
        },
        {
          "indexed": true,
          "name": "_content",
          "type": "address"
        },
        {
          "indexed": false,
          "name": "_startTime",
          "type": "uint256"
        },
        {
          "indexed": false,
          "name": "_endTime",
          "type": "uint256"
        },
        {
          "indexed": false,
          "name": "_limit",
          "type": "uint256[]"
        },
        {
          "indexed": false,
          "name": "_poolSize",
          "type": "uint256"
        },
        {
          "indexed": false,
          "name": "_releaseInterval",
          "type": "uint256"
        },
        {
          "indexed": false,
          "name": "_supportFirstTime",
          "type": "uint256"
        },
        {
          "indexed": false,
          "name": "_distributionRate",
          "type": "uint256"
        },
        {
          "indexed": false,
          "name": "_detail",
          "type": "string"
        }
      ],
      "name": "CreateFund",
      "type": "event"
    },
    {
      "anonymous": false,
      "inputs": [
        {
          "indexed": true,
          "name": "_fund",
          "type": "address"
        }
      ],
      "name": "EndFund",
      "type": "event"
    },
    {
      "anonymous": false,
      "inputs": [
        {
          "indexed": false,
          "name": "_fund",
          "type": "address"
        }
      ],
      "name": "ReleaseDistribution",
      "type": "event"
    },
    {
      "anonymous": false,
      "inputs": [
        {
          "indexed": false,
          "name": "_fund",
          "type": "address"
        },
        {
          "indexed": false,
          "name": "_index",
          "type": "uint256"
        },
        {
          "indexed": false,
          "name": "_sender",
          "type": "address"
        }
      ],
      "name": "Vote",
      "type": "event"
    },
    {
      "constant": false,
      "inputs": [
        {
          "name": "_content",
          "type": "address"
        },
        {
          "name": "_startTime",
          "type": "uint256"
        },
        {
          "name": "_endTime",
          "type": "uint256"
        },
        {
          "name": "_limit",
          "type": "uint256[]"
        },
        {
          "name": "_poolSize",
          "type": "uint256"
        },
        {
          "name": "_releaseInterval",
          "type": "uint256"
        },
        {
          "name": "_supportFirstTime",
          "type": "uint256"
        },
        {
          "name": "_distributionRate",
          "type": "uint256"
        },
        {
          "name": "_detail",
          "type": "string"
        }
      ],
      "name": "createFund",
      "outputs": [],
      "payable": false,
      "stateMutability": "nonpayable",
      "type": "function"
    },
    {
      "constant": true,
      "inputs": [
        {
          "name": "_content",
          "type": "address"
        }
      ],
      "name": "getFund",
      "outputs": [
        {
          "name": "fund_",
          "type": "address"
        }
      ],
      "payable": false,
      "stateMutability": "view",
      "type": "function"
    },
    {
      "constant": false,
      "inputs": [
        {
          "name": "_fund",
          "type": "address"
        }
      ],
      "name": "endFund",
      "outputs": [],
      "payable": false,
      "stateMutability": "nonpayable",
      "type": "function"
    },
    {
      "constant": true,
      "inputs": [
        {
          "name": "_fund",
          "type": "address"
        }
      ],
      "name": "getSupporters",
      "outputs": [
        {
          "name": "user_",
          "type": "address[]"
        },
        {
          "name": "investment_",
          "type": "uint256[]"
        },
        {
          "name": "collection_",
          "type": "uint256[]"
        },
        {
          "name": "reward_",
          "type": "uint256[]"
        },
        {
          "name": "distributionRate_",
          "type": "uint256[]"
        },
        {
          "name": "refund_",
          "type": "bool[]"
        }
      ],
      "payable": false,
      "stateMutability": "view",
      "type": "function"
    },
    {
      "constant": true,
      "inputs": [
        {
          "name": "_fund",
          "type": "address"
        }
      ],
      "name": "getFundInfo",
      "outputs": [
        {
          "name": "content_",
          "type": "address"
        },
        {
          "name": "startTime_",
          "type": "uint256"
        },
        {
          "name": "endTime_",
          "type": "uint256"
        },
        {
          "name": "limit_",
          "type": "uint256[]"
        },
        {
          "name": "fundRise_",
          "type": "uint256"
        },
        {
          "name": "poolSize_",
          "type": "uint256"
        },
        {
          "name": "releaseInterval_",
          "type": "uint256"
        },
        {
          "name": "supportFirstTime_",
          "type": "uint256"
        },
        {
          "name": "distributionRate_",
          "type": "uint256"
        },
        {
          "name": "needEndProcessing_",
          "type": "bool"
        },
        {
          "name": "detail_",
          "type": "string"
        }
      ],
      "payable": false,
      "stateMutability": "view",
      "type": "function"
    },
    {
      "constant": true,
      "inputs": [
        {
          "name": "_funds",
          "type": "address[]"
        }
      ],
      "name": "getFundRise",
      "outputs": [
        {
          "name": "fundRise_",
          "type": "uint256[]"
        }
      ],
      "payable": false,
      "stateMutability": "view",
      "type": "function"
    },
    {
      "constant": false,
      "inputs": [
        {
          "name": "_fund",
          "type": "address"
        }
      ],
      "name": "releaseDistribution",
      "outputs": [],
      "payable": false,
      "stateMutability": "nonpayable",
      "type": "function"
    },
    {
      "constant": true,
      "inputs": [
        {
          "name": "_fund",
          "type": "address"
        }
      ],
      "name": "getDistributions",
      "outputs": [
        {
          "name": "amount_",
          "type": "uint256[]"
        },
        {
          "name": "distributableTime_",
          "type": "uint256[]"
        },
        {
          "name": "distributedTime_",
          "type": "uint256[]"
        },
        {
          "name": "state_",
          "type": "uint256[]"
        },
        {
          "name": "votingCount_",
          "type": "uint256[]"
        },
        {
          "name": "isVoting_",
          "type": "bool[]"
        }
      ],
      "payable": false,
      "stateMutability": "view",
      "type": "function"
    },
    {
      "constant": false,
      "inputs": [
        {
          "name": "_fund",
          "type": "address"
        },
        {
          "name": "_index",
          "type": "uint256"
        }
      ],
      "name": "vote",
      "outputs": [],
      "payable": false,
      "stateMutability": "nonpayable",
      "type": "function"
    },
    {
      "constant": true,
      "inputs": [
        {
          "name": "_fund",
          "type": "address"
        },
        {
          "name": "_index",
          "type": "uint256"
        }
      ],
      "name": "isVoting",
      "outputs": [
        {
          "name": "voting_",
          "type": "bool"
        }
      ],
      "payable": false,
      "stateMutability": "view",
      "type": "function"
    }
  ],
  "bytecode": "0x608060405234801561001057600080fd5b506040516020806122098339810180604052810190808051906020019092919050505080600073ffffffffffffffffffffffffffffffffffffffff168173ffffffffffffffffffffffffffffffffffffffff161415151561007057600080fd5b3073ffffffffffffffffffffffffffffffffffffffff168173ffffffffffffffffffffffffffffffffffffffff16141515156100ab57600080fd5b816000806101000a81548173ffffffffffffffffffffffffffffffffffffffff021916908373ffffffffffffffffffffffffffffffffffffffff160217905550505061210d806100fc6000396000f3006080604052600436106100a4576000357c0100000000000000000000000000000000000000000000000000000000900463ffffffff168063187e48a7146100a957806326ba2851146102a95780633d835e011461030e5780635f74bbde14610481578063662f292a146104ce57806372ba9acd1461057d5780637fed616b146105c05780638fdfb04d146107c0578063b42c1d4014610850578063f433eff2146108d3575b600080fd5b3480156100b557600080fd5b506100ea600480360381019080803573ffffffffffffffffffffffffffffffffffffffff169060200190929190505050610916565b6040518080602001806020018060200180602001806020018060200187810387528d818151815260200191508051906020019060200280838360005b83811015610141578082015181840152602081019050610126565b5050505090500187810386528c818151815260200191508051906020019060200280838360005b83811015610183578082015181840152602081019050610168565b5050505090500187810385528b818151815260200191508051906020019060200280838360005b838110156101c55780820151818401526020810190506101aa565b5050505090500187810384528a818151815260200191508051906020019060200280838360005b838110156102075780820151818401526020810190506101ec565b50505050905001878103835289818151815260200191508051906020019060200280838360005b8381101561024957808201518184015260208101905061022e565b50505050905001878103825288818151815260200191508051906020019060200280838360005b8381101561028b578082015181840152602081019050610270565b505050509050019c5050505050505050505050505060405180910390f35b3480156102b557600080fd5b506102f4600480360381019080803573ffffffffffffffffffffffffffffffffffffffff16906020019092919080359060200190929190505050610cde565b604051808215151515815260200191505060405180910390f35b34801561031a57600080fd5b5061034f600480360381019080803573ffffffffffffffffffffffffffffffffffffffff169060200190929190505050610eb9565b604051808c73ffffffffffffffffffffffffffffffffffffffff1673ffffffffffffffffffffffffffffffffffffffff1681526020018b81526020018a815260200180602001898152602001888152602001878152602001868152602001858152602001841515151581526020018060200183810383528b818151815260200191508051906020019060200280838360005b838110156103fc5780820151818401526020810190506103e1565b50505050905001838103825284818151815260200191508051906020019080838360005b8381101561043b578082015181840152602081019050610420565b50505050905090810190601f1680156104685780820380516001836020036101000a031916815260200191505b509d505050505050505050505050505060405180910390f35b34801561048d57600080fd5b506104cc600480360381019080803573ffffffffffffffffffffffffffffffffffffffff1690602001909291908035906020019092919050505061108f565b005b3480156104da57600080fd5b5061057b600480360381019080803573ffffffffffffffffffffffffffffffffffffffff1690602001909291908035906020019092919080359060200190929190803590602001908201803590602001919091929391929390803590602001909291908035906020019092919080359060200190929190803590602001909291908035906020019082018035906020019190919293919293905050506112e0565b005b34801561058957600080fd5b506105be600480360381019080803573ffffffffffffffffffffffffffffffffffffffff16906020019092919050505061178e565b005b3480156105cc57600080fd5b50610601600480360381019080803573ffffffffffffffffffffffffffffffffffffffff169060200190929190505050611850565b6040518080602001806020018060200180602001806020018060200187810387528d818151815260200191508051906020019060200280838360005b8381101561065857808201518184015260208101905061063d565b5050505090500187810386528c818151815260200191508051906020019060200280838360005b8381101561069a57808201518184015260208101905061067f565b5050505090500187810385528b818151815260200191508051906020019060200280838360005b838110156106dc5780820151818401526020810190506106c1565b5050505090500187810384528a818151815260200191508051906020019060200280838360005b8381101561071e578082015181840152602081019050610703565b50505050905001878103835289818151815260200191508051906020019060200280838360005b83811015610760578082015181840152602081019050610745565b50505050905001878103825288818151815260200191508051906020019060200280838360005b838110156107a2578082015181840152602081019050610787565b505050509050019c5050505050505050505050505060405180910390f35b3480156107cc57600080fd5b506107f9600480360381019080803590602001908201803590602001919091929391929390505050611aee565b6040518080602001828103825283818151815260200191508051906020019060200280838360005b8381101561083c578082015181840152602081019050610821565b505050509050019250505060405180910390f35b34801561085c57600080fd5b50610891600480360381019080803573ffffffffffffffffffffffffffffffffffffffff169060200190929190505050611d6b565b604051808273ffffffffffffffffffffffffffffffffffffffff1673ffffffffffffffffffffffffffffffffffffffff16815260200191505060405180910390f35b3480156108df57600080fd5b50610914600480360381019080803573ffffffffffffffffffffffffffffffffffffffff169060200190929190505050611f09565b005b6060806060806060806000809054906101000a900473ffffffffffffffffffffffffffffffffffffffff1673ffffffffffffffffffffffffffffffffffffffff1663098a2cdc6040518163ffffffff167c0100000000000000000000000000000000000000000000000000000000028152600401602060405180830381600087803b1580156109a457600080fd5b505af11580156109b8573d6000803e3d6000fd5b505050506040513d60208110156109ce57600080fd5b810190808051906020019092919050505073ffffffffffffffffffffffffffffffffffffffff166355937ba288336040518363ffffffff167c0100000000000000000000000000000000000000000000000000000000028152600401808373ffffffffffffffffffffffffffffffffffffffff1673ffffffffffffffffffffffffffffffffffffffff1681526020018273ffffffffffffffffffffffffffffffffffffffff1673ffffffffffffffffffffffffffffffffffffffff16815260200192505050600060405180830381600087803b158015610aad57600080fd5b505af1158015610ac1573d6000803e3d6000fd5b505050506040513d6000823e3d601f19601f8201168201806040525060c0811015610aeb57600080fd5b810190808051640100000000811115610b0357600080fd5b82810190506020810184811115610b1957600080fd5b8151856020820283011164010000000082111715610b3657600080fd5b50509291906020018051640100000000811115610b5257600080fd5b82810190506020810184811115610b6857600080fd5b8151856020820283011164010000000082111715610b8557600080fd5b50509291906020018051640100000000811115610ba157600080fd5b82810190506020810184811115610bb757600080fd5b8151856020820283011164010000000082111715610bd457600080fd5b50509291906020018051640100000000811115610bf057600080fd5b82810190506020810184811115610c0657600080fd5b8151856020820283011164010000000082111715610c2357600080fd5b50509291906020018051640100000000811115610c3f57600080fd5b82810190506020810184811115610c5557600080fd5b8151856020820283011164010000000082111715610c7257600080fd5b50509291906020018051640100000000811115610c8e57600080fd5b82810190506020810184811115610ca457600080fd5b8151856020820283011164010000000082111715610cc157600080fd5b505092919050505095509550955095509550955091939550919395565b60008060009054906101000a900473ffffffffffffffffffffffffffffffffffffffff1673ffffffffffffffffffffffffffffffffffffffff1663098a2cdc6040518163ffffffff167c0100000000000000000000000000000000000000000000000000000000028152600401602060405180830381600087803b158015610d6557600080fd5b505af1158015610d79573d6000803e3d6000fd5b505050506040513d6020811015610d8f57600080fd5b810190808051906020019092919050505073ffffffffffffffffffffffffffffffffffffffff16637868bb2e8484336040518463ffffffff167c0100000000000000000000000000000000000000000000000000000000028152600401808473ffffffffffffffffffffffffffffffffffffffff1673ffffffffffffffffffffffffffffffffffffffff1681526020018381526020018273ffffffffffffffffffffffffffffffffffffffff1673ffffffffffffffffffffffffffffffffffffffff1681526020019350505050602060405180830381600087803b158015610e7657600080fd5b505af1158015610e8a573d6000803e3d6000fd5b505050506040513d6020811015610ea057600080fd5b8101908080519060200190929190505050905092915050565b6000806000606060008060008060008060608b73ffffffffffffffffffffffffffffffffffffffff1663ec2336846040518163ffffffff167c0100000000000000000000000000000000000000000000000000000000028152600401600060405180830381600087803b158015610f2f57600080fd5b505af1158015610f43573d6000803e3d6000fd5b505050506040513d6000823e3d601f19601f82011682018060405250610160811015610f6e57600080fd5b810190808051906020019092919080519060200190929190805190602001909291908051640100000000811115610fa457600080fd5b82810190506020810184811115610fba57600080fd5b8151856020820283011164010000000082111715610fd757600080fd5b5050929190602001805190602001909291908051906020019092919080519060200190929190805190602001909291908051906020019092919080519060200190929190805164010000000081111561102f57600080fd5b8281019050602081018481111561104557600080fd5b815185600182028301116401000000008211171561106257600080fd5b50509291905050509a509a509a509a509a509a509a509a509a509a509a5091939597999b90929496989a50565b6000809054906101000a900473ffffffffffffffffffffffffffffffffffffffff1673ffffffffffffffffffffffffffffffffffffffff1663098a2cdc6040518163ffffffff167c0100000000000000000000000000000000000000000000000000000000028152600401602060405180830381600087803b15801561111457600080fd5b505af1158015611128573d6000803e3d6000fd5b505050506040513d602081101561113e57600080fd5b810190808051906020019092919050505073ffffffffffffffffffffffffffffffffffffffff1663b8bc81dd8383336040518463ffffffff167c0100000000000000000000000000000000000000000000000000000000028152600401808473ffffffffffffffffffffffffffffffffffffffff1673ffffffffffffffffffffffffffffffffffffffff1681526020018381526020018273ffffffffffffffffffffffffffffffffffffffff1673ffffffffffffffffffffffffffffffffffffffff1681526020019350505050600060405180830381600087803b15801561122557600080fd5b505af1158015611239573d6000803e3d6000fd5b505050507f6dfd6b8941a3f4c41ea883d9d1c2c3928f3858466ec798efa481162c9f797d32828233604051808473ffffffffffffffffffffffffffffffffffffffff1673ffffffffffffffffffffffffffffffffffffffff1681526020018381526020018273ffffffffffffffffffffffffffffffffffffffff1673ffffffffffffffffffffffffffffffffffffffff168152602001935050505060405180910390a15050565b60003373ffffffffffffffffffffffffffffffffffffffff168c73ffffffffffffffffffffffffffffffffffffffff1663d66e57266040518163ffffffff167c0100000000000000000000000000000000000000000000000000000000028152600401602060405180830381600087803b15801561135d57600080fd5b505af1158015611371573d6000803e3d6000fd5b505050506040513d602081101561138757600080fd5b810190808051906020019092919050505073ffffffffffffffffffffffffffffffffffffffff16141515611423576040517f08c379a00000000000000000000000000000000000000000000000000000000081526004018080602001828103825260188152602001807f6d73672073656e646572206973206e6f7420577269746572000000000000000081525060200191505060405180910390fd5b60048989905014151561149e576040517f08c379a00000000000000000000000000000000000000000000000000000000081526004018080602001828103825260128152602001807f6c696d6974206c656e677468206572726f72000000000000000000000000000081525060200191505060405180910390fd5b6000809054906101000a900473ffffffffffffffffffffffffffffffffffffffff1673ffffffffffffffffffffffffffffffffffffffff16636c7113e46040518163ffffffff167c0100000000000000000000000000000000000000000000000000000000028152600401602060405180830381600087803b15801561152357600080fd5b505af1158015611537573d6000803e3d6000fd5b505050506040513d602081101561154d57600080fd5b810190808051906020019092919050505073ffffffffffffffffffffffffffffffffffffffff1663662f292a8d8d8d8d8d8d8d8d8d8d8d6040518c63ffffffff167c0100000000000000000000000000000000000000000000000000000000028152600401808c73ffffffffffffffffffffffffffffffffffffffff1673ffffffffffffffffffffffffffffffffffffffff1681526020018b81526020018a8152602001806020018881526020018781526020018681526020018581526020018060200183810383528b8b828181526020019250602002808284378201915050838103825285858281815260200192508082843782019150509d5050505050505050505050505050602060405180830381600087803b15801561166f57600080fd5b505af1158015611683573d6000803e3d6000fd5b505050506040513d602081101561169957600080fd5b810190808051906020019092919050505090508b73ffffffffffffffffffffffffffffffffffffffff168173ffffffffffffffffffffffffffffffffffffffff167f1d61903b6a76edca6c97c8db8a53ab0178c5532ca7d358087752c0259b9c75208d8d8d8d8d8d8d8d8d8d604051808b81526020018a8152602001806020018881526020018781526020018681526020018581526020018060200183810383528b8b828181526020019250602002808284378201915050838103825285858281815260200192508082843782019150509c5050505050505050505050505060405180910390a3505050505050505050505050565b8073ffffffffffffffffffffffffffffffffffffffff16632bbe5bfc6040518163ffffffff167c0100000000000000000000000000000000000000000000000000000000028152600401600060405180830381600087803b1580156117f257600080fd5b505af1158015611806573d6000803e3d6000fd5b505050508073ffffffffffffffffffffffffffffffffffffffff167fccea1887a2b5a99f4f3aea1d50e5983b94f7796174705823cac5f1f8fa33653d60405160405180910390a250565b6060806060806060808673ffffffffffffffffffffffffffffffffffffffff166343020b1a6040518163ffffffff167c0100000000000000000000000000000000000000000000000000000000028152600401600060405180830381600087803b1580156118bd57600080fd5b505af11580156118d1573d6000803e3d6000fd5b505050506040513d6000823e3d601f19601f8201168201806040525060c08110156118fb57600080fd5b81019080805164010000000081111561191357600080fd5b8281019050602081018481111561192957600080fd5b815185602082028301116401000000008211171561194657600080fd5b5050929190602001805164010000000081111561196257600080fd5b8281019050602081018481111561197857600080fd5b815185602082028301116401000000008211171561199557600080fd5b505092919060200180516401000000008111156119b157600080fd5b828101905060208101848111156119c757600080fd5b81518560208202830111640100000000821117156119e457600080fd5b50509291906020018051640100000000811115611a0057600080fd5b82810190506020810184811115611a1657600080fd5b8151856020820283011164010000000082111715611a3357600080fd5b50509291906020018051640100000000811115611a4f57600080fd5b82810190506020810184811115611a6557600080fd5b8151856020820283011164010000000082111715611a8257600080fd5b50509291906020018051640100000000811115611a9e57600080fd5b82810190506020810184811115611ab457600080fd5b8151856020820283011164010000000082111715611ad157600080fd5b505092919050505095509550955095509550955091939550919395565b6060600083839050604051908082528060200260200182016040528015611b245781602001602082028038833980820191505090505b509150600090505b83839050811015611d64578383828181101515611b4557fe5b9050602002013573ffffffffffffffffffffffffffffffffffffffff1673ffffffffffffffffffffffffffffffffffffffff1663ec2336846040518163ffffffff167c0100000000000000000000000000000000000000000000000000000000028152600401600060405180830381600087803b158015611bc557600080fd5b505af1158015611bd9573d6000803e3d6000fd5b505050506040513d6000823e3d601f19601f82011682018060405250610160811015611c0457600080fd5b810190808051906020019092919080519060200190929190805190602001909291908051640100000000811115611c3a57600080fd5b82810190506020810184811115611c5057600080fd5b8151856020820283011164010000000082111715611c6d57600080fd5b50509291906020018051906020019092919080519060200190929190805190602001909291908051906020019092919080519060200190929190805190602001909291908051640100000000811115611cc557600080fd5b82810190506020810184811115611cdb57600080fd5b8151856001820283011164010000000082111715611cf857600080fd5b505092919050505090919293949596979899509091929394959697985090919293949596975090919293949596509091929394509091929350909192509091509050508282815181101515611d4957fe5b90602001906020020181815250508080600101915050611b2c565b5092915050565b60008060009054906101000a900473ffffffffffffffffffffffffffffffffffffffff1673ffffffffffffffffffffffffffffffffffffffff16636c7113e46040518163ffffffff167c0100000000000000000000000000000000000000000000000000000000028152600401602060405180830381600087803b158015611df257600080fd5b505af1158015611e06573d6000803e3d6000fd5b505050506040513d6020811015611e1c57600080fd5b810190808051906020019092919050505073ffffffffffffffffffffffffffffffffffffffff1663b42c1d40836040518263ffffffff167c0100000000000000000000000000000000000000000000000000000000028152600401808273ffffffffffffffffffffffffffffffffffffffff1673ffffffffffffffffffffffffffffffffffffffff168152602001915050602060405180830381600087803b158015611ec757600080fd5b505af1158015611edb573d6000803e3d6000fd5b505050506040513d6020811015611ef157600080fd5b81019080805190602001909291905050509050919050565b6000809054906101000a900473ffffffffffffffffffffffffffffffffffffffff1673ffffffffffffffffffffffffffffffffffffffff1663098a2cdc6040518163ffffffff167c0100000000000000000000000000000000000000000000000000000000028152600401602060405180830381600087803b158015611f8e57600080fd5b505af1158015611fa2573d6000803e3d6000fd5b505050506040513d6020811015611fb857600080fd5b810190808051906020019092919050505073ffffffffffffffffffffffffffffffffffffffff1663f433eff2826040518263ffffffff167c0100000000000000000000000000000000000000000000000000000000028152600401808273ffffffffffffffffffffffffffffffffffffffff1673ffffffffffffffffffffffffffffffffffffffff168152602001915050600060405180830381600087803b15801561206357600080fd5b505af1158015612077573d6000803e3d6000fd5b505050507fe45cda82ceb7d57d4f02d5e5d894ce8edae45222107d1b0ec9ba15b19956809781604051808273ffffffffffffffffffffffffffffffffffffffff1673ffffffffffffffffffffffffffffffffffffffff16815260200191505060405180910390a1505600a165627a7a723058202253d87c6ebd935b0b53ba76b8d37d83abe1c031c915b4e7f3cbd27aae36b1570029",
  "source": "pragma solidity ^0.4.24;\r\n\r\nimport \"contracts/interface/IContent.sol\";\r\nimport \"contracts/interface/ICouncil.sol\";\r\nimport \"contracts/interface/IFund.sol\";\r\nimport \"contracts/interface/ISupporterPool.sol\";\r\nimport \"contracts/interface/IFundManager.sol\";\r\n\r\nimport \"contracts/utils/ValidValue.sol\";\r\n\r\ncontract ApiFund is ValidValue {\r\n\r\n    //\r\n    ICouncil council;\r\n\r\n    constructor(address _councilAddress) public validAddress(_councilAddress) {\r\n        council = ICouncil(_councilAddress);\r\n    }\r\n\r\n    ////-------- FundManager  --------\r\n    /**\r\n    * @dev   \r\n    * @param _content   \r\n    * @param _startTime   \r\n    * @param _endTime   \r\n    * @param _limit 0:maxcap(  ), 1:softcap(   ), 2:minimum(1  ), 3:maximum(1  )\r\n    * @param _poolSize    \r\n    * @param _releaseInterval   \r\n    * @param _supportFirstTime      \r\n    * @param _distributionRate    \r\n    * @param _detail    \r\n    */\r\n    function createFund(\r\n        address _content,\r\n        uint256 _startTime,\r\n        uint256 _endTime,\r\n        uint256[] _limit,\r\n        uint256 _poolSize,\r\n        uint256 _releaseInterval,\r\n        uint256 _supportFirstTime,\r\n        uint256 _distributionRate,\r\n        string _detail)\r\n        external\r\n    {\r\n        require(IContent(_content).getWriter() == msg.sender, \"msg sender is not Writer\");\r\n        require(_limit.length == 4, \"limit length error\");\r\n\r\n        address _fund = IFundManager(council.getFundManager())\r\n            .createFund(_content, _startTime, _endTime, _limit, _poolSize, _releaseInterval, _supportFirstTime, _distributionRate, _detail);\r\n\r\n        emit CreateFund(\r\n            _fund,\r\n            _content,\r\n            _startTime,\r\n            _endTime,\r\n            _limit,\r\n            _poolSize,\r\n            _releaseInterval,\r\n            _supportFirstTime,\r\n            _distributionRate,\r\n            _detail);\r\n    }\r\n\r\n    event CreateFund(\r\n        address indexed _fund,\r\n        address indexed _content,\r\n        uint256 _startTime,\r\n        uint256 _endTime,\r\n        uint256[] _limit,\r\n        uint256 _poolSize,\r\n        uint256 _releaseInterval,\r\n        uint256 _supportFirstTime,\r\n        uint256 _distributionRate,\r\n        string _detail\r\n    );\r\n\r\n    /**\r\n    * @dev    \r\n    * @param _content  \r\n    * @return fund_   \r\n    */\r\n    function getFund(address _content) external view returns (address fund_) {\r\n        return IFundManager(council.getFundManager()).getFund(_content);\r\n    }\r\n\r\n    ////-------- Fund  --------\r\n\r\n    /**\r\n    * @dev      \r\n    * @param _fund   \r\n    */\r\n    function endFund(address _fund) external {\r\n        IFund(_fund).endFund();\r\n\r\n        emit EndFund(_fund);\r\n    }\r\n\r\n    event EndFund(address indexed _fund);\r\n\r\n    /**\r\n    * @dev   \r\n    * @param _fund    \r\n    * @return user_   \r\n    * @return investment_   \r\n    * @return distributionRate_    \r\n    * @return refund_   \r\n    */\r\n    function getSupporters(address _fund)\r\n        external\r\n        view\r\n        returns (\r\n            address[] memory user_,\r\n            uint256[] memory investment_,\r\n            uint256[] memory collection_,\r\n            uint256[] memory reward_,\r\n            uint256[] memory distributionRate_,\r\n            bool[] memory refund_)\r\n    {\r\n        return IFund(_fund).getSupporters();\r\n    }\r\n\r\n    /**\r\n    * dev   \r\n    * @param _fund    \r\n    * @return startTime_   \r\n    * @return endTime_   \r\n    * @return limit_   \r\n    * @return poolSize_    \r\n    * @return releaseInterval_   \r\n    * @return supportFirstTime_      \r\n    * @return distributionRate_    \r\n    * @return needEndProcessing_    \r\n    * @return detail_    \r\n    */\r\n    function getFundInfo(address _fund)\r\n        external\r\n        view\r\n        returns (\r\n            address content_,\r\n            uint256 startTime_,\r\n            uint256 endTime_,\r\n            uint256[] memory limit_,\r\n            uint256 fundRise_,\r\n            uint256 poolSize_,\r\n            uint256 releaseInterval_,\r\n            uint256 supportFirstTime_,\r\n            uint256 distributionRate_,\r\n            bool needEndProcessing_,\r\n            string detail_)\r\n    {\r\n        return IFund(_fund).getFundInfo();\r\n    }\r\n\r\n    function getFundRise(address[] _funds)\r\n    external\r\n    view\r\n    returns (uint256[] fundRise_)\r\n    {\r\n        fundRise_ = new uint256[](_funds.length);\r\n\r\n        for(uint i = 0; i < _funds.length; i++) {\r\n            (,,,,fundRise_[i],,,,,,) = IFund(_funds[i]).getFundInfo();\r\n        }\r\n    }\r\n\r\n    ////-------- SupporterPool  --------\r\n\r\n    /**\r\n    * @dev         \r\n    * @param _fund    \r\n    */\r\n    function releaseDistribution(address _fund) external {\r\n        ISupporterPool(council.getSupporterPool()).releaseDistribution(_fund);\r\n\r\n        emit ReleaseDistribution(_fund);\r\n    }\r\n\r\n    event ReleaseDistribution(address _fund);\r\n\r\n    /**\r\n    * @dev      \r\n    * @param _fund     \r\n    * @return amount_  \r\n    * @return distributableTime_   \r\n    * @return distributedTime_   \r\n    * @return isVoting_   \r\n    */\r\n    function getDistributions(address _fund)\r\n        external\r\n        view\r\n        returns (\r\n            uint256[] memory amount_,\r\n            uint256[] memory distributableTime_,\r\n            uint256[] memory distributedTime_,\r\n            uint256[] memory state_,\r\n            uint256[] memory votingCount_,\r\n            bool[] memory isVoting_)\r\n    {\r\n        return ISupporterPool(council.getSupporterPool()).getDistributions(_fund, msg.sender);\r\n    }\r\n\r\n    /**\r\n    * @dev        \r\n    * @param _fund   \r\n    * @param _index   index\r\n    */\r\n    function vote(address _fund, uint256 _index) external {\r\n        ISupporterPool(council.getSupporterPool()).vote(_fund, _index, msg.sender);\r\n\r\n        emit Vote(_fund, _index, msg.sender);\r\n    }\r\n\r\n    event Vote(address _fund, uint256 _index, address _sender);\r\n\r\n    /**\r\n    * @dev    \r\n    * @param _fund  fund \r\n    * @param _index  Index\r\n    * @return voting_  \r\n    */\r\n    function isVoting(address _fund, uint256 _index) external view returns (bool voting_) {\r\n        return ISupporterPool(council.getSupporterPool()).isVoting(_fund, _index, msg.sender);\r\n    }\r\n}\r\n",
  "sourcePath": "C:\\piction\\piction-poc\\contracts\\api\\ApiFund.sol",
  "compiler": {
    "name": "solc",
    "version": "0.4.24+commit.e67f0147.Emscripten.clang"
  },
  "schemaVersion": "2.0.1",
  "updatedAt": "2018-11-12T08:33:57.487Z"
}