{
  "contractName": "ApiReport",
  "abi": [
    {
      "inputs": [
        {
          "name": "_councilAddress",
          "type": "address"
        }
      ],
      "payable": false,
      "stateMutability": "nonpayable",
      "type": "constructor"
    },
    {
      "anonymous": false,
      "inputs": [
        {
          "indexed": false,
          "name": "_date",
          "type": "uint256"
        },
        {
          "indexed": false,
          "name": "_index",
          "type": "uint256"
        },
        {
          "indexed": true,
          "name": "_content",
          "type": "address"
        },
        {
          "indexed": true,
          "name": "_reporter",
          "type": "address"
        },
        {
          "indexed": false,
          "name": "_type",
          "type": "uint256"
        },
        {
          "indexed": false,
          "name": "_description",
          "type": "string"
        },
        {
          "indexed": false,
          "name": "_deductionAmount",
          "type": "uint256"
        }
      ],
      "name": "ReportDisposal",
      "type": "event"
    },
    {
      "constant": false,
      "inputs": [],
      "name": "withdrawRegistration",
      "outputs": [],
      "payable": false,
      "stateMutability": "nonpayable",
      "type": "function"
    },
    {
      "constant": true,
      "inputs": [],
      "name": "getRegistrationAmount",
      "outputs": [
        {
          "name": "amount_",
          "type": "uint256"
        },
        {
          "name": "lockTime_",
          "type": "uint256"
        },
        {
          "name": "isBlock_",
          "type": "bool"
        }
      ],
      "payable": false,
      "stateMutability": "view",
      "type": "function"
    },
    {
      "constant": false,
      "inputs": [
        {
          "name": "_content",
          "type": "address"
        },
        {
          "name": "_detail",
          "type": "string"
        }
      ],
      "name": "sendReport",
      "outputs": [],
      "payable": false,
      "stateMutability": "nonpayable",
      "type": "function"
    },
    {
      "constant": false,
      "inputs": [
        {
          "name": "_index",
          "type": "uint256"
        },
        {
          "name": "_content",
          "type": "address"
        },
        {
          "name": "_reporter",
          "type": "address"
        },
        {
          "name": "_type",
          "type": "uint256"
        },
        {
          "name": "_description",
          "type": "string"
        }
      ],
      "name": "reportDisposal",
      "outputs": [],
      "payable": false,
      "stateMutability": "nonpayable",
      "type": "function"
    },
    {
      "constant": true,
      "inputs": [
        {
          "name": "ids",
          "type": "uint256[]"
        }
      ],
      "name": "getReportResult",
      "outputs": [
        {
          "name": "completeDate_",
          "type": "uint256[]"
        },
        {
          "name": "completeType_",
          "type": "uint256[]"
        },
        {
          "name": "completeAmount_",
          "type": "uint256[]"
        }
      ],
      "payable": false,
      "stateMutability": "view",
      "type": "function"
    },
    {
      "constant": true,
      "inputs": [
        {
          "name": "_content",
          "type": "address"
        }
      ],
      "name": "getUncompletedReportCount",
      "outputs": [
        {
          "name": "count_",
          "type": "uint256"
        }
      ],
      "payable": false,
      "stateMutability": "view",
      "type": "function"
    },
    {
      "constant": true,
      "inputs": [
        {
          "name": "_contents",
          "type": "address[]"
        }
      ],
      "name": "getUncompletedReportCounts",
      "outputs": [
        {
          "name": "counts_",
          "type": "uint256[]"
        }
      ],
      "payable": false,
      "stateMutability": "view",
      "type": "function"
    }
  ],
  "bytecode": "0x608060405234801561001057600080fd5b5060405160208061186d8339810180604052810190808051906020019092919050505080600073ffffffffffffffffffffffffffffffffffffffff168173ffffffffffffffffffffffffffffffffffffffff161415151561007057600080fd5b3073ffffffffffffffffffffffffffffffffffffffff168173ffffffffffffffffffffffffffffffffffffffff16141515156100ab57600080fd5b816000806101000a81548173ffffffffffffffffffffffffffffffffffffffff021916908373ffffffffffffffffffffffffffffffffffffffff1602179055505050611771806100fc6000396000f300608060405260043610610083576000357c0100000000000000000000000000000000000000000000000000000000900463ffffffff16806302c7acb514610088578063136449fe14610117578063593b1b9c1461015457806372e07e181461016b57806390a9cfbe146101c2578063a061c63a1461021d578063a8485ae1146102ad575b600080fd5b34801561009457600080fd5b5061011560048036038101908080359060200190929190803573ffffffffffffffffffffffffffffffffffffffff169060200190929190803573ffffffffffffffffffffffffffffffffffffffff169060200190929190803590602001909291908035906020019082018035906020019190919293919293905050506103cd565b005b34801561012357600080fd5b5061012c6108be565b6040518084815260200183815260200182151515158152602001935050505060405180910390f35b34801561016057600080fd5b50610169610c14565b005b34801561017757600080fd5b506101ac600480360381019080803573ffffffffffffffffffffffffffffffffffffffff169060200190929190505050610d88565b6040518082815260200191505060405180910390f35b3480156101ce57600080fd5b5061021b600480360381019080803573ffffffffffffffffffffffffffffffffffffffff169060200190929190803590602001908201803590602001919091929391929390505050610f26565b005b34801561022957600080fd5b5061025660048036038101908080359060200190820180359060200191909192939192939050505061116c565b6040518080602001828103825283818151815260200191508051906020019060200280838360005b8381101561029957808201518184015260208101905061027e565b505050509050019250505060405180910390f35b3480156102b957600080fd5b506102e66004803603810190808035906020019082018035906020019190919293919293905050506113a4565b60405180806020018060200180602001848103845287818151815260200191508051906020019060200280838360005b83811015610331578082015181840152602081019050610316565b50505050905001848103835286818151815260200191508051906020019060200280838360005b83811015610373578082015181840152602081019050610358565b50505050905001848103825285818151815260200191508051906020019060200280838360005b838110156103b557808201518184015260208101905061039a565b50505050905001965050505050505060405180910390f35b600085600073ffffffffffffffffffffffffffffffffffffffff168173ffffffffffffffffffffffffffffffffffffffff161415151561040c57600080fd5b3073ffffffffffffffffffffffffffffffffffffffff168173ffffffffffffffffffffffffffffffffffffffff161415151561044757600080fd5b85600073ffffffffffffffffffffffffffffffffffffffff168173ffffffffffffffffffffffffffffffffffffffff161415151561048457600080fd5b3073ffffffffffffffffffffffffffffffffffffffff168173ffffffffffffffffffffffffffffffffffffffff16141515156104bf57600080fd5b6000809054906101000a900473ffffffffffffffffffffffffffffffffffffffff1673ffffffffffffffffffffffffffffffffffffffff1663a230c524336040518263ffffffff167c0100000000000000000000000000000000000000000000000000000000028152600401808273ffffffffffffffffffffffffffffffffffffffff1673ffffffffffffffffffffffffffffffffffffffff168152602001915050602060405180830381600087803b15801561057b57600080fd5b505af115801561058f573d6000803e3d6000fd5b505050506040513d60208110156105a557600080fd5b8101908080519060200190929190505050151561062a576040517f08c379a00000000000000000000000000000000000000000000000000000000081526004018080602001828103825260208152602001807f6d73672073656e646572206973206e6f7420636f756e63696c206d656d62657281525060200191505060405180910390fd5b60008611801561063a5750600686105b15156106ae576040517f08c379a000000000000000000000000000000000000000000000000000000000815260040180806020018281038252600b8152602001807f6f7574206f66207479706500000000000000000000000000000000000000000081525060200191505060405180910390fd5b6000809054906101000a900473ffffffffffffffffffffffffffffffffffffffff1673ffffffffffffffffffffffffffffffffffffffff166302c7acb58a8a8a8a8a8a6040518763ffffffff167c0100000000000000000000000000000000000000000000000000000000028152600401808781526020018673ffffffffffffffffffffffffffffffffffffffff1673ffffffffffffffffffffffffffffffffffffffff1681526020018573ffffffffffffffffffffffffffffffffffffffff1673ffffffffffffffffffffffffffffffffffffffff1681526020018481526020018060200182810382528484828181526020019250808284378201915050975050505050505050602060405180830381600087803b1580156107d057600080fd5b505af11580156107e4573d6000803e3d6000fd5b505050506040513d60208110156107fa57600080fd5b810190808051906020019092919050505092508673ffffffffffffffffffffffffffffffffffffffff168873ffffffffffffffffffffffffffffffffffffffff167f1278422bf620116d722d3c84ee2ac00e427520a90d8f39211d00424c066b379d6108646116eb565b8c8a8a8a8a60405180878152602001868152602001858152602001806020018381526020018281038252858582818152602001925080828437820191505097505050505050505060405180910390a3505050505050505050565b6000806000806000809054906101000a900473ffffffffffffffffffffffffffffffffffffffff1673ffffffffffffffffffffffffffffffffffffffff1663e4085d676040518163ffffffff167c0100000000000000000000000000000000000000000000000000000000028152600401602060405180830381600087803b15801561094957600080fd5b505af115801561095d573d6000803e3d6000fd5b505050506040513d602081101561097357600080fd5b810190808051906020019092919050505090508073ffffffffffffffffffffffffffffffffffffffff1663c7a6f64f336040518263ffffffff167c0100000000000000000000000000000000000000000000000000000000028152600401808273ffffffffffffffffffffffffffffffffffffffff1673ffffffffffffffffffffffffffffffffffffffff168152602001915050602060405180830381600087803b158015610a2157600080fd5b505af1158015610a35573d6000803e3d6000fd5b505050506040513d6020811015610a4b57600080fd5b81019080805190602001909291905050508173ffffffffffffffffffffffffffffffffffffffff16633be7dcde336040518263ffffffff167c0100000000000000000000000000000000000000000000000000000000028152600401808273ffffffffffffffffffffffffffffffffffffffff1673ffffffffffffffffffffffffffffffffffffffff168152602001915050602060405180830381600087803b158015610af757600080fd5b505af1158015610b0b573d6000803e3d6000fd5b505050506040513d6020811015610b2157600080fd5b81019080805190602001909291905050508273ffffffffffffffffffffffffffffffffffffffff1663b32dc983336040518263ffffffff167c0100000000000000000000000000000000000000000000000000000000028152600401808273ffffffffffffffffffffffffffffffffffffffff1673ffffffffffffffffffffffffffffffffffffffff168152602001915050602060405180830381600087803b158015610bcd57600080fd5b505af1158015610be1573d6000803e3d6000fd5b505050506040513d6020811015610bf757600080fd5b810190808051906020019092919050505093509350935050909192565b6000809054906101000a900473ffffffffffffffffffffffffffffffffffffffff1673ffffffffffffffffffffffffffffffffffffffff1663e4085d676040518163ffffffff167c0100000000000000000000000000000000000000000000000000000000028152600401602060405180830381600087803b158015610c9957600080fd5b505af1158015610cad573d6000803e3d6000fd5b505050506040513d6020811015610cc357600080fd5b810190808051906020019092919050505073ffffffffffffffffffffffffffffffffffffffff1663ee151eeb336040518263ffffffff167c0100000000000000000000000000000000000000000000000000000000028152600401808273ffffffffffffffffffffffffffffffffffffffff1673ffffffffffffffffffffffffffffffffffffffff168152602001915050600060405180830381600087803b158015610d6e57600080fd5b505af1158015610d82573d6000803e3d6000fd5b50505050565b60008060009054906101000a900473ffffffffffffffffffffffffffffffffffffffff1673ffffffffffffffffffffffffffffffffffffffff1663e4085d676040518163ffffffff167c0100000000000000000000000000000000000000000000000000000000028152600401602060405180830381600087803b158015610e0f57600080fd5b505af1158015610e23573d6000803e3d6000fd5b505050506040513d6020811015610e3957600080fd5b810190808051906020019092919050505073ffffffffffffffffffffffffffffffffffffffff166372e07e18836040518263ffffffff167c0100000000000000000000000000000000000000000000000000000000028152600401808273ffffffffffffffffffffffffffffffffffffffff1673ffffffffffffffffffffffffffffffffffffffff168152602001915050602060405180830381600087803b158015610ee457600080fd5b505af1158015610ef8573d6000803e3d6000fd5b505050506040513d6020811015610f0e57600080fd5b81019080805190602001909291905050509050919050565b82600073ffffffffffffffffffffffffffffffffffffffff168173ffffffffffffffffffffffffffffffffffffffff1614151515610f6357600080fd5b3073ffffffffffffffffffffffffffffffffffffffff168173ffffffffffffffffffffffffffffffffffffffff1614151515610f9e57600080fd5b6000809054906101000a900473ffffffffffffffffffffffffffffffffffffffff1673ffffffffffffffffffffffffffffffffffffffff1663e4085d676040518163ffffffff167c0100000000000000000000000000000000000000000000000000000000028152600401602060405180830381600087803b15801561102357600080fd5b505af1158015611037573d6000803e3d6000fd5b505050506040513d602081101561104d57600080fd5b810190808051906020019092919050505073ffffffffffffffffffffffffffffffffffffffff1663c16f8440853386866040518563ffffffff167c0100000000000000000000000000000000000000000000000000000000028152600401808573ffffffffffffffffffffffffffffffffffffffff1673ffffffffffffffffffffffffffffffffffffffff1681526020018473ffffffffffffffffffffffffffffffffffffffff1673ffffffffffffffffffffffffffffffffffffffff168152602001806020018281038252848482818152602001925080828437820191505095505050505050600060405180830381600087803b15801561114e57600080fd5b505af1158015611162573d6000803e3d6000fd5b5050505050505050565b60606000838390506040519080825280602002602001820160405280156111a25781602001602082028038833980820191505090505b509150600090505b8383905081101561139d576000809054906101000a900473ffffffffffffffffffffffffffffffffffffffff1673ffffffffffffffffffffffffffffffffffffffff1663e4085d676040518163ffffffff167c0100000000000000000000000000000000000000000000000000000000028152600401602060405180830381600087803b15801561123a57600080fd5b505af115801561124e573d6000803e3d6000fd5b505050506040513d602081101561126457600080fd5b810190808051906020019092919050505073ffffffffffffffffffffffffffffffffffffffff166372e07e18858584818110151561129e57fe5b9050602002013573ffffffffffffffffffffffffffffffffffffffff166040518263ffffffff167c0100000000000000000000000000000000000000000000000000000000028152600401808273ffffffffffffffffffffffffffffffffffffffff1673ffffffffffffffffffffffffffffffffffffffff168152602001915050602060405180830381600087803b15801561133957600080fd5b505af115801561134d573d6000803e3d6000fd5b505050506040513d602081101561136357600080fd5b8101908080519060200190929190505050828281518110151561138257fe5b906020019060200201818152505080806001019150506111aa565b5092915050565b60608060606000858590506040519080825280602002602001820160405280156113dd5781602001602082028038833980820191505090505b509350858590506040519080825280602002602001820160405280156114125781602001602082028038833980820191505090505b509250858590506040519080825280602002602001820160405280156114475781602001602082028038833980820191505090505b509150600090505b858590508110156116e3576000809054906101000a900473ffffffffffffffffffffffffffffffffffffffff1673ffffffffffffffffffffffffffffffffffffffff1663e4085d676040518163ffffffff167c0100000000000000000000000000000000000000000000000000000000028152600401602060405180830381600087803b1580156114df57600080fd5b505af11580156114f3573d6000803e3d6000fd5b505050506040513d602081101561150957600080fd5b810190808051906020019092919050505073ffffffffffffffffffffffffffffffffffffffff16634e7f9b19878784818110151561154357fe5b905060200201356040518263ffffffff167c010000000000000000000000000000000000000000000000000000000002815260040180828152602001915050600060405180830381600087803b15801561159c57600080fd5b505af11580156115b0573d6000803e3d6000fd5b505050506040513d6000823e3d601f19601f8201168201806040525060e08110156115da57600080fd5b81019080805190602001909291908051906020019092919080519060200190929190805164010000000081111561161057600080fd5b8281019050602081018481111561162657600080fd5b815185600182028301116401000000008211171561164357600080fd5b505092919060200180519060200190929190805190602001909291908051906020019092919050505090919293949550909192939450909192935090919250868481518110151561169057fe5b90602001906020020186858151811015156116a757fe5b90602001906020020186868151811015156116be57fe5b906020019060200201838152508381525083815250505050808060010191505061144f565b509250925092565b60006117026103e84261170790919063ffffffff16565b905090565b600080600084141561171c576000915061173e565b828402905082848281151561172d57fe5b0414151561173a57600080fd5b8091505b50929150505600a165627a7a72305820ecf245ed9c73f2594e1ca44ce52640f155b5ad6940e30a0419c084af1726cb5e0029",
  "source": "pragma solidity ^0.4.24;\r\n\r\nimport \"contracts/interface/ICouncil.sol\";\r\nimport \"contracts/interface/IReport.sol\";\r\n\r\nimport \"contracts/utils/ValidValue.sol\";\r\nimport \"contracts/utils/TimeLib.sol\";\r\n\r\ncontract ApiReport is ValidValue {\r\n\r\n    //위원회\r\n    ICouncil council;\r\n\r\n    constructor(address _councilAddress) public validAddress(_councilAddress) {\r\n        council = ICouncil(_councilAddress);\r\n    }\r\n\r\n    //-------- 신고 등록금 관련 --------\r\n\r\n    /**\r\n    * @dev 신고자가 맞긴 보증금을 찾아감\r\n    */\r\n    function withdrawRegistration() external {\r\n        return IReport(council.getReport()).withdrawRegistration(msg.sender);\r\n    }\r\n\r\n    /**\r\n    * @dev 신고자가 맞긴 신고 보증금 잔액과 잠금 기간, 블락 유무을 조회한다\r\n    */\r\n    function getRegistrationAmount() external view returns(uint256 amount_, uint256 lockTime_, bool isBlock_) {\r\n        IReport report = IReport(council.getReport());\r\n        return (\r\n            report.getRegistrationAmount(msg.sender),\r\n            report.getRegistrationLockTime(msg.sender),\r\n            report.getReporterBlock(msg.sender)\r\n        );\r\n    }\r\n\r\n    //-------- 신고 관련 --------\r\n\r\n    /**\r\n    * @dev 신고자가 어떤 작품에 대해 신고를 함\r\n    * @param _content 신고 할 작품 주소\r\n    * @param _detail 신고정보\r\n    */\r\n    function sendReport(address _content, string _detail) external validAddress(_content) {\r\n        IReport(council.getReport()).sendReport(_content, msg.sender, _detail);\r\n    }\r\n\r\n    /**\r\n    * @dev 신고 목록을 처리함\r\n    * @param _index Report 인덱스 값\r\n    * @param _content 작품의 주소\r\n    * @param _reporter 신고자의 주소\r\n    * @param _type 처리 타입 : 1 작품 차단, 2 작가 경고, 3 신고 무효, 4 중복 신고, 5 잘못된 신고\r\n    * @param _description 처리내역\r\n    */\r\n    function reportDisposal(uint256 _index, address _content, address _reporter, uint256 _type, string _description) \r\n        external \r\n        validAddress(_content)\r\n        validAddress(_reporter)\r\n    {\r\n        require(council.isMember(msg.sender), \"msg sender is not council member\");\r\n        require(_type > 0 && _type < 6, \"out of type\");\r\n\r\n        uint256 deductionAmount;\r\n        deductionAmount = council.reportDisposal(_index, _content, _reporter, _type, _description);\r\n        emit ReportDisposal(TimeLib.currentTime(), _index, _content, _reporter, _type, _description, deductionAmount);\r\n    }\r\n\r\n    event ReportDisposal(uint256 _date, uint256 _index, address indexed _content, address indexed _reporter, uint256 _type, string _description, uint256 _deductionAmount);\r\n\r\n    /**\r\n    * @dev 신고 목록의 id 값으로 처리여부, 처리타입, 보상 토큰량을 회신함\r\n    * @param ids 신고 id 목록\r\n    */\r\n    function getReportResult(uint256[] ids)\r\n        external\r\n        view\r\n        returns(uint256[] memory completeDate_, uint256[] memory completeType_, uint256[] memory completeAmount_)\r\n    {\r\n        completeDate_ = new uint256[](ids.length);\r\n        completeType_ = new uint256[](ids.length);\r\n        completeAmount_ = new uint256[](ids.length);\r\n\r\n        for(uint i = 0; i < ids.length; i++) {\r\n            (,,,,completeDate_[i],completeType_[i], completeAmount_[i]) = IReport(council.getReport()).getReport(ids[i]);\r\n        }\r\n    }\r\n\r\n    /**\r\n    * @dev 작품의 신고 중 처리되지 않은 건수 조회\r\n    * @param _content 확인할 작품의 주소\r\n    */\r\n    function getUncompletedReportCount(address _content) external view returns(uint256 count_) {\r\n        return IReport(council.getReport()).getUncompletedReportCount(_content);\r\n    }\r\n\r\n    /**\r\n    * @dev 작품들의 신고 중 처리되지 않은 건수 조회\r\n    * @param _contents 확인할 작품들의 주소\r\n    */\r\n    function getUncompletedReportCounts(address[] _contents) external view returns(uint256[] memory counts_) {\r\n        counts_ = new uint256[](_contents.length);\r\n\r\n        for (uint256 i = 0; i < _contents.length; i++) {\r\n            counts_[i] = IReport(council.getReport()).getUncompletedReportCount(_contents[i]);\r\n        }\r\n    }\r\n}\r\n",
  "sourcePath": "C:\\piction\\piction-poc\\contracts\\api\\ApiReport.sol",
  "compiler": {
    "name": "solc",
    "version": "0.4.24+commit.e67f0147.Emscripten.clang"
  },
  "schemaVersion": "2.0.1",
  "updatedAt": "2018-11-12T08:34:06.527Z"
}