{
  "contractName": "ContentsManager",
  "abi": [
    {
      "constant": true,
      "inputs": [
        {
          "name": "",
          "type": "uint256"
        }
      ],
      "name": "contentsAddress",
      "outputs": [
        {
          "name": "",
          "type": "address"
        }
      ],
      "payable": false,
      "stateMutability": "view",
      "type": "function"
    },
    {
      "inputs": [
        {
          "name": "_councilAddr",
          "type": "address"
        }
      ],
      "payable": false,
      "stateMutability": "nonpayable",
      "type": "constructor"
    },
    {
      "anonymous": false,
      "inputs": [
        {
          "indexed": true,
          "name": "_writer",
          "type": "address"
        },
        {
          "indexed": false,
          "name": "_amount",
          "type": "uint256"
        }
      ],
      "name": "ContentInitialDeposit",
      "type": "event"
    },
    {
      "anonymous": false,
      "inputs": [
        {
          "indexed": true,
          "name": "_writer",
          "type": "address"
        },
        {
          "indexed": true,
          "name": "_content",
          "type": "address"
        },
        {
          "indexed": false,
          "name": "_value",
          "type": "uint256"
        }
      ],
      "name": "TransferInitialDeposit",
      "type": "event"
    },
    {
      "anonymous": false,
      "inputs": [
        {
          "indexed": true,
          "name": "_contentsIndexId",
          "type": "uint256"
        },
        {
          "indexed": true,
          "name": "_contentsAddress",
          "type": "address"
        },
        {
          "indexed": true,
          "name": "_writerAddress",
          "type": "address"
        },
        {
          "indexed": false,
          "name": "_writerName",
          "type": "string"
        },
        {
          "indexed": false,
          "name": "_record",
          "type": "string"
        }
      ],
      "name": "RegisterContents",
      "type": "event"
    },
    {
      "constant": false,
      "inputs": [
        {
          "name": "_writer",
          "type": "address"
        },
        {
          "name": "_writerName",
          "type": "string"
        },
        {
          "name": "_record",
          "type": "string"
        }
      ],
      "name": "addContents",
      "outputs": [],
      "payable": false,
      "stateMutability": "nonpayable",
      "type": "function"
    },
    {
      "constant": true,
      "inputs": [],
      "name": "getContentsAddress",
      "outputs": [
        {
          "name": "contentsAddress_",
          "type": "address[]"
        }
      ],
      "payable": false,
      "stateMutability": "view",
      "type": "function"
    },
    {
      "constant": true,
      "inputs": [],
      "name": "getPublishContentsAddress",
      "outputs": [
        {
          "name": "contentsAddress_",
          "type": "address[]"
        }
      ],
      "payable": false,
      "stateMutability": "view",
      "type": "function"
    },
    {
      "constant": true,
      "inputs": [
        {
          "name": "_writer",
          "type": "address"
        }
      ],
      "name": "getWriterContentsAddress",
      "outputs": [
        {
          "name": "writerContentsAddress_",
          "type": "address[]"
        }
      ],
      "payable": false,
      "stateMutability": "view",
      "type": "function"
    },
    {
      "constant": false,
      "inputs": [
        {
          "name": "_from",
          "type": "address"
        },
        {
          "name": "_value",
          "type": "uint256"
        },
        {
          "name": "_token",
          "type": "address"
        },
        {
          "name": "_data",
          "type": "bytes"
        }
      ],
      "name": "receiveApproval",
      "outputs": [],
      "payable": false,
      "stateMutability": "nonpayable",
      "type": "function"
    },
    {
      "constant": true,
      "inputs": [
        {
          "name": "_writer",
          "type": "address"
        }
      ],
      "name": "getInitialDeposit",
      "outputs": [
        {
          "name": "initialDeposit_",
          "type": "uint256"
        }
      ],
      "payable": false,
      "stateMutability": "view",
      "type": "function"
    }
  ],
  "bytecode": "0x608060405234801561001057600080fd5b50604051602080614c7e8339810180604052810190808051906020019092919050505080600073ffffffffffffffffffffffffffffffffffffffff168173ffffffffffffffffffffffffffffffffffffffff161415151561007057600080fd5b3073ffffffffffffffffffffffffffffffffffffffff168173ffffffffffffffffffffffffffffffffffffffff16141515156100ab57600080fd5b81600360006101000a81548173ffffffffffffffffffffffffffffffffffffffff021916908373ffffffffffffffffffffffffffffffffffffffff160217905550600360009054906101000a900473ffffffffffffffffffffffffffffffffffffffff1673ffffffffffffffffffffffffffffffffffffffff166321df0da76040518163ffffffff167c0100000000000000000000000000000000000000000000000000000000028152600401602060405180830381600087803b15801561017257600080fd5b505af1158015610186573d6000803e3d6000fd5b505050506040513d602081101561019c57600080fd5b8101908080519060200190929190505050600460006101000a81548173ffffffffffffffffffffffffffffffffffffffff021916908373ffffffffffffffffffffffffffffffffffffffff1602179055505050614a80806101fe6000396000f3006080604052600436106200008b576000357c0100000000000000000000000000000000000000000000000000000000900463ffffffff1680632b4e75a9146200009057806339cbfb84146200012d5780635f87753914620001a35780638f4ffcb11462000214578063b690b30514620002ca578063ba922de9146200033b578063d883a8b81462000395575b600080fd5b3480156200009d57600080fd5b50620000d4600480360381019080803573ffffffffffffffffffffffffffffffffffffffff16906020019092919050505062000405565b6040518080602001828103825283818151815260200191508051906020019060200280838360005b8381101562000119578082015181840152602081019050620000fc565b505050509050019250505060405180910390f35b3480156200013a57600080fd5b50620001a1600480360381019080803573ffffffffffffffffffffffffffffffffffffffff169060200190929190803590602001908201803590602001919091929391929390803590602001908201803590602001919091929391929390505050620004d4565b005b348015620001b057600080fd5b50620001bb62000b7b565b6040518080602001828103825283818151815260200191508051906020019060200280838360005b8381101562000200578082015181840152602081019050620001e3565b505050509050019250505060405180910390f35b3480156200022157600080fd5b50620002c8600480360381019080803573ffffffffffffffffffffffffffffffffffffffff16906020019092919080359060200190929190803573ffffffffffffffffffffffffffffffffffffffff169060200190929190803590602001908201803590602001908080601f016020809104026020016040519081016040528093929190818152602001838380828437820191505050505050919291929050505062000c0b565b005b348015620002d757600080fd5b50620002e262001086565b6040518080602001828103825283818151815260200191508051906020019060200280838360005b83811015620003275780820151818401526020810190506200030a565b505050509050019250505060405180910390f35b3480156200034857600080fd5b506200037f600480360381019080803573ffffffffffffffffffffffffffffffffffffffff16906020019092919050505062001383565b6040518082815260200191505060405180910390f35b348015620003a257600080fd5b50620003c360048036038101908080359060200190929190505050620013cb565b604051808273ffffffffffffffffffffffffffffffffffffffff1673ffffffffffffffffffffffffffffffffffffffff16815260200191505060405180910390f35b6060600160008373ffffffffffffffffffffffffffffffffffffffff1673ffffffffffffffffffffffffffffffffffffffff168152602001908152602001600020805480602002602001604051908101604052809291908181526020018280548015620004c857602002820191906000526020600020905b8160009054906101000a900473ffffffffffffffffffffffffffffffffffffffff1673ffffffffffffffffffffffffffffffffffffffff16815260200190600101908083116200047d575b50505050509050919050565b6000338073ffffffffffffffffffffffffffffffffffffffff16600360009054906101000a900473ffffffffffffffffffffffffffffffffffffffff1673ffffffffffffffffffffffffffffffffffffffff16639d27f1056040518163ffffffff167c0100000000000000000000000000000000000000000000000000000000028152600401602060405180830381600087803b1580156200057557600080fd5b505af11580156200058a573d6000803e3d6000fd5b505050506040513d6020811015620005a157600080fd5b810190808051906020019092919050505073ffffffffffffffffffffffffffffffffffffffff1614151562000664576040517f08c379a00000000000000000000000000000000000000000000000000000000081526004018080602001828103825260388152602001807f4163636573206661696c65643a204f6e6c792041636365737320746f2041706981526020017f436f6e74656e747320736d61727420636f6e74726163742e000000000000000081525060400191505060405180910390fd5b3373ffffffffffffffffffffffffffffffffffffffff16600360009054906101000a900473ffffffffffffffffffffffffffffffffffffffff1673ffffffffffffffffffffffffffffffffffffffff16639d27f1056040518163ffffffff167c0100000000000000000000000000000000000000000000000000000000028152600401602060405180830381600087803b1580156200070257600080fd5b505af115801562000717573d6000803e3d6000fd5b505050506040513d60208110156200072e57600080fd5b810190808051906020019092919050505073ffffffffffffffffffffffffffffffffffffffff16141515620007f1576040517f08c379a00000000000000000000000000000000000000000000000000000000081526004018080602001828103825260338152602001807f436f6e74656e74206372656174696f6e206661696c65643a204f6e6c7920417081526020017f69436f6e74656e747320636f6e74726163742e0000000000000000000000000081525060400191505060405180910390fd5b8383888888600360009054906101000a900473ffffffffffffffffffffffffffffffffffffffff166200082362001963565b80806020018673ffffffffffffffffffffffffffffffffffffffff1673ffffffffffffffffffffffffffffffffffffffff168152602001806020018473ffffffffffffffffffffffffffffffffffffffff1673ffffffffffffffffffffffffffffffffffffffff168152602001838103835289898281815260200192508082843782019150508381038252868682818152602001925080828437820191505098505050505050505050604051809103906000f080158015620008e9573d6000803e3d6000fd5b5091508173ffffffffffffffffffffffffffffffffffffffff1663f2fde38b886040518263ffffffff167c0100000000000000000000000000000000000000000000000000000000028152600401808273ffffffffffffffffffffffffffffffffffffffff1673ffffffffffffffffffffffffffffffffffffffff168152602001915050600060405180830381600087803b1580156200098857600080fd5b505af11580156200099d573d6000803e3d6000fd5b5050505060028290806001815401808255809150509060018203906000526020600020016000909192909190916101000a81548173ffffffffffffffffffffffffffffffffffffffff021916908373ffffffffffffffffffffffffffffffffffffffff16021790555050600160008873ffffffffffffffffffffffffffffffffffffffff1673ffffffffffffffffffffffffffffffffffffffff1681526020019081526020016000208290806001815401808255809150509060018203906000526020600020016000909192909190916101000a81548173ffffffffffffffffffffffffffffffffffffffff021916908373ffffffffffffffffffffffffffffffffffffffff1602179055505062000ab687836200140a565b8673ffffffffffffffffffffffffffffffffffffffff168273ffffffffffffffffffffffffffffffffffffffff1662000aff60016002805490506200187090919063ffffffff16565b7f4d0e3a89bf2020100e3c1274956feaf03519a3d5fda618fabb5a1e877025d1f1898989896040518080602001806020018381038352878782818152602001925080828437820191505083810382528585828181526020019250808284378201915050965050505050505060405180910390a450505050505050565b6060600280548060200260200160405190810160405280929190818152602001828054801562000c0157602002820191906000526020600020905b8160009054906101000a900473ffffffffffffffffffffffffffffffffffffffff1673ffffffffffffffffffffffffffffffffffffffff168152602001906001019080831162000bb6575b5050505050905090565b83600073ffffffffffffffffffffffffffffffffffffffff168173ffffffffffffffffffffffffffffffffffffffff161415151562000c4957600080fd5b3073ffffffffffffffffffffffffffffffffffffffff168173ffffffffffffffffffffffffffffffffffffffff161415151562000c8557600080fd5b82600073ffffffffffffffffffffffffffffffffffffffff168173ffffffffffffffffffffffffffffffffffffffff161415151562000cc357600080fd5b3073ffffffffffffffffffffffffffffffffffffffff168173ffffffffffffffffffffffffffffffffffffffff161415151562000cff57600080fd5b8373ffffffffffffffffffffffffffffffffffffffff16600460009054906101000a900473ffffffffffffffffffffffffffffffffffffffff1673ffffffffffffffffffffffffffffffffffffffff1614151562000d5c57600080fd5b84600360009054906101000a900473ffffffffffffffffffffffffffffffffffffffff1673ffffffffffffffffffffffffffffffffffffffff166330b3409e6040518163ffffffff167c0100000000000000000000000000000000000000000000000000000000028152600401602060405180830381600087803b15801562000de457600080fd5b505af115801562000df9573d6000803e3d6000fd5b505050506040513d602081101562000e1057600080fd5b810190808051906020019092919050505014151562000e2e57600080fd5b60008060008873ffffffffffffffffffffffffffffffffffffffff1673ffffffffffffffffffffffffffffffffffffffff1681526020019081526020016000205414151562000e7c57600080fd5b600460009054906101000a900473ffffffffffffffffffffffffffffffffffffffff1673ffffffffffffffffffffffffffffffffffffffff166369b5a4618730886040518463ffffffff167c0100000000000000000000000000000000000000000000000000000000028152600401808473ffffffffffffffffffffffffffffffffffffffff1673ffffffffffffffffffffffffffffffffffffffff1681526020018373ffffffffffffffffffffffffffffffffffffffff1673ffffffffffffffffffffffffffffffffffffffff168152602001828152602001806020018281038252601e8152602001807fec9e91ed928820eb93b1eba19d20ec9888ecb998eab88820ec9e85eab8880000815250602001945050505050602060405180830381600087803b15801562000faf57600080fd5b505af115801562000fc4573d6000803e3d6000fd5b505050506040513d602081101562000fdb57600080fd5b810190808051906020019092919050505050846000808873ffffffffffffffffffffffffffffffffffffffff1673ffffffffffffffffffffffffffffffffffffffff168152602001908152602001600020819055508573ffffffffffffffffffffffffffffffffffffffff167fdd4650dc9d12a2a8f0a5e64ff8d37318538871ffc1971e42b096e1e6a4982f4f866040518082815260200191505060405180910390a2505050505050565b6060600080600090505b600280549050811015620011ae5760001515600282815481101515620010b257fe5b9060005260206000200160009054906101000a900473ffffffffffffffffffffffffffffffffffffffff1673ffffffffffffffffffffffffffffffffffffffff1663e5c37bf76040518163ffffffff167c0100000000000000000000000000000000000000000000000000000000028152600401602060405180830381600087803b1580156200114157600080fd5b505af115801562001156573d6000803e3d6000fd5b505050506040513d60208110156200116d57600080fd5b810190808051906020019092919050505015151415620011a0576200119d6001836200189290919063ffffffff16565b91505b808060010191505062001090565b81604051908082528060200260200182016040528015620011de5781602001602082028038833980820191505090505b50925060009150600090505b6002805490508110156200137e57600015156002828154811015156200120c57fe5b9060005260206000200160009054906101000a900473ffffffffffffffffffffffffffffffffffffffff1673ffffffffffffffffffffffffffffffffffffffff1663e5c37bf76040518163ffffffff167c0100000000000000000000000000000000000000000000000000000000028152600401602060405180830381600087803b1580156200129b57600080fd5b505af1158015620012b0573d6000803e3d6000fd5b505050506040513d6020811015620012c757600080fd5b8101908080519060200190929190505050151514156200137057600281815481101515620012f157fe5b9060005260206000200160009054906101000a900473ffffffffffffffffffffffffffffffffffffffff1683838151811015156200132b57fe5b9060200190602002019073ffffffffffffffffffffffffffffffffffffffff16908173ffffffffffffffffffffffffffffffffffffffff168152505081806001019250505b8080600101915050620011ea565b505090565b60008060008373ffffffffffffffffffffffffffffffffffffffff1673ffffffffffffffffffffffffffffffffffffffff168152602001908152602001600020549050919050565b600281815481101515620013db57fe5b906000526020600020016000915054906101000a900473ffffffffffffffffffffffffffffffffffffffff1681565b600082600073ffffffffffffffffffffffffffffffffffffffff168173ffffffffffffffffffffffffffffffffffffffff16141515156200144a57600080fd5b3073ffffffffffffffffffffffffffffffffffffffff168173ffffffffffffffffffffffffffffffffffffffff16141515156200148657600080fd5b82600073ffffffffffffffffffffffffffffffffffffffff168173ffffffffffffffffffffffffffffffffffffffff1614151515620014c457600080fd5b3073ffffffffffffffffffffffffffffffffffffffff168173ffffffffffffffffffffffffffffffffffffffff16141515156200150057600080fd5b6000808673ffffffffffffffffffffffffffffffffffffffff1673ffffffffffffffffffffffffffffffffffffffff16815260200190815260200160002054925060008060008773ffffffffffffffffffffffffffffffffffffffff1673ffffffffffffffffffffffffffffffffffffffff16815260200190815260200160002081905550600460009054906101000a900473ffffffffffffffffffffffffffffffffffffffff1673ffffffffffffffffffffffffffffffffffffffff1663cae9ca51600360009054906101000a900473ffffffffffffffffffffffffffffffffffffffff1673ffffffffffffffffffffffffffffffffffffffff16633de1a4bc6040518163ffffffff167c0100000000000000000000000000000000000000000000000000000000028152600401602060405180830381600087803b1580156200164a57600080fd5b505af11580156200165f573d6000803e3d6000fd5b505050506040513d60208110156200167657600080fd5b8101908080519060200190929190505050856200169388620018b4565b6040518463ffffffff167c0100000000000000000000000000000000000000000000000000000000028152600401808473ffffffffffffffffffffffffffffffffffffffff1673ffffffffffffffffffffffffffffffffffffffff16815260200183815260200180602001828103825283818151815260200191508051906020019080838360005b83811015620017385780820151818401526020810190506200171b565b50505050905090810190601f168015620017665780820380516001836020036101000a031916815260200191505b50945050505050602060405180830381600087803b1580156200178857600080fd5b505af11580156200179d573d6000803e3d6000fd5b505050506040513d6020811015620017b457600080fd5b8101908080519060200190929190505050508373ffffffffffffffffffffffffffffffffffffffff168573ffffffffffffffffffffffffffffffffffffffff167fa7f1056330c09b8af0cea1e9d22cc239eaf637b4e2f867bb71db876796b797a06000808973ffffffffffffffffffffffffffffffffffffffff1673ffffffffffffffffffffffffffffffffffffffff168152602001908152602001600020546040518082815260200191505060405180910390a35050505050565b6000808383111515156200188357600080fd5b82840390508091505092915050565b6000808284019050838110151515620018aa57600080fd5b8091505092915050565b6060620018e360608373ffffffffffffffffffffffffffffffffffffffff169060020a026001026014620018ea565b9050919050565b6060600060208360ff16111515156200190257600080fd5b8260ff166040519080825280601f01601f191660200182016040528015620019395781602001602082028038833980820191505090505b5091506008836020030260ff166000199060020a0284600190041690508060208301525092915050565b6040516130e0806200197583390190560060806040523480156200001157600080fd5b50604051620030e0380380620030e08339810180604052810190808051820192919060200180519060200190929190805182019291906020018051906020019092919050505060016000803373ffffffffffffffffffffffffffffffffffffffff1673ffffffffffffffffffffffffffffffffffffffff16815260200190815260200160002060006101000a81548160ff02191690831515021790555082600073ffffffffffffffffffffffffffffffffffffffff168173ffffffffffffffffffffffffffffffffffffffff1614151515620000ec57600080fd5b3073ffffffffffffffffffffffffffffffffffffffff168173ffffffffffffffffffffffffffffffffffffffff16141515156200012857600080fd5b84600081511115156200013a57600080fd5b82600073ffffffffffffffffffffffffffffffffffffffff168173ffffffffffffffffffffffffffffffffffffffff16141515156200017857600080fd5b3073ffffffffffffffffffffffffffffffffffffffff168173ffffffffffffffffffffffffffffffffffffffff1614151515620001b457600080fd5b8460008151111515620001c657600080fd5b8760049080519060200190620001de92919062000461565b5086600560006101000a81548173ffffffffffffffffffffffffffffffffffffffff021916908373ffffffffffffffffffffffffffffffffffffffff16021790555085600690805190602001906200023892919062000461565b5062000257620003f364010000000002620029d3176401000000009004565b600a8190555084600260006101000a81548173ffffffffffffffffffffffffffffffffffffffff021916908373ffffffffffffffffffffffffffffffffffffffff1602179055508673ffffffffffffffffffffffffffffffffffffffff163373ffffffffffffffffffffffffffffffffffffffff167f89f1ac329d70240240b2be71a056f761219628f95e907cbd78281461080608d9888b600a54604051808060200180602001848152602001838103835286818151815260200191508051906020019080838360005b838110156200033e57808201518184015260208101905062000321565b50505050905090810190601f1680156200036c5780820380516001836020036101000a031916815260200191505b50838103825285818151815260200191508051906020019080838360005b83811015620003a75780820151818401526020810190506200038a565b50505050905090810190601f168015620003d55780820380516001836020036101000a031916815260200191505b509550505050505060405180910390a3505050505050505062000510565b60006200041a6103e8426200041f6401000000000262002a31179091906401000000009004565b905090565b60008060008414156200043657600091506200045a565b82840290508284828115156200044857fe5b041415156200045657600080fd5b8091505b5092915050565b828054600181600116156101000203166002900490600052602060002090601f016020900481019282601f10620004a457805160ff1916838001178555620004d5565b82800160010185558215620004d5579182015b82811115620004d4578251825591602001919060010190620004b7565b5b509050620004e49190620004e8565b5090565b6200050d91905b8082111562000509576000816000905550600101620004ef565b5090565b90565b612bc080620005206000396000f300608060405260043610610154576000357c0100000000000000000000000000000000000000000000000000000000900463ffffffff16806319ce5ee11461015957806329b9bc38146101995780632e257567146101de5780632ea1f9aa14610209578063339218d9146102345780633a14771a1461026f5780633c87a0171461029e57806344f3db3b1461031157806345d839a1146103a15780634ebd70aa146104a05780637065cb48146104cb57806383ee40891461050e578063a3ad16761461053d578063a57ed0ea146105a2578063a5bbcf1f146106ed578063ad29dfe71461076a578063aed8ff6e14610795578063c645888a1461085b578063cfc0c1dd146108c7578063d66e5726146108f2578063d89fb91914610949578063e5c37bf7146109a0578063f18ad6fb146109cf578063f2fde38b14610a5f578063f6fd452914610aa2578063ff6e679214610acd575b600080fd5b34801561016557600080fd5b5061016e610af8565b6040518085815260200184815260200183815260200182815260200194505050505060405180910390f35b3480156101a557600080fd5b506101c460048036038101908080359060200190929190505050610b18565b604051808215151515815260200191505060405180910390f35b3480156101ea57600080fd5b506101f3610b8f565b6040518082815260200191505060405180910390f35b34801561021557600080fd5b5061021e610b99565b6040518082815260200191505060405180910390f35b34801561024057600080fd5b5061026d600480360381019080803590602001908201803590602001919091929391929390505050610ba6565b005b34801561027b57600080fd5b5061029c600480360381019080803515159060200190929190505050610de8565b005b3480156102aa57600080fd5b5061030f6004803603810190808035906020019082018035906020019190919293919293908035906020019082018035906020019190919293919293908035906020019092919080351515906020019092919080359060200190929190505050610e2f565b005b34801561031d57600080fd5b50610326611214565b6040518080602001828103825283818151815260200191508051906020019080838360005b8381101561036657808201518184015260208101905061034b565b50505050905090810190601f1680156103935780820380516001836020036101000a031916815260200191505b509250505060405180910390f35b3480156103ad57600080fd5b506103ec60048036038101908080359060200190929190803573ffffffffffffffffffffffffffffffffffffffff1690602001909291905050506112b6565b6040518080602001898152602001888152602001878152602001861515151581526020018515151515815260200184815260200183815260200182810382528a818151815260200191508051906020019080838360005b8381101561045e578082015181840152602081019050610443565b50505050905090810190601f16801561048b5780820380516001836020036101000a031916815260200191505b50995050505050505050505060405180910390f35b3480156104ac57600080fd5b506104b56114f2565b6040518082815260200191505060405180910390f35b3480156104d757600080fd5b5061050c600480360381019080803573ffffffffffffffffffffffffffffffffffffffff1690602001909291905050506114fc565b005b34801561051a57600080fd5b5061053b600480360381019080803515159060200190929190505050611643565b005b34801561054957600080fd5b5061058860048036038101908080359060200190929190803573ffffffffffffffffffffffffffffffffffffffff1690602001909291905050506117e5565b604051808215151515815260200191505060405180910390f35b3480156105ae57600080fd5b506105b76118ba565b60405180806020018873ffffffffffffffffffffffffffffffffffffffff1673ffffffffffffffffffffffffffffffffffffffff1681526020018060200187815260200186815260200185815260200184815260200183810383528a818151815260200191508051906020019080838360005b8381101561064557808201518184015260208101905061062a565b50505050905090810190601f1680156106725780820380516001836020036101000a031916815260200191505b50838103825288818151815260200191508051906020019080838360005b838110156106ab578082015181840152602081019050610690565b50505050905090810190601f1680156106d85780820380516001836020036101000a031916815260200191505b50995050505050505050505060405180910390f35b3480156106f957600080fd5b50610768600480360381019080803590602001909291908035906020019082018035906020019190919293919293908035906020019082018035906020019190919293919293908035906020019092919080351515906020019092919080359060200190929190505050611a42565b005b34801561077657600080fd5b5061077f611d77565b6040518082815260200191505060405180910390f35b3480156107a157600080fd5b506107e060048036038101908080359060200190929190803573ffffffffffffffffffffffffffffffffffffffff169060200190929190505050611d81565b6040518080602001828103825283818151815260200191508051906020019080838360005b83811015610820578082015181840152602081019050610805565b50505050905090810190601f16801561084d5780820380516001836020036101000a031916815260200191505b509250505060405180910390f35b34801561086757600080fd5b506108706120d7565b6040518080602001828103825283818151815260200191508051906020019060200280838360005b838110156108b3578082015181840152602081019050610898565b505050509050019250505060405180910390f35b3480156108d357600080fd5b506108dc61225a565b6040518082815260200191505060405180910390f35b3480156108fe57600080fd5b50610907612264565b604051808273ffffffffffffffffffffffffffffffffffffffff1673ffffffffffffffffffffffffffffffffffffffff16815260200191505060405180910390f35b34801561095557600080fd5b5061099e60048036038101908080359060200190929190803573ffffffffffffffffffffffffffffffffffffffff1690602001909291908035906020019092919050505061228e565b005b3480156109ac57600080fd5b506109b5612771565b604051808215151515815260200191505060405180910390f35b3480156109db57600080fd5b506109e4612788565b6040518080602001828103825283818151815260200191508051906020019080838360005b83811015610a24578082015181840152602081019050610a09565b50505050905090810190601f168015610a515780820380516001836020036101000a031916815260200191505b509250505060405180910390f35b348015610a6b57600080fd5b50610aa0600480360381019080803573ffffffffffffffffffffffffffffffffffffffff16906020019092919050505061282a565b005b348015610aae57600080fd5b50610ab76129bf565b6040518082815260200191505060405180910390f35b348015610ad957600080fd5b50610ae26129c9565b6040518082815260200191505060405180910390f35b60008060008060085493506007549250600c549150600954905090919293565b6000600382815481101515610b2957fe5b906000526020600020906009020160070160009054906101000a900460ff168015610b7a5750610b576129d3565b600383815481101515610b6657fe5b906000526020600020906009020160040154105b610b85576000610b88565b60015b9050919050565b6000600754905090565b6000600380549050905090565b338073ffffffffffffffffffffffffffffffffffffffff16600260009054906101000a900473ffffffffffffffffffffffffffffffffffffffff1673ffffffffffffffffffffffffffffffffffffffff16639d27f1056040518163ffffffff167c0100000000000000000000000000000000000000000000000000000000028152600401602060405180830381600087803b158015610c4457600080fd5b505af1158015610c58573d6000803e3d6000fd5b505050506040513d6020811015610c6e57600080fd5b810190808051906020019092919050505073ffffffffffffffffffffffffffffffffffffffff16141515610d30576040517f08c379a00000000000000000000000000000000000000000000000000000000081526004018080602001828103825260388152602001807f4163636573206661696c65643a204f6e6c792041636365737320746f2041706981526020017f436f6e74656e747320736d61727420636f6e74726163742e000000000000000081525060400191505060405180910390fd5b828260049190610d41929190612a6f565b50600560009054906101000a900473ffffffffffffffffffffffffffffffffffffffff1673ffffffffffffffffffffffffffffffffffffffff163073ffffffffffffffffffffffffffffffffffffffff167f40dd544ef397dae746698b92172143292f6530341d1339b0f53afedaad86322a8585604051808060200182810382528484828181526020019250808284378201915050935050505060405180910390a3505050565b8015610e0f57610e046001600c546129ef90919063ffffffff16565b600c81905550610e2c565b610e256001600c54612a1090919063ffffffff16565b600c819055505b50565b6000338073ffffffffffffffffffffffffffffffffffffffff16600260009054906101000a900473ffffffffffffffffffffffffffffffffffffffff1673ffffffffffffffffffffffffffffffffffffffff16639d27f1056040518163ffffffff167c0100000000000000000000000000000000000000000000000000000000028152600401602060405180830381600087803b158015610ecf57600080fd5b505af1158015610ee3573d6000803e3d6000fd5b505050506040513d6020811015610ef957600080fd5b810190808051906020019092919050505073ffffffffffffffffffffffffffffffffffffffff16141515610fbb576040517f08c379a00000000000000000000000000000000000000000000000000000000081526004018080602001828103825260388152602001807f4163636573206661696c65643a204f6e6c792041636365737320746f2041706981526020017f436f6e74656e747320736d61727420636f6e74726163742e000000000000000081525060400191505060405180910390fd5b610fc36129d3565b91506003610100604051908101604052808b8b8080601f016020809104026020016040519081016040528093929190818152602001838380828437820191505050505050815260200189898080601f016020809104026020016040519081016040528093929190818152602001838380828437820191505050505050815260200187815260200160008152602001858152602001848152602001600081526020018615158152509080600181540180825580915050906001820390600052602060002090600902016000909192909190915060008201518160000190805190602001906110b1929190612aef565b5060208201518160010190805190602001906110ce929190612aef565b5060408201518160020155606082015181600301556080820151816004015560a0820151816005015560c0820151816006015560e08201518160070160006101000a81548160ff02191690831515021790555050505081600b81905550600560009054906101000a900473ffffffffffffffffffffffffffffffffffffffff1673ffffffffffffffffffffffffffffffffffffffff163073ffffffffffffffffffffffffffffffffffffffff1661119460016003805490506129ef90919063ffffffff16565b7f5b23adb8c5fdda700407efd594373be994b748db5a0c708891c4044061a5e5b38c8c8a8a8a8a6040518080602001868152602001851515151581526020018481526020018381526020018281038252888882818152602001925080828437820191505097505050505050505060405180910390a4505050505050505050565b606060068054600181600116156101000203166002900480601f0160208091040260200160405190810160405280929190818152602001828054600181600116156101000203166002900480156112ac5780601f10611281576101008083540402835291602001916112ac565b820191906000526020600020905b81548152906001019060200180831161128f57829003601f168201915b5050505050905090565b60606000806000806000806000600d60009054906101000a900460ff16156112dd576114e5565b60038a8154811015156112ec57fe5b90600052602060002090600902016000018054600181600116156101000203166002900480601f0160208091040260200160405190810160405280929190818152602001828054600181600116156101000203166002900480156113915780601f1061136657610100808354040283529160200191611391565b820191906000526020600020905b81548152906001019060200180831161137457829003601f168201915b5050505050975060038a8154811015156113a757fe5b906000526020600020906009020160020154965060038a8154811015156113ca57fe5b906000526020600020906009020160030154955060038a8154811015156113ed57fe5b906000526020600020906009020160060154945060038a81548110151561141057fe5b906000526020600020906009020160080160008a73ffffffffffffffffffffffffffffffffffffffff1673ffffffffffffffffffffffffffffffffffffffff16815260200190815260200160002060009054906101000a900460ff16935060038a81548110151561147d57fe5b906000526020600020906009020160070160009054906101000a900460ff16925060038a8154811015156114ad57fe5b906000526020600020906009020160040154915060038a8154811015156114d057fe5b90600052602060002090600902016005015490505b9295985092959890939650565b6000600a54905090565b6000803373ffffffffffffffffffffffffffffffffffffffff1673ffffffffffffffffffffffffffffffffffffffff16815260200190815260200160002060009054906101000a900460ff16151561155357600080fd5b600073ffffffffffffffffffffffffffffffffffffffff168173ffffffffffffffffffffffffffffffffffffffff161415151561158f57600080fd5b60016000808373ffffffffffffffffffffffffffffffffffffffff1673ffffffffffffffffffffffffffffffffffffffff16815260200190815260200160002060006101000a81548160ff0219169083151502179055508073ffffffffffffffffffffffffffffffffffffffff163373ffffffffffffffffffffffffffffffffffffffff167f1d95aed2b82ae4cbdcccc214bb64bc277a20e8490d69a59d7f426c67fe46c61d60405160405180910390a350565b600260009054906101000a900473ffffffffffffffffffffffffffffffffffffffff1673ffffffffffffffffffffffffffffffffffffffff163373ffffffffffffffffffffffffffffffffffffffff1614151561172e576040517f08c379a00000000000000000000000000000000000000000000000000000000081526004018080602001828103825260278152602001807f436f6e74656e7420626c6f636b696e67206661696c6564203a2061636365737381526020017f2064656e6965640000000000000000000000000000000000000000000000000081525060400191505060405180910390fd5b80600d60006101000a81548160ff0219169083151502179055503073ffffffffffffffffffffffffffffffffffffffff16600560009054906101000a900473ffffffffffffffffffffffffffffffffffffffff1673ffffffffffffffffffffffffffffffffffffffff167f6c35f5c3440acc939791265250953162226c48971dab47129cc28bc330e5b070600d60009054906101000a900460ff16604051808215151515815260200191505060405180910390a350565b60006003838154811015156117f657fe5b906000526020600020906009020160080160008373ffffffffffffffffffffffffffffffffffffffff1673ffffffffffffffffffffffffffffffffffffffff16815260200190815260200160002060009054906101000a900460ff16806118aa57508173ffffffffffffffffffffffffffffffffffffffff16600560009054906101000a900473ffffffffffffffffffffffffffffffffffffffff1673ffffffffffffffffffffffffffffffffffffffff16145b156118b457600190505b92915050565b60606000606060008060008060048054600181600116156101000203166002900480601f01602080910402602001604051908101604052809291908181526020018280546001816001161561010002031660029004801561195c5780601f106119315761010080835404028352916020019161195c565b820191906000526020600020905b81548152906001019060200180831161193f57829003601f168201915b50505050509650600560009054906101000a900473ffffffffffffffffffffffffffffffffffffffff16955060068054600181600116156101000203166002900480601f016020809104026020016040519081016040528092919081815260200182805460018160011615610100020316600290048015611a1e5780601f106119f357610100808354040283529160200191611a1e565b820191906000526020600020905b815481529060010190602001808311611a0157829003601f168201915b5050505050945060075493506008549250600a549150600b54905090919293949596565b338073ffffffffffffffffffffffffffffffffffffffff16600260009054906101000a900473ffffffffffffffffffffffffffffffffffffffff1673ffffffffffffffffffffffffffffffffffffffff16639d27f1056040518163ffffffff167c0100000000000000000000000000000000000000000000000000000000028152600401602060405180830381600087803b158015611ae057600080fd5b505af1158015611af4573d6000803e3d6000fd5b505050506040513d6020811015611b0a57600080fd5b810190808051906020019092919050505073ffffffffffffffffffffffffffffffffffffffff16141515611bcc576040517f08c379a00000000000000000000000000000000000000000000000000000000081526004018080602001828103825260388152602001807f4163636573206661696c65643a204f6e6c792041636365737320746f2041706981526020017f436f6e74656e747320736d61727420636f6e74726163742e000000000000000081525060400191505060405180910390fd5b878760038b815481101515611bdd57fe5b90600052602060002090600902016000019190611bfb929190612a6f565b50858560038b815481101515611c0d57fe5b90600052602060002090600902016001019190611c2b929190612a6f565b508360038a815481101515611c3c57fe5b9060005260206000209060090201600201819055508260038a815481101515611c6157fe5b906000526020600020906009020160070160006101000a81548160ff0219169083151502179055508160038a815481101515611c9957fe5b906000526020600020906009020160040181905550600560009054906101000a900473ffffffffffffffffffffffffffffffffffffffff1673ffffffffffffffffffffffffffffffffffffffff163073ffffffffffffffffffffffffffffffffffffffff168a7f214d6c623f4bd84c28f1c5a12805b3584f16a2b452680238eaa2fa78566591ff8b8b89898960405180806020018581526020018415151515815260200183815260200182810382528787828181526020019250808284378201915050965050505050505060405180910390a4505050505050505050565b6000600c54905090565b6060600d60009054906101000a900460ff1680611e8a57503373ffffffffffffffffffffffffffffffffffffffff16600260009054906101000a900473ffffffffffffffffffffffffffffffffffffffff1673ffffffffffffffffffffffffffffffffffffffff16639d27f1056040518163ffffffff167c0100000000000000000000000000000000000000000000000000000000028152600401602060405180830381600087803b158015611e3657600080fd5b505af1158015611e4a573d6000803e3d6000fd5b505050506040513d6020811015611e6057600080fd5b810190808051906020019092919050505073ffffffffffffffffffffffffffffffffffffffff1614155b15611e94576120d1565b600560009054906101000a900473ffffffffffffffffffffffffffffffffffffffff1673ffffffffffffffffffffffffffffffffffffffff168273ffffffffffffffffffffffffffffffffffffffff161415611faa57600383815481101515611ef957fe5b90600052602060002090600902016001018054600181600116156101000203166002900480601f016020809104026020016040519081016040528092919081815260200182805460018160011615610100020316600290048015611f9e5780601f10611f7357610100808354040283529160200191611f9e565b820191906000526020600020905b815481529060010190602001808311611f8157829003601f168201915b505050505090506120d0565b600383815481101515611fb957fe5b906000526020600020906009020160070160009054906101000a900460ff16158061200a5750611fe76129d3565b600384815481101515611ff657fe5b906000526020600020906009020160040154115b15612014576120d1565b60038381548110151561202357fe5b90600052602060002090600902016001018054600181600116156101000203166002900480601f0160208091040260200160405190810160405280929190818152602001828054600181600116156101000203166002900480156120c85780601f1061209d576101008083540402835291602001916120c8565b820191906000526020600020905b8154815290600101906020018083116120ab57829003601f168201915b505050505090505b5b92915050565b606060008060008090505b600380549050811015612178576003818154811015156120fe57fe5b906000526020600020906009020160070160009054906101000a900460ff16801561214f575061212c6129d3565b60038281548110151561213b57fe5b906000526020600020906009020160040154105b1561216b57612168600183612a1090919063ffffffff16565b91505b80806001019150506120e2565b816040519080825280602002602001820160405280156121a75781602001602082028038833980820191505090505b509350600090505b600380549050811015612254576003818154811015156121cb57fe5b906000526020600020906009020160070160009054906101000a900460ff16801561221c57506121f96129d3565b60038281548110151561220857fe5b906000526020600020906009020160040154105b156122475780848481518110151561223057fe5b906020019060200201818152505082806001019350505b80806001019150506121af565b50505090565b6000600b54905090565b6000600560009054906101000a900473ffffffffffffffffffffffffffffffffffffffff16905090565b81600073ffffffffffffffffffffffffffffffffffffffff168173ffffffffffffffffffffffffffffffffffffffff16141515156122cb57600080fd5b3073ffffffffffffffffffffffffffffffffffffffff168173ffffffffffffffffffffffffffffffffffffffff161415151561230657600080fd5b838060038054905011151561231a57600080fd5b3373ffffffffffffffffffffffffffffffffffffffff16600260009054906101000a900473ffffffffffffffffffffffffffffffffffffffff1673ffffffffffffffffffffffffffffffffffffffff16630cec1ecd6040518163ffffffff167c0100000000000000000000000000000000000000000000000000000000028152600401602060405180830381600087803b1580156123b757600080fd5b505af11580156123cb573d6000803e3d6000fd5b505050506040513d60208110156123e157600080fd5b810190808051906020019092919050505073ffffffffffffffffffffffffffffffffffffffff1614151561241457600080fd5b60038581548110151561242357fe5b906000526020600020906009020160080160008573ffffffffffffffffffffffffffffffffffffffff1673ffffffffffffffffffffffffffffffffffffffff16815260200190815260200160002060009054906101000a900460ff1615151561248b57600080fd5b8260038681548110151561249b57fe5b9060005260206000209060090201600201541415156124b957600080fd5b60016003868154811015156124ca57fe5b906000526020600020906009020160080160008673ffffffffffffffffffffffffffffffffffffffff1673ffffffffffffffffffffffffffffffffffffffff16815260200190815260200160002060006101000a81548160ff021916908315150217905550612563600160038781548110151561254357fe5b906000526020600020906009020160030154612a1090919063ffffffff16565b60038681548110151561257257fe5b9060005260206000209060090201600301819055506125ba8360038781548110151561259a57fe5b906000526020600020906009020160060154612a1090919063ffffffff16565b6003868154811015156125c957fe5b9060005260206000209060090201600601819055506125f46001600754612a1090919063ffffffff16565b60078190555061260f83600854612a1090919063ffffffff16565b600881905550600160008573ffffffffffffffffffffffffffffffffffffffff1673ffffffffffffffffffffffffffffffffffffffff16815260200190815260200160002060009054906101000a900460ff1615156126dc5760018060008673ffffffffffffffffffffffffffffffffffffffff1673ffffffffffffffffffffffffffffffffffffffff16815260200190815260200160002060006101000a81548160ff0219169083151502179055506126d56001600954612a1090919063ffffffff16565b6009819055505b8373ffffffffffffffffffffffffffffffffffffffff163073ffffffffffffffffffffffffffffffffffffffff16867f0de6e4ed1bb6d9768506efee82a28bfd580168e216a1c045d93952f7257c78888660038a81548110151561273c57fe5b906000526020600020906009020160030154604051808381526020018281526020019250505060405180910390a45050505050565b6000600d60009054906101000a900460ff16905090565b606060048054600181600116156101000203166002900480601f0160208091040260200160405190810160405280929190818152602001828054600181600116156101000203166002900480156128205780601f106127f557610100808354040283529160200191612820565b820191906000526020600020905b81548152906001019060200180831161280357829003601f168201915b5050505050905090565b6000803373ffffffffffffffffffffffffffffffffffffffff1673ffffffffffffffffffffffffffffffffffffffff16815260200190815260200160002060009054906101000a900460ff16151561288157600080fd5b600073ffffffffffffffffffffffffffffffffffffffff168173ffffffffffffffffffffffffffffffffffffffff16141515156128bd57600080fd5b60016000808373ffffffffffffffffffffffffffffffffffffffff1673ffffffffffffffffffffffffffffffffffffffff16815260200190815260200160002060006101000a81548160ff0219169083151502179055506000803373ffffffffffffffffffffffffffffffffffffffff1673ffffffffffffffffffffffffffffffffffffffff16815260200190815260200160002060006101000a81549060ff02191690558073ffffffffffffffffffffffffffffffffffffffff163373ffffffffffffffffffffffffffffffffffffffff167f8be0079c531659141344cd1fd0a4f28419497f9722a3daafe3b4186f6b6457e060405160405180910390a350565b6000600954905090565b6000600854905090565b60006129ea6103e842612a3190919063ffffffff16565b905090565b600080838311151515612a0157600080fd5b82840390508091505092915050565b6000808284019050838110151515612a2757600080fd5b8091505092915050565b6000806000841415612a465760009150612a68565b8284029050828482811515612a5757fe5b04141515612a6457600080fd5b8091505b5092915050565b828054600181600116156101000203166002900490600052602060002090601f016020900481019282601f10612ab057803560ff1916838001178555612ade565b82800160010185558215612ade579182015b82811115612add578235825591602001919060010190612ac2565b5b509050612aeb9190612b6f565b5090565b828054600181600116156101000203166002900490600052602060002090601f016020900481019282601f10612b3057805160ff1916838001178555612b5e565b82800160010185558215612b5e579182015b82811115612b5d578251825591602001919060010190612b42565b5b509050612b6b9190612b6f565b5090565b612b9191905b80821115612b8d576000816000905550600101612b75565b5090565b905600a165627a7a723058206a3b90641fcaaf616cdca6f502728f15c3d34cd4da0342a235d80b3d366995ea0029a165627a7a72305820ce0bc5a0951fb08ccdd22c2c408ad93d9e96b0e6dea61d1baaf8cca68cbe09df0029",
  "source": "pragma solidity ^0.4.24;\r\n\r\nimport \"openzeppelin-solidity/contracts/token/ERC20/SafeERC20.sol\";\r\n\r\nimport \"contracts/token/ContractReceiver.sol\";\r\nimport \"contracts/token/CustomToken.sol\";\r\nimport \"contracts/contents/Content.sol\";\r\n\r\nimport \"contracts/interface/ICouncil.sol\";\r\nimport \"contracts/interface/IContentsManager.sol\";\r\n\r\nimport \"contracts/utils/ValidValue.sol\";\r\nimport \"contracts/utils/BytesLib.sol\";\r\n\r\ncontract ContentsManager is IContentsManager, ContractReceiver, ValidValue {\r\n    using SafeMath for uint256;\r\n    using SafeERC20 for IERC20;\r\n\r\n    mapping (address => uint256) initialDeposit;\r\n    mapping (address => address[]) writerContents;\r\n\r\n    address[] public contentsAddress;\r\n    ICouncil council;\r\n    IERC20 token;\r\n\r\n    modifier validAccessAddress(address _apiAddress) {\r\n        require(council.getApiContents() == _apiAddress, \"Acces failed: Only Access to ApiContents smart contract.\");\r\n        _;\r\n    }\r\n\r\n    constructor(address _councilAddr)\r\n        public\r\n        validAddress(_councilAddr)\r\n    {\r\n        council = ICouncil(_councilAddr);\r\n        token = IERC20(council.getToken());\r\n    }\r\n\r\n    function addContents(\r\n        address _writer,\r\n        string _writerName,\r\n        string _record\r\n    )\r\n        external\r\n        validAccessAddress(msg.sender)\r\n    {\r\n        require(council.getApiContents() == msg.sender, \"Content creation failed: Only ApiContents contract.\");\r\n\r\n        address contractAddress = new Content(_record, _writer, _writerName, address(council));\r\n\r\n        Content(contractAddress).transferOwnership(_writer);\r\n\r\n        contentsAddress.push(contractAddress);\r\n        writerContents[_writer].push(contractAddress);\r\n\r\n        _transferInitialDeposit(_writer, contractAddress);\r\n\r\n        emit RegisterContents(contentsAddress.length.sub(1), contractAddress, _writer, _writerName, _record);\r\n    }\r\n\r\n    function getContentsAddress() external view returns (address[] contentsAddress_){\r\n        contentsAddress_ = contentsAddress;\r\n    }\r\n\r\n    function getPublishContentsAddress() external view returns (address[] contentsAddress_) {\r\n        uint256 _idx;\r\n\r\n        for(uint i = 0 ; i < contentsAddress.length ; i++) {\r\n            if(Content(contentsAddress[i]).getIsBlocked() == false) {\r\n                _idx = _idx.add(1);\r\n            }\r\n        }\r\n        contentsAddress_ = new address[](_idx);\r\n\r\n        _idx = 0;\r\n        for(i = 0 ; i < contentsAddress.length ; i++) {\r\n            if(Content(contentsAddress[i]).getIsBlocked() == false) {\r\n                contentsAddress_[_idx] = contentsAddress[i];\r\n                _idx++;\r\n            }\r\n        }\r\n    }\r\n\r\n    function getWriterContentsAddress(address _writer)\r\n        external\r\n        view\r\n        returns (address[] writerContentsAddress_)\r\n    {\r\n        writerContentsAddress_ = writerContents[_writer];\r\n    }\r\n\r\n    function receiveApproval(address _from, uint256 _value, address _token, bytes _data)\r\n        public\r\n        validAddress(_from) validAddress(_token)\r\n    {\r\n        require(address(token) == _token);\r\n        require(council.getInitialDeposit() == _value);\r\n        require(initialDeposit[_from] == 0);\r\n\r\n        CustomToken(address(token)).transferFromPxl(_from, address(this), _value, \"   \");\r\n        initialDeposit[_from] = _value;\r\n\r\n        emit ContentInitialDeposit(_from, _value);\r\n    }\r\n\r\n    function getInitialDeposit(address _writer)\r\n        external\r\n        view\r\n        returns (uint256 initialDeposit_)\r\n    {\r\n        initialDeposit_ = initialDeposit[_writer];\r\n    }\r\n\r\n    function _transferInitialDeposit(address _writer, address _content)\r\n        private\r\n        validAddress(_writer) validAddress(_content)\r\n    {\r\n        uint256 depositAmount = initialDeposit[_writer];\r\n        initialDeposit[_writer] = 0;\r\n\r\n        CustomToken(address(token)).approveAndCall(\r\n            council.getDepositPool(),\r\n            depositAmount,\r\n            BytesLib.toBytes(_content));\r\n\r\n        emit TransferInitialDeposit(_writer, _content, initialDeposit[_writer]);\r\n    }\r\n}\r\n",
  "sourcePath": "C:\\piction\\piction-poc\\contracts\\contents\\ContentsManager.sol",
  "compiler": {
    "name": "solc",
    "version": "0.4.24+commit.e67f0147.Emscripten.clang"
  },
  "schemaVersion": "2.0.1",
  "updatedAt": "2018-11-12T08:34:14.867Z"
}