{
  "contractName": "Content",
  "abi": [
    {
      "constant": false,
      "inputs": [
        {
          "name": "guest",
          "type": "address"
        }
      ],
      "name": "addOwner",
      "outputs": [],
      "payable": false,
      "stateMutability": "nonpayable",
      "type": "function"
    },
    {
      "constant": false,
      "inputs": [
        {
          "name": "newOwner",
          "type": "address"
        }
      ],
      "name": "transferOwnership",
      "outputs": [],
      "payable": false,
      "stateMutability": "nonpayable",
      "type": "function"
    },
    {
      "inputs": [
        {
          "name": "_record",
          "type": "string"
        },
        {
          "name": "_writer",
          "type": "address"
        },
        {
          "name": "_writerName",
          "type": "string"
        },
        {
          "name": "_council",
          "type": "address"
        }
      ],
      "payable": false,
      "stateMutability": "nonpayable",
      "type": "constructor"
    },
    {
      "anonymous": false,
      "inputs": [
        {
          "indexed": true,
          "name": "previousOwner",
          "type": "address"
        },
        {
          "indexed": true,
          "name": "newOwner",
          "type": "address"
        }
      ],
      "name": "OwnershipTransferred",
      "type": "event"
    },
    {
      "anonymous": false,
      "inputs": [
        {
          "indexed": true,
          "name": "host",
          "type": "address"
        },
        {
          "indexed": true,
          "name": "guest",
          "type": "address"
        }
      ],
      "name": "OwnershipExtended",
      "type": "event"
    },
    {
      "anonymous": false,
      "inputs": [
        {
          "indexed": true,
          "name": "_sender",
          "type": "address"
        },
        {
          "indexed": true,
          "name": "_writer",
          "type": "address"
        },
        {
          "indexed": false,
          "name": "_writerName",
          "type": "string"
        },
        {
          "indexed": false,
          "name": "_record",
          "type": "string"
        },
        {
          "indexed": false,
          "name": "_contentCreationTime",
          "type": "uint256"
        }
      ],
      "name": "ContentCreation",
      "type": "event"
    },
    {
      "anonymous": false,
      "inputs": [
        {
          "indexed": true,
          "name": "_episodeIndexId",
          "type": "uint256"
        },
        {
          "indexed": true,
          "name": "_contentAddress",
          "type": "address"
        },
        {
          "indexed": true,
          "name": "_writer",
          "type": "address"
        },
        {
          "indexed": false,
          "name": "_record",
          "type": "string"
        },
        {
          "indexed": false,
          "name": "_price",
          "type": "uint256"
        },
        {
          "indexed": false,
          "name": "_isPublished",
          "type": "bool"
        },
        {
          "indexed": false,
          "name": "_publishDate",
          "type": "uint256"
        },
        {
          "indexed": false,
          "name": "_episodeCreationTime",
          "type": "uint256"
        }
      ],
      "name": "EpisodeCreation",
      "type": "event"
    },
    {
      "anonymous": false,
      "inputs": [
        {
          "indexed": true,
          "name": "_contentAddress",
          "type": "address"
        },
        {
          "indexed": true,
          "name": "_writer",
          "type": "address"
        },
        {
          "indexed": false,
          "name": "_record",
          "type": "string"
        }
      ],
      "name": "ChangeContent",
      "type": "event"
    },
    {
      "anonymous": false,
      "inputs": [
        {
          "indexed": true,
          "name": "_episodeIndexId",
          "type": "uint256"
        },
        {
          "indexed": true,
          "name": "_contentAddress",
          "type": "address"
        },
        {
          "indexed": true,
          "name": "_writer",
          "type": "address"
        },
        {
          "indexed": false,
          "name": "_record",
          "type": "string"
        },
        {
          "indexed": false,
          "name": "_price",
          "type": "uint256"
        },
        {
          "indexed": false,
          "name": "_isPublished",
          "type": "bool"
        },
        {
          "indexed": false,
          "name": "_publishDate",
          "type": "uint256"
        }
      ],
      "name": "ChangeEpisode",
      "type": "event"
    },
    {
      "anonymous": false,
      "inputs": [
        {
          "indexed": true,
          "name": "_episodeIndexId",
          "type": "uint256"
        },
        {
          "indexed": true,
          "name": "_contentAddress",
          "type": "address"
        },
        {
          "indexed": true,
          "name": "_buyer",
          "type": "address"
        },
        {
          "indexed": false,
          "name": "_price",
          "type": "uint256"
        },
        {
          "indexed": false,
          "name": "_episodePurchaseCount",
          "type": "uint256"
        }
      ],
      "name": "EpisodePurchase",
      "type": "event"
    },
    {
      "anonymous": false,
      "inputs": [
        {
          "indexed": true,
          "name": "_writer",
          "type": "address"
        },
        {
          "indexed": true,
          "name": "_contentAddress",
          "type": "address"
        },
        {
          "indexed": false,
          "name": "_isBlocked",
          "type": "bool"
        }
      ],
      "name": "ContentBlocking",
      "type": "event"
    },
    {
      "constant": false,
      "inputs": [
        {
          "name": "_record",
          "type": "string"
        }
      ],
      "name": "updateContent",
      "outputs": [],
      "payable": false,
      "stateMutability": "nonpayable",
      "type": "function"
    },
    {
      "constant": false,
      "inputs": [
        {
          "name": "_record",
          "type": "string"
        },
        {
          "name": "_cuts",
          "type": "string"
        },
        {
          "name": "_price",
          "type": "uint256"
        },
        {
          "name": "_isPublished",
          "type": "bool"
        },
        {
          "name": "_publishDate",
          "type": "uint256"
        }
      ],
      "name": "addEpisode",
      "outputs": [],
      "payable": false,
      "stateMutability": "nonpayable",
      "type": "function"
    },
    {
      "constant": false,
      "inputs": [
        {
          "name": "_index",
          "type": "uint256"
        },
        {
          "name": "_record",
          "type": "string"
        },
        {
          "name": "_cuts",
          "type": "string"
        },
        {
          "name": "_price",
          "type": "uint256"
        },
        {
          "name": "_isPublished",
          "type": "bool"
        },
        {
          "name": "_publishDate",
          "type": "uint256"
        }
      ],
      "name": "updateEpisode",
      "outputs": [],
      "payable": false,
      "stateMutability": "nonpayable",
      "type": "function"
    },
    {
      "constant": false,
      "inputs": [
        {
          "name": "isFavorite",
          "type": "bool"
        }
      ],
      "name": "updateFavoriteCount",
      "outputs": [],
      "payable": false,
      "stateMutability": "nonpayable",
      "type": "function"
    },
    {
      "constant": true,
      "inputs": [],
      "name": "getRecord",
      "outputs": [
        {
          "name": "record_",
          "type": "string"
        }
      ],
      "payable": false,
      "stateMutability": "view",
      "type": "function"
    },
    {
      "constant": true,
      "inputs": [],
      "name": "getWriter",
      "outputs": [
        {
          "name": "writer_",
          "type": "address"
        }
      ],
      "payable": false,
      "stateMutability": "view",
      "type": "function"
    },
    {
      "constant": true,
      "inputs": [],
      "name": "getWriterName",
      "outputs": [
        {
          "name": "writerName_",
          "type": "string"
        }
      ],
      "payable": false,
      "stateMutability": "view",
      "type": "function"
    },
    {
      "constant": true,
      "inputs": [],
      "name": "getTotalPurchasedCount",
      "outputs": [
        {
          "name": "totalPurchasedCount_",
          "type": "uint256"
        }
      ],
      "payable": false,
      "stateMutability": "view",
      "type": "function"
    },
    {
      "constant": true,
      "inputs": [],
      "name": "getTotalPurchasedAmount",
      "outputs": [
        {
          "name": "totalPurchasedAmount_",
          "type": "uint256"
        }
      ],
      "payable": false,
      "stateMutability": "view",
      "type": "function"
    },
    {
      "constant": true,
      "inputs": [],
      "name": "getTotalPurchasedUserCount",
      "outputs": [
        {
          "name": "totalPurchasedUserCount_",
          "type": "uint256"
        }
      ],
      "payable": false,
      "stateMutability": "view",
      "type": "function"
    },
    {
      "constant": true,
      "inputs": [],
      "name": "getContentCreationTime",
      "outputs": [
        {
          "name": "contentCreationTime_",
          "type": "uint256"
        }
      ],
      "payable": false,
      "stateMutability": "view",
      "type": "function"
    },
    {
      "constant": true,
      "inputs": [],
      "name": "getEpisodeLastUpdatedTime",
      "outputs": [
        {
          "name": "episodeLastUpdatedTime_",
          "type": "uint256"
        }
      ],
      "payable": false,
      "stateMutability": "view",
      "type": "function"
    },
    {
      "constant": true,
      "inputs": [],
      "name": "getFavoriteCount",
      "outputs": [
        {
          "name": "favoriteCount_",
          "type": "uint256"
        }
      ],
      "payable": false,
      "stateMutability": "view",
      "type": "function"
    },
    {
      "constant": true,
      "inputs": [],
      "name": "getSalesInfo",
      "outputs": [
        {
          "name": "totalPurchasedAmount_",
          "type": "uint256"
        },
        {
          "name": "totalPurchasedCount_",
          "type": "uint256"
        },
        {
          "name": "favoriteCount_",
          "type": "uint256"
        },
        {
          "name": "totalPurchasedUserCount_",
          "type": "uint256"
        }
      ],
      "payable": false,
      "stateMutability": "view",
      "type": "function"
    },
    {
      "constant": true,
      "inputs": [],
      "name": "getComicsInfo",
      "outputs": [
        {
          "name": "record_",
          "type": "string"
        },
        {
          "name": "writer_",
          "type": "address"
        },
        {
          "name": "writerName_",
          "type": "string"
        },
        {
          "name": "totalPurchasedCount_",
          "type": "uint256"
        },
        {
          "name": "totalPurchasedAmount_",
          "type": "uint256"
        },
        {
          "name": "contentCreationTime_",
          "type": "uint256"
        },
        {
          "name": "episodeLastUpdatedTime_",
          "type": "uint256"
        }
      ],
      "payable": false,
      "stateMutability": "view",
      "type": "function"
    },
    {
      "constant": true,
      "inputs": [],
      "name": "getEpisodeLength",
      "outputs": [
        {
          "name": "episodeLength_",
          "type": "uint256"
        }
      ],
      "payable": false,
      "stateMutability": "view",
      "type": "function"
    },
    {
      "constant": true,
      "inputs": [],
      "name": "getPublishEpisodeIndex",
      "outputs": [
        {
          "name": "episodeIndex_",
          "type": "uint256[]"
        }
      ],
      "payable": false,
      "stateMutability": "view",
      "type": "function"
    },
    {
      "constant": true,
      "inputs": [
        {
          "name": "_index",
          "type": "uint256"
        }
      ],
      "name": "isPublishedEpisode",
      "outputs": [
        {
          "name": "isPublished_",
          "type": "bool"
        }
      ],
      "payable": false,
      "stateMutability": "view",
      "type": "function"
    },
    {
      "constant": true,
      "inputs": [
        {
          "name": "_index",
          "type": "uint256"
        },
        {
          "name": "_buyer",
          "type": "address"
        }
      ],
      "name": "isPurchasedEpisode",
      "outputs": [
        {
          "name": "isPurchased_",
          "type": "bool"
        }
      ],
      "payable": false,
      "stateMutability": "view",
      "type": "function"
    },
    {
      "constant": true,
      "inputs": [
        {
          "name": "_index",
          "type": "uint256"
        },
        {
          "name": "_buyer",
          "type": "address"
        }
      ],
      "name": "getEpisodeDetail",
      "outputs": [
        {
          "name": "record_",
          "type": "string"
        },
        {
          "name": "price_",
          "type": "uint256"
        },
        {
          "name": "buyCount_",
          "type": "uint256"
        },
        {
          "name": "purchasedAmount_",
          "type": "uint256"
        },
        {
          "name": "isPurchased_",
          "type": "bool"
        },
        {
          "name": "isPublished_",
          "type": "bool"
        },
        {
          "name": "publishDate_",
          "type": "uint256"
        },
        {
          "name": "episodeCreationTime_",
          "type": "uint256"
        }
      ],
      "payable": false,
      "stateMutability": "view",
      "type": "function"
    },
    {
      "constant": true,
      "inputs": [
        {
          "name": "_index",
          "type": "uint256"
        },
        {
          "name": "_user",
          "type": "address"
        }
      ],
      "name": "getEpisodeCuts",
      "outputs": [
        {
          "name": "episodeCuts_",
          "type": "string"
        }
      ],
      "payable": false,
      "stateMutability": "view",
      "type": "function"
    },
    {
      "constant": true,
      "inputs": [],
      "name": "getIsBlocked",
      "outputs": [
        {
          "name": "isBlocked_",
          "type": "bool"
        }
      ],
      "payable": false,
      "stateMutability": "view",
      "type": "function"
    },
    {
      "constant": false,
      "inputs": [
        {
          "name": "_isBlocked",
          "type": "bool"
        }
      ],
      "name": "setIsBlocked",
      "outputs": [],
      "payable": false,
      "stateMutability": "nonpayable",
      "type": "function"
    },
    {
      "constant": false,
      "inputs": [
        {
          "name": "_index",
          "type": "uint256"
        },
        {
          "name": "_buyer",
          "type": "address"
        },
        {
          "name": "_amount",
          "type": "uint256"
        }
      ],
      "name": "episodePurchase",
      "outputs": [],
      "payable": false,
      "stateMutability": "nonpayable",
      "type": "function"
    }
  ],
  "bytecode": "0x60806040523480156200001157600080fd5b50604051620030e0380380620030e08339810180604052810190808051820192919060200180519060200190929190805182019291906020018051906020019092919050505060016000803373ffffffffffffffffffffffffffffffffffffffff1673ffffffffffffffffffffffffffffffffffffffff16815260200190815260200160002060006101000a81548160ff02191690831515021790555082600073ffffffffffffffffffffffffffffffffffffffff168173ffffffffffffffffffffffffffffffffffffffff1614151515620000ec57600080fd5b3073ffffffffffffffffffffffffffffffffffffffff168173ffffffffffffffffffffffffffffffffffffffff16141515156200012857600080fd5b84600081511115156200013a57600080fd5b82600073ffffffffffffffffffffffffffffffffffffffff168173ffffffffffffffffffffffffffffffffffffffff16141515156200017857600080fd5b3073ffffffffffffffffffffffffffffffffffffffff168173ffffffffffffffffffffffffffffffffffffffff1614151515620001b457600080fd5b8460008151111515620001c657600080fd5b8760049080519060200190620001de92919062000461565b5086600560006101000a81548173ffffffffffffffffffffffffffffffffffffffff021916908373ffffffffffffffffffffffffffffffffffffffff16021790555085600690805190602001906200023892919062000461565b5062000257620003f364010000000002620029d3176401000000009004565b600a8190555084600260006101000a81548173ffffffffffffffffffffffffffffffffffffffff021916908373ffffffffffffffffffffffffffffffffffffffff1602179055508673ffffffffffffffffffffffffffffffffffffffff163373ffffffffffffffffffffffffffffffffffffffff167f89f1ac329d70240240b2be71a056f761219628f95e907cbd78281461080608d9888b600a54604051808060200180602001848152602001838103835286818151815260200191508051906020019080838360005b838110156200033e57808201518184015260208101905062000321565b50505050905090810190601f1680156200036c5780820380516001836020036101000a031916815260200191505b50838103825285818151815260200191508051906020019080838360005b83811015620003a75780820151818401526020810190506200038a565b50505050905090810190601f168015620003d55780820380516001836020036101000a031916815260200191505b509550505050505060405180910390a3505050505050505062000510565b60006200041a6103e8426200041f6401000000000262002a31179091906401000000009004565b905090565b60008060008414156200043657600091506200045a565b82840290508284828115156200044857fe5b041415156200045657600080fd5b8091505b5092915050565b828054600181600116156101000203166002900490600052602060002090601f016020900481019282601f10620004a457805160ff1916838001178555620004d5565b82800160010185558215620004d5579182015b82811115620004d4578251825591602001919060010190620004b7565b5b509050620004e49190620004e8565b5090565b6200050d91905b8082111562000509576000816000905550600101620004ef565b5090565b90565b612bc080620005206000396000f300608060405260043610610154576000357c0100000000000000000000000000000000000000000000000000000000900463ffffffff16806319ce5ee11461015957806329b9bc38146101995780632e257567146101de5780632ea1f9aa14610209578063339218d9146102345780633a14771a1461026f5780633c87a0171461029e57806344f3db3b1461031157806345d839a1146103a15780634ebd70aa146104a05780637065cb48146104cb57806383ee40891461050e578063a3ad16761461053d578063a57ed0ea146105a2578063a5bbcf1f146106ed578063ad29dfe71461076a578063aed8ff6e14610795578063c645888a1461085b578063cfc0c1dd146108c7578063d66e5726146108f2578063d89fb91914610949578063e5c37bf7146109a0578063f18ad6fb146109cf578063f2fde38b14610a5f578063f6fd452914610aa2578063ff6e679214610acd575b600080fd5b34801561016557600080fd5b5061016e610af8565b6040518085815260200184815260200183815260200182815260200194505050505060405180910390f35b3480156101a557600080fd5b506101c460048036038101908080359060200190929190505050610b18565b604051808215151515815260200191505060405180910390f35b3480156101ea57600080fd5b506101f3610b8f565b6040518082815260200191505060405180910390f35b34801561021557600080fd5b5061021e610b99565b6040518082815260200191505060405180910390f35b34801561024057600080fd5b5061026d600480360381019080803590602001908201803590602001919091929391929390505050610ba6565b005b34801561027b57600080fd5b5061029c600480360381019080803515159060200190929190505050610de8565b005b3480156102aa57600080fd5b5061030f6004803603810190808035906020019082018035906020019190919293919293908035906020019082018035906020019190919293919293908035906020019092919080351515906020019092919080359060200190929190505050610e2f565b005b34801561031d57600080fd5b50610326611214565b6040518080602001828103825283818151815260200191508051906020019080838360005b8381101561036657808201518184015260208101905061034b565b50505050905090810190601f1680156103935780820380516001836020036101000a031916815260200191505b509250505060405180910390f35b3480156103ad57600080fd5b506103ec60048036038101908080359060200190929190803573ffffffffffffffffffffffffffffffffffffffff1690602001909291905050506112b6565b6040518080602001898152602001888152602001878152602001861515151581526020018515151515815260200184815260200183815260200182810382528a818151815260200191508051906020019080838360005b8381101561045e578082015181840152602081019050610443565b50505050905090810190601f16801561048b5780820380516001836020036101000a031916815260200191505b50995050505050505050505060405180910390f35b3480156104ac57600080fd5b506104b56114f2565b6040518082815260200191505060405180910390f35b3480156104d757600080fd5b5061050c600480360381019080803573ffffffffffffffffffffffffffffffffffffffff1690602001909291905050506114fc565b005b34801561051a57600080fd5b5061053b600480360381019080803515159060200190929190505050611643565b005b34801561054957600080fd5b5061058860048036038101908080359060200190929190803573ffffffffffffffffffffffffffffffffffffffff1690602001909291905050506117e5565b604051808215151515815260200191505060405180910390f35b3480156105ae57600080fd5b506105b76118ba565b60405180806020018873ffffffffffffffffffffffffffffffffffffffff1673ffffffffffffffffffffffffffffffffffffffff1681526020018060200187815260200186815260200185815260200184815260200183810383528a818151815260200191508051906020019080838360005b8381101561064557808201518184015260208101905061062a565b50505050905090810190601f1680156106725780820380516001836020036101000a031916815260200191505b50838103825288818151815260200191508051906020019080838360005b838110156106ab578082015181840152602081019050610690565b50505050905090810190601f1680156106d85780820380516001836020036101000a031916815260200191505b50995050505050505050505060405180910390f35b3480156106f957600080fd5b50610768600480360381019080803590602001909291908035906020019082018035906020019190919293919293908035906020019082018035906020019190919293919293908035906020019092919080351515906020019092919080359060200190929190505050611a42565b005b34801561077657600080fd5b5061077f611d77565b6040518082815260200191505060405180910390f35b3480156107a157600080fd5b506107e060048036038101908080359060200190929190803573ffffffffffffffffffffffffffffffffffffffff169060200190929190505050611d81565b6040518080602001828103825283818151815260200191508051906020019080838360005b83811015610820578082015181840152602081019050610805565b50505050905090810190601f16801561084d5780820380516001836020036101000a031916815260200191505b509250505060405180910390f35b34801561086757600080fd5b506108706120d7565b6040518080602001828103825283818151815260200191508051906020019060200280838360005b838110156108b3578082015181840152602081019050610898565b505050509050019250505060405180910390f35b3480156108d357600080fd5b506108dc61225a565b6040518082815260200191505060405180910390f35b3480156108fe57600080fd5b50610907612264565b604051808273ffffffffffffffffffffffffffffffffffffffff1673ffffffffffffffffffffffffffffffffffffffff16815260200191505060405180910390f35b34801561095557600080fd5b5061099e60048036038101908080359060200190929190803573ffffffffffffffffffffffffffffffffffffffff1690602001909291908035906020019092919050505061228e565b005b3480156109ac57600080fd5b506109b5612771565b604051808215151515815260200191505060405180910390f35b3480156109db57600080fd5b506109e4612788565b6040518080602001828103825283818151815260200191508051906020019080838360005b83811015610a24578082015181840152602081019050610a09565b50505050905090810190601f168015610a515780820380516001836020036101000a031916815260200191505b509250505060405180910390f35b348015610a6b57600080fd5b50610aa0600480360381019080803573ffffffffffffffffffffffffffffffffffffffff16906020019092919050505061282a565b005b348015610aae57600080fd5b50610ab76129bf565b6040518082815260200191505060405180910390f35b348015610ad957600080fd5b50610ae26129c9565b6040518082815260200191505060405180910390f35b60008060008060085493506007549250600c549150600954905090919293565b6000600382815481101515610b2957fe5b906000526020600020906009020160070160009054906101000a900460ff168015610b7a5750610b576129d3565b600383815481101515610b6657fe5b906000526020600020906009020160040154105b610b85576000610b88565b60015b9050919050565b6000600754905090565b6000600380549050905090565b338073ffffffffffffffffffffffffffffffffffffffff16600260009054906101000a900473ffffffffffffffffffffffffffffffffffffffff1673ffffffffffffffffffffffffffffffffffffffff16639d27f1056040518163ffffffff167c0100000000000000000000000000000000000000000000000000000000028152600401602060405180830381600087803b158015610c4457600080fd5b505af1158015610c58573d6000803e3d6000fd5b505050506040513d6020811015610c6e57600080fd5b810190808051906020019092919050505073ffffffffffffffffffffffffffffffffffffffff16141515610d30576040517f08c379a00000000000000000000000000000000000000000000000000000000081526004018080602001828103825260388152602001807f4163636573206661696c65643a204f6e6c792041636365737320746f2041706981526020017f436f6e74656e747320736d61727420636f6e74726163742e000000000000000081525060400191505060405180910390fd5b828260049190610d41929190612a6f565b50600560009054906101000a900473ffffffffffffffffffffffffffffffffffffffff1673ffffffffffffffffffffffffffffffffffffffff163073ffffffffffffffffffffffffffffffffffffffff167f40dd544ef397dae746698b92172143292f6530341d1339b0f53afedaad86322a8585604051808060200182810382528484828181526020019250808284378201915050935050505060405180910390a3505050565b8015610e0f57610e046001600c546129ef90919063ffffffff16565b600c81905550610e2c565b610e256001600c54612a1090919063ffffffff16565b600c819055505b50565b6000338073ffffffffffffffffffffffffffffffffffffffff16600260009054906101000a900473ffffffffffffffffffffffffffffffffffffffff1673ffffffffffffffffffffffffffffffffffffffff16639d27f1056040518163ffffffff167c0100000000000000000000000000000000000000000000000000000000028152600401602060405180830381600087803b158015610ecf57600080fd5b505af1158015610ee3573d6000803e3d6000fd5b505050506040513d6020811015610ef957600080fd5b810190808051906020019092919050505073ffffffffffffffffffffffffffffffffffffffff16141515610fbb576040517f08c379a00000000000000000000000000000000000000000000000000000000081526004018080602001828103825260388152602001807f4163636573206661696c65643a204f6e6c792041636365737320746f2041706981526020017f436f6e74656e747320736d61727420636f6e74726163742e000000000000000081525060400191505060405180910390fd5b610fc36129d3565b91506003610100604051908101604052808b8b8080601f016020809104026020016040519081016040528093929190818152602001838380828437820191505050505050815260200189898080601f016020809104026020016040519081016040528093929190818152602001838380828437820191505050505050815260200187815260200160008152602001858152602001848152602001600081526020018615158152509080600181540180825580915050906001820390600052602060002090600902016000909192909190915060008201518160000190805190602001906110b1929190612aef565b5060208201518160010190805190602001906110ce929190612aef565b5060408201518160020155606082015181600301556080820151816004015560a0820151816005015560c0820151816006015560e08201518160070160006101000a81548160ff02191690831515021790555050505081600b81905550600560009054906101000a900473ffffffffffffffffffffffffffffffffffffffff1673ffffffffffffffffffffffffffffffffffffffff163073ffffffffffffffffffffffffffffffffffffffff1661119460016003805490506129ef90919063ffffffff16565b7f5b23adb8c5fdda700407efd594373be994b748db5a0c708891c4044061a5e5b38c8c8a8a8a8a6040518080602001868152602001851515151581526020018481526020018381526020018281038252888882818152602001925080828437820191505097505050505050505060405180910390a4505050505050505050565b606060068054600181600116156101000203166002900480601f0160208091040260200160405190810160405280929190818152602001828054600181600116156101000203166002900480156112ac5780601f10611281576101008083540402835291602001916112ac565b820191906000526020600020905b81548152906001019060200180831161128f57829003601f168201915b5050505050905090565b60606000806000806000806000600d60009054906101000a900460ff16156112dd576114e5565b60038a8154811015156112ec57fe5b90600052602060002090600902016000018054600181600116156101000203166002900480601f0160208091040260200160405190810160405280929190818152602001828054600181600116156101000203166002900480156113915780601f1061136657610100808354040283529160200191611391565b820191906000526020600020905b81548152906001019060200180831161137457829003601f168201915b5050505050975060038a8154811015156113a757fe5b906000526020600020906009020160020154965060038a8154811015156113ca57fe5b906000526020600020906009020160030154955060038a8154811015156113ed57fe5b906000526020600020906009020160060154945060038a81548110151561141057fe5b906000526020600020906009020160080160008a73ffffffffffffffffffffffffffffffffffffffff1673ffffffffffffffffffffffffffffffffffffffff16815260200190815260200160002060009054906101000a900460ff16935060038a81548110151561147d57fe5b906000526020600020906009020160070160009054906101000a900460ff16925060038a8154811015156114ad57fe5b906000526020600020906009020160040154915060038a8154811015156114d057fe5b90600052602060002090600902016005015490505b9295985092959890939650565b6000600a54905090565b6000803373ffffffffffffffffffffffffffffffffffffffff1673ffffffffffffffffffffffffffffffffffffffff16815260200190815260200160002060009054906101000a900460ff16151561155357600080fd5b600073ffffffffffffffffffffffffffffffffffffffff168173ffffffffffffffffffffffffffffffffffffffff161415151561158f57600080fd5b60016000808373ffffffffffffffffffffffffffffffffffffffff1673ffffffffffffffffffffffffffffffffffffffff16815260200190815260200160002060006101000a81548160ff0219169083151502179055508073ffffffffffffffffffffffffffffffffffffffff163373ffffffffffffffffffffffffffffffffffffffff167f1d95aed2b82ae4cbdcccc214bb64bc277a20e8490d69a59d7f426c67fe46c61d60405160405180910390a350565b600260009054906101000a900473ffffffffffffffffffffffffffffffffffffffff1673ffffffffffffffffffffffffffffffffffffffff163373ffffffffffffffffffffffffffffffffffffffff1614151561172e576040517f08c379a00000000000000000000000000000000000000000000000000000000081526004018080602001828103825260278152602001807f436f6e74656e7420626c6f636b696e67206661696c6564203a2061636365737381526020017f2064656e6965640000000000000000000000000000000000000000000000000081525060400191505060405180910390fd5b80600d60006101000a81548160ff0219169083151502179055503073ffffffffffffffffffffffffffffffffffffffff16600560009054906101000a900473ffffffffffffffffffffffffffffffffffffffff1673ffffffffffffffffffffffffffffffffffffffff167f6c35f5c3440acc939791265250953162226c48971dab47129cc28bc330e5b070600d60009054906101000a900460ff16604051808215151515815260200191505060405180910390a350565b60006003838154811015156117f657fe5b906000526020600020906009020160080160008373ffffffffffffffffffffffffffffffffffffffff1673ffffffffffffffffffffffffffffffffffffffff16815260200190815260200160002060009054906101000a900460ff16806118aa57508173ffffffffffffffffffffffffffffffffffffffff16600560009054906101000a900473ffffffffffffffffffffffffffffffffffffffff1673ffffffffffffffffffffffffffffffffffffffff16145b156118b457600190505b92915050565b60606000606060008060008060048054600181600116156101000203166002900480601f01602080910402602001604051908101604052809291908181526020018280546001816001161561010002031660029004801561195c5780601f106119315761010080835404028352916020019161195c565b820191906000526020600020905b81548152906001019060200180831161193f57829003601f168201915b50505050509650600560009054906101000a900473ffffffffffffffffffffffffffffffffffffffff16955060068054600181600116156101000203166002900480601f016020809104026020016040519081016040528092919081815260200182805460018160011615610100020316600290048015611a1e5780601f106119f357610100808354040283529160200191611a1e565b820191906000526020600020905b815481529060010190602001808311611a0157829003601f168201915b5050505050945060075493506008549250600a549150600b54905090919293949596565b338073ffffffffffffffffffffffffffffffffffffffff16600260009054906101000a900473ffffffffffffffffffffffffffffffffffffffff1673ffffffffffffffffffffffffffffffffffffffff16639d27f1056040518163ffffffff167c0100000000000000000000000000000000000000000000000000000000028152600401602060405180830381600087803b158015611ae057600080fd5b505af1158015611af4573d6000803e3d6000fd5b505050506040513d6020811015611b0a57600080fd5b810190808051906020019092919050505073ffffffffffffffffffffffffffffffffffffffff16141515611bcc576040517f08c379a00000000000000000000000000000000000000000000000000000000081526004018080602001828103825260388152602001807f4163636573206661696c65643a204f6e6c792041636365737320746f2041706981526020017f436f6e74656e747320736d61727420636f6e74726163742e000000000000000081525060400191505060405180910390fd5b878760038b815481101515611bdd57fe5b90600052602060002090600902016000019190611bfb929190612a6f565b50858560038b815481101515611c0d57fe5b90600052602060002090600902016001019190611c2b929190612a6f565b508360038a815481101515611c3c57fe5b9060005260206000209060090201600201819055508260038a815481101515611c6157fe5b906000526020600020906009020160070160006101000a81548160ff0219169083151502179055508160038a815481101515611c9957fe5b906000526020600020906009020160040181905550600560009054906101000a900473ffffffffffffffffffffffffffffffffffffffff1673ffffffffffffffffffffffffffffffffffffffff163073ffffffffffffffffffffffffffffffffffffffff168a7f214d6c623f4bd84c28f1c5a12805b3584f16a2b452680238eaa2fa78566591ff8b8b89898960405180806020018581526020018415151515815260200183815260200182810382528787828181526020019250808284378201915050965050505050505060405180910390a4505050505050505050565b6000600c54905090565b6060600d60009054906101000a900460ff1680611e8a57503373ffffffffffffffffffffffffffffffffffffffff16600260009054906101000a900473ffffffffffffffffffffffffffffffffffffffff1673ffffffffffffffffffffffffffffffffffffffff16639d27f1056040518163ffffffff167c0100000000000000000000000000000000000000000000000000000000028152600401602060405180830381600087803b158015611e3657600080fd5b505af1158015611e4a573d6000803e3d6000fd5b505050506040513d6020811015611e6057600080fd5b810190808051906020019092919050505073ffffffffffffffffffffffffffffffffffffffff1614155b15611e94576120d1565b600560009054906101000a900473ffffffffffffffffffffffffffffffffffffffff1673ffffffffffffffffffffffffffffffffffffffff168273ffffffffffffffffffffffffffffffffffffffff161415611faa57600383815481101515611ef957fe5b90600052602060002090600902016001018054600181600116156101000203166002900480601f016020809104026020016040519081016040528092919081815260200182805460018160011615610100020316600290048015611f9e5780601f10611f7357610100808354040283529160200191611f9e565b820191906000526020600020905b815481529060010190602001808311611f8157829003601f168201915b505050505090506120d0565b600383815481101515611fb957fe5b906000526020600020906009020160070160009054906101000a900460ff16158061200a5750611fe76129d3565b600384815481101515611ff657fe5b906000526020600020906009020160040154115b15612014576120d1565b60038381548110151561202357fe5b90600052602060002090600902016001018054600181600116156101000203166002900480601f0160208091040260200160405190810160405280929190818152602001828054600181600116156101000203166002900480156120c85780601f1061209d576101008083540402835291602001916120c8565b820191906000526020600020905b8154815290600101906020018083116120ab57829003601f168201915b505050505090505b5b92915050565b606060008060008090505b600380549050811015612178576003818154811015156120fe57fe5b906000526020600020906009020160070160009054906101000a900460ff16801561214f575061212c6129d3565b60038281548110151561213b57fe5b906000526020600020906009020160040154105b1561216b57612168600183612a1090919063ffffffff16565b91505b80806001019150506120e2565b816040519080825280602002602001820160405280156121a75781602001602082028038833980820191505090505b509350600090505b600380549050811015612254576003818154811015156121cb57fe5b906000526020600020906009020160070160009054906101000a900460ff16801561221c57506121f96129d3565b60038281548110151561220857fe5b906000526020600020906009020160040154105b156122475780848481518110151561223057fe5b906020019060200201818152505082806001019350505b80806001019150506121af565b50505090565b6000600b54905090565b6000600560009054906101000a900473ffffffffffffffffffffffffffffffffffffffff16905090565b81600073ffffffffffffffffffffffffffffffffffffffff168173ffffffffffffffffffffffffffffffffffffffff16141515156122cb57600080fd5b3073ffffffffffffffffffffffffffffffffffffffff168173ffffffffffffffffffffffffffffffffffffffff161415151561230657600080fd5b838060038054905011151561231a57600080fd5b3373ffffffffffffffffffffffffffffffffffffffff16600260009054906101000a900473ffffffffffffffffffffffffffffffffffffffff1673ffffffffffffffffffffffffffffffffffffffff16630cec1ecd6040518163ffffffff167c0100000000000000000000000000000000000000000000000000000000028152600401602060405180830381600087803b1580156123b757600080fd5b505af11580156123cb573d6000803e3d6000fd5b505050506040513d60208110156123e157600080fd5b810190808051906020019092919050505073ffffffffffffffffffffffffffffffffffffffff1614151561241457600080fd5b60038581548110151561242357fe5b906000526020600020906009020160080160008573ffffffffffffffffffffffffffffffffffffffff1673ffffffffffffffffffffffffffffffffffffffff16815260200190815260200160002060009054906101000a900460ff1615151561248b57600080fd5b8260038681548110151561249b57fe5b9060005260206000209060090201600201541415156124b957600080fd5b60016003868154811015156124ca57fe5b906000526020600020906009020160080160008673ffffffffffffffffffffffffffffffffffffffff1673ffffffffffffffffffffffffffffffffffffffff16815260200190815260200160002060006101000a81548160ff021916908315150217905550612563600160038781548110151561254357fe5b906000526020600020906009020160030154612a1090919063ffffffff16565b60038681548110151561257257fe5b9060005260206000209060090201600301819055506125ba8360038781548110151561259a57fe5b906000526020600020906009020160060154612a1090919063ffffffff16565b6003868154811015156125c957fe5b9060005260206000209060090201600601819055506125f46001600754612a1090919063ffffffff16565b60078190555061260f83600854612a1090919063ffffffff16565b600881905550600160008573ffffffffffffffffffffffffffffffffffffffff1673ffffffffffffffffffffffffffffffffffffffff16815260200190815260200160002060009054906101000a900460ff1615156126dc5760018060008673ffffffffffffffffffffffffffffffffffffffff1673ffffffffffffffffffffffffffffffffffffffff16815260200190815260200160002060006101000a81548160ff0219169083151502179055506126d56001600954612a1090919063ffffffff16565b6009819055505b8373ffffffffffffffffffffffffffffffffffffffff163073ffffffffffffffffffffffffffffffffffffffff16867f0de6e4ed1bb6d9768506efee82a28bfd580168e216a1c045d93952f7257c78888660038a81548110151561273c57fe5b906000526020600020906009020160030154604051808381526020018281526020019250505060405180910390a45050505050565b6000600d60009054906101000a900460ff16905090565b606060048054600181600116156101000203166002900480601f0160208091040260200160405190810160405280929190818152602001828054600181600116156101000203166002900480156128205780601f106127f557610100808354040283529160200191612820565b820191906000526020600020905b81548152906001019060200180831161280357829003601f168201915b5050505050905090565b6000803373ffffffffffffffffffffffffffffffffffffffff1673ffffffffffffffffffffffffffffffffffffffff16815260200190815260200160002060009054906101000a900460ff16151561288157600080fd5b600073ffffffffffffffffffffffffffffffffffffffff168173ffffffffffffffffffffffffffffffffffffffff16141515156128bd57600080fd5b60016000808373ffffffffffffffffffffffffffffffffffffffff1673ffffffffffffffffffffffffffffffffffffffff16815260200190815260200160002060006101000a81548160ff0219169083151502179055506000803373ffffffffffffffffffffffffffffffffffffffff1673ffffffffffffffffffffffffffffffffffffffff16815260200190815260200160002060006101000a81549060ff02191690558073ffffffffffffffffffffffffffffffffffffffff163373ffffffffffffffffffffffffffffffffffffffff167f8be0079c531659141344cd1fd0a4f28419497f9722a3daafe3b4186f6b6457e060405160405180910390a350565b6000600954905090565b6000600854905090565b60006129ea6103e842612a3190919063ffffffff16565b905090565b600080838311151515612a0157600080fd5b82840390508091505092915050565b6000808284019050838110151515612a2757600080fd5b8091505092915050565b6000806000841415612a465760009150612a68565b8284029050828482811515612a5757fe5b04141515612a6457600080fd5b8091505b5092915050565b828054600181600116156101000203166002900490600052602060002090601f016020900481019282601f10612ab057803560ff1916838001178555612ade565b82800160010185558215612ade579182015b82811115612add578235825591602001919060010190612ac2565b5b509050612aeb9190612b6f565b5090565b828054600181600116156101000203166002900490600052602060002090601f016020900481019282601f10612b3057805160ff1916838001178555612b5e565b82800160010185558215612b5e579182015b82811115612b5d578251825591602001919060010190612b42565b5b509050612b6b9190612b6f565b5090565b612b9191905b80821115612b8d576000816000905550600101612b75565b5090565b905600a165627a7a723058206a3b90641fcaaf616cdca6f502728f15c3d34cd4da0342a235d80b3d366995ea0029",
  "source": "pragma solidity ^0.4.24;\r\n\r\nimport \"openzeppelin-solidity/contracts/math/SafeMath.sol\";\r\n\r\nimport \"contracts/interface/IContent.sol\";\r\nimport \"contracts/interface/ICouncil.sol\";\r\n\r\nimport \"contracts/utils/ValidValue.sol\";\r\nimport \"contracts/utils/ExtendsOwnable.sol\";\r\nimport \"contracts/utils/BytesLib.sol\";\r\nimport \"contracts/utils/TimeLib.sol\";\r\n\r\ncontract Content is IContent, ExtendsOwnable, ValidValue {\r\n    using SafeMath for uint256;\r\n    using BytesLib for bytes;\r\n    using TimeLib for *;\r\n\r\n    struct Episode {\r\n        string record;\r\n        string cuts;\r\n        uint256 price;\r\n        uint256 buyCount;\r\n        uint256 publishDate;\r\n        uint256 episodeCreationTime;\r\n        uint256 episodePurchasedAmount;\r\n        bool isPublished;\r\n        mapping (address => bool) buyUser;\r\n    }\r\n\r\n    mapping (address => bool) isBuyer;\r\n\r\n    ICouncil council;\r\n    Episode[] episodes;\r\n\r\n    string record;\r\n    address writer;\r\n    string writerName;\r\n    \r\n    uint256 totalPurchasedCount;\r\n    uint256 totalPurchasedAmount;\r\n    uint256 totalPurchasedUserCount;\r\n\r\n    uint256 contentCreationTime;\r\n    uint256 episodeLastUpdatedTime;\r\n\r\n    uint256 favoriteCount;\r\n\r\n    bool isBlocked;\r\n\r\n    modifier validEpisodeLength(uint256 _index) {\r\n        require(episodes.length > _index);\r\n        _;\r\n    }\r\n\r\n    modifier validAccessAddress(address _apiAddress) {\r\n        require(council.getApiContents() == _apiAddress, \"Acces failed: Only Access to ApiContents smart contract.\");\r\n        _;\r\n    }\r\n\r\n    constructor(\r\n        string _record,\r\n        address _writer,\r\n        string _writerName,\r\n        address _council\r\n    )\r\n        public\r\n        validAddress(_writer) validString(_record)\r\n        validAddress(_council) validString(_writerName)\r\n    {\r\n        record = _record;\r\n        writer = _writer;\r\n        writerName = _writerName;\r\n\r\n        contentCreationTime = TimeLib.currentTime();\r\n\r\n        council = ICouncil(_council);\r\n\r\n        emit ContentCreation(msg.sender, _writer, _writerName, _record, contentCreationTime);\r\n    }\r\n\r\n    function updateContent(\r\n        string _record\r\n    )\r\n        external\r\n        validAccessAddress(msg.sender)\r\n    {\r\n        record = _record;\r\n\r\n        emit ChangeContent(address(this), writer, _record);\r\n    }\r\n\r\n    function addEpisode(\r\n        string _record, \r\n        string _cuts, \r\n        uint256 _price,\r\n        bool _isPublished,\r\n        uint256 _publishDate\r\n    )\r\n        external\r\n        validAccessAddress(msg.sender)\r\n    {\r\n        uint256 episodeCreationTime = TimeLib.currentTime();\r\n        episodes.push(Episode(_record, _cuts, _price, 0, _publishDate, episodeCreationTime, 0, _isPublished));\r\n        episodeLastUpdatedTime = episodeCreationTime;\r\n\r\n        emit EpisodeCreation(episodes.length.sub(1), address(this), writer, _record, _price, _isPublished, _publishDate, episodeCreationTime);\r\n    }\r\n\r\n    function updateEpisode(\r\n        uint256 _index, \r\n        string _record, \r\n        string _cuts, \r\n        uint256 _price,\r\n        bool _isPublished,\r\n        uint256 _publishDate\r\n    )\r\n        external\r\n        validAccessAddress(msg.sender)\r\n    {\r\n        episodes[_index].record = _record;\r\n        episodes[_index].cuts = _cuts;\r\n        episodes[_index].price = _price;\r\n        episodes[_index].isPublished = _isPublished;\r\n        episodes[_index].publishDate = _publishDate;\r\n\r\n        emit ChangeEpisode(_index, address(this), writer, _record, _price, _isPublished, _publishDate);\r\n    }\r\n\r\n    function updateFavoriteCount(bool isFavorite) public {\r\n        if(isFavorite) {\r\n            favoriteCount = favoriteCount.sub(1);\r\n        } else {\r\n            favoriteCount = favoriteCount.add(1);\r\n        }\r\n    }\r\n\r\n    function getRecord() public view returns (string record_) {\r\n        record_ = record;\r\n    }\r\n\r\n    function getWriter() public view returns (address writer_) {\r\n        writer_ =  writer;\r\n    }\r\n\r\n    function getWriterName() public view returns (string writerName_) {\r\n        writerName_ =  writerName;\r\n    }\r\n\r\n    function getTotalPurchasedCount() public view returns (uint256 totalPurchasedCount_) {\r\n        totalPurchasedCount_ = totalPurchasedCount;\r\n    }\r\n\r\n    function getTotalPurchasedAmount() public view returns (uint256 totalPurchasedAmount_) {\r\n        totalPurchasedAmount_ = totalPurchasedAmount;\r\n    }\r\n\r\n    function getTotalPurchasedUserCount() public view returns (uint256 totalPurchasedUserCount_) {\r\n        totalPurchasedUserCount_ = totalPurchasedUserCount;\r\n    }\r\n\r\n    function getContentCreationTime() public view returns (uint256 contentCreationTime_) {\r\n        contentCreationTime_ = contentCreationTime;\r\n    }\r\n\r\n    function getEpisodeLastUpdatedTime() public view returns (uint256 episodeLastUpdatedTime_) {\r\n        episodeLastUpdatedTime_ = episodeLastUpdatedTime;\r\n    }\r\n\r\n    function getFavoriteCount() public view returns (uint256 favoriteCount_) {\r\n        favoriteCount_ = favoriteCount;\r\n    }\r\n\r\n    function getSalesInfo() \r\n        public \r\n        view \r\n        returns (\r\n            uint256 totalPurchasedAmount_,\r\n            uint256 totalPurchasedCount_,\r\n            uint256 favoriteCount_,\r\n            uint256 totalPurchasedUserCount_\r\n        )\r\n    {\r\n        totalPurchasedAmount_ = totalPurchasedAmount;\r\n        totalPurchasedCount_ = totalPurchasedCount;\r\n        favoriteCount_ = favoriteCount;\r\n        totalPurchasedUserCount_ = totalPurchasedUserCount;\r\n    }\r\n\r\n    function getComicsInfo()\r\n        external\r\n        view\r\n        returns(\r\n            string record_,\r\n            address writer_,\r\n            string writerName_,\r\n            uint256 totalPurchasedCount_,\r\n            uint256 totalPurchasedAmount_,\r\n            uint256 contentCreationTime_,\r\n            uint256 episodeLastUpdatedTime_\r\n        )\r\n    {\r\n        record_ = record;\r\n        writer_ = writer;\r\n        writerName_ = writerName;\r\n        totalPurchasedCount_ = totalPurchasedCount;\r\n        totalPurchasedAmount_ = totalPurchasedAmount;\r\n        contentCreationTime_ = contentCreationTime;\r\n        episodeLastUpdatedTime_ = episodeLastUpdatedTime;\r\n    }\r\n\r\n    function getEpisodeLength() public view returns (uint256 episodeLength_) {\r\n        episodeLength_ = episodes.length;\r\n    }\r\n\r\n    function getPublishEpisodeIndex() public view returns (uint256[] episodeIndex_) {\r\n        uint256 idx;\r\n        uint256 publishLength;\r\n\r\n        for(uint i = 0 ; i < episodes.length ; i++) {\r\n            if(episodes[i].isPublished && episodes[i].publishDate < TimeLib.currentTime()) {\r\n                publishLength = publishLength.add(1);\r\n            }\r\n        }\r\n\r\n        episodeIndex_ = new uint256[](publishLength);\r\n\r\n        for(i = 0 ; i < episodes.length ; i++) {\r\n            if(episodes[i].isPublished && episodes[i].publishDate < TimeLib.currentTime()) {\r\n                episodeIndex_[idx] = i;\r\n                idx++;\r\n            }\r\n        }\r\n    }\r\n\r\n    function isPublishedEpisode(uint256 _index)\r\n        external\r\n        view\r\n        returns (bool isPublished_)\r\n    {\r\n        isPublished_ = (episodes[_index].isPublished && episodes[_index].publishDate < TimeLib.currentTime())? true : false;\r\n    }\r\n\r\n    function isPurchasedEpisode(uint256 _index, address _buyer)\r\n        external\r\n        view\r\n        returns (bool isPurchased_)\r\n    {\r\n        if(episodes[_index].buyUser[_buyer] || writer == _buyer) {\r\n            isPurchased_ = true;\r\n        }\r\n    }\r\n\r\n    function getEpisodeDetail(uint256 _index, address _buyer)\r\n        external\r\n        view\r\n        returns (\r\n            string record_, \r\n            uint256 price_, \r\n            uint256 buyCount_,\r\n            uint256 purchasedAmount_,\r\n            bool isPurchased_,\r\n            bool isPublished_,\r\n            uint256 publishDate_,\r\n            uint256 episodeCreationTime_\r\n        )\r\n    {\r\n        if(isBlocked) {\r\n            return;\r\n        }\r\n\r\n        record_ = episodes[_index].record;\r\n        price_ = episodes[_index].price;\r\n        buyCount_ = episodes[_index].buyCount;\r\n        purchasedAmount_ = episodes[_index].episodePurchasedAmount;\r\n        isPurchased_ = episodes[_index].buyUser[_buyer];\r\n        isPublished_ = episodes[_index].isPublished;\r\n        publishDate_ = episodes[_index].publishDate;\r\n        episodeCreationTime_ = episodes[_index].episodeCreationTime;\r\n    }\r\n\r\n    function getEpisodeCuts(uint256 _index, address _user)\r\n        external\r\n        view\r\n        returns (string episodeCuts_)\r\n    {\r\n        if(isBlocked || council.getApiContents() != msg.sender) {\r\n            return;\r\n        }\r\n\r\n        if(_user == writer) {\r\n            episodeCuts_ = episodes[_index].cuts;\r\n        } else {\r\n            if(!episodes[_index].isPublished || episodes[_index].publishDate > TimeLib.currentTime()) {\r\n                return;\r\n            }\r\n            episodeCuts_ = episodes[_index].cuts;\r\n        }\r\n    }\r\n\r\n    function getIsBlocked()\r\n        external\r\n        view\r\n        returns (bool isBlocked_)\r\n    {\r\n        isBlocked_ = isBlocked;\r\n    }\r\n\r\n    function setIsBlocked(bool _isBlocked)\r\n        external\r\n    {\r\n        require(msg.sender == address(council), \"Content blocking failed : access denied\");\r\n\r\n        isBlocked = _isBlocked;\r\n        emit ContentBlocking(writer, address(this), isBlocked);\r\n    }\r\n\r\n    function episodePurchase(uint256 _index, address _buyer, uint256 _amount)\r\n        external\r\n        validAddress(_buyer) validEpisodeLength(_index)\r\n    {\r\n        require(council.getPixelDistributor() == msg.sender);\r\n        require(!episodes[_index].buyUser[_buyer]);\r\n        require(episodes[_index].price == _amount);\r\n\r\n        episodes[_index].buyUser[_buyer] = true;\r\n        episodes[_index].buyCount = episodes[_index].buyCount.add(1);\r\n        episodes[_index].episodePurchasedAmount = episodes[_index].episodePurchasedAmount.add(_amount);\r\n\r\n        totalPurchasedCount = totalPurchasedCount.add(1);\r\n        totalPurchasedAmount = totalPurchasedAmount.add(_amount);\r\n\r\n        if(!isBuyer[_buyer]) {\r\n            isBuyer[_buyer] = true;\r\n            totalPurchasedUserCount = totalPurchasedUserCount.add(1);\r\n        }\r\n\r\n        emit EpisodePurchase(_index, address(this), _buyer, _amount, episodes[_index].buyCount);\r\n    }\r\n}\r\n",
  "sourcePath": "contracts/contents/Content.sol",
  "compiler": {
    "name": "solc",
    "version": "0.4.24+commit.e67f0147.Emscripten.clang"
  },
  "schemaVersion": "2.0.1",
  "updatedAt": "2018-11-12T08:31:59.693Z"
}