{
  "contractName": "Council",
  "abi": [
    {
      "constant": false,
      "inputs": [
        {
          "name": "guest",
          "type": "address"
        }
      ],
      "name": "addOwner",
      "outputs": [],
      "payable": false,
      "stateMutability": "nonpayable",
      "type": "function"
    },
    {
      "constant": false,
      "inputs": [
        {
          "name": "newOwner",
          "type": "address"
        }
      ],
      "name": "transferOwnership",
      "outputs": [],
      "payable": false,
      "stateMutability": "nonpayable",
      "type": "function"
    },
    {
      "inputs": [
        {
          "name": "_token",
          "type": "address"
        }
      ],
      "payable": false,
      "stateMutability": "nonpayable",
      "type": "constructor"
    },
    {
      "anonymous": false,
      "inputs": [
        {
          "indexed": false,
          "name": "_sender",
          "type": "address"
        },
        {
          "indexed": false,
          "name": "_token",
          "type": "address"
        }
      ],
      "name": "RegisterCouncil",
      "type": "event"
    },
    {
      "anonymous": false,
      "inputs": [
        {
          "indexed": false,
          "name": "_depositRate",
          "type": "uint256"
        },
        {
          "indexed": false,
          "name": "_reportRegistrationFee",
          "type": "uint256"
        },
        {
          "indexed": false,
          "name": "_depositReleaseDelay",
          "type": "uint256"
        },
        {
          "indexed": false,
          "name": "_fundAvailable",
          "type": "bool"
        }
      ],
      "name": "InitialValue",
      "type": "event"
    },
    {
      "anonymous": false,
      "inputs": [
        {
          "indexed": false,
          "name": "_cdRate",
          "type": "uint256"
        },
        {
          "indexed": false,
          "name": "_userPaybackRate",
          "type": "uint256"
        }
      ],
      "name": "InitialRate",
      "type": "event"
    },
    {
      "anonymous": false,
      "inputs": [
        {
          "indexed": false,
          "name": "_userPaybackPool",
          "type": "address"
        },
        {
          "indexed": false,
          "name": "_depositPool",
          "type": "address"
        },
        {
          "indexed": false,
          "name": "_supporterPool",
          "type": "address"
        },
        {
          "indexed": false,
          "name": "_pixelDistributor",
          "type": "address"
        },
        {
          "indexed": false,
          "name": "_report",
          "type": "address"
        },
        {
          "indexed": false,
          "name": "_contentsDistributor",
          "type": "address"
        }
      ],
      "name": "InitialAddress",
      "type": "event"
    },
    {
      "anonymous": false,
      "inputs": [
        {
          "indexed": false,
          "name": "_depositPool",
          "type": "address"
        },
        {
          "indexed": false,
          "name": "_contentsManager",
          "type": "address"
        },
        {
          "indexed": false,
          "name": "_accountManager",
          "type": "address"
        }
      ],
      "name": "InitialManagerAddress",
      "type": "event"
    },
    {
      "anonymous": false,
      "inputs": [
        {
          "indexed": false,
          "name": "_apiContents",
          "type": "address"
        },
        {
          "indexed": false,
          "name": "_apiReport",
          "type": "address"
        },
        {
          "indexed": false,
          "name": "_apiFund",
          "type": "address"
        }
      ],
      "name": "InitialApiAddress",
      "type": "event"
    },
    {
      "anonymous": false,
      "inputs": [
        {
          "indexed": false,
          "name": "_date",
          "type": "uint256"
        },
        {
          "indexed": false,
          "name": "_index",
          "type": "uint256"
        },
        {
          "indexed": true,
          "name": "_content",
          "type": "address"
        },
        {
          "indexed": true,
          "name": "_reporter",
          "type": "address"
        },
        {
          "indexed": false,
          "name": "_type",
          "type": "uint256"
        },
        {
          "indexed": false,
          "name": "_description",
          "type": "string"
        },
        {
          "indexed": false,
          "name": "_deductionAmount",
          "type": "uint256"
        }
      ],
      "name": "ReportDisposal",
      "type": "event"
    },
    {
      "anonymous": false,
      "inputs": [
        {
          "indexed": false,
          "name": "_member",
          "type": "address"
        },
        {
          "indexed": false,
          "name": "_allow",
          "type": "bool"
        }
      ],
      "name": "SetMember",
      "type": "event"
    },
    {
      "anonymous": false,
      "inputs": [
        {
          "indexed": true,
          "name": "_sender",
          "type": "address"
        },
        {
          "indexed": true,
          "name": "_contentAddress",
          "type": "address"
        },
        {
          "indexed": false,
          "name": "_isBlocked",
          "type": "bool"
        }
      ],
      "name": "ContentBlocking",
      "type": "event"
    },
    {
      "anonymous": false,
      "inputs": [
        {
          "indexed": true,
          "name": "previousOwner",
          "type": "address"
        },
        {
          "indexed": true,
          "name": "newOwner",
          "type": "address"
        }
      ],
      "name": "OwnershipTransferred",
      "type": "event"
    },
    {
      "anonymous": false,
      "inputs": [
        {
          "indexed": true,
          "name": "host",
          "type": "address"
        },
        {
          "indexed": true,
          "name": "guest",
          "type": "address"
        }
      ],
      "name": "OwnershipExtended",
      "type": "event"
    },
    {
      "constant": false,
      "inputs": [
        {
          "name": "_member",
          "type": "address"
        },
        {
          "name": "_allow",
          "type": "bool"
        }
      ],
      "name": "setMember",
      "outputs": [],
      "payable": false,
      "stateMutability": "nonpayable",
      "type": "function"
    },
    {
      "constant": true,
      "inputs": [
        {
          "name": "_member",
          "type": "address"
        }
      ],
      "name": "isMember",
      "outputs": [
        {
          "name": "allow_",
          "type": "bool"
        }
      ],
      "payable": false,
      "stateMutability": "view",
      "type": "function"
    },
    {
      "constant": false,
      "inputs": [
        {
          "name": "_initialDeposit",
          "type": "uint256"
        },
        {
          "name": "_reportRegistrationFee",
          "type": "uint256"
        },
        {
          "name": "_depositReleaseDelay",
          "type": "uint256"
        },
        {
          "name": "_fundAvailable",
          "type": "bool"
        }
      ],
      "name": "initialValue",
      "outputs": [],
      "payable": false,
      "stateMutability": "nonpayable",
      "type": "function"
    },
    {
      "constant": false,
      "inputs": [
        {
          "name": "_cdRate",
          "type": "uint256"
        },
        {
          "name": "_userPaybackRate",
          "type": "uint256"
        }
      ],
      "name": "initialRate",
      "outputs": [],
      "payable": false,
      "stateMutability": "nonpayable",
      "type": "function"
    },
    {
      "constant": false,
      "inputs": [
        {
          "name": "_userPaybackPool",
          "type": "address"
        },
        {
          "name": "_depositPool",
          "type": "address"
        },
        {
          "name": "_supporterPool",
          "type": "address"
        },
        {
          "name": "_pixelDistributor",
          "type": "address"
        },
        {
          "name": "_report",
          "type": "address"
        },
        {
          "name": "_contentsDistributor",
          "type": "address"
        }
      ],
      "name": "initialPictionAddress",
      "outputs": [],
      "payable": false,
      "stateMutability": "nonpayable",
      "type": "function"
    },
    {
      "constant": false,
      "inputs": [
        {
          "name": "_contentsManager",
          "type": "address"
        },
        {
          "name": "_fundManager",
          "type": "address"
        },
        {
          "name": "_accountManager",
          "type": "address"
        }
      ],
      "name": "initialManagerAddress",
      "outputs": [],
      "payable": false,
      "stateMutability": "nonpayable",
      "type": "function"
    },
    {
      "constant": false,
      "inputs": [
        {
          "name": "_apiContents",
          "type": "address"
        },
        {
          "name": "_apiReport",
          "type": "address"
        },
        {
          "name": "_apiFund",
          "type": "address"
        }
      ],
      "name": "initialApiAddress",
      "outputs": [],
      "payable": false,
      "stateMutability": "nonpayable",
      "type": "function"
    },
    {
      "constant": true,
      "inputs": [],
      "name": "getPictionConfig",
      "outputs": [
        {
          "name": "pxlAddress_",
          "type": "address"
        },
        {
          "name": "pictionValue_",
          "type": "uint256[]"
        },
        {
          "name": "pictionRate_",
          "type": "uint256[]"
        },
        {
          "name": "pictionAddress_",
          "type": "address[]"
        },
        {
          "name": "managerAddress_",
          "type": "address[]"
        },
        {
          "name": "apiAddress_",
          "type": "address[]"
        },
        {
          "name": "fundAvailable_",
          "type": "bool"
        }
      ],
      "payable": false,
      "stateMutability": "view",
      "type": "function"
    },
    {
      "constant": false,
      "inputs": [
        {
          "name": "_index",
          "type": "uint256"
        },
        {
          "name": "_content",
          "type": "address"
        },
        {
          "name": "_reporter",
          "type": "address"
        },
        {
          "name": "_type",
          "type": "uint256"
        },
        {
          "name": "_description",
          "type": "string"
        }
      ],
      "name": "reportDisposal",
      "outputs": [
        {
          "name": "deductionAmount_",
          "type": "uint256"
        }
      ],
      "payable": false,
      "stateMutability": "nonpayable",
      "type": "function"
    },
    {
      "constant": false,
      "inputs": [
        {
          "name": "_contentAddress",
          "type": "address"
        },
        {
          "name": "_isBlocked",
          "type": "bool"
        }
      ],
      "name": "contentBlocking",
      "outputs": [],
      "payable": false,
      "stateMutability": "nonpayable",
      "type": "function"
    },
    {
      "constant": true,
      "inputs": [],
      "name": "getToken",
      "outputs": [
        {
          "name": "token_",
          "type": "address"
        }
      ],
      "payable": false,
      "stateMutability": "view",
      "type": "function"
    },
    {
      "constant": true,
      "inputs": [],
      "name": "getInitialDeposit",
      "outputs": [
        {
          "name": "initialDeposit_",
          "type": "uint256"
        }
      ],
      "payable": false,
      "stateMutability": "view",
      "type": "function"
    },
    {
      "constant": true,
      "inputs": [],
      "name": "getReportRegistrationFee",
      "outputs": [
        {
          "name": "reportRegistrationFee_",
          "type": "uint256"
        }
      ],
      "payable": false,
      "stateMutability": "view",
      "type": "function"
    },
    {
      "constant": true,
      "inputs": [],
      "name": "getDepositReleaseDelay",
      "outputs": [
        {
          "name": "depositReleaseDelay_",
          "type": "uint256"
        }
      ],
      "payable": false,
      "stateMutability": "view",
      "type": "function"
    },
    {
      "constant": true,
      "inputs": [],
      "name": "getFundAvailable",
      "outputs": [
        {
          "name": "fundAvailable_",
          "type": "bool"
        }
      ],
      "payable": false,
      "stateMutability": "view",
      "type": "function"
    },
    {
      "constant": true,
      "inputs": [],
      "name": "getCdRate",
      "outputs": [
        {
          "name": "cdRate_",
          "type": "uint256"
        }
      ],
      "payable": false,
      "stateMutability": "view",
      "type": "function"
    },
    {
      "constant": true,
      "inputs": [],
      "name": "getUserPaybackRate",
      "outputs": [
        {
          "name": "userPaybackRate_",
          "type": "uint256"
        }
      ],
      "payable": false,
      "stateMutability": "view",
      "type": "function"
    },
    {
      "constant": true,
      "inputs": [],
      "name": "getUserPaybackPool",
      "outputs": [
        {
          "name": "userPaybackPool_",
          "type": "address"
        }
      ],
      "payable": false,
      "stateMutability": "view",
      "type": "function"
    },
    {
      "constant": true,
      "inputs": [],
      "name": "getDepositPool",
      "outputs": [
        {
          "name": "depositPool_",
          "type": "address"
        }
      ],
      "payable": false,
      "stateMutability": "view",
      "type": "function"
    },
    {
      "constant": true,
      "inputs": [],
      "name": "getSupporterPool",
      "outputs": [
        {
          "name": "supporterPool_",
          "type": "address"
        }
      ],
      "payable": false,
      "stateMutability": "view",
      "type": "function"
    },
    {
      "constant": true,
      "inputs": [],
      "name": "getContentsManager",
      "outputs": [
        {
          "name": "contentsManager_",
          "type": "address"
        }
      ],
      "payable": false,
      "stateMutability": "view",
      "type": "function"
    },
    {
      "constant": true,
      "inputs": [],
      "name": "getFundManager",
      "outputs": [
        {
          "name": "fundManager_",
          "type": "address"
        }
      ],
      "payable": false,
      "stateMutability": "view",
      "type": "function"
    },
    {
      "constant": true,
      "inputs": [],
      "name": "getAccountManager",
      "outputs": [
        {
          "name": "accountManager_",
          "type": "address"
        }
      ],
      "payable": false,
      "stateMutability": "view",
      "type": "function"
    },
    {
      "constant": true,
      "inputs": [],
      "name": "getPixelDistributor",
      "outputs": [
        {
          "name": "pixelDistributor_",
          "type": "address"
        }
      ],
      "payable": false,
      "stateMutability": "view",
      "type": "function"
    },
    {
      "constant": true,
      "inputs": [],
      "name": "getReport",
      "outputs": [
        {
          "name": "report_",
          "type": "address"
        }
      ],
      "payable": false,
      "stateMutability": "view",
      "type": "function"
    },
    {
      "constant": true,
      "inputs": [],
      "name": "getContentsDistributor",
      "outputs": [
        {
          "name": "contentsDistributor_",
          "type": "address"
        }
      ],
      "payable": false,
      "stateMutability": "view",
      "type": "function"
    },
    {
      "constant": true,
      "inputs": [],
      "name": "getApiContents",
      "outputs": [
        {
          "name": "apiContents_",
          "type": "address"
        }
      ],
      "payable": false,
      "stateMutability": "view",
      "type": "function"
    },
    {
      "constant": true,
      "inputs": [],
      "name": "getApiReport",
      "outputs": [
        {
          "name": "apiReport_",
          "type": "address"
        }
      ],
      "payable": false,
      "stateMutability": "view",
      "type": "function"
    },
    {
      "constant": true,
      "inputs": [],
      "name": "getApiFund",
      "outputs": [
        {
          "name": "apiFund_",
          "type": "address"
        }
      ],
      "payable": false,
      "stateMutability": "view",
      "type": "function"
    }
  ],
  "bytecode": "0x608060405234801561001057600080fd5b50604051602080620035b08339810180604052810190808051906020019092919050505060016000803373ffffffffffffffffffffffffffffffffffffffff1673ffffffffffffffffffffffffffffffffffffffff16815260200190815260200160002060006101000a81548160ff02191690831515021790555080600073ffffffffffffffffffffffffffffffffffffffff168173ffffffffffffffffffffffffffffffffffffffff16141515156100c857600080fd5b3073ffffffffffffffffffffffffffffffffffffffff168173ffffffffffffffffffffffffffffffffffffffff161415151561010357600080fd5b81600160006101000a81548173ffffffffffffffffffffffffffffffffffffffff021916908373ffffffffffffffffffffffffffffffffffffffff1602179055506001601460003373ffffffffffffffffffffffffffffffffffffffff1673ffffffffffffffffffffffffffffffffffffffff16815260200190815260200160002060006101000a81548160ff0219169083151502179055507f9b9d0b9c69f57b347be547e176797a697c15048716ed2a9b7d39e00f12e1e23d3383604051808373ffffffffffffffffffffffffffffffffffffffff1673ffffffffffffffffffffffffffffffffffffffff1681526020018273ffffffffffffffffffffffffffffffffffffffff1673ffffffffffffffffffffffffffffffffffffffff1681526020019250505060405180910390a1505061336b80620002456000396000f30060806040526004361061018b576000357c0100000000000000000000000000000000000000000000000000000000900463ffffffff16806302c7acb514610190578063098a2cdc146102335780630cec1ecd1461028a5780631250ca3d146102e15780631fbd35641461030c57806321df0da7146103635780632a9551c6146103ba5780632d118bbf1461041157806330b3409e146104685780633de1a4bc1461049357806342c88dad146104ea578063468751cd14610541578063553908ae146105905780635745b81c146105bf578063592c48181461060c578063675cb54c14610663578063684f3dd3146106e65780636c7113e4146107c95780637065cb4814610820578063744cd69c14610863578063874330d3146108b25780639d27f10514610a7c578063a230c52414610ad3578063b3032be814610b2e578063c5e7925314610b85578063cf49427b14610c08578063cf6efb4914610c3f578063dcb173a114610c6a578063e0e9b34914610c95578063e4085d6714610cc0578063f2fde38b14610d17575b600080fd5b34801561019c57600080fd5b5061021d60048036038101908080359060200190929190803573ffffffffffffffffffffffffffffffffffffffff169060200190929190803573ffffffffffffffffffffffffffffffffffffffff16906020019092919080359060200190929190803590602001908201803590602001919091929391929390505050610d5a565b6040518082815260200191505060405180910390f35b34801561023f57600080fd5b5061024861124f565b604051808273ffffffffffffffffffffffffffffffffffffffff1673ffffffffffffffffffffffffffffffffffffffff16815260200191505060405180910390f35b34801561029657600080fd5b5061029f61127c565b604051808273ffffffffffffffffffffffffffffffffffffffff1673ffffffffffffffffffffffffffffffffffffffff16815260200191505060405180910390f35b3480156102ed57600080fd5b506102f66112a9565b6040518082815260200191505060405180910390f35b34801561031857600080fd5b506103216112b6565b604051808273ffffffffffffffffffffffffffffffffffffffff1673ffffffffffffffffffffffffffffffffffffffff16815260200191505060405180910390f35b34801561036f57600080fd5b506103786112e3565b604051808273ffffffffffffffffffffffffffffffffffffffff1673ffffffffffffffffffffffffffffffffffffffff16815260200191505060405180910390f35b3480156103c657600080fd5b506103cf61130d565b604051808273ffffffffffffffffffffffffffffffffffffffff1673ffffffffffffffffffffffffffffffffffffffff16815260200191505060405180910390f35b34801561041d57600080fd5b5061042661133a565b604051808273ffffffffffffffffffffffffffffffffffffffff1673ffffffffffffffffffffffffffffffffffffffff16815260200191505060405180910390f35b34801561047457600080fd5b5061047d611367565b6040518082815260200191505060405180910390f35b34801561049f57600080fd5b506104a8611374565b604051808273ffffffffffffffffffffffffffffffffffffffff1673ffffffffffffffffffffffffffffffffffffffff16815260200191505060405180910390f35b3480156104f657600080fd5b506104ff6113a1565b604051808273ffffffffffffffffffffffffffffffffffffffff1673ffffffffffffffffffffffffffffffffffffffff16815260200191505060405180910390f35b34801561054d57600080fd5b5061058e600480360381019080803573ffffffffffffffffffffffffffffffffffffffff1690602001909291908035151590602001909291905050506113ce565b005b34801561059c57600080fd5b506105a5611608565b604051808215151515815260200191505060405180910390f35b3480156105cb57600080fd5b5061060a600480360381019080803590602001909291908035906020019092919080359060200190929190803515159060200190929190505050611622565b005b34801561061857600080fd5b5061062161175b565b604051808273ffffffffffffffffffffffffffffffffffffffff1673ffffffffffffffffffffffffffffffffffffffff16815260200191505060405180910390f35b34801561066f57600080fd5b506106e4600480360381019080803573ffffffffffffffffffffffffffffffffffffffff169060200190929190803573ffffffffffffffffffffffffffffffffffffffff169060200190929190803573ffffffffffffffffffffffffffffffffffffffff169060200190929190505050611788565b005b3480156106f257600080fd5b506107c7600480360381019080803573ffffffffffffffffffffffffffffffffffffffff169060200190929190803573ffffffffffffffffffffffffffffffffffffffff169060200190929190803573ffffffffffffffffffffffffffffffffffffffff169060200190929190803573ffffffffffffffffffffffffffffffffffffffff169060200190929190803573ffffffffffffffffffffffffffffffffffffffff169060200190929190803573ffffffffffffffffffffffffffffffffffffffff169060200190929190505050611b52565b005b3480156107d557600080fd5b506107de61224f565b604051808273ffffffffffffffffffffffffffffffffffffffff1673ffffffffffffffffffffffffffffffffffffffff16815260200191505060405180910390f35b34801561082c57600080fd5b50610861600480360381019080803573ffffffffffffffffffffffffffffffffffffffff16906020019092919050505061227c565b005b34801561086f57600080fd5b506108b0600480360381019080803573ffffffffffffffffffffffffffffffffffffffff1690602001909291908035151590602001909291905050506123c3565b005b3480156108be57600080fd5b506108c76124e4565b604051808873ffffffffffffffffffffffffffffffffffffffff1673ffffffffffffffffffffffffffffffffffffffff16815260200180602001806020018060200180602001806020018715151515815260200186810386528c818151815260200191508051906020019060200280838360005b8381101561095657808201518184015260208101905061093b565b5050505090500186810385528b818151815260200191508051906020019060200280838360005b8381101561099857808201518184015260208101905061097d565b5050505090500186810384528a818151815260200191508051906020019060200280838360005b838110156109da5780820151818401526020810190506109bf565b50505050905001868103835289818151815260200191508051906020019060200280838360005b83811015610a1c578082015181840152602081019050610a01565b50505050905001868103825288818151815260200191508051906020019060200280838360005b83811015610a5e578082015181840152602081019050610a43565b505050509050019c5050505050505050505050505060405180910390f35b348015610a8857600080fd5b50610a91612bbb565b604051808273ffffffffffffffffffffffffffffffffffffffff1673ffffffffffffffffffffffffffffffffffffffff16815260200191505060405180910390f35b348015610adf57600080fd5b50610b14600480360381019080803573ffffffffffffffffffffffffffffffffffffffff169060200190929190505050612be8565b604051808215151515815260200191505060405180910390f35b348015610b3a57600080fd5b50610b43612c3e565b604051808273ffffffffffffffffffffffffffffffffffffffff1673ffffffffffffffffffffffffffffffffffffffff16815260200191505060405180910390f35b348015610b9157600080fd5b50610c06600480360381019080803573ffffffffffffffffffffffffffffffffffffffff169060200190929190803573ffffffffffffffffffffffffffffffffffffffff169060200190929190803573ffffffffffffffffffffffffffffffffffffffff169060200190929190505050612c6b565b005b348015610c1457600080fd5b50610c3d6004803603810190808035906020019092919080359060200190929190505050613035565b005b348015610c4b57600080fd5b50610c546130fd565b6040518082815260200191505060405180910390f35b348015610c7657600080fd5b50610c7f61310a565b6040518082815260200191505060405180910390f35b348015610ca157600080fd5b50610caa613116565b6040518082815260200191505060405180910390f35b348015610ccc57600080fd5b50610cd5613123565b604051808273ffffffffffffffffffffffffffffffffffffffff1673ffffffffffffffffffffffffffffffffffffffff16815260200191505060405180910390f35b348015610d2357600080fd5b50610d58600480360381019080803573ffffffffffffffffffffffffffffffffffffffff169060200190929190505050613150565b005b6000803373ffffffffffffffffffffffffffffffffffffffff16601160010160009054906101000a900473ffffffffffffffffffffffffffffffffffffffff1673ffffffffffffffffffffffffffffffffffffffff16141515610e25576040517f08c379a000000000000000000000000000000000000000000000000000000000815260040180806020018281038252601b8152602001807f6d73672073656e646572206973206e6f74206170695265706f7274000000000081525060200191505060405180910390fd5b60016005811115610e3257fe5b851480610e4a575060026005811115610e4757fe5b85145b15610fd057600860010160009054906101000a900473ffffffffffffffffffffffffffffffffffffffff1673ffffffffffffffffffffffffffffffffffffffff166381fa651888888888886040518663ffffffff167c0100000000000000000000000000000000000000000000000000000000028152600401808673ffffffffffffffffffffffffffffffffffffffff1673ffffffffffffffffffffffffffffffffffffffff1681526020018573ffffffffffffffffffffffffffffffffffffffff1673ffffffffffffffffffffffffffffffffffffffff168152602001848152602001806020018281038252848482818152602001925080828437820191505096505050505050506040805180830381600087803b158015610f6c57600080fd5b505af1158015610f80573d6000803e3d6000fd5b505050506040513d6040811015610f9657600080fd5b81019080805190602001909291908051906020019092919050505080925081935050508015610fcb57610fca8760016113ce565b5b6110e2565b600580811115610fdc57fe5b8514156110e157600860040160009054906101000a900473ffffffffffffffffffffffffffffffffffffffff1673ffffffffffffffffffffffffffffffffffffffff166333cb8b96876040518263ffffffff167c0100000000000000000000000000000000000000000000000000000000028152600401808273ffffffffffffffffffffffffffffffffffffffff1673ffffffffffffffffffffffffffffffffffffffff168152602001915050602060405180830381600087803b1580156110a357600080fd5b505af11580156110b7573d6000803e3d6000fd5b505050506040513d60208110156110cd57600080fd5b810190808051906020019092919050505091505b5b600860040160009054906101000a900473ffffffffffffffffffffffffffffffffffffffff1673ffffffffffffffffffffffffffffffffffffffff16636d10cf458987856040518463ffffffff167c0100000000000000000000000000000000000000000000000000000000028152600401808481526020018381526020018281526020019350505050600060405180830381600087803b15801561118657600080fd5b505af115801561119a573d6000803e3d6000fd5b505050508573ffffffffffffffffffffffffffffffffffffffff168773ffffffffffffffffffffffffffffffffffffffff167f1278422bf620116d722d3c84ee2ac00e427520a90d8f39211d00424c066b379d6111f56132e5565b8b8989898960405180878152602001868152602001858152602001806020018381526020018281038252858582818152602001925080828437820191505097505050505050505060405180910390a3509695505050505050565b6000600860020160009054906101000a900473ffffffffffffffffffffffffffffffffffffffff16905090565b6000600860030160009054906101000a900473ffffffffffffffffffffffffffffffffffffffff16905090565b6000600660010154905090565b6000600e60000160009054906101000a900473ffffffffffffffffffffffffffffffffffffffff16905090565b6000600160009054906101000a900473ffffffffffffffffffffffffffffffffffffffff16905090565b6000601160020160009054906101000a900473ffffffffffffffffffffffffffffffffffffffff16905090565b6000600860000160009054906101000a900473ffffffffffffffffffffffffffffffffffffffff16905090565b6000600260000154905090565b6000600860010160009054906101000a900473ffffffffffffffffffffffffffffffffffffffff16905090565b6000601160010160009054906101000a900473ffffffffffffffffffffffffffffffffffffffff16905090565b3373ffffffffffffffffffffffffffffffffffffffff16601160010160009054906101000a900473ffffffffffffffffffffffffffffffffffffffff1673ffffffffffffffffffffffffffffffffffffffff1614806114765750601460003373ffffffffffffffffffffffffffffffffffffffff1673ffffffffffffffffffffffffffffffffffffffff16815260200190815260200160002060009054906101000a900460ff165b1515611510576040517f08c379a00000000000000000000000000000000000000000000000000000000081526004018080602001828103825260278152602001807f436f6e74656e7420626c6f636b696e67206661696c6564203a2061636365737381526020017f2064656e6965640000000000000000000000000000000000000000000000000081525060400191505060405180910390fd5b8173ffffffffffffffffffffffffffffffffffffffff166383ee4089826040518263ffffffff167c01000000000000000000000000000000000000000000000000000000000281526004018082151515158152602001915050600060405180830381600087803b15801561158357600080fd5b505af1158015611597573d6000803e3d6000fd5b505050508173ffffffffffffffffffffffffffffffffffffffff163373ffffffffffffffffffffffffffffffffffffffff167f6c35f5c3440acc939791265250953162226c48971dab47129cc28bc330e5b07083604051808215151515815260200191505060405180910390a35050565b6000600260030160009054906101000a900460ff16905090565b6000803373ffffffffffffffffffffffffffffffffffffffff1673ffffffffffffffffffffffffffffffffffffffff16815260200190815260200160002060009054906101000a900460ff16151561167957600080fd5b8360008111151561168957600080fd5b8360008111151561169957600080fd5b608060405190810160405280878152602001868152602001858152602001841515815250600260008201518160000155602082015181600101556040820151816002015560608201518160030160006101000a81548160ff0219169083151502179055509050507f884e7683ef4840dbbc4957f5ab5e85628ce408fcb32d8df607d57c01f1af7f2b86868686604051808581526020018481526020018381526020018215151515815260200194505050505060405180910390a1505050505050565b6000600860050160009054906101000a900473ffffffffffffffffffffffffffffffffffffffff16905090565b6000803373ffffffffffffffffffffffffffffffffffffffff1673ffffffffffffffffffffffffffffffffffffffff16815260200190815260200160002060009054906101000a900460ff1615156117df57600080fd5b82600073ffffffffffffffffffffffffffffffffffffffff168173ffffffffffffffffffffffffffffffffffffffff161415151561181c57600080fd5b3073ffffffffffffffffffffffffffffffffffffffff168173ffffffffffffffffffffffffffffffffffffffff161415151561185757600080fd5b82600073ffffffffffffffffffffffffffffffffffffffff168173ffffffffffffffffffffffffffffffffffffffff161415151561189457600080fd5b3073ffffffffffffffffffffffffffffffffffffffff168173ffffffffffffffffffffffffffffffffffffffff16141515156118cf57600080fd5b82600073ffffffffffffffffffffffffffffffffffffffff168173ffffffffffffffffffffffffffffffffffffffff161415151561190c57600080fd5b3073ffffffffffffffffffffffffffffffffffffffff168173ffffffffffffffffffffffffffffffffffffffff161415151561194757600080fd5b6060604051908101604052808773ffffffffffffffffffffffffffffffffffffffff1681526020018673ffffffffffffffffffffffffffffffffffffffff1681526020018573ffffffffffffffffffffffffffffffffffffffff16815250601160008201518160000160006101000a81548173ffffffffffffffffffffffffffffffffffffffff021916908373ffffffffffffffffffffffffffffffffffffffff16021790555060208201518160010160006101000a81548173ffffffffffffffffffffffffffffffffffffffff021916908373ffffffffffffffffffffffffffffffffffffffff16021790555060408201518160020160006101000a81548173ffffffffffffffffffffffffffffffffffffffff021916908373ffffffffffffffffffffffffffffffffffffffff1602179055509050507f037444c44bdfec1f3a74af842fa13d390278b3906b92186db99d06066e8d027c868686604051808473ffffffffffffffffffffffffffffffffffffffff1673ffffffffffffffffffffffffffffffffffffffff1681526020018373ffffffffffffffffffffffffffffffffffffffff1673ffffffffffffffffffffffffffffffffffffffff1681526020018273ffffffffffffffffffffffffffffffffffffffff1673ffffffffffffffffffffffffffffffffffffffff168152602001935050505060405180910390a1505050505050565b6000803373ffffffffffffffffffffffffffffffffffffffff1673ffffffffffffffffffffffffffffffffffffffff16815260200190815260200160002060009054906101000a900460ff161515611ba957600080fd5b85600073ffffffffffffffffffffffffffffffffffffffff168173ffffffffffffffffffffffffffffffffffffffff1614151515611be657600080fd5b3073ffffffffffffffffffffffffffffffffffffffff168173ffffffffffffffffffffffffffffffffffffffff1614151515611c2157600080fd5b85600073ffffffffffffffffffffffffffffffffffffffff168173ffffffffffffffffffffffffffffffffffffffff1614151515611c5e57600080fd5b3073ffffffffffffffffffffffffffffffffffffffff168173ffffffffffffffffffffffffffffffffffffffff1614151515611c9957600080fd5b85600073ffffffffffffffffffffffffffffffffffffffff168173ffffffffffffffffffffffffffffffffffffffff1614151515611cd657600080fd5b3073ffffffffffffffffffffffffffffffffffffffff168173ffffffffffffffffffffffffffffffffffffffff1614151515611d1157600080fd5b85600073ffffffffffffffffffffffffffffffffffffffff168173ffffffffffffffffffffffffffffffffffffffff1614151515611d4e57600080fd5b3073ffffffffffffffffffffffffffffffffffffffff168173ffffffffffffffffffffffffffffffffffffffff1614151515611d8957600080fd5b85600073ffffffffffffffffffffffffffffffffffffffff168173ffffffffffffffffffffffffffffffffffffffff1614151515611dc657600080fd5b3073ffffffffffffffffffffffffffffffffffffffff168173ffffffffffffffffffffffffffffffffffffffff1614151515611e0157600080fd5b85600073ffffffffffffffffffffffffffffffffffffffff168173ffffffffffffffffffffffffffffffffffffffff1614151515611e3e57600080fd5b3073ffffffffffffffffffffffffffffffffffffffff168173ffffffffffffffffffffffffffffffffffffffff1614151515611e7957600080fd5b60c0604051908101604052808d73ffffffffffffffffffffffffffffffffffffffff1681526020018c73ffffffffffffffffffffffffffffffffffffffff1681526020018b73ffffffffffffffffffffffffffffffffffffffff1681526020018a73ffffffffffffffffffffffffffffffffffffffff1681526020018973ffffffffffffffffffffffffffffffffffffffff1681526020018873ffffffffffffffffffffffffffffffffffffffff16815250600860008201518160000160006101000a81548173ffffffffffffffffffffffffffffffffffffffff021916908373ffffffffffffffffffffffffffffffffffffffff16021790555060208201518160010160006101000a81548173ffffffffffffffffffffffffffffffffffffffff021916908373ffffffffffffffffffffffffffffffffffffffff16021790555060408201518160020160006101000a81548173ffffffffffffffffffffffffffffffffffffffff021916908373ffffffffffffffffffffffffffffffffffffffff16021790555060608201518160030160006101000a81548173ffffffffffffffffffffffffffffffffffffffff021916908373ffffffffffffffffffffffffffffffffffffffff16021790555060808201518160040160006101000a81548173ffffffffffffffffffffffffffffffffffffffff021916908373ffffffffffffffffffffffffffffffffffffffff16021790555060a08201518160050160006101000a81548173ffffffffffffffffffffffffffffffffffffffff021916908373ffffffffffffffffffffffffffffffffffffffff1602179055509050507fb54864268211406318e16b3e3468bf0ff20506501b4d8768c5a58f0bba8651d88c8c8c8c8c8c604051808773ffffffffffffffffffffffffffffffffffffffff1673ffffffffffffffffffffffffffffffffffffffff1681526020018673ffffffffffffffffffffffffffffffffffffffff1673ffffffffffffffffffffffffffffffffffffffff1681526020018573ffffffffffffffffffffffffffffffffffffffff1673ffffffffffffffffffffffffffffffffffffffff1681526020018473ffffffffffffffffffffffffffffffffffffffff1673ffffffffffffffffffffffffffffffffffffffff1681526020018373ffffffffffffffffffffffffffffffffffffffff1673ffffffffffffffffffffffffffffffffffffffff1681526020018273ffffffffffffffffffffffffffffffffffffffff1673ffffffffffffffffffffffffffffffffffffffff168152602001965050505050505060405180910390a1505050505050505050505050565b6000600e60010160009054906101000a900473ffffffffffffffffffffffffffffffffffffffff16905090565b6000803373ffffffffffffffffffffffffffffffffffffffff1673ffffffffffffffffffffffffffffffffffffffff16815260200190815260200160002060009054906101000a900460ff1615156122d357600080fd5b600073ffffffffffffffffffffffffffffffffffffffff168173ffffffffffffffffffffffffffffffffffffffff161415151561230f57600080fd5b60016000808373ffffffffffffffffffffffffffffffffffffffff1673ffffffffffffffffffffffffffffffffffffffff16815260200190815260200160002060006101000a81548160ff0219169083151502179055508073ffffffffffffffffffffffffffffffffffffffff163373ffffffffffffffffffffffffffffffffffffffff167f1d95aed2b82ae4cbdcccc214bb64bc277a20e8490d69a59d7f426c67fe46c61d60405160405180910390a350565b6000803373ffffffffffffffffffffffffffffffffffffffff1673ffffffffffffffffffffffffffffffffffffffff16815260200190815260200160002060009054906101000a900460ff16151561241a57600080fd5b80601460008473ffffffffffffffffffffffffffffffffffffffff1673ffffffffffffffffffffffffffffffffffffffff16815260200190815260200160002060006101000a81548160ff0219169083151502179055507f85ef8aba526ab12450d72b45aa8aa86c5b84a95c373677647b6ee12745e2433b8282604051808373ffffffffffffffffffffffffffffffffffffffff1673ffffffffffffffffffffffffffffffffffffffff168152602001821515151581526020019250505060405180910390a15050565b60006060806060806060600060036040519080825280602002602001820160405280156125205781602001602082028038833980820191505090505b50955060026040519080825280602002602001820160405280156125535781602001602082028038833980820191505090505b50945060056040519080825280602002602001820160405280156125865781602001602082028038833980820191505090505b50935060036040519080825280602002602001820160405280156125b95781602001602082028038833980820191505090505b50925060036040519080825280602002602001820160405280156125ec5781602001602082028038833980820191505090505b509150600160009054906101000a900473ffffffffffffffffffffffffffffffffffffffff16965060026000015486600081518110151561262957fe5b906020019060200201818152505060026001015486600181518110151561264c57fe5b9060200190602002018181525050600280015486600281518110151561266e57fe5b906020019060200201818152505060066000015485600081518110151561269157fe5b90602001906020020181815250506006600101548560018151811015156126b457fe5b9060200190602002018181525050600860000160009054906101000a900473ffffffffffffffffffffffffffffffffffffffff168460008151811015156126f757fe5b9060200190602002019073ffffffffffffffffffffffffffffffffffffffff16908173ffffffffffffffffffffffffffffffffffffffff1681525050600860010160009054906101000a900473ffffffffffffffffffffffffffffffffffffffff1684600181518110151561276857fe5b9060200190602002019073ffffffffffffffffffffffffffffffffffffffff16908173ffffffffffffffffffffffffffffffffffffffff1681525050600860030160009054906101000a900473ffffffffffffffffffffffffffffffffffffffff168460028151811015156127d957fe5b9060200190602002019073ffffffffffffffffffffffffffffffffffffffff16908173ffffffffffffffffffffffffffffffffffffffff1681525050600860040160009054906101000a900473ffffffffffffffffffffffffffffffffffffffff1684600381518110151561284a57fe5b9060200190602002019073ffffffffffffffffffffffffffffffffffffffff16908173ffffffffffffffffffffffffffffffffffffffff1681525050600860050160009054906101000a900473ffffffffffffffffffffffffffffffffffffffff168460048151811015156128bb57fe5b9060200190602002019073ffffffffffffffffffffffffffffffffffffffff16908173ffffffffffffffffffffffffffffffffffffffff1681525050600e60000160009054906101000a900473ffffffffffffffffffffffffffffffffffffffff1683600081518110151561292c57fe5b9060200190602002019073ffffffffffffffffffffffffffffffffffffffff16908173ffffffffffffffffffffffffffffffffffffffff1681525050600e60010160009054906101000a900473ffffffffffffffffffffffffffffffffffffffff1683600181518110151561299d57fe5b9060200190602002019073ffffffffffffffffffffffffffffffffffffffff16908173ffffffffffffffffffffffffffffffffffffffff1681525050600e60020160009054906101000a900473ffffffffffffffffffffffffffffffffffffffff16836002815181101515612a0e57fe5b9060200190602002019073ffffffffffffffffffffffffffffffffffffffff16908173ffffffffffffffffffffffffffffffffffffffff1681525050601160000160009054906101000a900473ffffffffffffffffffffffffffffffffffffffff16826000815181101515612a7f57fe5b9060200190602002019073ffffffffffffffffffffffffffffffffffffffff16908173ffffffffffffffffffffffffffffffffffffffff1681525050601160010160009054906101000a900473ffffffffffffffffffffffffffffffffffffffff16826001815181101515612af057fe5b9060200190602002019073ffffffffffffffffffffffffffffffffffffffff16908173ffffffffffffffffffffffffffffffffffffffff1681525050601160020160009054906101000a900473ffffffffffffffffffffffffffffffffffffffff16826002815181101515612b6157fe5b9060200190602002019073ffffffffffffffffffffffffffffffffffffffff16908173ffffffffffffffffffffffffffffffffffffffff1681525050600260030160009054906101000a900460ff16905090919293949596565b6000601160000160009054906101000a900473ffffffffffffffffffffffffffffffffffffffff16905090565b6000601460008373ffffffffffffffffffffffffffffffffffffffff1673ffffffffffffffffffffffffffffffffffffffff16815260200190815260200160002060009054906101000a900460ff169050919050565b6000600e60020160009054906101000a900473ffffffffffffffffffffffffffffffffffffffff16905090565b6000803373ffffffffffffffffffffffffffffffffffffffff1673ffffffffffffffffffffffffffffffffffffffff16815260200190815260200160002060009054906101000a900460ff161515612cc257600080fd5b82600073ffffffffffffffffffffffffffffffffffffffff168173ffffffffffffffffffffffffffffffffffffffff1614151515612cff57600080fd5b3073ffffffffffffffffffffffffffffffffffffffff168173ffffffffffffffffffffffffffffffffffffffff1614151515612d3a57600080fd5b82600073ffffffffffffffffffffffffffffffffffffffff168173ffffffffffffffffffffffffffffffffffffffff1614151515612d7757600080fd5b3073ffffffffffffffffffffffffffffffffffffffff168173ffffffffffffffffffffffffffffffffffffffff1614151515612db257600080fd5b82600073ffffffffffffffffffffffffffffffffffffffff168173ffffffffffffffffffffffffffffffffffffffff1614151515612def57600080fd5b3073ffffffffffffffffffffffffffffffffffffffff168173ffffffffffffffffffffffffffffffffffffffff1614151515612e2a57600080fd5b6060604051908101604052808773ffffffffffffffffffffffffffffffffffffffff1681526020018673ffffffffffffffffffffffffffffffffffffffff1681526020018573ffffffffffffffffffffffffffffffffffffffff16815250600e60008201518160000160006101000a81548173ffffffffffffffffffffffffffffffffffffffff021916908373ffffffffffffffffffffffffffffffffffffffff16021790555060208201518160010160006101000a81548173ffffffffffffffffffffffffffffffffffffffff021916908373ffffffffffffffffffffffffffffffffffffffff16021790555060408201518160020160006101000a81548173ffffffffffffffffffffffffffffffffffffffff021916908373ffffffffffffffffffffffffffffffffffffffff1602179055509050507fa4f49202adcbeb9c0395c981ef4d562f981c2cc86ecbbd82c60657aa8bfa7021868686604051808473ffffffffffffffffffffffffffffffffffffffff1673ffffffffffffffffffffffffffffffffffffffff1681526020018373ffffffffffffffffffffffffffffffffffffffff1673ffffffffffffffffffffffffffffffffffffffff1681526020018273ffffffffffffffffffffffffffffffffffffffff1673ffffffffffffffffffffffffffffffffffffffff168152602001935050505060405180910390a1505050505050565b6000803373ffffffffffffffffffffffffffffffffffffffff1673ffffffffffffffffffffffffffffffffffffffff16815260200190815260200160002060009054906101000a900460ff16151561308c57600080fd5b604080519081016040528083815260200182815250600660008201518160000155602082015181600101559050507fa403065c37cdeb971662ece0afaf8d02e9e53a9d913980b57f172d5ffd3ff2aa8282604051808381526020018281526020019250505060405180910390a15050565b6000600660000154905090565b60006002800154905090565b6000600260010154905090565b6000600860040160009054906101000a900473ffffffffffffffffffffffffffffffffffffffff16905090565b6000803373ffffffffffffffffffffffffffffffffffffffff1673ffffffffffffffffffffffffffffffffffffffff16815260200190815260200160002060009054906101000a900460ff1615156131a757600080fd5b600073ffffffffffffffffffffffffffffffffffffffff168173ffffffffffffffffffffffffffffffffffffffff16141515156131e357600080fd5b60016000808373ffffffffffffffffffffffffffffffffffffffff1673ffffffffffffffffffffffffffffffffffffffff16815260200190815260200160002060006101000a81548160ff0219169083151502179055506000803373ffffffffffffffffffffffffffffffffffffffff1673ffffffffffffffffffffffffffffffffffffffff16815260200190815260200160002060006101000a81549060ff02191690558073ffffffffffffffffffffffffffffffffffffffff163373ffffffffffffffffffffffffffffffffffffffff167f8be0079c531659141344cd1fd0a4f28419497f9722a3daafe3b4186f6b6457e060405160405180910390a350565b60006132fc6103e84261330190919063ffffffff16565b905090565b60008060008414156133165760009150613338565b828402905082848281151561332757fe5b0414151561333457600080fd5b8091505b50929150505600a165627a7a72305820d571f9a29ae09672ee1b58b169e438e1c935cbdbe6a8599c1ea273f76d5a28440029",
  "source": "pragma solidity ^0.4.24;\r\n\r\nimport \"contracts/interface/ICouncil.sol\";\r\nimport \"contracts/interface/IReport.sol\";\r\nimport \"contracts/interface/IContent.sol\";\r\nimport \"contracts/interface/IDepositPool.sol\";\r\n\r\nimport \"contracts/utils/ExtendsOwnable.sol\";\r\nimport \"contracts/utils/ValidValue.sol\";\r\nimport \"contracts/utils/TimeLib.sol\";\r\n\r\n/**\r\n * @title Council contract\r\n *\r\n * @author Junghoon Seo - <jh.seo@battleent.com>\r\n */\r\ncontract Council is ExtendsOwnable, ValidValue, ICouncil {\r\n\r\n    struct PictionValue {\r\n        uint256 initialDeposit;\r\n        uint256 reportRegistrationFee;\r\n        uint256 depositReleaseDelay;\r\n        bool fundAvailable;\r\n    }\r\n\r\n    struct PictionRate {\r\n        uint256 cdRate;\r\n        uint256 userPaybackRate;\r\n    }\r\n\r\n    struct PictionAddress {\r\n        address userPaybackPool;\r\n        address depositPool;\r\n        address supporterPool;\r\n        address pixelDistributor;\r\n        address report;\r\n        address contentsDistributor;\r\n    }\r\n\r\n    struct ManagerAddress {\r\n        address contentsManager;\r\n        address fundManager;\r\n        address accountManager;\r\n    }\r\n\r\n    struct ApiAddress {\r\n        address apiContents;\r\n        address apiReport;\r\n        address apiFund;\r\n    }\r\n\r\n    address token;\r\n    PictionValue pictionValue;\r\n    PictionRate pictionRate;\r\n    PictionAddress pictionAddress;\r\n    ManagerAddress managerAddress;\r\n    ApiAddress apiAddress;\r\n\r\n    mapping (address => bool) members;\r\n\r\n    constructor(\r\n        address _token)\r\n        public\r\n        validAddress(_token)\r\n    {\r\n        token = _token;\r\n        members[msg.sender] = true;\r\n\r\n        emit RegisterCouncil(msg.sender, _token);\r\n    }\r\n\r\n    function setMember(address _member, bool _allow) external onlyOwner {\r\n        members[_member] = _allow;\r\n\r\n        emit SetMember(_member, _allow);\r\n    }\r\n\r\n    function isMember(address _member) external view returns(bool allow_) {\r\n        allow_ = members[_member];\r\n    }\r\n\r\n    function initialValue(\r\n        uint256 _initialDeposit,\r\n        uint256 _reportRegistrationFee,\r\n        uint256 _depositReleaseDelay,\r\n        bool _fundAvailable)\r\n        external onlyOwner\r\n        validRange(_initialDeposit)\r\n        validRange(_reportRegistrationFee) {\r\n\r\n        pictionValue = PictionValue(_initialDeposit, _reportRegistrationFee, _depositReleaseDelay, _fundAvailable);\r\n\r\n        emit InitialValue(_initialDeposit, _reportRegistrationFee, _depositReleaseDelay, _fundAvailable);\r\n    }\r\n\r\n    function initialRate(\r\n        uint256 _cdRate,\r\n        uint256 _userPaybackRate)\r\n        external onlyOwner\r\n    {\r\n\r\n        pictionRate = PictionRate(_cdRate, _userPaybackRate);\r\n\r\n        emit InitialRate(_cdRate, _userPaybackRate);\r\n    }\r\n\r\n    function initialPictionAddress(\r\n        address _userPaybackPool,\r\n        address _depositPool,\r\n        address _supporterPool,\r\n        address _pixelDistributor,\r\n        address _report,\r\n        address _contentsDistributor)\r\n        external onlyOwner\r\n        validAddress(_userPaybackPool)\r\n        validAddress(_depositPool)\r\n        validAddress(_supporterPool)\r\n        validAddress(_pixelDistributor)\r\n        validAddress(_report) \r\n        validAddress(_contentsDistributor)\r\n    {\r\n        pictionAddress = PictionAddress(_userPaybackPool, _depositPool, _supporterPool, _pixelDistributor, _report, _contentsDistributor);\r\n\r\n        emit InitialAddress(_userPaybackPool, _depositPool, _supporterPool, _pixelDistributor, _report, _contentsDistributor);\r\n    }\r\n\r\n    function initialManagerAddress(\r\n        address _contentsManager,\r\n        address _fundManager,\r\n        address _accountManager)\r\n        external onlyOwner\r\n        validAddress(_contentsManager)\r\n        validAddress(_fundManager)\r\n        validAddress(_accountManager)\r\n    {\r\n\r\n        managerAddress = ManagerAddress(_contentsManager, _fundManager, _accountManager);\r\n\r\n        emit InitialManagerAddress(_contentsManager, _fundManager, _accountManager);\r\n    }\r\n\r\n    function initialApiAddress(\r\n        address _apiContents,\r\n        address _apiReport,\r\n        address _apiFund\r\n    )\r\n        external\r\n        onlyOwner\r\n        validAddress(_apiContents) validAddress(_apiReport) validAddress(_apiFund)\r\n    {\r\n        apiAddress = ApiAddress(_apiContents, _apiReport, _apiFund);\r\n\r\n        emit InitialApiAddress(_apiContents, _apiReport, _apiFund);\r\n    }\r\n\r\n    /**\r\n    * @dev     \r\n    * @return address pxlAddress_ pxl token address\r\n    * @return uint256[] pictionValue_   deposit token \r\n    * @return uint256[] pictionRate_       \r\n    * @return address[] pictionAddress_ piction network   \r\n    * @return address[] managerAddress_    \r\n    * @return address[] apiAddress_ piction network API  \r\n    * @return bool fundAvailable_ piction network    \r\n    */\r\n    function getPictionConfig()\r\n        external\r\n        view\r\n        returns (address pxlAddress_, uint256[] pictionValue_, uint256[] pictionRate_,\r\n             address[] pictionAddress_, address[] managerAddress_, address[] apiAddress_, bool fundAvailable_)\r\n    {\r\n        pictionValue_ = new uint256[](3);\r\n        pictionRate_ = new uint256[](2);\r\n        pictionAddress_ = new address[](5);\r\n        managerAddress_ = new address[](3);\r\n        apiAddress_ = new address[](3);\r\n\r\n        pxlAddress_ = token;\r\n\r\n        //     \r\n        pictionValue_[0] = pictionValue.initialDeposit;\r\n        pictionValue_[1] = pictionValue.reportRegistrationFee;\r\n        pictionValue_[2] = pictionValue.depositReleaseDelay;\r\n\r\n        pictionRate_[0] = pictionRate.cdRate;\r\n        pictionRate_[1] = pictionRate.userPaybackRate;\r\n\r\n        pictionAddress_[0] = pictionAddress.userPaybackPool;\r\n        pictionAddress_[1] = pictionAddress.depositPool;\r\n        pictionAddress_[2] = pictionAddress.pixelDistributor;\r\n        pictionAddress_[3] = pictionAddress.report;\r\n        pictionAddress_[4] = pictionAddress.contentsDistributor;\r\n\r\n        managerAddress_[0] = managerAddress.contentsManager;\r\n        managerAddress_[1] = managerAddress.fundManager;\r\n        managerAddress_[2] = managerAddress.accountManager;\r\n\r\n        apiAddress_[0] = apiAddress.apiContents;\r\n        apiAddress_[1] = apiAddress.apiReport;\r\n        apiAddress_[2] = apiAddress.apiFund;\r\n\r\n        fundAvailable_ = pictionValue.fundAvailable;\r\n    }\r\n\r\n    enum ReportDisposalType {DEFAULT, CONTENT_BLOCK, WARNS_WRITER, PASS, DUPLICATE, WRONG_REPORT}\r\n\r\n    /**\r\n    * @dev   \r\n    * @param _index Report  \r\n    * @param _content  \r\n    * @param _reporter  \r\n    * @param _type   : 1  , 2  , 3  , 4  , 5  \r\n    * @param _description \r\n    */\r\n    function reportDisposal(uint256 _index, address _content, address _reporter, uint256 _type, string _description) \r\n        external \r\n        returns (uint256 deductionAmount_) \r\n    {\r\n        require(apiAddress.apiReport == msg.sender, \"msg sender is not apiReport\");\r\n\r\n        if ((_type == uint256(ReportDisposalType.CONTENT_BLOCK)) || (_type == uint256(ReportDisposalType.WARNS_WRITER))) {\r\n            bool contentBlock;\r\n            (deductionAmount_, contentBlock) = IDepositPool(pictionAddress.depositPool).reportReward(_content, _reporter, _type, _description);        \r\n            if (contentBlock) {\r\n                contentBlocking(_content, true);\r\n            }\r\n        } else if (_type == uint256(ReportDisposalType.WRONG_REPORT)) {\r\n            deductionAmount_ = IReport(pictionAddress.report).deduction(_reporter);\r\n        }\r\n\r\n        IReport(pictionAddress.report).completeReport(_index, _type, deductionAmount_);\r\n\r\n        emit ReportDisposal(TimeLib.currentTime(), _index, _content, _reporter, _type, _description, deductionAmount_);\r\n    }\r\n\r\n    function contentBlocking(address _contentAddress, bool _isBlocked) public {\r\n        require(apiAddress.apiReport == msg.sender || members[msg.sender], \"Content blocking failed : access denied\");\r\n\r\n        IContent(_contentAddress).setIsBlocked(_isBlocked);\r\n        emit ContentBlocking(msg.sender, _contentAddress, _isBlocked);\r\n    }\r\n\r\n    function getToken() external view returns (address token_) {\r\n        return token;\r\n    }\r\n\r\n    function getInitialDeposit() external view returns (uint256 initialDeposit_) {\r\n        return pictionValue.initialDeposit;\r\n    }\r\n\r\n    function getReportRegistrationFee() view external returns (uint256 reportRegistrationFee_) {\r\n        return pictionValue.reportRegistrationFee;\r\n    }\r\n\r\n    function getDepositReleaseDelay() external view returns (uint256 depositReleaseDelay_) {\r\n        return pictionValue.depositReleaseDelay;\r\n    }\r\n\r\n    function getFundAvailable() external view returns (bool fundAvailable_) {\r\n        return pictionValue.fundAvailable;\r\n    }\r\n\r\n    function getCdRate() external view returns (uint256 cdRate_) {\r\n        return pictionRate.cdRate;\r\n    }\r\n\r\n    function getUserPaybackRate() external view returns (uint256 userPaybackRate_) {\r\n        return pictionRate.userPaybackRate;\r\n    }\r\n\r\n    function getUserPaybackPool() external view returns (address userPaybackPool_) {\r\n        return pictionAddress.userPaybackPool;\r\n    }\r\n\r\n    function getDepositPool() external view returns (address depositPool_) {\r\n        return pictionAddress.depositPool;\r\n    }\r\n\r\n    function getSupporterPool() external view returns (address supporterPool_) {\r\n        return pictionAddress.supporterPool;\r\n    }\r\n\r\n    function getContentsManager() external view returns (address contentsManager_) {\r\n        return managerAddress.contentsManager;\r\n    }\r\n\r\n    function getFundManager() external view returns (address fundManager_) {\r\n        return managerAddress.fundManager;\r\n    }\r\n\r\n    function getAccountManager() external view returns (address accountManager_) {\r\n        return managerAddress.accountManager;\r\n    }\r\n\r\n    function getPixelDistributor() external view returns (address pixelDistributor_) {\r\n        return pictionAddress.pixelDistributor;\r\n    }\r\n\r\n    function getReport() external view returns (address report_) {\r\n        return pictionAddress.report;\r\n    }\r\n\r\n    function getContentsDistributor() external view returns (address contentsDistributor_) {\r\n        return pictionAddress.contentsDistributor;\r\n    }\r\n\r\n    function getApiContents() external view returns (address apiContents_) {\r\n        return apiAddress.apiContents;\r\n    }\r\n\r\n    function getApiReport() external view returns (address apiReport_) {\r\n        return apiAddress.apiReport;\r\n    }\r\n\r\n    function getApiFund() external view returns (address apiFund_) {\r\n        return apiAddress.apiFund;\r\n    }\r\n}\r\n",
  "sourcePath": "C:\\piction\\piction-poc\\contracts\\council\\Council.sol",
  "compiler": {
    "name": "solc",
    "version": "0.4.24+commit.e67f0147.Emscripten.clang"
  },
  "schemaVersion": "2.0.1",
  "updatedAt": "2018-11-12T08:34:14.879Z"
}