{
  "contractName": "DepositPool",
  "abi": [
    {
      "constant": false,
      "inputs": [
        {
          "name": "guest",
          "type": "address"
        }
      ],
      "name": "addOwner",
      "outputs": [],
      "payable": false,
      "stateMutability": "nonpayable",
      "type": "function"
    },
    {
      "constant": false,
      "inputs": [
        {
          "name": "newOwner",
          "type": "address"
        }
      ],
      "name": "transferOwnership",
      "outputs": [],
      "payable": false,
      "stateMutability": "nonpayable",
      "type": "function"
    },
    {
      "inputs": [
        {
          "name": "_councilAddress",
          "type": "address"
        }
      ],
      "payable": false,
      "stateMutability": "nonpayable",
      "type": "constructor"
    },
    {
      "anonymous": false,
      "inputs": [
        {
          "indexed": false,
          "name": "content",
          "type": "address"
        },
        {
          "indexed": false,
          "name": "_value",
          "type": "uint256"
        },
        {
          "indexed": false,
          "name": "_token",
          "type": "address"
        }
      ],
      "name": "AddDeposit",
      "type": "event"
    },
    {
      "anonymous": false,
      "inputs": [
        {
          "indexed": false,
          "name": "_date",
          "type": "uint256"
        },
        {
          "indexed": true,
          "name": "_content",
          "type": "address"
        },
        {
          "indexed": false,
          "name": "_type",
          "type": "uint256"
        },
        {
          "indexed": false,
          "name": "_amount",
          "type": "uint256"
        },
        {
          "indexed": false,
          "name": "_description",
          "type": "string"
        }
      ],
      "name": "DepositChange",
      "type": "event"
    },
    {
      "anonymous": false,
      "inputs": [
        {
          "indexed": true,
          "name": "previousOwner",
          "type": "address"
        },
        {
          "indexed": true,
          "name": "newOwner",
          "type": "address"
        }
      ],
      "name": "OwnershipTransferred",
      "type": "event"
    },
    {
      "anonymous": false,
      "inputs": [
        {
          "indexed": true,
          "name": "host",
          "type": "address"
        },
        {
          "indexed": true,
          "name": "guest",
          "type": "address"
        }
      ],
      "name": "OwnershipExtended",
      "type": "event"
    },
    {
      "constant": false,
      "inputs": [
        {
          "name": "_from",
          "type": "address"
        },
        {
          "name": "_value",
          "type": "uint256"
        },
        {
          "name": "_token",
          "type": "address"
        },
        {
          "name": "_data",
          "type": "bytes"
        }
      ],
      "name": "receiveApproval",
      "outputs": [],
      "payable": false,
      "stateMutability": "nonpayable",
      "type": "function"
    },
    {
      "constant": true,
      "inputs": [
        {
          "name": "_content",
          "type": "address"
        }
      ],
      "name": "getDeposit",
      "outputs": [
        {
          "name": "depositAmount_",
          "type": "uint256"
        }
      ],
      "payable": false,
      "stateMutability": "view",
      "type": "function"
    },
    {
      "constant": true,
      "inputs": [
        {
          "name": "_content",
          "type": "address"
        }
      ],
      "name": "getReleaseDate",
      "outputs": [
        {
          "name": "releaseDate_",
          "type": "uint256"
        }
      ],
      "payable": false,
      "stateMutability": "view",
      "type": "function"
    },
    {
      "constant": false,
      "inputs": [
        {
          "name": "_content",
          "type": "address"
        },
        {
          "name": "_reporter",
          "type": "address"
        },
        {
          "name": "_type",
          "type": "uint256"
        },
        {
          "name": "_descripstion",
          "type": "string"
        }
      ],
      "name": "reportReward",
      "outputs": [
        {
          "name": "deduction_",
          "type": "uint256"
        },
        {
          "name": "contentBlock_",
          "type": "bool"
        }
      ],
      "payable": false,
      "stateMutability": "nonpayable",
      "type": "function"
    },
    {
      "constant": false,
      "inputs": [
        {
          "name": "_content",
          "type": "address"
        }
      ],
      "name": "release",
      "outputs": [],
      "payable": false,
      "stateMutability": "nonpayable",
      "type": "function"
    }
  ],
  "bytecode": "0x6080604052670de0b6b3a764000060015534801561001c57600080fd5b506040516020806124d18339810180604052810190808051906020019092919050505060016000803373ffffffffffffffffffffffffffffffffffffffff1673ffffffffffffffffffffffffffffffffffffffff16815260200190815260200160002060006101000a81548160ff02191690831515021790555080600073ffffffffffffffffffffffffffffffffffffffff168173ffffffffffffffffffffffffffffffffffffffff16141515156100d357600080fd5b3073ffffffffffffffffffffffffffffffffffffffff168173ffffffffffffffffffffffffffffffffffffffff161415151561010e57600080fd5b81600260006101000a81548173ffffffffffffffffffffffffffffffffffffffff021916908373ffffffffffffffffffffffffffffffffffffffff1602179055505050612371806101606000396000f300608060405260043610610083576000357c0100000000000000000000000000000000000000000000000000000000900463ffffffff16806319165587146100885780637065cb48146100cb57806381fa65181461010e5780638f4ffcb1146101b2578063c5fbdb7b14610265578063e1254fba146102bc578063f2fde38b14610313575b600080fd5b34801561009457600080fd5b506100c9600480360381019080803573ffffffffffffffffffffffffffffffffffffffff169060200190929190505050610356565b005b3480156100d757600080fd5b5061010c600480360381019080803573ffffffffffffffffffffffffffffffffffffffff169060200190929190505050610b20565b005b34801561011a57600080fd5b50610191600480360381019080803573ffffffffffffffffffffffffffffffffffffffff169060200190929190803573ffffffffffffffffffffffffffffffffffffffff16906020019092919080359060200190929190803590602001908201803590602001919091929391929390505050610c67565b60405180838152602001821515151581526020019250505060405180910390f35b3480156101be57600080fd5b50610263600480360381019080803573ffffffffffffffffffffffffffffffffffffffff16906020019092919080359060200190929190803573ffffffffffffffffffffffffffffffffffffffff169060200190929190803590602001908201803590602001908080601f0160208091040260200160405190810160405280939291908181526020018383808284378201915050505050509192919290505050611712565b005b34801561027157600080fd5b506102a6600480360381019080803573ffffffffffffffffffffffffffffffffffffffff169060200190929190505050611816565b6040518082815260200191505060405180910390f35b3480156102c857600080fd5b506102fd600480360381019080803573ffffffffffffffffffffffffffffffffffffffff16906020019092919050505061185f565b6040518082815260200191505060405180910390f35b34801561031f57600080fd5b50610354600480360381019080803573ffffffffffffffffffffffffffffffffffffffff1690602001909291905050506118a8565b005b600080600083600073ffffffffffffffffffffffffffffffffffffffff168173ffffffffffffffffffffffffffffffffffffffff161415151561039857600080fd5b3073ffffffffffffffffffffffffffffffffffffffff168173ffffffffffffffffffffffffffffffffffffffff16141515156103d357600080fd5b6000600360008773ffffffffffffffffffffffffffffffffffffffff1673ffffffffffffffffffffffffffffffffffffffff1681526020019081526020016000205411151561048a576040517f08c379a00000000000000000000000000000000000000000000000000000000081526004018080602001828103825260168152602001807f636f6e74656e744465706f736974206973207a65726f0000000000000000000081525060200191505060405180910390fd5b8473ffffffffffffffffffffffffffffffffffffffff1663d66e57266040518163ffffffff167c0100000000000000000000000000000000000000000000000000000000028152600401602060405180830381600087803b1580156104ee57600080fd5b505af1158015610502573d6000803e3d6000fd5b505050506040513d602081101561051857600080fd5b810190808051906020019092919050505093503373ffffffffffffffffffffffffffffffffffffffff168473ffffffffffffffffffffffffffffffffffffffff161415156105ce576040517f08c379a00000000000000000000000000000000000000000000000000000000081526004018080602001828103825260188152602001807f6d73672073656e646572206973206e6f7420777269746572000000000000000081525060200191505060405180910390fd5b6105d6611a3d565b600460008773ffffffffffffffffffffffffffffffffffffffff1673ffffffffffffffffffffffffffffffffffffffff168152602001908152602001600020541115151561068c576040517f08c379a00000000000000000000000000000000000000000000000000000000081526004018080602001828103825260148152602001807f72656c6561736544617461207365744572726f7200000000000000000000000081525060200191505060405180910390fd5b600260009054906101000a900473ffffffffffffffffffffffffffffffffffffffff1673ffffffffffffffffffffffffffffffffffffffff166321df0da76040518163ffffffff167c0100000000000000000000000000000000000000000000000000000000028152600401602060405180830381600087803b15801561071257600080fd5b505af1158015610726573d6000803e3d6000fd5b505050506040513d602081101561073c57600080fd5b81019080805190602001909291905050509250600360008673ffffffffffffffffffffffffffffffffffffffff1673ffffffffffffffffffffffffffffffffffffffff168152602001908152602001600020548373ffffffffffffffffffffffffffffffffffffffff166370a08231306040518263ffffffff167c0100000000000000000000000000000000000000000000000000000000028152600401808273ffffffffffffffffffffffffffffffffffffffff1673ffffffffffffffffffffffffffffffffffffffff168152602001915050602060405180830381600087803b15801561082a57600080fd5b505af115801561083e573d6000803e3d6000fd5b505050506040513d602081101561085457600080fd5b8101908080519060200190929190505050101515156108db576040517f08c379a00000000000000000000000000000000000000000000000000000000081526004018080602001828103825260168152602001807f746f6b656e2062616c616e63652061626e6f726d616c0000000000000000000081525060200191505060405180910390fd5b600360008673ffffffffffffffffffffffffffffffffffffffff1673ffffffffffffffffffffffffffffffffffffffff1681526020019081526020016000205491506000600360008773ffffffffffffffffffffffffffffffffffffffff1673ffffffffffffffffffffffffffffffffffffffff168152602001908152602001600020819055508273ffffffffffffffffffffffffffffffffffffffff16634cbb72a885846040518363ffffffff167c0100000000000000000000000000000000000000000000000000000000028152600401808373ffffffffffffffffffffffffffffffffffffffff1673ffffffffffffffffffffffffffffffffffffffff168152602001828152602001806020018281038252601e8152602001807fec9e91ed928820eb93b1eba19d20ec9888ecb998eab88820ed9a8cec889800008152506020019350505050602060405180830381600087803b158015610a3e57600080fd5b505af1158015610a52573d6000803e3d6000fd5b505050506040513d6020811015610a6857600080fd5b8101908080519060200190929190505050508473ffffffffffffffffffffffffffffffffffffffff167fb29f39427c824f0c52bb2c157e8d1c65625aadf5c226691506d7f9935e369f0f610aba611a3d565b60068560405180848152602001838152602001828152602001806020018281038252601e8152602001807fec9e91ed928820eb93b1eba19d20ec9888ecb998eab88820ed9a8cec8898000081525060200194505050505060405180910390a25050505050565b6000803373ffffffffffffffffffffffffffffffffffffffff1673ffffffffffffffffffffffffffffffffffffffff16815260200190815260200160002060009054906101000a900460ff161515610b7757600080fd5b600073ffffffffffffffffffffffffffffffffffffffff168173ffffffffffffffffffffffffffffffffffffffff1614151515610bb357600080fd5b60016000808373ffffffffffffffffffffffffffffffffffffffff1673ffffffffffffffffffffffffffffffffffffffff16815260200190815260200160002060006101000a81548160ff0219169083151502179055508073ffffffffffffffffffffffffffffffffffffffff163373ffffffffffffffffffffffffffffffffffffffff167f1d95aed2b82ae4cbdcccc214bb64bc277a20e8490d69a59d7f426c67fe46c61d60405160405180910390a350565b60008060008088600073ffffffffffffffffffffffffffffffffffffffff168173ffffffffffffffffffffffffffffffffffffffff1614151515610caa57600080fd5b3073ffffffffffffffffffffffffffffffffffffffff168173ffffffffffffffffffffffffffffffffffffffff1614151515610ce557600080fd5b88600073ffffffffffffffffffffffffffffffffffffffff168173ffffffffffffffffffffffffffffffffffffffff1614151515610d2257600080fd5b3073ffffffffffffffffffffffffffffffffffffffff168173ffffffffffffffffffffffffffffffffffffffff1614151515610d5d57600080fd5b3373ffffffffffffffffffffffffffffffffffffffff16600260009054906101000a900473ffffffffffffffffffffffffffffffffffffffff1673ffffffffffffffffffffffffffffffffffffffff16141515610e22576040517f08c379a00000000000000000000000000000000000000000000000000000000081526004018080602001828103825260198152602001807f6d73672073656e646572206973206e6f7420636f756e63696c0000000000000081525060200191505060405180910390fd5b600089118015610e325750600389105b1515610ea6576040517f08c379a000000000000000000000000000000000000000000000000000000000815260040180806020018281038252600b8152602001807f6f7574206f66207479706500000000000000000000000000000000000000000081525060200191505060405180910390fd5b6000600360008d73ffffffffffffffffffffffffffffffffffffffff1673ffffffffffffffffffffffffffffffffffffffff1681526020019081526020016000205411156115aa57600260009054906101000a900473ffffffffffffffffffffffffffffffffffffffff1673ffffffffffffffffffffffffffffffffffffffff166321df0da76040518163ffffffff167c0100000000000000000000000000000000000000000000000000000000028152600401602060405180830381600087803b158015610f7457600080fd5b505af1158015610f88573d6000803e3d6000fd5b505050506040513d6020811015610f9e57600080fd5b81019080805190602001909291905050509350600154600102925082600360008d73ffffffffffffffffffffffffffffffffffffffff1673ffffffffffffffffffffffffffffffffffffffff168152602001908152602001600020541015156111635761105383600360008e73ffffffffffffffffffffffffffffffffffffffff1673ffffffffffffffffffffffffffffffffffffffff16815260200190815260200160002054611a5990919063ffffffff16565b955060018914156110ac576000600360008d73ffffffffffffffffffffffffffffffffffffffff1673ffffffffffffffffffffffffffffffffffffffff168152602001908152602001600020819055506001945061115e565b600289141561115d5761110783600360008e73ffffffffffffffffffffffffffffffffffffffff1673ffffffffffffffffffffffffffffffffffffffff16815260200190815260200160002054611a5990919063ffffffff16565b600360008d73ffffffffffffffffffffffffffffffffffffffff1673ffffffffffffffffffffffffffffffffffffffff16815260200190815260200160002081905550600086141561115857600194505b600095505b5b6111ef565b600360008c73ffffffffffffffffffffffffffffffffffffffff1673ffffffffffffffffffffffffffffffffffffffff1681526020019081526020016000205492506000600360008d73ffffffffffffffffffffffffffffffffffffffff1673ffffffffffffffffffffffffffffffffffffffff16815260200190815260200160002081905550600194505b8286018473ffffffffffffffffffffffffffffffffffffffff166370a08231306040518263ffffffff167c0100000000000000000000000000000000000000000000000000000000028152600401808273ffffffffffffffffffffffffffffffffffffffff1673ffffffffffffffffffffffffffffffffffffffff168152602001915050602060405180830381600087803b15801561128d57600080fd5b505af11580156112a1573d6000803e3d6000fd5b505050506040513d60208110156112b757600080fd5b81019080805190602001909291905050501015151561133e576040517f08c379a00000000000000000000000000000000000000000000000000000000081526004018080602001828103825260168152602001807f746f6b656e2062616c616e63652061626e6f726d616c0000000000000000000081525060200191505060405180910390fd5b6000861115611482578373ffffffffffffffffffffffffffffffffffffffff16634cbb72a8600260009054906101000a900473ffffffffffffffffffffffffffffffffffffffff16886040518363ffffffff167c0100000000000000000000000000000000000000000000000000000000028152600401808373ffffffffffffffffffffffffffffffffffffffff1673ffffffffffffffffffffffffffffffffffffffff16815260200182815260200180602001828103825260178152602001807fec8ba0eab3a020ebb3b4eca69deab88820ecb0a8eab0900000000000000000008152506020019350505050602060405180830381600087803b15801561144557600080fd5b505af1158015611459573d6000803e3d6000fd5b505050506040513d602081101561146f57600080fd5b8101908080519060200190929190505050505b60008311156115a9578373ffffffffffffffffffffffffffffffffffffffff16634cbb72a88b856040518363ffffffff167c0100000000000000000000000000000000000000000000000000000000028152600401808373ffffffffffffffffffffffffffffffffffffffff1673ffffffffffffffffffffffffffffffffffffffff16815260200182815260200180602001828103825260178152602001807fec8ba0eab3a020ed999ceb8f9920ebb3b4ec8381eab8880000000000000000008152506020019350505050602060405180830381600087803b15801561156757600080fd5b505af115801561157b573d6000803e3d6000fd5b505050506040513d602081101561159157600080fd5b81019080805190602001909291905050505082860195505b5b61167d8b600260009054906101000a900473ffffffffffffffffffffffffffffffffffffffff1673ffffffffffffffffffffffffffffffffffffffff1663dcb173a16040518163ffffffff167c0100000000000000000000000000000000000000000000000000000000028152600401602060405180830381600087803b15801561163457600080fd5b505af1158015611648573d6000803e3d6000fd5b505050506040513d602081101561165e57600080fd5b8101908080519060200190929190505050611677611a3d565b01611a7a565b8a73ffffffffffffffffffffffffffffffffffffffff167fb29f39427c824f0c52bb2c157e8d1c65625aadf5c226691506d7f9935e369f0f6116bd611a3d565b8b898c8c604051808681526020018581526020018481526020018060200182810382528484828181526020019250808284378201915050965050505050505060405180910390a2505050509550959350505050565b83600073ffffffffffffffffffffffffffffffffffffffff168173ffffffffffffffffffffffffffffffffffffffff161415151561174f57600080fd5b3073ffffffffffffffffffffffffffffffffffffffff168173ffffffffffffffffffffffffffffffffffffffff161415151561178a57600080fd5b82600073ffffffffffffffffffffffffffffffffffffffff168173ffffffffffffffffffffffffffffffffffffffff16141515156117c757600080fd5b3073ffffffffffffffffffffffffffffffffffffffff168173ffffffffffffffffffffffffffffffffffffffff161415151561180257600080fd5b61180e86868686611b3b565b505050505050565b6000600460008373ffffffffffffffffffffffffffffffffffffffff1673ffffffffffffffffffffffffffffffffffffffff168152602001908152602001600020549050919050565b6000600360008373ffffffffffffffffffffffffffffffffffffffff1673ffffffffffffffffffffffffffffffffffffffff168152602001908152602001600020549050919050565b6000803373ffffffffffffffffffffffffffffffffffffffff1673ffffffffffffffffffffffffffffffffffffffff16815260200190815260200160002060009054906101000a900460ff1615156118ff57600080fd5b600073ffffffffffffffffffffffffffffffffffffffff168173ffffffffffffffffffffffffffffffffffffffff161415151561193b57600080fd5b60016000808373ffffffffffffffffffffffffffffffffffffffff1673ffffffffffffffffffffffffffffffffffffffff16815260200190815260200160002060006101000a81548160ff0219169083151502179055506000803373ffffffffffffffffffffffffffffffffffffffff1673ffffffffffffffffffffffffffffffffffffffff16815260200190815260200160002060006101000a81549060ff02191690558073ffffffffffffffffffffffffffffffffffffffff163373ffffffffffffffffffffffffffffffffffffffff167f8be0079c531659141344cd1fd0a4f28419497f9722a3daafe3b4186f6b6457e060405160405180910390a350565b6000611a546103e8426122ae90919063ffffffff16565b905090565b600080838311151515611a6b57600080fd5b82840390508091505092915050565b81600073ffffffffffffffffffffffffffffffffffffffff168173ffffffffffffffffffffffffffffffffffffffff1614151515611ab757600080fd5b3073ffffffffffffffffffffffffffffffffffffffff168173ffffffffffffffffffffffffffffffffffffffff1614151515611af257600080fd5b81600460008573ffffffffffffffffffffffffffffffffffffffff1673ffffffffffffffffffffffffffffffffffffffff16815260200190815260200160002081905550505050565b60008060008673ffffffffffffffffffffffffffffffffffffffff16600260009054906101000a900473ffffffffffffffffffffffffffffffffffffffff1673ffffffffffffffffffffffffffffffffffffffff16631fbd35646040518163ffffffff167c0100000000000000000000000000000000000000000000000000000000028152600401602060405180830381600087803b158015611bdd57600080fd5b505af1158015611bf1573d6000803e3d6000fd5b505050506040513d6020811015611c0757600080fd5b810190808051906020019092919050505073ffffffffffffffffffffffffffffffffffffffff16141515611ca3576040517f08c379a00000000000000000000000000000000000000000000000000000000081526004018080602001828103825260208152602001807f6d73672073656e646572206973206e6f7420636f6e74656e744d616e6167657281525060200191505060405180910390fd5b60008451111515611d1c576040517f08c379a000000000000000000000000000000000000000000000000000000000815260040180806020018281038252600d8152602001807f6461746120697320656d7074790000000000000000000000000000000000000081525060200191505060405180910390fd5b6000600360008473ffffffffffffffffffffffffffffffffffffffff1673ffffffffffffffffffffffffffffffffffffffff16815260200190815260200160002054141515611dd3576040517f08c379a00000000000000000000000000000000000000000000000000000000081526004018080602001828103825260118152602001807f6465706f736974206e6f7420656d70747900000000000000000000000000000081525060200191505060405180910390fd5b600260009054906101000a900473ffffffffffffffffffffffffffffffffffffffff1673ffffffffffffffffffffffffffffffffffffffff166321df0da76040518163ffffffff167c0100000000000000000000000000000000000000000000000000000000028152600401602060405180830381600087803b158015611e5957600080fd5b505af1158015611e6d573d6000803e3d6000fd5b505050506040513d6020811015611e8357600080fd5b810190808051906020019092919050505092508473ffffffffffffffffffffffffffffffffffffffff168373ffffffffffffffffffffffffffffffffffffffff16141515611f39576040517f08c379a000000000000000000000000000000000000000000000000000000000815260040180806020018281038252600e8152602001807f746f6b656e2061626e6f726d616c00000000000000000000000000000000000081525060200191505060405180910390fd5b611f4d6000856122ec90919063ffffffff16565b9150611fa186600360008573ffffffffffffffffffffffffffffffffffffffff1673ffffffffffffffffffffffffffffffffffffffff1681526020019081526020016000205461232490919063ffffffff16565b600360008473ffffffffffffffffffffffffffffffffffffffff1673ffffffffffffffffffffffffffffffffffffffff168152602001908152602001600020819055508273ffffffffffffffffffffffffffffffffffffffff166369b5a4618830896040518463ffffffff167c0100000000000000000000000000000000000000000000000000000000028152600401808473ffffffffffffffffffffffffffffffffffffffff1673ffffffffffffffffffffffffffffffffffffffff1681526020018373ffffffffffffffffffffffffffffffffffffffff1673ffffffffffffffffffffffffffffffffffffffff168152602001828152602001806020018281038252601e8152602001807fec9e91ed928820eb93b1eba19d20ec9888ecb998eab88820ec9e85eab8880000815250602001945050505050602060405180830381600087803b1580156120f457600080fd5b505af1158015612108573d6000803e3d6000fd5b505050506040513d602081101561211e57600080fd5b810190808051906020019092919050505050600260009054906101000a900473ffffffffffffffffffffffffffffffffffffffff1673ffffffffffffffffffffffffffffffffffffffff1663dcb173a16040518163ffffffff167c0100000000000000000000000000000000000000000000000000000000028152600401602060405180830381600087803b1580156121b657600080fd5b505af11580156121ca573d6000803e3d6000fd5b505050506040513d60208110156121e057600080fd5b81019080805190602001909291905050506121f9611a3d565b0190506122068282611a7a565b7f6910b41b86ef4f3498bc556996c0e9aba4627b1005237be6d12f4dcfce4f851c828787604051808473ffffffffffffffffffffffffffffffffffffffff1673ffffffffffffffffffffffffffffffffffffffff1681526020018381526020018273ffffffffffffffffffffffffffffffffffffffff1673ffffffffffffffffffffffffffffffffffffffff168152602001935050505060405180910390a150505050505050565b60008060008414156122c357600091506122e5565b82840290508284828115156122d457fe5b041415156122e157600080fd5b8091505b5092915050565b6000806014830184511015151561230257600080fd5b6c01000000000000000000000000836020860101510490508091505092915050565b600080828401905083811015151561233b57600080fd5b80915050929150505600a165627a7a72305820ac850b53f14ff5e2e6f9e9939cef8b710e29d30ec2b7a092009164ede2e4b3c10029",
  "source": "pragma solidity ^0.4.24;\r\n\r\nimport \"openzeppelin-solidity/contracts/token/ERC20/ERC20.sol\";\r\nimport \"openzeppelin-solidity/contracts/token/ERC20/SafeERC20.sol\";\r\nimport \"openzeppelin-solidity/contracts/math/SafeMath.sol\";\r\n\r\nimport \"contracts/interface/IContent.sol\";\r\nimport \"contracts/interface/ICouncil.sol\";\r\nimport \"contracts/interface/IDepositPool.sol\";\r\nimport \"contracts/interface/IReport.sol\";\r\n\r\nimport \"contracts/token/CustomToken.sol\";\r\nimport \"contracts/token/ContractReceiver.sol\";\r\nimport \"contracts/utils/ExtendsOwnable.sol\";\r\nimport \"contracts/utils/ValidValue.sol\";\r\nimport \"contracts/utils/BytesLib.sol\";\r\nimport \"contracts/utils/TimeLib.sol\";\r\n\r\n/**\r\n * @title DepositPool\r\n * @dev          .\r\n *           .\r\n *              .\r\n */\r\ncontract DepositPool is ExtendsOwnable, ValidValue, ContractReceiver, IDepositPool {\r\n    using SafeERC20 for ERC20;\r\n    using SafeMath for uint256;\r\n    using BytesLib for bytes;\r\n\r\n    uint256 DECIMALS = 10 ** 18;\r\n\r\n    ICouncil council;\r\n    mapping (address => uint256) contentDeposit;\r\n    mapping (address => uint256) possibleReleaseDate;\r\n\r\n    /**\r\n    * @dev \r\n    * @param _councilAddress  \r\n    */\r\n    constructor(address _councilAddress) public validAddress(_councilAddress) {\r\n        council = ICouncil(_councilAddress);\r\n    }\r\n\r\n    /**\r\n    * @dev Token ApproveAndCall  Contract \r\n    * @param _from \r\n    * @param _value \r\n    * @param _token   \r\n    * @param _data  \r\n    */\r\n    function receiveApproval(\r\n        address _from,\r\n        uint256 _value,\r\n        address _token,\r\n        bytes _data)\r\n        public\r\n        validAddress(_from)\r\n        validAddress(_token)\r\n    {\r\n        addDeposit(_from, _value, _token, _data);\r\n    }\r\n\r\n    /**\r\n    * @dev receiveApproval , token   Content   \r\n    */\r\n    function addDeposit(address _from, uint256 _value, address _token, bytes _data) private {\r\n        require(council.getContentsManager() == _from, \"msg sender is not contentManager\");\r\n        require(_data.length > 0, \"data is empty\");\r\n        require(contentDeposit[content] == 0, \"deposit not empty\");\r\n        ERC20 token = ERC20(council.getToken());\r\n        require(address(token) == _token, \"token abnormal\");\r\n\r\n        address content = _data.toAddress(0);\r\n        contentDeposit[content] = contentDeposit[content].add(_value);\r\n        CustomToken(address(token)).transferFromPxl(_from, address(this), _value, \"   \");\r\n        \r\n        uint256 releaseDate = TimeLib.currentTime() + council.getDepositReleaseDelay();\r\n        setReleaseDate(content, releaseDate);\r\n\r\n        emit AddDeposit(content, _value, _token);\r\n    }\r\n\r\n    event AddDeposit(address content, uint256 _value, address _token);\r\n\r\n    /**\r\n    * @dev Content   Deposit  \r\n    * @param _content  \r\n    */\r\n    function getDeposit(address _content) external view returns(uint256 depositAmount_) {\r\n        return contentDeposit[_content];\r\n    }\r\n\r\n    /**\r\n    * @dev     \r\n    * @param _content    \r\n    * @param _currentDate  \r\n    */\r\n    function setReleaseDate(address _content, uint256 _currentDate) private validAddress(_content) {\r\n        possibleReleaseDate[_content] = _currentDate;\r\n    }\r\n\r\n    /**\r\n    * @dev     \r\n    * @param _content  \r\n    */\r\n    function getReleaseDate(address _content) external view returns(uint256 releaseDate_) {\r\n        return possibleReleaseDate[_content];\r\n    }\r\n    \r\n    /**\r\n    * @dev        \r\n    * @param _content   \r\n    * @param _reporter  \r\n    * @param _type  , 1 :  , 2 : 1PXL \r\n    */\r\n    function reportReward(address _content, address _reporter, uint256 _type, string _descripstion)\r\n        external\r\n        validAddress(_content)\r\n        validAddress(_reporter)\r\n        returns(uint256 deduction_, bool contentBlock_)\r\n    {\r\n        require(address(council) == msg.sender, \"msg sender is not council\");\r\n        require(_type > 0 && _type < 3, \"out of type\");\r\n\r\n        if (contentDeposit[_content] > 0) {\r\n            ERC20 token = ERC20(council.getToken());\r\n            uint256 rewardOnePXL = 1 * DECIMALS;\r\n\r\n            if (contentDeposit[_content] >= rewardOnePXL) {\r\n                deduction_ = contentDeposit[_content].sub(rewardOnePXL);\r\n                if (_type == 1) {\r\n                    contentDeposit[_content] = 0;\r\n                    contentBlock_ = true;\r\n                } else if (_type == 2) {\r\n                    contentDeposit[_content] = contentDeposit[_content].sub(rewardOnePXL);\r\n                    if (deduction_ == 0) {\r\n                        contentBlock_ = true;\r\n                    }\r\n                    deduction_ = 0;\r\n                }\r\n            } else {\r\n                rewardOnePXL = contentDeposit[_content];\r\n                contentDeposit[_content] = 0;\r\n                contentBlock_ = true;\r\n            }\r\n\r\n            require(token.balanceOf(address(this)) >= deduction_ + rewardOnePXL, \"token balance abnormal\");\r\n            if (deduction_ > 0) {\r\n                CustomToken(address(token)).transferPxl(address(council), deduction_, \"  \");\r\n            }\r\n            \r\n            if (rewardOnePXL > 0) {\r\n                CustomToken(address(token)).transferPxl(_reporter, rewardOnePXL, \"  \");\r\n                deduction_ = deduction_ + rewardOnePXL;\r\n            }\r\n        }\r\n\r\n        setReleaseDate(_content, TimeLib.currentTime() + council.getDepositReleaseDelay());\r\n\r\n        emit DepositChange(TimeLib.currentTime(), _content, _type, deduction_, _descripstion);\r\n    }\r\n\r\n    /**\r\n    * @dev      \r\n    * @param _content    \r\n    */\r\n    function release(address _content) external validAddress(_content) {\r\n        require(contentDeposit[_content] > 0, \"contentDeposit is zero\");\r\n        address writer = IContent(_content).getWriter();\r\n        require(writer == msg.sender, \"msg sender is not writer\");\r\n        require(possibleReleaseDate[_content] <= TimeLib.currentTime(), \"releaseData setError\");\r\n\r\n        ERC20 token = ERC20(council.getToken());\r\n        require(token.balanceOf(address(this)) >= contentDeposit[_content], \"token balance abnormal\");\r\n        \r\n        uint256 amount = contentDeposit[_content];\r\n        contentDeposit[_content] = 0;\r\n        CustomToken(address(token)).transferPxl(writer, amount, \"   \");\r\n        \r\n        emit DepositChange(TimeLib.currentTime(), _content, 6, amount, \"   \");\r\n    }\r\n\r\n    event DepositChange(uint256 _date, address indexed _content, uint256 _type, uint256 _amount, string _description);\r\n}\r\n",
  "sourcePath": "C:\\piction\\piction-poc\\contracts\\deposit\\DepositPool.sol",
  "compiler": {
    "name": "solc",
    "version": "0.4.24+commit.e67f0147.Emscripten.clang"
  },
  "schemaVersion": "2.0.1",
  "updatedAt": "2018-11-12T08:32:55.491Z"
}