{
  "contractName": "FundManager",
  "abi": [
    {
      "constant": false,
      "inputs": [
        {
          "name": "guest",
          "type": "address"
        }
      ],
      "name": "addOwner",
      "outputs": [],
      "payable": false,
      "stateMutability": "nonpayable",
      "type": "function"
    },
    {
      "constant": false,
      "inputs": [
        {
          "name": "newOwner",
          "type": "address"
        }
      ],
      "name": "transferOwnership",
      "outputs": [],
      "payable": false,
      "stateMutability": "nonpayable",
      "type": "function"
    },
    {
      "inputs": [
        {
          "name": "_council",
          "type": "address"
        }
      ],
      "payable": false,
      "stateMutability": "nonpayable",
      "type": "constructor"
    },
    {
      "anonymous": false,
      "inputs": [
        {
          "indexed": true,
          "name": "_fund",
          "type": "address"
        },
        {
          "indexed": true,
          "name": "_content",
          "type": "address"
        },
        {
          "indexed": false,
          "name": "_startTime",
          "type": "uint256"
        },
        {
          "indexed": false,
          "name": "_endTime",
          "type": "uint256"
        },
        {
          "indexed": false,
          "name": "_limit",
          "type": "uint256[]"
        },
        {
          "indexed": false,
          "name": "_poolSize",
          "type": "uint256"
        },
        {
          "indexed": false,
          "name": "_releaseInterval",
          "type": "uint256"
        },
        {
          "indexed": false,
          "name": "_supportFirstTime",
          "type": "uint256"
        },
        {
          "indexed": false,
          "name": "_distributionRate",
          "type": "uint256"
        },
        {
          "indexed": false,
          "name": "_detail",
          "type": "string"
        }
      ],
      "name": "CreateFund",
      "type": "event"
    },
    {
      "anonymous": false,
      "inputs": [
        {
          "indexed": true,
          "name": "previousOwner",
          "type": "address"
        },
        {
          "indexed": true,
          "name": "newOwner",
          "type": "address"
        }
      ],
      "name": "OwnershipTransferred",
      "type": "event"
    },
    {
      "anonymous": false,
      "inputs": [
        {
          "indexed": true,
          "name": "host",
          "type": "address"
        },
        {
          "indexed": true,
          "name": "guest",
          "type": "address"
        }
      ],
      "name": "OwnershipExtended",
      "type": "event"
    },
    {
      "constant": false,
      "inputs": [
        {
          "name": "_content",
          "type": "address"
        },
        {
          "name": "_startTime",
          "type": "uint256"
        },
        {
          "name": "_endTime",
          "type": "uint256"
        },
        {
          "name": "_limit",
          "type": "uint256[]"
        },
        {
          "name": "_poolSize",
          "type": "uint256"
        },
        {
          "name": "_releaseInterval",
          "type": "uint256"
        },
        {
          "name": "_supportFirstTime",
          "type": "uint256"
        },
        {
          "name": "_distributionRate",
          "type": "uint256"
        },
        {
          "name": "_detail",
          "type": "string"
        }
      ],
      "name": "createFund",
      "outputs": [
        {
          "name": "fund_",
          "type": "address"
        }
      ],
      "payable": false,
      "stateMutability": "nonpayable",
      "type": "function"
    },
    {
      "constant": true,
      "inputs": [
        {
          "name": "_content",
          "type": "address"
        }
      ],
      "name": "getFund",
      "outputs": [
        {
          "name": "fund_",
          "type": "address"
        }
      ],
      "payable": false,
      "stateMutability": "view",
      "type": "function"
    },
    {
      "constant": false,
      "inputs": [
        {
          "name": "_fund",
          "type": "address"
        },
        {
          "name": "_total",
          "type": "uint256"
        }
      ],
      "name": "distribution",
      "outputs": [
        {
          "name": "supporter_",
          "type": "address[]"
        },
        {
          "name": "amount_",
          "type": "uint256[]"
        }
      ],
      "payable": false,
      "stateMutability": "nonpayable",
      "type": "function"
    }
  ],
  "bytecode": "0x608060405234801561001057600080fd5b50604051602080614db18339810180604052810190808051906020019092919050505060016000803373ffffffffffffffffffffffffffffffffffffffff1673ffffffffffffffffffffffffffffffffffffffff16815260200190815260200160002060006101000a81548160ff02191690831515021790555080600073ffffffffffffffffffffffffffffffffffffffff168173ffffffffffffffffffffffffffffffffffffffff16141515156100c757600080fd5b3073ffffffffffffffffffffffffffffffffffffffff168173ffffffffffffffffffffffffffffffffffffffff161415151561010257600080fd5b81600260006101000a81548173ffffffffffffffffffffffffffffffffffffffff021916908373ffffffffffffffffffffffffffffffffffffffff1602179055505050614c5d806101546000396000f30060806040526004361062000073576000357c0100000000000000000000000000000000000000000000000000000000900463ffffffff16806320f96bb81462000078578063662f292a14620001695780637065cb48146200025b578063b42c1d4014620002a1578063f2fde38b1462000327575b600080fd5b3480156200008557600080fd5b50620000c6600480360381019080803573ffffffffffffffffffffffffffffffffffffffff169060200190929190803590602001909291905050506200036d565b604051808060200180602001838103835285818151815260200191508051906020019060200280838360005b838110156200010f578082015181840152602081019050620000f2565b50505050905001838103825284818151815260200191508051906020019060200280838360005b838110156200015357808201518184015260208101905062000136565b5050505090500194505050505060405180910390f35b3480156200017657600080fd5b5062000219600480360381019080803573ffffffffffffffffffffffffffffffffffffffff16906020019092919080359060200190929190803590602001909291908035906020019082018035906020019190919293919293908035906020019092919080359060200190929190803590602001909291908035906020019092919080359060200190820180359060200191909192939192939050505062000660565b604051808273ffffffffffffffffffffffffffffffffffffffff1673ffffffffffffffffffffffffffffffffffffffff16815260200191505060405180910390f35b3480156200026857600080fd5b506200029f600480360381019080803573ffffffffffffffffffffffffffffffffffffffff16906020019092919050505062000baf565b005b348015620002ae57600080fd5b50620002e5600480360381019080803573ffffffffffffffffffffffffffffffffffffffff16906020019092919050505062000cf8565b604051808273ffffffffffffffffffffffffffffffffffffffff1673ffffffffffffffffffffffffffffffffffffffff16815260200191505060405180910390f35b3480156200033457600080fd5b506200036b600480360381019080803573ffffffffffffffffffffffffffffffffffffffff16906020019092919050505062000d61565b005b606080600260009054906101000a900473ffffffffffffffffffffffffffffffffffffffff1673ffffffffffffffffffffffffffffffffffffffff16630cec1ecd6040518163ffffffff167c0100000000000000000000000000000000000000000000000000000000028152600401602060405180830381600087803b158015620003f757600080fd5b505af11580156200040c573d6000803e3d6000fd5b505050506040513d60208110156200042357600080fd5b810190808051906020019092919050505073ffffffffffffffffffffffffffffffffffffffff163373ffffffffffffffffffffffffffffffffffffffff16141515620004fd576040517f08c379a00000000000000000000000000000000000000000000000000000000081526004018080602001828103825260228152602001807f6d73672073656e646572206973206e6f7420506978656c44697374726962757481526020017f6f7200000000000000000000000000000000000000000000000000000000000081525060400191505060405180910390fd5b8373ffffffffffffffffffffffffffffffffffffffff1663aa8b0670846040518263ffffffff167c010000000000000000000000000000000000000000000000000000000002815260040180828152602001915050600060405180830381600087803b1580156200056d57600080fd5b505af115801562000582573d6000803e3d6000fd5b505050506040513d6000823e3d601f19601f820116820180604052506040811015620005ad57600080fd5b810190808051640100000000811115620005c657600080fd5b82810190506020810184811115620005dd57600080fd5b8151856020820283011164010000000082111715620005fb57600080fd5b505092919060200180516401000000008111156200061857600080fd5b828101905060208101848111156200062f57600080fd5b81518560208202830111640100000000821117156200064d57600080fd5b5050929190505050915091509250929050565b60003373ffffffffffffffffffffffffffffffffffffffff16600260009054906101000a900473ffffffffffffffffffffffffffffffffffffffff1673ffffffffffffffffffffffffffffffffffffffff16632a9551c66040518163ffffffff167c0100000000000000000000000000000000000000000000000000000000028152600401602060405180830381600087803b1580156200070057600080fd5b505af115801562000715573d6000803e3d6000fd5b505050506040513d60208110156200072c57600080fd5b810190808051906020019092919050505073ffffffffffffffffffffffffffffffffffffffff16141515620007c9576040517f08c379a00000000000000000000000000000000000000000000000000000000081526004018080602001828103825260198152602001807f6d73672073656e646572206973206e6f742041706946756e640000000000000081525060200191505060405180910390fd5b600073ffffffffffffffffffffffffffffffffffffffff16600160008e73ffffffffffffffffffffffffffffffffffffffff1673ffffffffffffffffffffffffffffffffffffffff16815260200190815260200160002060009054906101000a900473ffffffffffffffffffffffffffffffffffffffff1673ffffffffffffffffffffffffffffffffffffffff16141515620008cd576040517f08c379a000000000000000000000000000000000000000000000000000000000815260040180806020018281038252600c8152602001807f616c72656164792066756e64000000000000000000000000000000000000000081525060200191505060405180910390fd5b600260009054906101000a900473ffffffffffffffffffffffffffffffffffffffff168c8c8c8c8c600081811015156200090357fe5b905060200201358d8d600181811015156200091a57fe5b905060200201358e8e600281811015156200093157fe5b905060200201358f8f600381811015156200094857fe5b905060200201358e8e8e8e8e8e6200095f62000ef8565b808f73ffffffffffffffffffffffffffffffffffffffff1673ffffffffffffffffffffffffffffffffffffffff1681526020018e73ffffffffffffffffffffffffffffffffffffffff1673ffffffffffffffffffffffffffffffffffffffff1681526020018d81526020018c81526020018b81526020018a815260200189815260200188815260200187815260200186815260200185815260200184815260200180602001828103825284848281815260200192508082843782019150509f50505050505050505050505050505050604051809103906000f08015801562000a4b573d6000803e3d6000fd5b50905080600160008e73ffffffffffffffffffffffffffffffffffffffff1673ffffffffffffffffffffffffffffffffffffffff16815260200190815260200160002060006101000a81548173ffffffffffffffffffffffffffffffffffffffff021916908373ffffffffffffffffffffffffffffffffffffffff1602179055508b73ffffffffffffffffffffffffffffffffffffffff168173ffffffffffffffffffffffffffffffffffffffff167f1d61903b6a76edca6c97c8db8a53ab0178c5532ca7d358087752c0259b9c75208d8d8d8d8d8d8d8d8d8d604051808b81526020018a8152602001806020018881526020018781526020018681526020018581526020018060200183810383528b8b828181526020019250602002808284378201915050838103825285858281815260200192508082843782019150509c5050505050505050505050505060405180910390a39b9a5050505050505050505050565b6000803373ffffffffffffffffffffffffffffffffffffffff1673ffffffffffffffffffffffffffffffffffffffff16815260200190815260200160002060009054906101000a900460ff16151562000c0757600080fd5b600073ffffffffffffffffffffffffffffffffffffffff168173ffffffffffffffffffffffffffffffffffffffff161415151562000c4457600080fd5b60016000808373ffffffffffffffffffffffffffffffffffffffff1673ffffffffffffffffffffffffffffffffffffffff16815260200190815260200160002060006101000a81548160ff0219169083151502179055508073ffffffffffffffffffffffffffffffffffffffff163373ffffffffffffffffffffffffffffffffffffffff167f1d95aed2b82ae4cbdcccc214bb64bc277a20e8490d69a59d7f426c67fe46c61d60405160405180910390a350565b6000600160008373ffffffffffffffffffffffffffffffffffffffff1673ffffffffffffffffffffffffffffffffffffffff16815260200190815260200160002060009054906101000a900473ffffffffffffffffffffffffffffffffffffffff169050919050565b6000803373ffffffffffffffffffffffffffffffffffffffff1673ffffffffffffffffffffffffffffffffffffffff16815260200190815260200160002060009054906101000a900460ff16151562000db957600080fd5b600073ffffffffffffffffffffffffffffffffffffffff168173ffffffffffffffffffffffffffffffffffffffff161415151562000df657600080fd5b60016000808373ffffffffffffffffffffffffffffffffffffffff1673ffffffffffffffffffffffffffffffffffffffff16815260200190815260200160002060006101000a81548160ff0219169083151502179055506000803373ffffffffffffffffffffffffffffffffffffffff1673ffffffffffffffffffffffffffffffffffffffff16815260200190815260200160002060006101000a81549060ff02191690558073ffffffffffffffffffffffffffffffffffffffff163373ffffffffffffffffffffffffffffffffffffffff167f8be0079c531659141344cd1fd0a4f28419497f9722a3daafe3b4186f6b6457e060405160405180910390a350565b604051613d288062000f0a833901905600608060405260126001553480156200001657600080fd5b5060405162003d2838038062003d288339810180604052810190808051906020019092919080519060200190929190805190602001909291908051906020019092919080519060200190929190805190602001909291908051906020019092919080519060200190929190805190602001909291908051906020019092919080519060200190929190805190602001909291908051820192919050505060016000803373ffffffffffffffffffffffffffffffffffffffff1673ffffffffffffffffffffffffffffffffffffffff16815260200190815260200160002060006101000a81548160ff0219169083151502179055508b600073ffffffffffffffffffffffffffffffffffffffff168173ffffffffffffffffffffffffffffffffffffffff16141515156200014857600080fd5b3073ffffffffffffffffffffffffffffffffffffffff168173ffffffffffffffffffffffffffffffffffffffff16141515156200018457600080fd5b8d600073ffffffffffffffffffffffffffffffffffffffff168173ffffffffffffffffffffffffffffffffffffffff1614151515620001c257600080fd5b3073ffffffffffffffffffffffffffffffffffffffff168173ffffffffffffffffffffffffffffffffffffffff1614151515620001fe57600080fd5b898b1015151562000277576040517f08c379a00000000000000000000000000000000000000000000000000000000081526004018080602001828103825260108152602001807f6d6178636170203c20736f66746361700000000000000000000000000000000081525060200191505060405180910390fd5b600089111515620002f0576040517f08c379a000000000000000000000000000000000000000000000000000000000815260040180806020018281038252600f8152602001807f6d696e696d756d206973207a65726f000000000000000000000000000000000081525060200191505060405180910390fd5b60008811151562000369576040517f08c379a000000000000000000000000000000000000000000000000000000000815260040180806020018281038252600f8152602001807f6d6178696d756d206973207a65726f000000000000000000000000000000000081525060200191505060405180910390fd5b878b10151515620003e2576040517f08c379a00000000000000000000000000000000000000000000000000000000081526004018080602001828103825260108152602001807f6d6178636170203c206d6178696d756d0000000000000000000000000000000081525060200191505060405180910390fd5b6000871115156200045b576040517f08c379a00000000000000000000000000000000000000000000000000000000081526004018080602001828103825260108152602001807f706f6f6c73697a65206973207a65726f0000000000000000000000000000000081525060200191505060405180910390fd5b600086111515620004d4576040517f08c379a00000000000000000000000000000000000000000000000000000000081526004018080602001828103825260178152602001807f72656c65617365496e74657276616c206973207a65726f00000000000000000081525060200191505060405180910390fd5b8b851115156200054c576040517f08c379a000000000000000000000000000000000000000000000000000000000815260040180806020018281038252601d8152602001807f5f737570706f7274466972737454696d65203c3d205f656e6454696d6500000081525060200191505060405180910390fd5b600154600a0a60115411151515620005cc576040517f08c379a00000000000000000000000000000000000000000000000000000000081526004018080602001828103825260168152602001807f646973747269627574696f6e52617465203e203130250000000000000000000081525060200191505060405180910390fd5b8e600560006101000a81548173ffffffffffffffffffffffffffffffffffffffff021916908373ffffffffffffffffffffffffffffffffffffffff1602179055508d600660006101000a81548173ffffffffffffffffffffffffffffffffffffffff021916908373ffffffffffffffffffffffffffffffffffffffff1602179055508d73ffffffffffffffffffffffffffffffffffffffff1663d66e57266040518163ffffffff167c0100000000000000000000000000000000000000000000000000000000028152600401602060405180830381600087803b158015620006b357600080fd5b505af1158015620006c8573d6000803e3d6000fd5b505050506040513d6020811015620006df57600080fd5b8101908080519060200190929190505050600760006101000a81548173ffffffffffffffffffffffffffffffffffffffff021916908373ffffffffffffffffffffffffffffffffffffffff1602179055506200074e6200086e640100000000026200260e176401000000009004565b8d1115156200078157620007756200086e640100000000026200260e176401000000009004565b60028190555062000789565b8c6002819055505b8c8c11151562000801576040517f08c379a00000000000000000000000000000000000000000000000000000000081526004018080602001828103825260138152602001807f737461727454696d65203e20656e6454696d650000000000000000000000000081525060200191505060405180910390fd5b8b6003819055508a60098190555089600a8190555088600b8190555087600c8190555082600490805190602001906200083c929190620008dc565b5086600e8190555085600f8190555084601081905550836011819055505050505050505050505050505050506200098b565b6000620008956103e8426200089a64010000000002620031a0179091906401000000009004565b905090565b6000806000841415620008b15760009150620008d5565b8284029050828482811515620008c357fe5b04141515620008d157600080fd5b8091505b5092915050565b828054600181600116156101000203166002900490600052602060002090601f016020900481019282601f106200091f57805160ff191683800117855562000950565b8280016001018555821562000950579182015b828111156200094f57825182559160200191906001019062000932565b5b5090506200095f919062000963565b5090565b6200098891905b80821115620009845760008160009055506001016200096a565b5090565b90565b61338d806200099b6000396000f300608060405260043610610099576000357c0100000000000000000000000000000000000000000000000000000000900463ffffffff16806323fa46f11461009e5780632bbe5bfc146100c957806343020b1a146100e05780637065cb48146102b45780638f4ffcb1146102f7578063aa8b0670146103aa578063b9cccee314610474578063ec233684146104cf578063f2fde38b14610616575b600080fd5b3480156100aa57600080fd5b506100b3610659565b6040518082815260200191505060405180910390f35b3480156100d557600080fd5b506100de610666565b005b3480156100ec57600080fd5b506100f56115a2565b6040518080602001806020018060200180602001806020018060200187810387528d818151815260200191508051906020019060200280838360005b8381101561014c578082015181840152602081019050610131565b5050505090500187810386528c818151815260200191508051906020019060200280838360005b8381101561018e578082015181840152602081019050610173565b5050505090500187810385528b818151815260200191508051906020019060200280838360005b838110156101d05780820151818401526020810190506101b5565b5050505090500187810384528a818151815260200191508051906020019060200280838360005b838110156102125780820151818401526020810190506101f7565b50505050905001878103835289818151815260200191508051906020019060200280838360005b83811015610254578082015181840152602081019050610239565b50505050905001878103825288818151815260200191508051906020019060200280838360005b8381101561029657808201518184015260208101905061027b565b505050509050019c5050505050505050505050505060405180910390f35b3480156102c057600080fd5b506102f5600480360381019080803573ffffffffffffffffffffffffffffffffffffffff1690602001909291905050506118ee565b005b34801561030357600080fd5b506103a8600480360381019080803573ffffffffffffffffffffffffffffffffffffffff16906020019092919080359060200190929190803573ffffffffffffffffffffffffffffffffffffffff169060200190929190803590602001908201803590602001908080601f0160208091040260200160405190810160405280939291908181526020018383808284378201915050505050509192919290505050611a35565b005b3480156103b657600080fd5b506103d560048036038101908080359060200190929190505050611b38565b604051808060200180602001838103835285818151815260200191508051906020019060200280838360005b8381101561041c578082015181840152602081019050610401565b50505050905001838103825284818151815260200191508051906020019060200280838360005b8381101561045e578082015181840152602081019050610443565b5050505090500194505050505060405180910390f35b34801561048057600080fd5b506104b5600480360381019080803573ffffffffffffffffffffffffffffffffffffffff1690602001909291905050506121e7565b604051808215151515815260200191505060405180910390f35b3480156104db57600080fd5b506104e461228d565b604051808c73ffffffffffffffffffffffffffffffffffffffff1673ffffffffffffffffffffffffffffffffffffffff1681526020018b81526020018a815260200180602001898152602001888152602001878152602001868152602001858152602001841515151581526020018060200183810383528b818151815260200191508051906020019060200280838360005b83811015610591578082015181840152602081019050610576565b50505050905001838103825284818151815260200191508051906020019080838360005b838110156105d05780820151818401526020810190506105b5565b50505050905090810190601f1680156105fd5780820380516001836020036101000a031916815260200191505b509d505050505050505050505050505060405180910390f35b34801561062257600080fd5b50610657600480360381019080803573ffffffffffffffffffffffffffffffffffffffff169060200190929190505050612479565b005b6000600d80549050905090565b600080600080600080600560009054906101000a900473ffffffffffffffffffffffffffffffffffffffff1673ffffffffffffffffffffffffffffffffffffffff1663098a2cdc6040518163ffffffff167c0100000000000000000000000000000000000000000000000000000000028152600401602060405180830381600087803b1580156106f557600080fd5b505af1158015610709573d6000803e3d6000fd5b505050506040513d602081101561071f57600080fd5b810190808051906020019092919050505073ffffffffffffffffffffffffffffffffffffffff1663f4a33ae6306040518263ffffffff167c0100000000000000000000000000000000000000000000000000000000028152600401808273ffffffffffffffffffffffffffffffffffffffff1673ffffffffffffffffffffffffffffffffffffffff168152602001915050602060405180830381600087803b1580156107ca57600080fd5b505af11580156107de573d6000803e3d6000fd5b505050506040513d60208110156107f457600080fd5b810190808051906020019092919050505014151561087a576040517f08c379a000000000000000000000000000000000000000000000000000000000815260040180806020018281038252601d8152602001807f46756e6420537570706f72746572506f6f6c20697320616c726561647900000081525060200191505060405180910390fd5b6009546008541480610894575060035461089261260e565b115b151561092e576040517f08c379a00000000000000000000000000000000000000000000000000000000081526004018080602001828103825260278152602001807f66756e6452697365206e6f74206d6178636170206f7220656e6454696d65206e81526020017f6f74206f7665720000000000000000000000000000000000000000000000000081525060400191505060405180910390fd5b600093505b600d8054905084101561098257610973600d8581548110151561095257fe5b9060005260206000209060060201600101548661262a90919063ffffffff16565b94508380600101945050610933565b600560009054906101000a900473ffffffffffffffffffffffffffffffffffffffff1673ffffffffffffffffffffffffffffffffffffffff166321df0da76040518163ffffffff167c0100000000000000000000000000000000000000000000000000000000028152600401602060405180830381600087803b158015610a0857600080fd5b505af1158015610a1c573d6000803e3d6000fd5b505050506040513d6020811015610a3257600080fd5b810190808051906020019092919050505092508273ffffffffffffffffffffffffffffffffffffffff166370a08231306040518263ffffffff167c0100000000000000000000000000000000000000000000000000000000028152600401808273ffffffffffffffffffffffffffffffffffffffff1673ffffffffffffffffffffffffffffffffffffffff168152602001915050602060405180830381600087803b158015610ae057600080fd5b505af1158015610af4573d6000803e3d6000fd5b505050506040513d6020811015610b0a57600080fd5b810190808051906020019092919050505085141515610b91576040517f08c379a00000000000000000000000000000000000000000000000000000000081526004018080602001828103825260158152602001807f66756e642062616c616e63652061626e6f726d616c000000000000000000000081525060200191505060405180910390fd5b829150600a54600854101515610fdb57610ba961264b565b600560009054906101000a900473ffffffffffffffffffffffffffffffffffffffff1673ffffffffffffffffffffffffffffffffffffffff1663098a2cdc6040518163ffffffff167c0100000000000000000000000000000000000000000000000000000000028152600401602060405180830381600087803b158015610c2f57600080fd5b505af1158015610c43573d6000803e3d6000fd5b505050506040513d6020811015610c5957600080fd5b810190808051906020019092919050505073ffffffffffffffffffffffffffffffffffffffff16639281fced30600760009054906101000a900473ffffffffffffffffffffffffffffffffffffffff16600f54600854600e546010546040518763ffffffff167c0100000000000000000000000000000000000000000000000000000000028152600401808773ffffffffffffffffffffffffffffffffffffffff1673ffffffffffffffffffffffffffffffffffffffff1681526020018673ffffffffffffffffffffffffffffffffffffffff1673ffffffffffffffffffffffffffffffffffffffff1681526020018581526020018481526020018381526020018281526020019650505050505050600060405180830381600087803b158015610d8257600080fd5b505af1158015610d96573d6000803e3d6000fd5b505050508173ffffffffffffffffffffffffffffffffffffffff16634cbb72a8600560009054906101000a900473ffffffffffffffffffffffffffffffffffffffff1673ffffffffffffffffffffffffffffffffffffffff1663098a2cdc6040518163ffffffff167c0100000000000000000000000000000000000000000000000000000000028152600401602060405180830381600087803b158015610e3c57600080fd5b505af1158015610e50573d6000803e3d6000fd5b505050506040513d6020811015610e6657600080fd5b81019080805190602001909291905050506008546040518363ffffffff167c0100000000000000000000000000000000000000000000000000000000028152600401808373ffffffffffffffffffffffffffffffffffffffff1673ffffffffffffffffffffffffffffffffffffffff16815260200182815260200180602001828103825260228152602001807fed88acec9e9020eca285eba38c2c20ed9b84ec9b90ed9280eba19c20eca084ec81526020017f86a10000000000000000000000000000000000000000000000000000000000008152506040019350505050602060405180830381600087803b158015610f5e57600080fd5b505af1158015610f72573d6000803e3d6000fd5b505050506040513d6020811015610f8857600080fd5b8101908080519060200190929190505050507f5e74c0a7f1d8336eae19eaa9fe7c9ca4d76b7d852807db31513841f4612a03bc6001604051808215151515815260200191505060405180910390a1611580565b600090505b600d8054905081101561154357600d81815481101515610ffc57fe5b906000526020600020906006020160050160009054906101000a900460ff161515611536576001600d8281548110151561103257fe5b906000526020600020906006020160050160006101000a81548160ff0219169083151502179055508173ffffffffffffffffffffffffffffffffffffffff16634cbb72a8600d8381548110151561108557fe5b906000526020600020906006020160000160009054906101000a900473ffffffffffffffffffffffffffffffffffffffff16600d848154811015156110c657fe5b9060005260206000209060060201600101546040518363ffffffff167c0100000000000000000000000000000000000000000000000000000000028152600401808373ffffffffffffffffffffffffffffffffffffffff1673ffffffffffffffffffffffffffffffffffffffff168152602001828152602001806020018281038252603a8152602001807fed88acec9e9020eca285eba38c2c20ecb59cec868c20ebaaa8eca79120eab88881526020017fec95a120ebafb8eb8bacec84b1ec9cbceba19c20ed9998ebb6880000000000008152506040019350505050602060405180830381600087803b1580156111bc57600080fd5b505af11580156111d0573d6000803e3d6000fd5b505050506040513d60208110156111e657600080fd5b810190808051906020019092919050505050600560009054906101000a900473ffffffffffffffffffffffffffffffffffffffff1673ffffffffffffffffffffffffffffffffffffffff1663b3032be86040518163ffffffff167c0100000000000000000000000000000000000000000000000000000000028152600401602060405180830381600087803b15801561127e57600080fd5b505af1158015611292573d6000803e3d6000fd5b505050506040513d60208110156112a857600080fd5b810190808051906020019092919050505073ffffffffffffffffffffffffffffffffffffffff1663da1ca0a8600d838154811015156112e357fe5b906000526020600020906006020160000160009054906101000a900473ffffffffffffffffffffffffffffffffffffffff16600660009054906101000a900473ffffffffffffffffffffffffffffffffffffffff1630600d8681548110151561134857fe5b90600052602060002090600602016001015460016040518663ffffffff167c0100000000000000000000000000000000000000000000000000000000028152600401808673ffffffffffffffffffffffffffffffffffffffff1673ffffffffffffffffffffffffffffffffffffffff1681526020018573ffffffffffffffffffffffffffffffffffffffff1673ffffffffffffffffffffffffffffffffffffffff1681526020018473ffffffffffffffffffffffffffffffffffffffff1673ffffffffffffffffffffffffffffffffffffffff1681526020018381526020018215151515815260200195505050505050600060405180830381600087803b15801561145257600080fd5b505af1158015611466573d6000803e3d6000fd5b505050507fbb28353e4598c3b9199101a66e0989549b659a59a54d2c27fbb183f1932c8e6d600d8281548110151561149a57fe5b906000526020600020906006020160000160009054906101000a900473ffffffffffffffffffffffffffffffffffffffff16600d838154811015156114db57fe5b906000526020600020906006020160010154604051808373ffffffffffffffffffffffffffffffffffffffff1673ffffffffffffffffffffffffffffffffffffffff1681526020018281526020019250505060405180910390a15b8080600101915050610fe0565b7f5e74c0a7f1d8336eae19eaa9fe7c9ca4d76b7d852807db31513841f4612a03bc6000604051808215151515815260200191505060405180910390a15b6001601260006101000a81548160ff0219169083151502179055505050505050565b6060806060806060806000600d805490506040519080825280602002602001820160405280156115e15781602001602082028038833980820191505090505b509650600d805490506040519080825280602002602001820160405280156116185781602001602082028038833980820191505090505b509550600d8054905060405190808252806020026020018201604052801561164f5781602001602082028038833980820191505090505b509450600d805490506040519080825280602002602001820160405280156116865781602001602082028038833980820191505090505b509350600d805490506040519080825280602002602001820160405280156116bd5781602001602082028038833980820191505090505b509250600d805490506040519080825280602002602001820160405280156116f45781602001602082028038833980820191505090505b509150600090505b600d805490508110156118e557600d8181548110151561171857fe5b906000526020600020906006020160000160009054906101000a900473ffffffffffffffffffffffffffffffffffffffff16878281518110151561175857fe5b9060200190602002019073ffffffffffffffffffffffffffffffffffffffff16908173ffffffffffffffffffffffffffffffffffffffff1681525050600d818154811015156117a357fe5b90600052602060002090600602016001015486828151811015156117c357fe5b9060200190602002018181525050600d818154811015156117e057fe5b906000526020600020906006020160020154858281518110151561180057fe5b9060200190602002018181525050600d8181548110151561181d57fe5b906000526020600020906006020160040154848281518110151561183d57fe5b9060200190602002018181525050600d8181548110151561185a57fe5b906000526020600020906006020160030154838281518110151561187a57fe5b9060200190602002018181525050600d8181548110151561189757fe5b906000526020600020906006020160050160009054906101000a900460ff1682828151811015156118c457fe5b906020019060200201901515908115158152505080806001019150506116fc565b50909192939495565b6000803373ffffffffffffffffffffffffffffffffffffffff1673ffffffffffffffffffffffffffffffffffffffff16815260200190815260200160002060009054906101000a900460ff16151561194557600080fd5b600073ffffffffffffffffffffffffffffffffffffffff168173ffffffffffffffffffffffffffffffffffffffff161415151561198157600080fd5b60016000808373ffffffffffffffffffffffffffffffffffffffff1673ffffffffffffffffffffffffffffffffffffffff16815260200190815260200160002060006101000a81548160ff0219169083151502179055508073ffffffffffffffffffffffffffffffffffffffff163373ffffffffffffffffffffffffffffffffffffffff167f1d95aed2b82ae4cbdcccc214bb64bc277a20e8490d69a59d7f426c67fe46c61d60405160405180910390a350565b83600073ffffffffffffffffffffffffffffffffffffffff168173ffffffffffffffffffffffffffffffffffffffff1614151515611a7257600080fd5b3073ffffffffffffffffffffffffffffffffffffffff168173ffffffffffffffffffffffffffffffffffffffff1614151515611aad57600080fd5b82600073ffffffffffffffffffffffffffffffffffffffff168173ffffffffffffffffffffffffffffffffffffffff1614151515611aea57600080fd5b3073ffffffffffffffffffffffffffffffffffffffff168173ffffffffffffffffffffffffffffffffffffffff1614151515611b2557600080fd5b611b30868686612733565b505050505050565b6060806000803373ffffffffffffffffffffffffffffffffffffffff16600560009054906101000a900473ffffffffffffffffffffffffffffffffffffffff1673ffffffffffffffffffffffffffffffffffffffff16636c7113e46040518163ffffffff167c0100000000000000000000000000000000000000000000000000000000028152600401602060405180830381600087803b158015611bdb57600080fd5b505af1158015611bef573d6000803e3d6000fd5b505050506040513d6020811015611c0557600080fd5b810190808051906020019092919050505073ffffffffffffffffffffffffffffffffffffffff16141515611ca1576040517f08c379a000000000000000000000000000000000000000000000000000000000815260040180806020018281038252601d8152602001807f6d73672073656e646572206973206e6f742046756e644d616e6167657200000081525060200191505060405180910390fd5b6000600560009054906101000a900473ffffffffffffffffffffffffffffffffffffffff1673ffffffffffffffffffffffffffffffffffffffff1663098a2cdc6040518163ffffffff167c0100000000000000000000000000000000000000000000000000000000028152600401602060405180830381600087803b158015611d2957600080fd5b505af1158015611d3d573d6000803e3d6000fd5b505050506040513d6020811015611d5357600080fd5b810190808051906020019092919050505073ffffffffffffffffffffffffffffffffffffffff1663f4a33ae6306040518263ffffffff167c0100000000000000000000000000000000000000000000000000000000028152600401808273ffffffffffffffffffffffffffffffffffffffff1673ffffffffffffffffffffffffffffffffffffffff168152602001915050602060405180830381600087803b158015611dfe57600080fd5b505af1158015611e12573d6000803e3d6000fd5b505050506040513d6020811015611e2857600080fd5b81019080805190602001909291905050501415611e44576121e0565b600d80549050604051908082528060200260200182016040528015611e785781602001602082028038833980820191505090505b509350600d80549050604051908082528060200260200182016040528015611eaf5781602001602082028038833980820191505090505b509250600091505b600d805490508210156121d957600d82815481101515611ed357fe5b906000526020600020906006020160000160009054906101000a900473ffffffffffffffffffffffffffffffffffffffff168483815181101515611f1357fe5b9060200190602002019073ffffffffffffffffffffffffffffffffffffffff16908173ffffffffffffffffffffffffffffffffffffffff1681525050611fa2600d83815481101515611f6157fe5b906000526020600020906006020160020154600d84815481101515611f8257fe5b90600052602060002090600602016001015461317f90919063ffffffff16565b905060008114156120e557611fd9600154600a0a611fcb601154886131a090919063ffffffff16565b6131de90919063ffffffff16565b8383815181101515611fe757fe5b9060200190602002018181525050612056600154600a0a612048600d8581548110151561201057fe5b906000526020600020906006020160030154868681518110151561203057fe5b906020019060200201516131a090919063ffffffff16565b6131de90919063ffffffff16565b838381518110151561206457fe5b90602001906020020181815250506120bc838381518110151561208357fe5b90602001906020020151600d8481548110151561209c57fe5b90600052602060002090600602016004015461262a90919063ffffffff16565b600d838154811015156120cb57fe5b9060005260206000209060060201600401819055506121cc565b61214181612133600154600a0a612125600d8781548110151561210457fe5b9060005260206000209060060201600301548a6131a090919063ffffffff16565b6131de90919063ffffffff16565b61320890919063ffffffff16565b838381518110151561214f57fe5b90602001906020020181815250506121a7838381518110151561216e57fe5b90602001906020020151600d8481548110151561218757fe5b90600052602060002090600602016002015461262a90919063ffffffff16565b600d838154811015156121b657fe5b9060005260206000209060060201600201819055505b8180600101925050611eb7565b8383935093505b5050915091565b600080600090505b600d80549050811015612286578273ffffffffffffffffffffffffffffffffffffffff16600d8281548110151561222257fe5b906000526020600020906006020160000160009054906101000a900473ffffffffffffffffffffffffffffffffffffffff1673ffffffffffffffffffffffffffffffffffffffff1614156122795760019150612287565b80806001019150506121ef565b5b50919050565b600080600060606000806000806000806060600660009054906101000a900473ffffffffffffffffffffffffffffffffffffffff169a506002549950600354985060046040519080825280602002602001820160405280156122fe5781602001602082028038833980820191505090505b50975060095488600081518110151561231357fe5b9060200190602002018181525050600a5488600181518110151561233357fe5b9060200190602002018181525050600b5488600281518110151561235357fe5b9060200190602002018181525050600c5488600381518110151561237357fe5b90602001906020020181815250506008549650600e549550600f54945060105493506011549250601260009054906101000a900460ff161580156123cd575060085460095414806123cc57506123c761260e565b600354105b5b915060048054600181600116156101000203166002900480601f0160208091040260200160405190810160405280929190818152602001828054600181600116156101000203166002900480156124655780601f1061243a57610100808354040283529160200191612465565b820191906000526020600020905b81548152906001019060200180831161244857829003601f168201915b50505050509050909192939495969798999a565b6000803373ffffffffffffffffffffffffffffffffffffffff1673ffffffffffffffffffffffffffffffffffffffff16815260200190815260200160002060009054906101000a900460ff1615156124d057600080fd5b600073ffffffffffffffffffffffffffffffffffffffff168173ffffffffffffffffffffffffffffffffffffffff161415151561250c57600080fd5b60016000808373ffffffffffffffffffffffffffffffffffffffff1673ffffffffffffffffffffffffffffffffffffffff16815260200190815260200160002060006101000a81548160ff0219169083151502179055506000803373ffffffffffffffffffffffffffffffffffffffff1673ffffffffffffffffffffffffffffffffffffffff16815260200190815260200160002060006101000a81549060ff02191690558073ffffffffffffffffffffffffffffffffffffffff163373ffffffffffffffffffffffffffffffffffffffff167f8be0079c531659141344cd1fd0a4f28419497f9722a3daafe3b4186f6b6457e060405160405180910390a350565b60006126256103e8426131a090919063ffffffff16565b905090565b600080828401905083811015151561264157600080fd5b8091505092915050565b600080600090505b600d805490508110156126a257612693600d8281548110151561267257fe5b9060005260206000209060060201600101548361262a90919063ffffffff16565b91508080600101915050612653565b600090505b600d8054905081101561272f576126fe826126f0600d848154811015156126ca57fe5b906000526020600020906006020160010154600154600a0a6131a090919063ffffffff16565b6131de90919063ffffffff16565b600d8281548110151561270d57fe5b90600052602060002090600602016003018190555080806001019150506126a7565b5050565b600080600080600061275b60025460035461274c61260e565b6132219092919063ffffffff16565b15156127cf576040517f08c379a00000000000000000000000000000000000000000000000000000000081526004018080602001828103825260118152602001807f456e642050756e64696e672c2054696d6500000000000000000000000000000081525060200191505060405180910390fd5b60095460085410151561284a576040517f08c379a00000000000000000000000000000000000000000000000000000000081526004018080602001828103825260138152602001807f456e642050756e64696e672c204d61786361700000000000000000000000000081525060200191505060405180910390fd5b600560009054906101000a900473ffffffffffffffffffffffffffffffffffffffff1673ffffffffffffffffffffffffffffffffffffffff166321df0da76040518163ffffffff167c0100000000000000000000000000000000000000000000000000000000028152600401602060405180830381600087803b1580156128d057600080fd5b505af11580156128e4573d6000803e3d6000fd5b505050506040513d60208110156128fa57600080fd5b810190808051906020019092919050505094508573ffffffffffffffffffffffffffffffffffffffff168573ffffffffffffffffffffffffffffffffffffffff161415156129b0576040517f08c379a00000000000000000000000000000000000000000000000000000000081526004018080602001828103825260118152602001807f746f6b656e2069732061626e6f726d616c00000000000000000000000000000081525060200191505060405180910390fd5b6129b98861323c565b935093506129f4836129cc5760006129ee565b600d858154811015156129db57fe5b9060005260206000209060060201600101545b886132e6565b915091508473ffffffffffffffffffffffffffffffffffffffff166369b5a46189308a6040518463ffffffff167c0100000000000000000000000000000000000000000000000000000000028152600401808473ffffffffffffffffffffffffffffffffffffffff1673ffffffffffffffffffffffffffffffffffffffff1681526020018373ffffffffffffffffffffffffffffffffffffffff1673ffffffffffffffffffffffffffffffffffffffff16815260200182815260200180602001828103825260228152602001807fec849ced8faced84b020ecb0b8ec97ac2c20ed88acec9e90eab88820ebaaa8ea81526020017fb888000000000000000000000000000000000000000000000000000000000000815250604001945050505050602060405180830381600087803b158015612b2e57600080fd5b505af1158015612b42573d6000803e3d6000fd5b505050506040513d6020811015612b5857600080fd5b8101908080519060200190929190505050506000821115612d75578215612bd557612bac82600d86815481101515612b8c57fe5b90600052602060002090600602016001015461262a90919063ffffffff16565b600d85815481101515612bbb57fe5b906000526020600020906006020160010181905550612d59565b600b548710151515612c4f576040517f08c379a000000000000000000000000000000000000000000000000000000000815260040180806020018281038252600f8152602001807f76616c7565203c206d696e696d756d000000000000000000000000000000000081525060200191505060405180910390fd5b600d60c0604051908101604052808a73ffffffffffffffffffffffffffffffffffffffff168152602001848152602001600081526020016000815260200160008152602001600015158152509080600181540180825580915050906001820390600052602060002090600602016000909192909190915060008201518160000160006101000a81548173ffffffffffffffffffffffffffffffffffffffff021916908373ffffffffffffffffffffffffffffffffffffffff1602179055506020820151816001015560408201518160020155606082015181600301556080820151816004015560a08201518160050160006101000a81548160ff0219169083151502179055505050505b612d6e8260085461262a90919063ffffffff16565b6008819055505b6000811115612ebd578473ffffffffffffffffffffffffffffffffffffffff16634cbb72a889836040518363ffffffff167c0100000000000000000000000000000000000000000000000000000000028152600401808373ffffffffffffffffffffffffffffffffffffffff1673ffffffffffffffffffffffffffffffffffffffff16815260200182815260200180602001828103825260228152602001807fec849ced8faced84b020ecb0b8ec97ac2c20ed88acec9e90eab88820ed9998eb81526020017fb6880000000000000000000000000000000000000000000000000000000000008152506040019350505050602060405180830381600087803b158015612e8057600080fd5b505af1158015612e94573d6000803e3d6000fd5b505050506040513d6020811015612eaa57600080fd5b8101908080519060200190929190505050505b6009546008541415612ed257612ed1610666565b5b600560009054906101000a900473ffffffffffffffffffffffffffffffffffffffff1673ffffffffffffffffffffffffffffffffffffffff1663b3032be86040518163ffffffff167c0100000000000000000000000000000000000000000000000000000000028152600401602060405180830381600087803b158015612f5857600080fd5b505af1158015612f6c573d6000803e3d6000fd5b505050506040513d6020811015612f8257600080fd5b810190808051906020019092919050505073ffffffffffffffffffffffffffffffffffffffff1663da1ca0a889600660009054906101000a900473ffffffffffffffffffffffffffffffffffffffff16308660006040518663ffffffff167c0100000000000000000000000000000000000000000000000000000000028152600401808673ffffffffffffffffffffffffffffffffffffffff1673ffffffffffffffffffffffffffffffffffffffff1681526020018573ffffffffffffffffffffffffffffffffffffffff1673ffffffffffffffffffffffffffffffffffffffff1681526020018473ffffffffffffffffffffffffffffffffffffffff1673ffffffffffffffffffffffffffffffffffffffff1681526020018381526020018215151515815260200195505050505050600060405180830381600087803b1580156130cc57600080fd5b505af11580156130e0573d6000803e3d6000fd5b505050507f82ce56c9b6c69b5672ba57bc4aaa374c3af5d15a83e4113ec5548eb1333c922188600854600954600a548686604051808773ffffffffffffffffffffffffffffffffffffffff1673ffffffffffffffffffffffffffffffffffffffff168152602001868152602001858152602001848152602001838152602001828152602001965050505050505060405180910390a15050505050505050565b60008083831115151561319157600080fd5b82840390508091505092915050565b60008060008414156131b557600091506131d7565b82840290508284828115156131c657fe5b041415156131d357600080fd5b8091505b5092915050565b6000806000831115156131f057600080fd5b82848115156131fb57fe5b0490508091505092915050565b60008183106132175781613219565b825b905092915050565b60008383111580156132335750818411155b90509392505050565b60008060008090505b600d805490508110156132df578373ffffffffffffffffffffffffffffffffffffffff16600d8281548110151561327857fe5b906000526020600020906006020160000160009054906101000a900473ffffffffffffffffffffffffffffffffffffffff1673ffffffffffffffffffffffffffffffffffffffff1614156132d257806001925092506132e0565b8080600101915050613245565b5b50915091565b60008060008061330360085460095461317f90919063ffffffff16565b915061331a86600c5461317f90919063ffffffff16565b905061334185613333838561320890919063ffffffff16565b61320890919063ffffffff16565b9350613356848661317f90919063ffffffff16565b9250505092509290505600a165627a7a72305820e66422aa679bce1ce0f6dba8ec69382bd51657ed0eebaa13b45f5ff7681960d60029a165627a7a723058204b3aa9926bb1f7ae7b17fad2a2a0d1614803b74143d517914122dd0f78ee2f920029",
  "source": "pragma solidity ^0.4.24;\r\n\r\nimport \"contracts/interface/IContent.sol\";\r\nimport \"contracts/interface/IFundManager.sol\";\r\nimport \"contracts/interface/ICouncil.sol\";\r\n\r\nimport \"contracts/supporter/Fund.sol\";\r\nimport \"contracts/utils/ValidValue.sol\";\r\nimport \"contracts/utils/TimeLib.sol\";\r\n\r\ncontract FundManager is IFundManager, ExtendsOwnable, ValidValue {\r\n    using TimeLib for *;\r\n\r\n    mapping(address => address) funds;\r\n    address council;\r\n\r\n    constructor(address _council) public validAddress(_council){\r\n        council = _council;\r\n    }\r\n\r\n    /**\r\n    * @dev   \r\n    * @param _content   \r\n    * @param _startTime   \r\n    * @param _endTime   \r\n    * @param _limit 0:maxcap(  ), 1:softcap(   ), 2:minimum(1  ), 3:maximum(1  )\r\n    * @param _poolSize    \r\n    * @param _releaseInterval   \r\n    * @param _supportFirstTime      \r\n    * @param _distributionRate    \r\n    * @param _detail    \r\n    */\r\n    function createFund(\r\n        address _content,\r\n        uint256 _startTime,\r\n        uint256 _endTime,\r\n        uint256[] _limit,\r\n        uint256 _poolSize,\r\n        uint256 _releaseInterval,\r\n        uint256 _supportFirstTime,\r\n        uint256 _distributionRate,\r\n        string _detail)\r\n    external returns (address fund_) {\r\n        require(ICouncil(council).getApiFund() == msg.sender, \"msg sender is not ApiFund\");\r\n        require(funds[_content] == address(0), \"already fund\");\r\n\r\n        fund_ = new Fund(\r\n            council,\r\n            _content,\r\n            _startTime,\r\n            _endTime,\r\n            _limit[0],\r\n            _limit[1],\r\n            _limit[2],\r\n            _limit[3],\r\n            _poolSize,\r\n            _releaseInterval,\r\n            _supportFirstTime,\r\n            _distributionRate,\r\n            _detail);\r\n        \r\n        funds[_content] = fund_;\r\n\r\n        emit CreateFund(\r\n            fund_,\r\n            _content,\r\n            _startTime,\r\n            _endTime,\r\n            _limit,\r\n            _poolSize,\r\n            _releaseInterval,\r\n            _supportFirstTime,\r\n            _distributionRate,\r\n            _detail);\r\n    }\r\n\r\n    event CreateFund(\r\n        address indexed _fund,\r\n        address indexed _content,\r\n        uint256 _startTime,\r\n        uint256 _endTime,\r\n        uint256[] _limit,\r\n        uint256 _poolSize,\r\n        uint256 _releaseInterval,\r\n        uint256 _supportFirstTime,\r\n        uint256 _distributionRate,\r\n        string _detail\r\n    );\r\n\r\n    /**\r\n    * @dev    \r\n    * @param _content  \r\n    * @return fund_   \r\n    */\r\n    function getFund(address _content) external view returns (address fund_) {\r\n        return funds[_content];\r\n    }\r\n\r\n    /**\r\n    * @dev     \r\n    * @param _fund  \r\n    * @param _total  \r\n    * @return supporter_   \r\n    * @return amount_  \r\n    */\r\n    function distribution(address _fund, uint256 _total) external returns (address[] supporter_, uint256[] amount_) {\r\n        require(msg.sender == ICouncil(council).getPixelDistributor(), \"msg sender is not PixelDistributor\");\r\n\r\n        return Fund(_fund).distribution(_total);\r\n    }\r\n}\r\n",
  "sourcePath": "C:\\piction\\piction-poc\\contracts\\supporter\\FundManager.sol",
  "compiler": {
    "name": "solc",
    "version": "0.4.24+commit.e67f0147.Emscripten.clang"
  },
  "schemaVersion": "2.0.1",
  "updatedAt": "2018-11-12T08:33:16.350Z"
}