{
  "contractName": "Marketer",
  "abi": [
    {
      "constant": false,
      "inputs": [],
      "name": "generateMarketerKey",
      "outputs": [
        {
          "name": "",
          "type": "bytes32"
        }
      ],
      "payable": false,
      "stateMutability": "nonpayable",
      "type": "function"
    },
    {
      "constant": false,
      "inputs": [
        {
          "name": "_key",
          "type": "bytes32"
        }
      ],
      "name": "setMarketerKey",
      "outputs": [],
      "payable": false,
      "stateMutability": "nonpayable",
      "type": "function"
    },
    {
      "constant": true,
      "inputs": [
        {
          "name": "_key",
          "type": "bytes32"
        }
      ],
      "name": "getMarketerAddress",
      "outputs": [
        {
          "name": "",
          "type": "address"
        }
      ],
      "payable": false,
      "stateMutability": "view",
      "type": "function"
    }
  ],
  "bytecode": "0x608060405234801561001057600080fd5b506102c6806100206000396000f300608060405260043610610057576000357c0100000000000000000000000000000000000000000000000000000000900463ffffffff1680630a9ac3d01461005c57806311fdedb8146100cd578063fd55e9b9146100fe575b600080fd5b34801561006857600080fd5b5061008b6004803603810190808035600019169060200190929190505050610131565b604051808273ffffffffffffffffffffffffffffffffffffffff1673ffffffffffffffffffffffffffffffffffffffff16815260200191505060405180910390f35b3480156100d957600080fd5b506100fc6004803603810190808035600019169060200190929190505050610175565b005b34801561010a57600080fd5b506101136101d1565b60405180826000191660001916815260200191505060405180910390f35b6000806000836000191660001916815260200190815260200160002060009054906101000a900473ffffffffffffffffffffffffffffffffffffffff169050919050565b33600080836000191660001916815260200190815260200160002060006101000a81548173ffffffffffffffffffffffffffffffffffffffff021916908373ffffffffffffffffffffffffffffffffffffffff16021790555050565b60008033604051602001808273ffffffffffffffffffffffffffffffffffffffff1673ffffffffffffffffffffffffffffffffffffffff166c010000000000000000000000000281526014019150506040516020818303038152906040526040518082805190602001908083835b602083101515610264578051825260208201915060208101905060208303925061023f565b6001836020036101000a0380198251168184511680821785525050505050509050019150506040518091039020905080915050905600a165627a7a7230582010c811cea56e1141be5deffcc99c57bbfbe626a5a55d2195beb76b90466abc590029",
  "source": "pragma solidity ^0.4.24;\r\n\r\nimport \"contracts/interface/IMarketer.sol\";\r\n\r\n/**\r\n * @title Marketer contract\r\n *\r\n * @author Junghoon Seo - <jh.seo@battleent.com>\r\n */\r\ncontract Marketer is IMarketer {\r\n    mapping (bytes32 => address) marketerInfo;\r\n\r\n    function generateMarketerKey() external returns(bytes32) {\r\n        bytes32 key = bytes32(keccak256(abi.encodePacked(msg.sender)));\r\n        return key;\r\n    }\r\n\r\n    function setMarketerKey(bytes32 _key) external {\r\n        marketerInfo[_key] = msg.sender;\r\n    }\r\n\r\n    function getMarketerAddress(bytes32 _key) external view returns(address) {\r\n        return marketerInfo[_key];\r\n    }\r\n}\r\n",
  "sourcePath": "C:\\piction\\piction-poc\\contracts\\marketer\\Marketer.sol",
  "compiler": {
    "name": "solc",
    "version": "0.4.24+commit.e67f0147.Emscripten.clang"
  },
  "schemaVersion": "2.0.1",
  "updatedAt": "2018-11-12T08:33:33.258Z"
}