{
  "contractName": "PxlDistributor",
  "abi": [
    {
      "constant": true,
      "inputs": [],
      "name": "DECIMALS",
      "outputs": [
        {
          "name": "",
          "type": "uint256"
        }
      ],
      "payable": false,
      "stateMutability": "view",
      "type": "function"
    },
    {
      "constant": false,
      "inputs": [],
      "name": "renounceOwnership",
      "outputs": [],
      "payable": false,
      "stateMutability": "nonpayable",
      "type": "function"
    },
    {
      "constant": true,
      "inputs": [],
      "name": "owner",
      "outputs": [
        {
          "name": "",
          "type": "address"
        }
      ],
      "payable": false,
      "stateMutability": "view",
      "type": "function"
    },
    {
      "constant": true,
      "inputs": [],
      "name": "isOwner",
      "outputs": [
        {
          "name": "",
          "type": "bool"
        }
      ],
      "payable": false,
      "stateMutability": "view",
      "type": "function"
    },
    {
      "constant": true,
      "inputs": [],
      "name": "PURCHASE_PARAM_COUNT",
      "outputs": [
        {
          "name": "",
          "type": "uint256"
        }
      ],
      "payable": false,
      "stateMutability": "view",
      "type": "function"
    },
    {
      "constant": false,
      "inputs": [
        {
          "name": "newOwner",
          "type": "address"
        }
      ],
      "name": "transferOwnership",
      "outputs": [],
      "payable": false,
      "stateMutability": "nonpayable",
      "type": "function"
    },
    {
      "inputs": [
        {
          "name": "_councilAddr",
          "type": "address"
        }
      ],
      "payable": false,
      "stateMutability": "nonpayable",
      "type": "constructor"
    },
    {
      "anonymous": false,
      "inputs": [
        {
          "indexed": false,
          "name": "_sender",
          "type": "address"
        },
        {
          "indexed": false,
          "name": "_pxl",
          "type": "uint256"
        }
      ],
      "name": "InvalidJsonParameter",
      "type": "event"
    },
    {
      "anonymous": false,
      "inputs": [
        {
          "indexed": true,
          "name": "_to",
          "type": "address"
        },
        {
          "indexed": false,
          "name": "_pxlAmount",
          "type": "uint256"
        }
      ],
      "name": "TransferDistributePxl",
      "type": "event"
    },
    {
      "anonymous": false,
      "inputs": [
        {
          "indexed": true,
          "name": "previousOwner",
          "type": "address"
        },
        {
          "indexed": true,
          "name": "newOwner",
          "type": "address"
        }
      ],
      "name": "OwnershipTransferred",
      "type": "event"
    },
    {
      "constant": false,
      "inputs": [
        {
          "name": "_from",
          "type": "address"
        },
        {
          "name": "_value",
          "type": "uint256"
        },
        {
          "name": "_token",
          "type": "address"
        },
        {
          "name": "_data",
          "type": "bytes"
        }
      ],
      "name": "receiveApproval",
      "outputs": [],
      "payable": false,
      "stateMutability": "nonpayable",
      "type": "function"
    }
  ],
  "bytecode": "0x60806040523480156200001157600080fd5b50604051602080620029db83398101806040528101908080519060200190929190505050336000806101000a81548173ffffffffffffffffffffffffffffffffffffffff021916908373ffffffffffffffffffffffffffffffffffffffff1602179055506000809054906101000a900473ffffffffffffffffffffffffffffffffffffffff1673ffffffffffffffffffffffffffffffffffffffff16600073ffffffffffffffffffffffffffffffffffffffff167f8be0079c531659141344cd1fd0a4f28419497f9722a3daafe3b4186f6b6457e060405160405180910390a380600073ffffffffffffffffffffffffffffffffffffffff168173ffffffffffffffffffffffffffffffffffffffff16141515156200012f57600080fd5b3073ffffffffffffffffffffffffffffffffffffffff168173ffffffffffffffffffffffffffffffffffffffff16141515156200016b57600080fd5b81600260006101000a81548173ffffffffffffffffffffffffffffffffffffffff021916908373ffffffffffffffffffffffffffffffffffffffff160217905550600260009054906101000a900473ffffffffffffffffffffffffffffffffffffffff1673ffffffffffffffffffffffffffffffffffffffff166321df0da76040518163ffffffff167c0100000000000000000000000000000000000000000000000000000000028152600401602060405180830381600087803b1580156200023357600080fd5b505af115801562000248573d6000803e3d6000fd5b505050506040513d60208110156200025f57600080fd5b8101908080519060200190929190505050600160006101000a81548173ffffffffffffffffffffffffffffffffffffffff021916908373ffffffffffffffffffffffffffffffffffffffff160217905550505061271980620002c26000396000f300608060405260043610610083576000357c0100000000000000000000000000000000000000000000000000000000900463ffffffff1680632e0f262514610088578063715018a6146100b35780638da5cb5b146100ca5780638f32d59b146101215780638f4ffcb11461015057806399b552eb14610203578063f2fde38b1461022e575b600080fd5b34801561009457600080fd5b5061009d610271565b6040518082815260200191505060405180910390f35b3480156100bf57600080fd5b506100c861027d565b005b3480156100d657600080fd5b506100df61034f565b604051808273ffffffffffffffffffffffffffffffffffffffff1673ffffffffffffffffffffffffffffffffffffffff16815260200191505060405180910390f35b34801561012d57600080fd5b50610136610378565b604051808215151515815260200191505060405180910390f35b34801561015c57600080fd5b50610201600480360381019080803573ffffffffffffffffffffffffffffffffffffffff16906020019092919080359060200190929190803573ffffffffffffffffffffffffffffffffffffffff169060200190929190803590602001908201803590602001908080601f01602080910402602001604051908101604052809392919081815260200183838082843782019150505050505091929192905050506103cf565b005b34801561020f57600080fd5b50610218610cca565b6040518082815260200191505060405180910390f35b34801561023a57600080fd5b5061026f600480360381019080803573ffffffffffffffffffffffffffffffffffffffff169060200190929190505050610ccf565b005b670de0b6b3a764000081565b610285610378565b151561029057600080fd5b600073ffffffffffffffffffffffffffffffffffffffff166000809054906101000a900473ffffffffffffffffffffffffffffffffffffffff1673ffffffffffffffffffffffffffffffffffffffff167f8be0079c531659141344cd1fd0a4f28419497f9722a3daafe3b4186f6b6457e060405160405180910390a360008060006101000a81548173ffffffffffffffffffffffffffffffffffffffff021916908373ffffffffffffffffffffffffffffffffffffffff160217905550565b60008060009054906101000a900473ffffffffffffffffffffffffffffffffffffffff16905090565b60008060009054906101000a900473ffffffffffffffffffffffffffffffffffffffff1673ffffffffffffffffffffffffffffffffffffffff163373ffffffffffffffffffffffffffffffffffffffff1614905090565b60008060008673ffffffffffffffffffffffffffffffffffffffff163073ffffffffffffffffffffffffffffffffffffffff1614151515610478576040517f08c379a00000000000000000000000000000000000000000000000000000000081526004018080602001828103825260168152602001807f496e76616c696420627579657220616464726573732e0000000000000000000081525060200191505060405180910390fd5b8473ffffffffffffffffffffffffffffffffffffffff16600160009054906101000a900473ffffffffffffffffffffffffffffffffffffffff1673ffffffffffffffffffffffffffffffffffffffff1614151561053d576040517f08c379a000000000000000000000000000000000000000000000000000000000815260040180806020018281038252601c8152602001807f496e76616c696420506978656c20746f6b656e20616464726573732e0000000081525060200191505060405180910390fd5b600260009054906101000a900473ffffffffffffffffffffffffffffffffffffffff1673ffffffffffffffffffffffffffffffffffffffff1663592c48186040518163ffffffff167c0100000000000000000000000000000000000000000000000000000000028152600401602060405180830381600087803b1580156105c357600080fd5b505af11580156105d7573d6000803e3d6000fd5b505050506040513d60208110156105ed57600080fd5b81019080805190602001909291905050509250610614600085610cee90919063ffffffff16565b915061062a601485610d2690919063ffffffff16565b905061063583610d4f565b15156106cf576040517f08c379a00000000000000000000000000000000000000000000000000000000081526004018080602001828103825260258152602001807f496e76616c696420636f6e74656e7473206469737472696275746f722061646481526020017f726573732e00000000000000000000000000000000000000000000000000000081525060400191505060405180910390fd5b6106d882610d4f565b151561074c576040517f08c379a00000000000000000000000000000000000000000000000000000000081526004018080602001828103825260198152602001807f496e76616c696420636f6e74656e747320616464726573732e0000000000000081525060200191505060405180910390fd5b6000861115610a475785600160009054906101000a900473ffffffffffffffffffffffffffffffffffffffff1673ffffffffffffffffffffffffffffffffffffffff166370a08231896040518263ffffffff167c0100000000000000000000000000000000000000000000000000000000028152600401808273ffffffffffffffffffffffffffffffffffffffff1673ffffffffffffffffffffffffffffffffffffffff168152602001915050602060405180830381600087803b15801561081357600080fd5b505af1158015610827573d6000803e3d6000fd5b505050506040513d602081101561083d57600080fd5b8101908080519060200190929190505050101515156108c4576040517f08c379a00000000000000000000000000000000000000000000000000000000081526004018080602001828103825260198152602001807f436865636b20627579657220746f6b656e20616d6f756e742e0000000000000081525060200191505060405180910390fd5b600160009054906101000a900473ffffffffffffffffffffffffffffffffffffffff1673ffffffffffffffffffffffffffffffffffffffff166369b5a4618830896040518463ffffffff167c0100000000000000000000000000000000000000000000000000000000028152600401808473ffffffffffffffffffffffffffffffffffffffff1673ffffffffffffffffffffffffffffffffffffffff1681526020018373ffffffffffffffffffffffffffffffffffffffff1673ffffffffffffffffffffffffffffffffffffffff16815260200182815260200180602001828103825260138152602001807fec9790ed94bcec868ceb939c20eab5aceba7a400000000000000000000000000815250602001945050505050602060405180830381600087803b1580156109f657600080fd5b505af1158015610a0a573d6000803e3d6000fd5b505050506040513d6020811015610a2057600080fd5b810190808051906020019092919050505050610a3a610dcf565b610a4687848689610ddf565b5b8173ffffffffffffffffffffffffffffffffffffffff1663d89fb9198289896040518463ffffffff167c0100000000000000000000000000000000000000000000000000000000028152600401808481526020018373ffffffffffffffffffffffffffffffffffffffff1673ffffffffffffffffffffffffffffffffffffffff1681526020018281526020019350505050600060405180830381600087803b158015610af257600080fd5b505af1158015610b06573d6000803e3d6000fd5b50505050600260009054906101000a900473ffffffffffffffffffffffffffffffffffffffff1673ffffffffffffffffffffffffffffffffffffffff1663b3032be86040518163ffffffff167c0100000000000000000000000000000000000000000000000000000000028152600401602060405180830381600087803b158015610b9057600080fd5b505af1158015610ba4573d6000803e3d6000fd5b505050506040513d6020811015610bba57600080fd5b810190808051906020019092919050505073ffffffffffffffffffffffffffffffffffffffff16635f695cfe8884848a6040518563ffffffff167c0100000000000000000000000000000000000000000000000000000000028152600401808573ffffffffffffffffffffffffffffffffffffffff1673ffffffffffffffffffffffffffffffffffffffff1681526020018473ffffffffffffffffffffffffffffffffffffffff1673ffffffffffffffffffffffffffffffffffffffff168152602001838152602001828152602001945050505050600060405180830381600087803b158015610ca957600080fd5b505af1158015610cbd573d6000803e3d6000fd5b5050505050505050505050565b600981565b610cd7610378565b1515610ce257600080fd5b610ceb8161189e565b50565b60008060148301845110151515610d0457600080fd5b6c01000000000000000000000000836020860101510490508091505092915050565b60008060208301845110151515610d3c57600080fd5b8260208501015190508091505092915050565b60003073ffffffffffffffffffffffffffffffffffffffff168273ffffffffffffffffffffffffffffffffffffffff1614158015610dba5750600073ffffffffffffffffffffffffffffffffffffffff168273ffffffffffffffffffffffffffffffffffffffff1614155b610dc5576000610dc8565b60015b9050919050565b60036000610ddd9190612492565b565b600080600060606000859350610dff600088610cee90919063ffffffff16565b9250610ecb86600260009054906101000a900473ffffffffffffffffffffffffffffffffffffffff1673ffffffffffffffffffffffffffffffffffffffff1663cf6efb496040518163ffffffff167c0100000000000000000000000000000000000000000000000000000000028152600401602060405180830381600087803b158015610e8b57600080fd5b505af1158015610e9f573d6000803e3d6000fd5b505050506040513d6020811015610eb557600080fd5b8101908080519060200190929190505050611998565b9450610ee085856119cf90919063ffffffff16565b9350600360a0604051908101604052808781526020016000151581526020018a73ffffffffffffffffffffffffffffffffffffffff16815260200160006040519080825280601f01601f191660200182016040528015610f4f5781602001602082028038833980820191505090505b5081526020016040805190810160405280601681526020017f434420ed948ceb9eabed8fbc20ec8898ec8898eba38c00000000000000000000815250815250908060018154018082558091505090600182039060005260206000209060040201600090919290919091506000820151816000015560208201518160010160006101000a81548160ff02191690831515021790555060408201518160010160016101000a81548173ffffffffffffffffffffffffffffffffffffffff021916908373ffffffffffffffffffffffffffffffffffffffff16021790555060608201518160020190805190602001906110469291906124b6565b506080820151816003019080519060200190611063929190612536565b50505050611070896119f0565b91506110858783611a2490919063ffffffff16565b915061115186600260009054906101000a900473ffffffffffffffffffffffffffffffffffffffff1673ffffffffffffffffffffffffffffffffffffffff16631250ca3d6040518163ffffffff167c0100000000000000000000000000000000000000000000000000000000028152600401602060405180830381600087803b15801561111157600080fd5b505af1158015611125573d6000803e3d6000fd5b505050506040513d602081101561113b57600080fd5b8101908080519060200190929190505050611998565b945061116685856119cf90919063ffffffff16565b9350600360a060405190810160405280878152602001600115158152602001600260009054906101000a900473ffffffffffffffffffffffffffffffffffffffff1673ffffffffffffffffffffffffffffffffffffffff16632d118bbf6040518163ffffffff167c0100000000000000000000000000000000000000000000000000000000028152600401602060405180830381600087803b15801561120b57600080fd5b505af115801561121f573d6000803e3d6000fd5b505050506040513d602081101561123557600080fd5b810190808051906020019092919050505073ffffffffffffffffffffffffffffffffffffffff1681526020018481526020016020604051908101604052806000815250815250908060018154018082558091505090600182039060005260206000209060040201600090919290919091506000820151816000015560208201518160010160006101000a81548160ff02191690831515021790555060408201518160010160016101000a81548173ffffffffffffffffffffffffffffffffffffffff021916908373ffffffffffffffffffffffffffffffffffffffff16021790555060608201518160020190805190602001906113339291906124b6565b506080820151816003019080519060200190611350929190612536565b50505050600260009054906101000a900473ffffffffffffffffffffffffffffffffffffffff1673ffffffffffffffffffffffffffffffffffffffff1663553908ae6040518163ffffffff167c0100000000000000000000000000000000000000000000000000000000028152600401602060405180830381600087803b1580156113da57600080fd5b505af11580156113ee573d6000803e3d6000fd5b505050506040513d602081101561140457600080fd5b810190808051906020019092919050505015611439576114366114278486611aae565b856119cf90919063ffffffff16565b93505b600084111561166a57600360a0604051908101604052808681526020016000151581526020018573ffffffffffffffffffffffffffffffffffffffff1663d66e57266040518163ffffffff167c0100000000000000000000000000000000000000000000000000000000028152600401602060405180830381600087803b1580156114c357600080fd5b505af11580156114d7573d6000803e3d6000fd5b505050506040513d60208110156114ed57600080fd5b810190808051906020019092919050505073ffffffffffffffffffffffffffffffffffffffff16815260200160006040519080825280601f01601f19166020018201604052801561154d5781602001602082028038833980820191505090505b5081526020016040805190810160405280601781526020017fecbba8ed8590ecb8a020ed8c90eba7a420ec8898ec9db5000000000000000000815250815250908060018154018082558091505090600182039060005260206000209060040201600090919290919091506000820151816000015560208201518160010160006101000a81548160ff02191690831515021790555060408201518160010160016101000a81548173ffffffffffffffffffffffffffffffffffffffff021916908373ffffffffffffffffffffffffffffffffffffffff16021790555060608201518160020190805190602001906116449291906124b6565b506080820151816003019080519060200190611661929190612536565b50505050600093505b600090505b6003805490508110156118935761188660038281548110151561168e57fe5b906000526020600020906004020160010160019054906101000a900473ffffffffffffffffffffffffffffffffffffffff166003838154811015156116cf57fe5b9060005260206000209060040201600001546003848154811015156116f057fe5b906000526020600020906004020160010160009054906101000a900460ff1660038581548110151561171e57fe5b90600052602060002090600402016002018054600181600116156101000203166002900480601f0160208091040260200160405190810160405280929190818152602001828054600181600116156101000203166002900480156117c35780601f10611798576101008083540402835291602001916117c3565b820191906000526020600020905b8154815290600101906020018083116117a657829003601f168201915b50505050506003868154811015156117d757fe5b90600052602060002090600402016003018054600181600116156101000203166002900480601f01602080910402602001604051908101604052809291908181526020018280546001816001161561010002031660029004801561187c5780601f106118515761010080835404028352916020019161187c565b820191906000526020600020905b81548152906001019060200180831161185f57829003601f168201915b5050505050612055565b808060010191505061166f565b505050505050505050565b600073ffffffffffffffffffffffffffffffffffffffff168173ffffffffffffffffffffffffffffffffffffffff16141515156118da57600080fd5b8073ffffffffffffffffffffffffffffffffffffffff166000809054906101000a900473ffffffffffffffffffffffffffffffffffffffff1673ffffffffffffffffffffffffffffffffffffffff167f8be0079c531659141344cd1fd0a4f28419497f9722a3daafe3b4186f6b6457e060405160405180910390a3806000806101000a81548173ffffffffffffffffffffffffffffffffffffffff021916908373ffffffffffffffffffffffffffffffffffffffff16021790555050565b60006119c7670de0b6b3a76400006119b9848661239290919063ffffffff16565b6123d090919063ffffffff16565b905092915050565b6000808383111515156119e157600080fd5b82840390508091505092915050565b6060611a1d60608373ffffffffffffffffffffffffffffffffffffffff169060020a0260010260146123fa565b9050919050565b6060806040519050835180825260208201818101602087015b81831015611a5a5780518352602083019250602081019050611a3d565b50855192508351830184528091508282019050602086015b81831015611a8f5780518352602083019250602081019050611a72565b50601f19601f8851850115830101166040525050508091505092915050565b6000806000806060806000879550600260009054906101000a900473ffffffffffffffffffffffffffffffffffffffff1673ffffffffffffffffffffffffffffffffffffffff16636c7113e46040518163ffffffff167c0100000000000000000000000000000000000000000000000000000000028152600401602060405180830381600087803b158015611b4257600080fd5b505af1158015611b56573d6000803e3d6000fd5b505050506040513d6020811015611b6c57600080fd5b810190808051906020019092919050505094508473ffffffffffffffffffffffffffffffffffffffff1663b42c1d408a6040518263ffffffff167c0100000000000000000000000000000000000000000000000000000000028152600401808273ffffffffffffffffffffffffffffffffffffffff1673ffffffffffffffffffffffffffffffffffffffff168152602001915050602060405180830381600087803b158015611c1a57600080fd5b505af1158015611c2e573d6000803e3d6000fd5b505050506040513d6020811015611c4457600080fd5b81019080805190602001909291905050509350600073ffffffffffffffffffffffffffffffffffffffff168473ffffffffffffffffffffffffffffffffffffffff161415611c9157612049565b8473ffffffffffffffffffffffffffffffffffffffff166320f96bb885886040518363ffffffff167c0100000000000000000000000000000000000000000000000000000000028152600401808373ffffffffffffffffffffffffffffffffffffffff1673ffffffffffffffffffffffffffffffffffffffff16815260200182815260200192505050600060405180830381600087803b158015611d3457600080fd5b505af1158015611d48573d6000803e3d6000fd5b505050506040513d6000823e3d601f19601f820116820180604052506040811015611d7257600080fd5b810190808051640100000000811115611d8a57600080fd5b82810190506020810184811115611da057600080fd5b8151856020820283011164010000000082111715611dbd57600080fd5b50509291906020018051640100000000811115611dd957600080fd5b82810190506020810184811115611def57600080fd5b8151856020820283011164010000000082111715611e0c57600080fd5b505092919050505092509250600090505b82518110156120335760008282815181101515611e3657fe5b90602001906020020151111561202657611e708282815181101515611e5757fe5b906020019060200201518861247190919063ffffffff16565b9650600360a0604051908101604052808484815181101515611e8e57fe5b9060200190602002015181526020016000151581526020018584815181101515611eb457fe5b9060200190602002015173ffffffffffffffffffffffffffffffffffffffff16815260200160006040519080825280601f01601f191660200182016040528015611f0d5781602001602082028038833980820191505090505b5081526020016040805190810160405280601781526020017fec849ced8faced84b020ec8898ec9db520ebb0b0ebb684000000000000000000815250815250908060018154018082558091505090600182039060005260206000209060040201600090919290919091506000820151816000015560208201518160010160006101000a81548160ff02191690831515021790555060408201518160010160016101000a81548173ffffffffffffffffffffffffffffffffffffffff021916908373ffffffffffffffffffffffffffffffffffffffff16021790555060608201518160020190805190602001906120049291906124b6565b506080820151816003019080519060200190612021929190612536565b505050505b8080600101915050611e1d565b61204687876119cf90919063ffffffff16565b95505b50505050505092915050565b82156121ce57600160009054906101000a900473ffffffffffffffffffffffffffffffffffffffff1673ffffffffffffffffffffffffffffffffffffffff1663cae9ca518686856040518463ffffffff167c0100000000000000000000000000000000000000000000000000000000028152600401808473ffffffffffffffffffffffffffffffffffffffff1673ffffffffffffffffffffffffffffffffffffffff16815260200183815260200180602001828103825283818151815260200191508051906020019080838360005b8381101561213f578082015181840152602081019050612124565b50505050905090810190601f16801561216c5780820380516001836020036101000a031916815260200191505b50945050505050602060405180830381600087803b15801561218d57600080fd5b505af11580156121a1573d6000803e3d6000fd5b505050506040513d60208110156121b757600080fd5b81019080805190602001909291905050505061233d565b600160009054906101000a900473ffffffffffffffffffffffffffffffffffffffff1673ffffffffffffffffffffffffffffffffffffffff16634cbb72a88686846040518463ffffffff167c0100000000000000000000000000000000000000000000000000000000028152600401808473ffffffffffffffffffffffffffffffffffffffff1673ffffffffffffffffffffffffffffffffffffffff16815260200183815260200180602001828103825283818151815260200191508051906020019080838360005b838110156122b2578082015181840152602081019050612297565b50505050905090810190601f1680156122df5780820380516001836020036101000a031916815260200191505b50945050505050602060405180830381600087803b15801561230057600080fd5b505af1158015612314573d6000803e3d6000fd5b505050506040513d602081101561232a57600080fd5b8101908080519060200190929190505050505b8473ffffffffffffffffffffffffffffffffffffffff167f3e985be05d6abdb7c6c57199571a38d854fff0d99b7a47e6e9a08a6e82b7fec5856040518082815260200191505060405180910390a25050505050565b60008060008414156123a757600091506123c9565b82840290508284828115156123b857fe5b041415156123c557600080fd5b8091505b5092915050565b6000806000831115156123e257600080fd5b82848115156123ed57fe5b0490508091505092915050565b6060600060208360ff161115151561241157600080fd5b8260ff166040519080825280601f01601f1916602001820160405280156124475781602001602082028038833980820191505090505b5091506008836020030260ff166000199060020a0284600190041690508060208301525092915050565b600080828401905083811015151561248857600080fd5b8091505092915050565b50805460008255600402906000526020600020908101906124b391906125b6565b50565b828054600181600116156101000203166002900490600052602060002090601f016020900481019282601f106124f757805160ff1916838001178555612525565b82800160010185558215612525579182015b82811115612524578251825591602001919060010190612509565b5b5090506125329190612638565b5090565b828054600181600116156101000203166002900490600052602060002090601f016020900481019282601f1061257757805160ff19168380011785556125a5565b828001600101855582156125a5579182015b828111156125a4578251825591602001919060010190612589565b5b5090506125b29190612638565b5090565b61263591905b80821115612631576000808201600090556001820160006101000a81549060ff02191690556001820160016101000a81549073ffffffffffffffffffffffffffffffffffffffff0219169055600282016000612618919061265d565b60038201600061262891906126a5565b506004016125bc565b5090565b90565b61265a91905b8082111561265657600081600090555060010161263e565b5090565b90565b50805460018160011615610100020316600290046000825580601f1061268357506126a2565b601f0160209004906000526020600020908101906126a19190612638565b5b50565b50805460018160011615610100020316600290046000825580601f106126cb57506126ea565b601f0160209004906000526020600020908101906126e99190612638565b5b505600a165627a7a72305820320e56f196a92dcc85de50de27f7cf6bdeb9bd5569647078a61eb5c81da8163e0029",
  "source": "pragma solidity ^0.4.24;\r\n\r\nimport \"openzeppelin-solidity/contracts/token/ERC20/ERC20.sol\";\r\nimport \"openzeppelin-solidity/contracts/token/ERC20/SafeERC20.sol\";\r\nimport \"openzeppelin-solidity/contracts/ownership/Ownable.sol\";\r\n\r\nimport \"contracts/interface/ICouncil.sol\";\r\nimport \"contracts/interface/IContent.sol\";\r\nimport \"contracts/interface/IFundManager.sol\";\r\nimport \"contracts/interface/IAccountManager.sol\";\r\n\r\nimport \"contracts/token/CustomToken.sol\";\r\nimport \"contracts/token/ContractReceiver.sol\";\r\nimport \"contracts/utils/ValidValue.sol\";\r\nimport \"contracts/utils/BytesLib.sol\";\r\n\r\ncontract PxlDistributor is Ownable, ContractReceiver, ValidValue {\r\n    using SafeMath for uint256;\r\n    using SafeERC20 for ERC20;\r\n    using BytesLib for bytes;\r\n\r\n    struct DistributionDetail {\r\n        uint256 tokenAmount;\r\n        bool isCustomToken;\r\n        address transferAddress;\r\n        bytes param;\r\n        string message;\r\n    }\r\n\r\n    uint256 public constant DECIMALS = 10 ** 18;\r\n    uint256 public constant PURCHASE_PARAM_COUNT = 9;\r\n\r\n    ERC20 token;\r\n    ICouncil council;\r\n    DistributionDetail[] distribution;\r\n\r\n    constructor(address _councilAddr)\r\n        public\r\n        validAddress(_councilAddr)\r\n    {\r\n        council = ICouncil(_councilAddr);\r\n        token = ERC20(council.getToken());\r\n    }\r\n\r\n    function receiveApproval(address _from, uint256 _value, address _token, bytes _data)\r\n        public\r\n    {\r\n        require(address(this) != _from, \"Invalid buyer address.\");\r\n        require(address(token) == _token, \"Invalid Pixel token address.\");\r\n\r\n        // address cdAddr = _data.toAddress(0);\r\n        // address contentAddr = _data.toAddress(20);\r\n        // uint256 idx = _data.toUint(60);\r\n\r\n        //PoC  \r\n        address cdAddr = council.getContentsDistributor();\r\n        address contentAddr = _data.toAddress(0);\r\n        uint256 idx = _data.toUint(20);\r\n\r\n        require(_customValidAddress(cdAddr), \"Invalid contents distributor address.\");\r\n        require(_customValidAddress(contentAddr), \"Invalid contents address.\");\r\n\r\n        // paid contents\r\n        if(_value > 0) {\r\n            require(token.balanceOf(_from) >= _value, \"Check buyer token amount.\");\r\n            CustomToken(address(token)).transferFromPxl(_from, address(this), _value, \" \");\r\n\r\n            // clear DistributionDetail array\r\n            _clearDistributionDetail();\r\n\r\n            _purchaseTokenDistribution(_from, cdAddr, _data, _value);\r\n\r\n        }\r\n\r\n        // update episode purchase\r\n        IContent(contentAddr).episodePurchase(idx, _from, _value);\r\n\r\n        // update user purchase history\r\n        IAccountManager(council.getAccountManager()).setPurchaseHistory(_from, contentAddr, idx, _value);\r\n    }\r\n\r\n    function _purchaseTokenDistribution(\r\n        address _buyerAddress,\r\n        address _contentDistributor,\r\n        bytes _data,\r\n        uint256 _purchaseAmount\r\n    )\r\n        private\r\n    {\r\n        uint256 tempVar;\r\n        uint256 compareAmount = _purchaseAmount;\r\n        address _contentAddress = _data.toAddress(0);\r\n\r\n        //cd amount\r\n        tempVar = _getRateToPxlAmount(_purchaseAmount, council.getCdRate());\r\n        compareAmount = compareAmount.sub(tempVar);\r\n        distribution.push(\r\n            DistributionDetail(\r\n                tempVar, false, _contentDistributor, new bytes(0), \"CD  \"\r\n            )\r\n        );\r\n\r\n        //user payback pool amount\r\n        bytes memory paybackParam = BytesLib.toBytes(_buyerAddress);\r\n        paybackParam = paybackParam.concat(_data);\r\n        tempVar = _getRateToPxlAmount(_purchaseAmount, council.getUserPaybackRate());\r\n        compareAmount = compareAmount.sub(tempVar);\r\n        distribution.push(\r\n            DistributionDetail(\r\n                tempVar, true, council.getUserPaybackPool(), paybackParam, \"\"\r\n            )\r\n        );\r\n\r\n        //supporter amount\r\n        if(council.getFundAvailable()) {\r\n            compareAmount = compareAmount.sub(_supportersAmount(_contentAddress, compareAmount));\r\n        }\r\n\r\n        // cp amount\r\n        if(compareAmount > 0) {\r\n            distribution.push(\r\n                DistributionDetail(\r\n                    compareAmount, false, IContent(_contentAddress).getWriter(), new bytes(0), \"  \"\r\n\r\n                )\r\n            );\r\n            compareAmount = 0;\r\n        }\r\n\r\n        // transfer\r\n        for(uint256 i = 0 ; i < distribution.length ; i ++) {\r\n            _transferDistributePxl(\r\n                distribution[i].transferAddress,\r\n                distribution[i].tokenAmount,\r\n                distribution[i].isCustomToken,\r\n                distribution[i].param,\r\n                distribution[i].message\r\n            );\r\n        }\r\n    }\r\n\r\n    function _supportersAmount(address _content, uint256 _amount)\r\n        private\r\n        returns (uint256 compareAmount)\r\n    {\r\n        uint256 amount = _amount;\r\n\r\n        IFundManager fund = IFundManager(council.getFundManager());\r\n        address fundAddress = fund.getFund(_content);\r\n\r\n        if(fundAddress == address(0)) {\r\n            return;\r\n        }\r\n\r\n        (address[] memory supporterAddress, uint256[] memory supporterAmount) = fund.distribution(fundAddress, amount);\r\n\r\n        for(uint256 j = 0 ; j < supporterAddress.length ; j++) {\r\n            if(supporterAmount[j] > 0) {\r\n                compareAmount = compareAmount.add(supporterAmount[j]);\r\n                distribution.push(\r\n                    DistributionDetail(\r\n                        supporterAmount[j], false, supporterAddress[j], new bytes(0), \"  \"\r\n                    )\r\n                );\r\n            }\r\n        }\r\n\r\n        amount = amount.sub(compareAmount);\r\n    }\r\n\r\n    function _clearDistributionDetail()\r\n        private\r\n    {\r\n        delete distribution;\r\n    }\r\n\r\n    function _getRateToPxlAmount(uint256 _amount, uint256 _rate)\r\n        private\r\n        pure\r\n        returns (uint256)\r\n    {\r\n        return _amount.mul(_rate).div(DECIMALS);\r\n    }\r\n\r\n    function _transferDistributePxl(address _to, uint256 _amount, bool _isCustom, bytes _param, string message)\r\n        private\r\n    {\r\n        if(_isCustom) {\r\n            CustomToken(address(token)).approveAndCall(_to, _amount, _param);\r\n        } else {\r\n            CustomToken(address(token)).transferPxl(_to, _amount, message);\r\n        }\r\n\r\n        emit TransferDistributePxl(_to, _amount);\r\n    }\r\n\r\n    function _customValidAddress(address _address)\r\n        private\r\n        view\r\n        returns (bool)\r\n    {\r\n        return (_address != address(this) && _address != address(0)) ? true : false;\r\n    }\r\n\r\n    event InvalidJsonParameter(address _sender, uint256 _pxl);\r\n    event TransferDistributePxl(address indexed _to, uint256 _pxlAmount);\r\n}\r\n",
  "sourcePath": "C:\\piction\\piction-poc\\contracts\\distributor\\PxlDistributor.sol",
  "compiler": {
    "name": "solc",
    "version": "0.4.24+commit.e67f0147.Emscripten.clang"
  },
  "schemaVersion": "2.0.1",
  "updatedAt": "2018-11-12T08:33:24.838Z"
}