{
  "contractName": "Report",
  "abi": [
    {
      "constant": false,
      "inputs": [
        {
          "name": "guest",
          "type": "address"
        }
      ],
      "name": "addOwner",
      "outputs": [],
      "payable": false,
      "stateMutability": "nonpayable",
      "type": "function"
    },
    {
      "constant": false,
      "inputs": [
        {
          "name": "newOwner",
          "type": "address"
        }
      ],
      "name": "transferOwnership",
      "outputs": [],
      "payable": false,
      "stateMutability": "nonpayable",
      "type": "function"
    },
    {
      "inputs": [
        {
          "name": "_councilAddress",
          "type": "address"
        }
      ],
      "payable": false,
      "stateMutability": "nonpayable",
      "type": "constructor"
    },
    {
      "anonymous": false,
      "inputs": [
        {
          "indexed": false,
          "name": "_date",
          "type": "uint256"
        },
        {
          "indexed": false,
          "name": "_from",
          "type": "address"
        },
        {
          "indexed": false,
          "name": "_value",
          "type": "uint256"
        }
      ],
      "name": "RegistrationFee",
      "type": "event"
    },
    {
      "anonymous": false,
      "inputs": [
        {
          "indexed": false,
          "name": "_reporter",
          "type": "address"
        },
        {
          "indexed": false,
          "name": "_amount",
          "type": "uint256"
        }
      ],
      "name": "Deduction",
      "type": "event"
    },
    {
      "anonymous": false,
      "inputs": [
        {
          "indexed": false,
          "name": "_reporter",
          "type": "address"
        }
      ],
      "name": "ReporterBlock",
      "type": "event"
    },
    {
      "anonymous": false,
      "inputs": [
        {
          "indexed": false,
          "name": "_date",
          "type": "uint256"
        },
        {
          "indexed": true,
          "name": "_index",
          "type": "uint256"
        },
        {
          "indexed": true,
          "name": "_content",
          "type": "address"
        },
        {
          "indexed": true,
          "name": "_from",
          "type": "address"
        },
        {
          "indexed": false,
          "name": "_detail",
          "type": "string"
        }
      ],
      "name": "SendReport",
      "type": "event"
    },
    {
      "anonymous": false,
      "inputs": [
        {
          "indexed": false,
          "name": "_to",
          "type": "address"
        },
        {
          "indexed": false,
          "name": "_amount",
          "type": "uint256"
        }
      ],
      "name": "WithdrawRegistration",
      "type": "event"
    },
    {
      "anonymous": false,
      "inputs": [
        {
          "indexed": false,
          "name": "_reportDate",
          "type": "uint256"
        },
        {
          "indexed": false,
          "name": "_completeDate",
          "type": "uint256"
        },
        {
          "indexed": true,
          "name": "_index",
          "type": "uint256"
        },
        {
          "indexed": true,
          "name": "_content",
          "type": "address"
        },
        {
          "indexed": true,
          "name": "_from",
          "type": "address"
        },
        {
          "indexed": false,
          "name": "_detail",
          "type": "string"
        },
        {
          "indexed": false,
          "name": "_type",
          "type": "uint256"
        },
        {
          "indexed": false,
          "name": "_deductionAmount",
          "type": "uint256"
        }
      ],
      "name": "CompleteReport",
      "type": "event"
    },
    {
      "anonymous": false,
      "inputs": [
        {
          "indexed": true,
          "name": "previousOwner",
          "type": "address"
        },
        {
          "indexed": true,
          "name": "newOwner",
          "type": "address"
        }
      ],
      "name": "OwnershipTransferred",
      "type": "event"
    },
    {
      "anonymous": false,
      "inputs": [
        {
          "indexed": true,
          "name": "host",
          "type": "address"
        },
        {
          "indexed": true,
          "name": "guest",
          "type": "address"
        }
      ],
      "name": "OwnershipExtended",
      "type": "event"
    },
    {
      "constant": false,
      "inputs": [
        {
          "name": "_from",
          "type": "address"
        },
        {
          "name": "_value",
          "type": "uint256"
        },
        {
          "name": "_token",
          "type": "address"
        },
        {
          "name": "_data",
          "type": "bytes"
        }
      ],
      "name": "receiveApproval",
      "outputs": [],
      "payable": false,
      "stateMutability": "nonpayable",
      "type": "function"
    },
    {
      "constant": false,
      "inputs": [
        {
          "name": "_content",
          "type": "address"
        },
        {
          "name": "reporter",
          "type": "address"
        },
        {
          "name": "_detail",
          "type": "string"
        }
      ],
      "name": "sendReport",
      "outputs": [],
      "payable": false,
      "stateMutability": "nonpayable",
      "type": "function"
    },
    {
      "constant": true,
      "inputs": [
        {
          "name": "_index",
          "type": "uint256"
        }
      ],
      "name": "getReport",
      "outputs": [
        {
          "name": "reportDate_",
          "type": "uint256"
        },
        {
          "name": "content_",
          "type": "address"
        },
        {
          "name": "reporter_",
          "type": "address"
        },
        {
          "name": "detail_",
          "type": "string"
        },
        {
          "name": "completeDate_",
          "type": "uint256"
        },
        {
          "name": "completeType_",
          "type": "uint256"
        },
        {
          "name": "completeAmount_",
          "type": "uint256"
        }
      ],
      "payable": false,
      "stateMutability": "view",
      "type": "function"
    },
    {
      "constant": true,
      "inputs": [
        {
          "name": "_content",
          "type": "address"
        }
      ],
      "name": "getReportCount",
      "outputs": [
        {
          "name": "count_",
          "type": "uint256"
        }
      ],
      "payable": false,
      "stateMutability": "view",
      "type": "function"
    },
    {
      "constant": true,
      "inputs": [
        {
          "name": "_content",
          "type": "address"
        }
      ],
      "name": "getUncompletedReportCount",
      "outputs": [
        {
          "name": "count_",
          "type": "uint256"
        }
      ],
      "payable": false,
      "stateMutability": "view",
      "type": "function"
    },
    {
      "constant": false,
      "inputs": [
        {
          "name": "_index",
          "type": "uint256"
        },
        {
          "name": "_type",
          "type": "uint256"
        },
        {
          "name": "_deductionAmount",
          "type": "uint256"
        }
      ],
      "name": "completeReport",
      "outputs": [],
      "payable": false,
      "stateMutability": "nonpayable",
      "type": "function"
    },
    {
      "constant": false,
      "inputs": [
        {
          "name": "_reporter",
          "type": "address"
        }
      ],
      "name": "deduction",
      "outputs": [
        {
          "name": "deduction_",
          "type": "uint256"
        }
      ],
      "payable": false,
      "stateMutability": "nonpayable",
      "type": "function"
    },
    {
      "constant": false,
      "inputs": [
        {
          "name": "_reporter",
          "type": "address"
        }
      ],
      "name": "withdrawRegistration",
      "outputs": [],
      "payable": false,
      "stateMutability": "nonpayable",
      "type": "function"
    },
    {
      "constant": true,
      "inputs": [
        {
          "name": "_reporter",
          "type": "address"
        }
      ],
      "name": "getRegistrationAmount",
      "outputs": [
        {
          "name": "amount_",
          "type": "uint256"
        }
      ],
      "payable": false,
      "stateMutability": "view",
      "type": "function"
    },
    {
      "constant": true,
      "inputs": [
        {
          "name": "_reporter",
          "type": "address"
        }
      ],
      "name": "getRegistrationLockTime",
      "outputs": [
        {
          "name": "lockTime_",
          "type": "uint256"
        }
      ],
      "payable": false,
      "stateMutability": "view",
      "type": "function"
    },
    {
      "constant": true,
      "inputs": [
        {
          "name": "_reporter",
          "type": "address"
        }
      ],
      "name": "getReporterBlock",
      "outputs": [
        {
          "name": "isBlock_",
          "type": "bool"
        }
      ],
      "payable": false,
      "stateMutability": "view",
      "type": "function"
    }
  ],
  "bytecode": "0x6080604052670de0b6b3a7640000600155621b774060045534801561002357600080fd5b506040516020806131258339810180604052810190808051906020019092919050505060016000803373ffffffffffffffffffffffffffffffffffffffff1673ffffffffffffffffffffffffffffffffffffffff16815260200190815260200160002060006101000a81548160ff02191690831515021790555080600073ffffffffffffffffffffffffffffffffffffffff168173ffffffffffffffffffffffffffffffffffffffff16141515156100da57600080fd5b3073ffffffffffffffffffffffffffffffffffffffff168173ffffffffffffffffffffffffffffffffffffffff161415151561011557600080fd5b81600260006101000a81548173ffffffffffffffffffffffffffffffffffffffff021916908373ffffffffffffffffffffffffffffffffffffffff1602179055505050612fbe806101676000396000f3006080604052600436106100c5576000357c0100000000000000000000000000000000000000000000000000000000900463ffffffff16806333cb8b96146100ca5780633be7dcde146101215780634e7f9b19146101785780636d10cf45146102a05780637065cb48146102e157806372e07e18146103245780638f4ffcb11461037b5780639e22a8931461042e578063b32dc98314610485578063c16f8440146104e0578063c7a6f64f1461055b578063ee151eeb146105b2578063f2fde38b146105f5575b600080fd5b3480156100d657600080fd5b5061010b600480360381019080803573ffffffffffffffffffffffffffffffffffffffff169060200190929190505050610638565b6040518082815260200191505060405180910390f35b34801561012d57600080fd5b50610162600480360381019080803573ffffffffffffffffffffffffffffffffffffffff169060200190929190505050610c7f565b6040518082815260200191505060405180910390f35b34801561018457600080fd5b506101a360048036038101908080359060200190929190505050610ccb565b604051808881526020018773ffffffffffffffffffffffffffffffffffffffff1673ffffffffffffffffffffffffffffffffffffffff1681526020018673ffffffffffffffffffffffffffffffffffffffff1673ffffffffffffffffffffffffffffffffffffffff16815260200180602001858152602001848152602001838152602001828103825286818151815260200191508051906020019080838360005b8381101561025f578082015181840152602081019050610244565b50505050905090810190601f16801561028c5780820380516001836020036101000a031916815260200191505b509850505050505050505060405180910390f35b3480156102ac57600080fd5b506102df600480360381019080803590602001909291908035906020019092919080359060200190929190505050610eb2565b005b3480156102ed57600080fd5b50610322600480360381019080803573ffffffffffffffffffffffffffffffffffffffff169060200190929190505050611573565b005b34801561033057600080fd5b50610365600480360381019080803573ffffffffffffffffffffffffffffffffffffffff1690602001909291905050506116ba565b6040518082815260200191505060405180910390f35b34801561038757600080fd5b5061042c600480360381019080803573ffffffffffffffffffffffffffffffffffffffff16906020019092919080359060200190929190803573ffffffffffffffffffffffffffffffffffffffff169060200190929190803590602001908201803590602001908080601f0160208091040260200160405190810160405280939291908181526020018383808284378201915050505050509192919290505050611703565b005b34801561043a57600080fd5b5061046f600480360381019080803573ffffffffffffffffffffffffffffffffffffffff169060200190929190505050611714565b6040518082815260200191505060405180910390f35b34801561049157600080fd5b506104c6600480360381019080803573ffffffffffffffffffffffffffffffffffffffff1690602001909291905050506117c7565b604051808215151515815260200191505060405180910390f35b3480156104ec57600080fd5b50610559600480360381019080803573ffffffffffffffffffffffffffffffffffffffff169060200190929190803573ffffffffffffffffffffffffffffffffffffffff169060200190929190803590602001908201803590602001919091929391929390505050611820565b005b34801561056757600080fd5b5061059c600480360381019080803573ffffffffffffffffffffffffffffffffffffffff169060200190929190505050611fca565b6040518082815260200191505060405180910390f35b3480156105be57600080fd5b506105f3600480360381019080803573ffffffffffffffffffffffffffffffffffffffff169060200190929190505050612016565b005b34801561060157600080fd5b50610636600480360381019080803573ffffffffffffffffffffffffffffffffffffffff1690602001909291905050506125ce565b005b60008060008084600073ffffffffffffffffffffffffffffffffffffffff168173ffffffffffffffffffffffffffffffffffffffff161415151561067b57600080fd5b3073ffffffffffffffffffffffffffffffffffffffff168173ffffffffffffffffffffffffffffffffffffffff16141515156106b657600080fd5b600260009054906101000a900473ffffffffffffffffffffffffffffffffffffffff1673ffffffffffffffffffffffffffffffffffffffff163373ffffffffffffffffffffffffffffffffffffffff1614151561077b576040517f08c379a00000000000000000000000000000000000000000000000000000000081526004018080602001828103825260198152602001807f6d73672073656e646572206973206e6f7420636f756e63696c0000000000000081525060200191505060405180910390fd5b60015460010293506000600360008873ffffffffffffffffffffffffffffffffffffffff1673ffffffffffffffffffffffffffffffffffffffff168152602001908152602001600020600101541115610c0b5783600360008873ffffffffffffffffffffffffffffffffffffffff1673ffffffffffffffffffffffffffffffffffffffff168152602001908152602001600020600101541015156109245761086e84600360008973ffffffffffffffffffffffffffffffffffffffff1673ffffffffffffffffffffffffffffffffffffffff1681526020019081526020016000206001015461276390919063ffffffff16565b925082600360008873ffffffffffffffffffffffffffffffffffffffff1673ffffffffffffffffffffffffffffffffffffffff16815260200190815260200160002060010181905550839450600083141561091f576001600360008873ffffffffffffffffffffffffffffffffffffffff1673ffffffffffffffffffffffffffffffffffffffff16815260200190815260200160002060030160006101000a81548160ff0219169083151502179055505b610a0d565b600360008773ffffffffffffffffffffffffffffffffffffffff1673ffffffffffffffffffffffffffffffffffffffff1681526020019081526020016000206001015494506000600360008873ffffffffffffffffffffffffffffffffffffffff1673ffffffffffffffffffffffffffffffffffffffff168152602001908152602001600020600101819055506001600360008873ffffffffffffffffffffffffffffffffffffffff1673ffffffffffffffffffffffffffffffffffffffff16815260200190815260200160002060030160006101000a81548160ff0219169083151502179055505b600260009054906101000a900473ffffffffffffffffffffffffffffffffffffffff1673ffffffffffffffffffffffffffffffffffffffff166321df0da76040518163ffffffff167c0100000000000000000000000000000000000000000000000000000000028152600401602060405180830381600087803b158015610a9357600080fd5b505af1158015610aa7573d6000803e3d6000fd5b505050506040513d6020811015610abd57600080fd5b810190808051906020019092919050505091508173ffffffffffffffffffffffffffffffffffffffff16634cbb72a8600260009054906101000a900473ffffffffffffffffffffffffffffffffffffffff16876040518363ffffffff167c0100000000000000000000000000000000000000000000000000000000028152600401808373ffffffffffffffffffffffffffffffffffffffff1673ffffffffffffffffffffffffffffffffffffffff16815260200182815260200180602001828103825260178152602001807fec8ba0eab3a020ebb3b4eca69deab88820ecb0a8eab0900000000000000000008152506020019350505050602060405180830381600087803b158015610bce57600080fd5b505af1158015610be2573d6000803e3d6000fd5b505050506040513d6020811015610bf857600080fd5b8101908080519060200190929190505050505b7f1de5982e19df9ddd175493e396ec099c16d36681942b308a1148d4353f22395c8686604051808373ffffffffffffffffffffffffffffffffffffffff1673ffffffffffffffffffffffffffffffffffffffff1681526020018281526020019250505060405180910390a150505050919050565b6000600360008373ffffffffffffffffffffffffffffffffffffffff1673ffffffffffffffffffffffffffffffffffffffff168152602001908152602001600020600201549050919050565b600080600060606000806000600588815481101515610ce657fe5b906000526020600020906007020160000154600589815481101515610d0757fe5b906000526020600020906007020160010160009054906101000a900473ffffffffffffffffffffffffffffffffffffffff1660058a815481101515610d4857fe5b906000526020600020906007020160020160009054906101000a900473ffffffffffffffffffffffffffffffffffffffff1660058b815481101515610d8957fe5b906000526020600020906007020160030160058c815481101515610da957fe5b90600052602060002090600702016004015460058d815481101515610dca57fe5b90600052602060002090600702016005015460058e815481101515610deb57fe5b906000526020600020906007020160060154838054600181600116156101000203166002900480601f016020809104026020016040519081016040528092919081815260200182805460018160011615610100020316600290048015610e925780601f10610e6757610100808354040283529160200191610e92565b820191906000526020600020905b815481529060010190602001808311610e7557829003601f168201915b505050505093509650965096509650965096509650919395979092949650565b600260009054906101000a900473ffffffffffffffffffffffffffffffffffffffff1673ffffffffffffffffffffffffffffffffffffffff163373ffffffffffffffffffffffffffffffffffffffff16141515610f77576040517f08c379a00000000000000000000000000000000000000000000000000000000081526004018080602001828103825260198152602001807f6d73672073656e646572206973206e6f7420636f756e63696c0000000000000081525060200191505060405180910390fd5b60058054905083101515610ff3576040517f08c379a000000000000000000000000000000000000000000000000000000000815260040180806020018281038252600c8152602001807f6f7574206f6620696e646578000000000000000000000000000000000000000081525060200191505060405180910390fd5b600060058481548110151561100457fe5b90600052602060002090600702016004015414151561108b576040517f08c379a00000000000000000000000000000000000000000000000000000000081526004018080602001828103825260108152602001807f616c726561647920636f6d706c6574650000000000000000000000000000000081525060200191505060405180910390fd5b60008214151515611104576040517f08c379a000000000000000000000000000000000000000000000000000000000815260040180806020018281038252600a8152602001807f74797065206572726f720000000000000000000000000000000000000000000081525060200191505060405180910390fd5b60006006600060058681548110151561111957fe5b906000526020600020906007020160010160009054906101000a900473ffffffffffffffffffffffffffffffffffffffff1673ffffffffffffffffffffffffffffffffffffffff1673ffffffffffffffffffffffffffffffffffffffff168152602001908152602001600020541115156111fb576040517f08c379a00000000000000000000000000000000000000000000000000000000081526004018080602001828103825260118152602001807f7265706f7274436f756e74206572726f7200000000000000000000000000000081525060200191505060405180910390fd5b611203612784565b60058481548110151561121257fe5b9060005260206000209060070201600401819055508160058481548110151561123757fe5b9060005260206000209060070201600501819055508060058481548110151561125c57fe5b90600052602060002090600702016006018190555061130460016006600060058781548110151561128957fe5b906000526020600020906007020160010160009054906101000a900473ffffffffffffffffffffffffffffffffffffffff1673ffffffffffffffffffffffffffffffffffffffff1673ffffffffffffffffffffffffffffffffffffffff1681526020019081526020016000205461276390919063ffffffff16565b6006600060058681548110151561131757fe5b906000526020600020906007020160010160009054906101000a900473ffffffffffffffffffffffffffffffffffffffff1673ffffffffffffffffffffffffffffffffffffffff1673ffffffffffffffffffffffffffffffffffffffff1681526020019081526020016000208190555060058381548110151561139657fe5b906000526020600020906007020160020160009054906101000a900473ffffffffffffffffffffffffffffffffffffffff1673ffffffffffffffffffffffffffffffffffffffff166005848154811015156113ed57fe5b906000526020600020906007020160010160009054906101000a900473ffffffffffffffffffffffffffffffffffffffff1673ffffffffffffffffffffffffffffffffffffffff16847f999b19f18c837204ea20e67578670acf6a41205f4f589a98dfeca261176144c460058781548110151561146657fe5b90600052602060002090600702016000015460058881548110151561148757fe5b9060005260206000209060070201600401546005898154811015156114a857fe5b90600052602060002090600702016003018888604051808681526020018581526020018060200184815260200183815260200182810382528581815460018160011615610100020316600290048152602001915080546001816001161561010002031660029004801561155c5780601f106115315761010080835404028352916020019161155c565b820191906000526020600020905b81548152906001019060200180831161153f57829003601f168201915b5050965050505050505060405180910390a4505050565b6000803373ffffffffffffffffffffffffffffffffffffffff1673ffffffffffffffffffffffffffffffffffffffff16815260200190815260200160002060009054906101000a900460ff1615156115ca57600080fd5b600073ffffffffffffffffffffffffffffffffffffffff168173ffffffffffffffffffffffffffffffffffffffff161415151561160657600080fd5b60016000808373ffffffffffffffffffffffffffffffffffffffff1673ffffffffffffffffffffffffffffffffffffffff16815260200190815260200160002060006101000a81548160ff0219169083151502179055508073ffffffffffffffffffffffffffffffffffffffff163373ffffffffffffffffffffffffffffffffffffffff167f1d95aed2b82ae4cbdcccc214bb64bc277a20e8490d69a59d7f426c67fe46c61d60405160405180910390a350565b6000600660008373ffffffffffffffffffffffffffffffffffffffff1673ffffffffffffffffffffffffffffffffffffffff168152602001908152602001600020549050919050565b61170e8484846127a0565b50505050565b600080600090505b6005805490508110156117c1578273ffffffffffffffffffffffffffffffffffffffff1660058281548110151561174f57fe5b906000526020600020906007020160010160009054906101000a900473ffffffffffffffffffffffffffffffffffffffff1673ffffffffffffffffffffffffffffffffffffffff1614156117b4576117b1600183612e8e90919063ffffffff16565b91505b808060010191505061171c565b50919050565b6000600360008373ffffffffffffffffffffffffffffffffffffffff1673ffffffffffffffffffffffffffffffffffffffff16815260200190815260200160002060030160009054906101000a900460ff169050919050565b83600073ffffffffffffffffffffffffffffffffffffffff168173ffffffffffffffffffffffffffffffffffffffff161415151561185d57600080fd5b3073ffffffffffffffffffffffffffffffffffffffff168173ffffffffffffffffffffffffffffffffffffffff161415151561189857600080fd5b83600073ffffffffffffffffffffffffffffffffffffffff168173ffffffffffffffffffffffffffffffffffffffff16141515156118d557600080fd5b3073ffffffffffffffffffffffffffffffffffffffff168173ffffffffffffffffffffffffffffffffffffffff161415151561191057600080fd5b83838080601f0160208091040260200160405190810160405280939291908181526020018383808284378201915050505050506000815111151561195357600080fd5b3373ffffffffffffffffffffffffffffffffffffffff16600260009054906101000a900473ffffffffffffffffffffffffffffffffffffffff1673ffffffffffffffffffffffffffffffffffffffff166342c88dad6040518163ffffffff167c0100000000000000000000000000000000000000000000000000000000028152600401602060405180830381600087803b1580156119f057600080fd5b505af1158015611a04573d6000803e3d6000fd5b505050506040513d6020811015611a1a57600080fd5b810190808051906020019092919050505073ffffffffffffffffffffffffffffffffffffffff16141515611ab6576040517f08c379a000000000000000000000000000000000000000000000000000000000815260040180806020018281038252601b8152602001807f6d73672073656e646572206973206e6f74204170695265706f7274000000000081525060200191505060405180910390fd5b6000600360008873ffffffffffffffffffffffffffffffffffffffff1673ffffffffffffffffffffffffffffffffffffffff16815260200190815260200160002060010154111515611b70576040517f08c379a000000000000000000000000000000000000000000000000000000000815260040180806020018281038252601c8152602001807f496e73756666696369656e7420726567697374726174696f6e4665650000000081525060200191505060405180910390fd5b600360008773ffffffffffffffffffffffffffffffffffffffff1673ffffffffffffffffffffffffffffffffffffffff16815260200190815260200160002060030160009054906101000a900460ff16151515611c35576040517f08c379a00000000000000000000000000000000000000000000000000000000081526004018080602001828103825260108152602001807f7265706f74657220697320626c6f636b0000000000000000000000000000000081525060200191505060405180910390fd5b611c3d612784565b600360008873ffffffffffffffffffffffffffffffffffffffff1673ffffffffffffffffffffffffffffffffffffffff16815260200190815260200160002060020154111515611cf5576040517f08c379a00000000000000000000000000000000000000000000000000000000081526004018080602001828103825260118152602001807f6f76657220746865206c6f636b54696d6500000000000000000000000000000081525060200191505060405180910390fd5b600560e060405190810160405280611d0b612784565b81526020018973ffffffffffffffffffffffffffffffffffffffff1681526020018873ffffffffffffffffffffffffffffffffffffffff16815260200187878080601f016020809104026020016040519081016040528093929190818152602001838380828437820191505050505050815260200160008152602001600081526020016000815250908060018154018082558091505090600182039060005260206000209060070201600090919290919091506000820151816000015560208201518160010160006101000a81548173ffffffffffffffffffffffffffffffffffffffff021916908373ffffffffffffffffffffffffffffffffffffffff16021790555060408201518160020160006101000a81548173ffffffffffffffffffffffffffffffffffffffff021916908373ffffffffffffffffffffffffffffffffffffffff1602179055506060820151816003019080519060200190611e72929190612eed565b506080820151816004015560a0820151816005015560c08201518160060155505050611ee76001600660008a73ffffffffffffffffffffffffffffffffffffffff1673ffffffffffffffffffffffffffffffffffffffff16815260200190815260200160002054612e8e90919063ffffffff16565b600660008973ffffffffffffffffffffffffffffffffffffffff1673ffffffffffffffffffffffffffffffffffffffff168152602001908152602001600020819055508573ffffffffffffffffffffffffffffffffffffffff168773ffffffffffffffffffffffffffffffffffffffff166001600580549050037fa4359c106bbbbd87f3eb9df9fd055c3878e0f429ef38e9d5a0fd9d5fb8d9300a611f8a612784565b898960405180848152602001806020018281038252848482818152602001925080828437820191505094505050505060405180910390a450505050505050565b6000600360008373ffffffffffffffffffffffffffffffffffffffff1673ffffffffffffffffffffffffffffffffffffffff168152602001908152602001600020600101549050919050565b6000803373ffffffffffffffffffffffffffffffffffffffff16600260009054906101000a900473ffffffffffffffffffffffffffffffffffffffff1673ffffffffffffffffffffffffffffffffffffffff166342c88dad6040518163ffffffff167c0100000000000000000000000000000000000000000000000000000000028152600401602060405180830381600087803b1580156120b657600080fd5b505af11580156120ca573d6000803e3d6000fd5b505050506040513d60208110156120e057600080fd5b810190808051906020019092919050505073ffffffffffffffffffffffffffffffffffffffff1614151561217c576040517f08c379a000000000000000000000000000000000000000000000000000000000815260040180806020018281038252601b8152602001807f6d73672073656e646572206973206e6f74204170695265706f7274000000000081525060200191505060405180910390fd5b6000600360008573ffffffffffffffffffffffffffffffffffffffff1673ffffffffffffffffffffffffffffffffffffffff16815260200190815260200160002060010154111515612236576040517f08c379a000000000000000000000000000000000000000000000000000000000815260040180806020018281038252600c8152602001807f656d70747920616d6f756e74000000000000000000000000000000000000000081525060200191505060405180910390fd5b61223e612784565b600360008573ffffffffffffffffffffffffffffffffffffffff1673ffffffffffffffffffffffffffffffffffffffff168152602001908152602001600020600201541015156122f6576040517f08c379a00000000000000000000000000000000000000000000000000000000081526004018080602001828103825260118152602001807f6e6f74206f766572206c6f636b74696d6500000000000000000000000000000081525060200191505060405180910390fd5b600260009054906101000a900473ffffffffffffffffffffffffffffffffffffffff1673ffffffffffffffffffffffffffffffffffffffff166321df0da76040518163ffffffff167c0100000000000000000000000000000000000000000000000000000000028152600401602060405180830381600087803b15801561237c57600080fd5b505af1158015612390573d6000803e3d6000fd5b505050506040513d60208110156123a657600080fd5b81019080805190602001909291905050509150600360008473ffffffffffffffffffffffffffffffffffffffff1673ffffffffffffffffffffffffffffffffffffffff1681526020019081526020016000206001015490506000600360008573ffffffffffffffffffffffffffffffffffffffff1673ffffffffffffffffffffffffffffffffffffffff168152602001908152602001600020600101819055508173ffffffffffffffffffffffffffffffffffffffff16634cbb72a884836040518363ffffffff167c0100000000000000000000000000000000000000000000000000000000028152600401808373ffffffffffffffffffffffffffffffffffffffff1673ffffffffffffffffffffffffffffffffffffffff16815260200182815260200180602001828103825260178152602001807fec8ba0eab3a020ebb3b4eca69deab88820ed9998ebb6880000000000000000008152506020019350505050602060405180830381600087803b15801561252257600080fd5b505af1158015612536573d6000803e3d6000fd5b505050506040513d602081101561254c57600080fd5b8101908080519060200190929190505050507f918d9a7d179e360f8bbaecd75ec00a411c5716a3360f661817f98dc6e45e4ec58382604051808373ffffffffffffffffffffffffffffffffffffffff1673ffffffffffffffffffffffffffffffffffffffff1681526020018281526020019250505060405180910390a1505050565b6000803373ffffffffffffffffffffffffffffffffffffffff1673ffffffffffffffffffffffffffffffffffffffff16815260200190815260200160002060009054906101000a900460ff16151561262557600080fd5b600073ffffffffffffffffffffffffffffffffffffffff168173ffffffffffffffffffffffffffffffffffffffff161415151561266157600080fd5b60016000808373ffffffffffffffffffffffffffffffffffffffff1673ffffffffffffffffffffffffffffffffffffffff16815260200190815260200160002060006101000a81548160ff0219169083151502179055506000803373ffffffffffffffffffffffffffffffffffffffff1673ffffffffffffffffffffffffffffffffffffffff16815260200190815260200160002060006101000a81549060ff02191690558073ffffffffffffffffffffffffffffffffffffffff163373ffffffffffffffffffffffffffffffffffffffff167f8be0079c531659141344cd1fd0a4f28419497f9722a3daafe3b4186f6b6457e060405160405180910390a350565b60008083831115151561277557600080fd5b82840390508091505092915050565b600061279b6103e842612eaf90919063ffffffff16565b905090565b600082600260009054906101000a900473ffffffffffffffffffffffffffffffffffffffff1673ffffffffffffffffffffffffffffffffffffffff1663e0e9b3496040518163ffffffff167c0100000000000000000000000000000000000000000000000000000000028152600401602060405180830381600087803b15801561282957600080fd5b505af115801561283d573d6000803e3d6000fd5b505050506040513d602081101561285357600080fd5b81019080805190602001909291905050501415156128d9576040517f08c379a000000000000000000000000000000000000000000000000000000000815260040180806020018281038252600b8152602001807f76616c7565206572726f7200000000000000000000000000000000000000000081525060200191505060405180910390fd5b6000600360008673ffffffffffffffffffffffffffffffffffffffff1673ffffffffffffffffffffffffffffffffffffffff16815260200190815260200160002060010154141515612993576040517f08c379a00000000000000000000000000000000000000000000000000000000081526004018080602001828103825260148152602001807f616c726561647920726567697374726174696f6e00000000000000000000000081525060200191505060405180910390fd5b600360008573ffffffffffffffffffffffffffffffffffffffff1673ffffffffffffffffffffffffffffffffffffffff16815260200190815260200160002060030160009054906101000a900460ff16151515612a58576040517f08c379a00000000000000000000000000000000000000000000000000000000081526004018080602001828103825260108152602001807f7265706f74657220697320426c6f636b0000000000000000000000000000000081525060200191505060405180910390fd5b600260009054906101000a900473ffffffffffffffffffffffffffffffffffffffff1673ffffffffffffffffffffffffffffffffffffffff166321df0da76040518163ffffffff167c0100000000000000000000000000000000000000000000000000000000028152600401602060405180830381600087803b158015612ade57600080fd5b505af1158015612af2573d6000803e3d6000fd5b505050506040513d6020811015612b0857600080fd5b810190808051906020019092919050505090508173ffffffffffffffffffffffffffffffffffffffff168173ffffffffffffffffffffffffffffffffffffffff16141515612bbe576040517f08c379a00000000000000000000000000000000000000000000000000000000081526004018080602001828103825260118152602001807f746f6b656e2069732061626e6f726d616c00000000000000000000000000000081525060200191505060405180910390fd5b82600360008673ffffffffffffffffffffffffffffffffffffffff1673ffffffffffffffffffffffffffffffffffffffff16815260200190815260200160002060010181905550612c21600454612c13612784565b612e8e90919063ffffffff16565b600360008673ffffffffffffffffffffffffffffffffffffffff1673ffffffffffffffffffffffffffffffffffffffff168152602001908152602001600020600201819055506000600360008673ffffffffffffffffffffffffffffffffffffffff1673ffffffffffffffffffffffffffffffffffffffff16815260200190815260200160002060030160006101000a81548160ff0219169083151502179055508073ffffffffffffffffffffffffffffffffffffffff166369b5a4618530866040518463ffffffff167c0100000000000000000000000000000000000000000000000000000000028152600401808473ffffffffffffffffffffffffffffffffffffffff1673ffffffffffffffffffffffffffffffffffffffff1681526020018373ffffffffffffffffffffffffffffffffffffffff1673ffffffffffffffffffffffffffffffffffffffff16815260200182815260200180602001828103825260178152602001807fec8ba0eab3a020ebb3b4eca69deab88820ec9888ecb998000000000000000000815250602001945050505050602060405180830381600087803b158015612dd257600080fd5b505af1158015612de6573d6000803e3d6000fd5b505050506040513d6020811015612dfc57600080fd5b8101908080519060200190929190505050507f49d08fab9de1b1c7ae4f30efc7090ffb4ea1d503ab1ac0ee591fe39f130afe2b612e37612784565b8585604051808481526020018373ffffffffffffffffffffffffffffffffffffffff1673ffffffffffffffffffffffffffffffffffffffff168152602001828152602001935050505060405180910390a150505050565b6000808284019050838110151515612ea557600080fd5b8091505092915050565b6000806000841415612ec45760009150612ee6565b8284029050828482811515612ed557fe5b04141515612ee257600080fd5b8091505b5092915050565b828054600181600116156101000203166002900490600052602060002090601f016020900481019282601f10612f2e57805160ff1916838001178555612f5c565b82800160010185558215612f5c579182015b82811115612f5b578251825591602001919060010190612f40565b5b509050612f699190612f6d565b5090565b612f8f91905b80821115612f8b576000816000905550600101612f73565b5090565b905600a165627a7a72305820ce72e808ee8a8d1a3570cc9c856e1b13e9040274e071b78915f61e3727713b660029",
  "source": "pragma solidity ^0.4.24;\r\n\r\nimport \"openzeppelin-solidity/contracts/token/ERC20/ERC20.sol\";\r\nimport \"openzeppelin-solidity/contracts/token/ERC20/SafeERC20.sol\";\r\nimport \"openzeppelin-solidity/contracts/math/SafeMath.sol\";\r\n\r\nimport \"contracts/interface/ICouncil.sol\";\r\nimport \"contracts/interface/IReport.sol\";\r\nimport \"contracts/interface/IDepositPool.sol\";\r\n\r\nimport \"contracts/token/CustomToken.sol\";\r\nimport \"contracts/token/ContractReceiver.sol\";\r\nimport \"contracts/utils/ExtendsOwnable.sol\";\r\nimport \"contracts/utils/ValidValue.sol\";\r\nimport \"contracts/utils/TimeLib.sol\";\r\n\r\ncontract Report is ExtendsOwnable, ValidValue, ContractReceiver, IReport {\r\n\r\n    using SafeMath for uint256;\r\n    using SafeERC20 for ERC20;\r\n\r\n    uint256 DECIMALS = 10 ** 18;\r\n\r\n    //\r\n    ICouncil council;\r\n\r\n    // \r\n    // amount  \r\n    // lockTime   \r\n    // block   \r\n    struct Registration {\r\n        address reporter;\r\n        uint256 amount;\r\n        uint256 lockTime;\r\n        bool reporterBlock;\r\n    }\r\n    mapping (address => Registration) registrationFee;\r\n\r\n    //   \r\n    uint256 interval = 30 * 60 * 1000; //for test 30 min\r\n\r\n    // \r\n    struct ReportData {\r\n        uint256 reportDate;\r\n        address content;\r\n        address reporter;\r\n        string detail;\r\n        uint256 completeDate;\r\n        uint256 completeType;\r\n        uint256 completeAmount;\r\n    }\r\n    // \r\n    ReportData[] reports;\r\n\r\n    //     \r\n    mapping (address => uint256) reportCount;\r\n\r\n    /**\r\n    * @dev \r\n    * @param _councilAddress  \r\n    */\r\n    constructor(address _councilAddress) public validAddress(_councilAddress) {\r\n        council = ICouncil(_councilAddress);\r\n    }\r\n\r\n    /**\r\n    * @dev Token ApproveAndCall  Contract \r\n    * @param _from   \r\n    * @param _value  \r\n    * @param _token  \r\n    */\r\n    function receiveApproval(address _from, uint256 _value, address _token, bytes _data) public {\r\n        registration(_from, _value, _token);\r\n    }\r\n\r\n    /**\r\n    * @dev receiveApproval , token     \r\n    */\r\n    function registration(address _from, uint256 _value, address _token) private {\r\n        require(council.getReportRegistrationFee() == _value, \"value error\");\r\n        require(registrationFee[_from].amount == 0, \"already registration\");\r\n        require(!registrationFee[_from].reporterBlock, \"repoter is Block\");\r\n        ERC20 token = ERC20(council.getToken());\r\n        require(address(token) == _token, \"token is abnormal\");\r\n\r\n        registrationFee[_from].amount = _value;\r\n        registrationFee[_from].lockTime = TimeLib.currentTime().add(interval);\r\n        registrationFee[_from].reporterBlock = false;\r\n\r\n        CustomToken(address(token)).transferFromPxl(_from, address(this), _value, \"  \");\r\n\r\n        emit RegistrationFee(TimeLib.currentTime(), _from, _value);\r\n    }\r\n\r\n    /**\r\n    * @dev      ,     ( )\r\n    * @param _detail \r\n    */\r\n    function sendReport(address _content, address reporter, string _detail)\r\n        external\r\n        validAddress(_content)\r\n        validAddress(reporter)\r\n        validString(_detail)\r\n    {\r\n        require(council.getApiReport() == msg.sender, \"msg sender is not ApiReport\");\r\n        require(registrationFee[reporter].amount > 0, \"Insufficient registrationFee\");\r\n        require(!registrationFee[reporter].reporterBlock, \"repoter is block\");\r\n        require(registrationFee[reporter].lockTime > TimeLib.currentTime(), \"over the lockTime\");\r\n\r\n        reports.push(ReportData(TimeLib.currentTime(), _content, reporter, _detail, 0, 0, 0));\r\n        reportCount[_content] = reportCount[_content].add(1);\r\n\r\n        emit SendReport(TimeLib.currentTime(), reports.length-1, _content, reporter, _detail);\r\n    }\r\n\r\n    /**\r\n    * @dev   \r\n    * @param _index   \r\n    */\r\n    function getReport(uint256 _index)\r\n        external\r\n        view\r\n        returns(uint256 reportDate_, address content_, address reporter_, string detail_, uint256 completeDate_, uint256 completeType_, uint256 completeAmount_)\r\n    {\r\n        return\r\n        (\r\n            reports[_index].reportDate,\r\n            reports[_index].content,\r\n            reports[_index].reporter,\r\n            reports[_index].detail,\r\n            reports[_index].completeDate,\r\n            reports[_index].completeType,\r\n            reports[_index].completeAmount\r\n        );\r\n    }\r\n\r\n    /**\r\n    * @dev    \r\n    * @param _content   \r\n    */\r\n    function getReportCount(address _content) external view returns(uint256 count_) {\r\n        for(uint256 i = 0; i < reports.length; i++) {\r\n            if (reports[i].content == _content) {\r\n                count_ = count_.add(1);\r\n            }\r\n        }\r\n    }\r\n\r\n    /**\r\n    * @dev       \r\n    * @param _content   \r\n    */\r\n    function getUncompletedReportCount(address _content) external view returns(uint256 count_) {\r\n        return reportCount[_content];\r\n    }\r\n\r\n    /**\r\n    * @dev      , deduction DepositPool reportReward   \r\n    * @param _index   \r\n    * @param _type   / 1  , 2  , 3  , 4  , 5  \r\n    * @param _deductionAmount   \r\n    */\r\n    function completeReport(uint256 _index, uint256 _type, uint256 _deductionAmount) external {\r\n        require(msg.sender == address(council), \"msg sender is not council\");\r\n        require(_index < reports.length, \"out of index\");\r\n        require(reports[_index].completeDate == 0, \"already complete\");\r\n        require(_type != 0, \"type error\");\r\n        require(reportCount[reports[_index].content] > 0, \"reportCount error\");\r\n\r\n        reports[_index].completeDate = TimeLib.currentTime();\r\n        reports[_index].completeType = _type;\r\n        reports[_index].completeAmount = _deductionAmount;\r\n\r\n        reportCount[reports[_index].content] = reportCount[reports[_index].content].sub(1);\r\n\r\n        emit CompleteReport(reports[_index].reportDate, reports[_index].completeDate, _index, reports[_index].content, reports[_index].reporter, reports[_index].detail, _type, _deductionAmount);\r\n    }\r\n\r\n    /**\r\n    * @dev    RegFee ,  \r\n    * @param _reporter   \r\n    */\r\n    function deduction(address _reporter) external validAddress(_reporter) returns(uint256 deduction_) {\r\n        require(msg.sender == address(council), \"msg sender is not council\");\r\n\r\n        uint256 onePXL = 1 * DECIMALS;\r\n        uint256 remain;\r\n        if (registrationFee[_reporter].amount > 0) {\r\n            if (registrationFee[_reporter].amount >= onePXL) {\r\n                remain = registrationFee[_reporter].amount.sub(onePXL);\r\n                registrationFee[_reporter].amount = remain;\r\n                deduction_ = onePXL;\r\n                if (remain == 0) {\r\n                    registrationFee[_reporter].reporterBlock = true;\r\n                }\r\n            } else {\r\n                deduction_ = registrationFee[_reporter].amount;\r\n                registrationFee[_reporter].amount = 0;\r\n                registrationFee[_reporter].reporterBlock = true;\r\n            }\r\n\r\n            ERC20 token = ERC20(council.getToken());\r\n            // Ecosystem Growth Fund   \r\n            CustomToken(address(token)).transferPxl(address(council), deduction_, \"  \");\r\n        }\r\n\r\n        emit Deduction(_reporter, deduction_);\r\n    }\r\n\r\n    /**\r\n    * @dev    \r\n    */\r\n    function withdrawRegistration(address _reporter) external {\r\n        require(council.getApiReport() == msg.sender, \"msg sender is not ApiReport\");\r\n        require(registrationFee[_reporter].amount > 0, \"empty amount\");\r\n        require(registrationFee[_reporter].lockTime < TimeLib.currentTime(), \"not over locktime\");\r\n\r\n        ERC20 token = ERC20(council.getToken());\r\n        uint256 tempAmount = registrationFee[_reporter].amount;\r\n\r\n        registrationFee[_reporter].amount = 0;\r\n        CustomToken(address(token)).transferPxl(_reporter, tempAmount, \"  \");\r\n\r\n        emit WithdrawRegistration(_reporter, tempAmount);\r\n    }\r\n\r\n    /**\r\n    * @dev      \r\n    * @param _reporter   \r\n    */\r\n    function getRegistrationAmount(address _reporter) external view returns(uint256 amount_) {\r\n        return registrationFee[_reporter].amount;\r\n    }\r\n\r\n    /**\r\n    * @dev      \r\n    * @param _reporter   \r\n    */\r\n    function getRegistrationLockTime(address _reporter) external view returns(uint256 lockTime_) {\r\n        return registrationFee[_reporter].lockTime;\r\n    }\r\n\r\n    /**\r\n    * @dev    \r\n    * @param _reporter   \r\n    */\r\n    function getReporterBlock(address _reporter) external view returns(bool isBlock_) {\r\n        return registrationFee[_reporter].reporterBlock;\r\n    }\r\n\r\n    event RegistrationFee(uint256 _date, address _from, uint256 _value);\r\n    event Deduction(address _reporter, uint256 _amount);\r\n    event ReporterBlock(address _reporter);\r\n    event SendReport(uint256 _date, uint256 indexed _index, address indexed _content, address indexed _from, string _detail);\r\n    event WithdrawRegistration(address _to, uint256 _amount);\r\n    event CompleteReport(uint256 _reportDate, uint256 _completeDate, uint256 indexed _index, address indexed _content, address indexed _from, string _detail, uint256 _type, uint256 _deductionAmount);\r\n}\r\n",
  "sourcePath": "C:\\piction\\piction-poc\\contracts\\report\\Report.sol",
  "compiler": {
    "name": "solc",
    "version": "0.4.24+commit.e67f0147.Emscripten.clang"
  },
  "schemaVersion": "2.0.1",
  "updatedAt": "2018-11-12T08:33:41.734Z"
}