{
  "contractName": "SupporterPool",
  "abi": [
    {
      "constant": false,
      "inputs": [],
      "name": "renounceOwnership",
      "outputs": [],
      "payable": false,
      "stateMutability": "nonpayable",
      "type": "function"
    },
    {
      "constant": true,
      "inputs": [],
      "name": "owner",
      "outputs": [
        {
          "name": "",
          "type": "address"
        }
      ],
      "payable": false,
      "stateMutability": "view",
      "type": "function"
    },
    {
      "constant": true,
      "inputs": [],
      "name": "isOwner",
      "outputs": [
        {
          "name": "",
          "type": "bool"
        }
      ],
      "payable": false,
      "stateMutability": "view",
      "type": "function"
    },
    {
      "constant": false,
      "inputs": [
        {
          "name": "newOwner",
          "type": "address"
        }
      ],
      "name": "transferOwnership",
      "outputs": [],
      "payable": false,
      "stateMutability": "nonpayable",
      "type": "function"
    },
    {
      "inputs": [
        {
          "name": "_council",
          "type": "address"
        }
      ],
      "payable": false,
      "stateMutability": "nonpayable",
      "type": "constructor"
    },
    {
      "anonymous": false,
      "inputs": [
        {
          "indexed": false,
          "name": "_fund",
          "type": "address"
        },
        {
          "indexed": false,
          "name": "_amount",
          "type": "uint256"
        }
      ],
      "name": "ReleaseDistribution",
      "type": "event"
    },
    {
      "anonymous": false,
      "inputs": [
        {
          "indexed": true,
          "name": "previousOwner",
          "type": "address"
        },
        {
          "indexed": true,
          "name": "newOwner",
          "type": "address"
        }
      ],
      "name": "OwnershipTransferred",
      "type": "event"
    },
    {
      "constant": false,
      "inputs": [
        {
          "name": "_fund",
          "type": "address"
        },
        {
          "name": "_writer",
          "type": "address"
        },
        {
          "name": "_interval",
          "type": "uint256"
        },
        {
          "name": "_amount",
          "type": "uint256"
        },
        {
          "name": "_size",
          "type": "uint256"
        },
        {
          "name": "_supportFirstTime",
          "type": "uint256"
        }
      ],
      "name": "addSupport",
      "outputs": [],
      "payable": false,
      "stateMutability": "nonpayable",
      "type": "function"
    },
    {
      "constant": true,
      "inputs": [
        {
          "name": "_fund",
          "type": "address"
        },
        {
          "name": "_sender",
          "type": "address"
        }
      ],
      "name": "getDistributions",
      "outputs": [
        {
          "name": "amount_",
          "type": "uint256[]"
        },
        {
          "name": "distributableTime_",
          "type": "uint256[]"
        },
        {
          "name": "distributedTime_",
          "type": "uint256[]"
        },
        {
          "name": "state_",
          "type": "uint256[]"
        },
        {
          "name": "votingCount_",
          "type": "uint256[]"
        },
        {
          "name": "isVoting_",
          "type": "bool[]"
        }
      ],
      "payable": false,
      "stateMutability": "view",
      "type": "function"
    },
    {
      "constant": true,
      "inputs": [
        {
          "name": "_fund",
          "type": "address"
        }
      ],
      "name": "getDistributionsCount",
      "outputs": [
        {
          "name": "count_",
          "type": "uint256"
        }
      ],
      "payable": false,
      "stateMutability": "view",
      "type": "function"
    },
    {
      "constant": true,
      "inputs": [
        {
          "name": "_fund",
          "type": "address"
        },
        {
          "name": "_index",
          "type": "uint256"
        },
        {
          "name": "_sender",
          "type": "address"
        }
      ],
      "name": "isVoting",
      "outputs": [
        {
          "name": "voting_",
          "type": "bool"
        }
      ],
      "payable": false,
      "stateMutability": "view",
      "type": "function"
    },
    {
      "constant": false,
      "inputs": [
        {
          "name": "_fund",
          "type": "address"
        },
        {
          "name": "_index",
          "type": "uint256"
        },
        {
          "name": "_sender",
          "type": "address"
        }
      ],
      "name": "vote",
      "outputs": [],
      "payable": false,
      "stateMutability": "nonpayable",
      "type": "function"
    },
    {
      "constant": false,
      "inputs": [
        {
          "name": "_fund",
          "type": "address"
        }
      ],
      "name": "releaseDistribution",
      "outputs": [],
      "payable": false,
      "stateMutability": "nonpayable",
      "type": "function"
    }
  ],
  "bytecode": "0x608060405234801561001057600080fd5b50604051602080612b2783398101806040528101908080519060200190929190505050336000806101000a81548173ffffffffffffffffffffffffffffffffffffffff021916908373ffffffffffffffffffffffffffffffffffffffff1602179055506000809054906101000a900473ffffffffffffffffffffffffffffffffffffffff1673ffffffffffffffffffffffffffffffffffffffff16600073ffffffffffffffffffffffffffffffffffffffff167f8be0079c531659141344cd1fd0a4f28419497f9722a3daafe3b4186f6b6457e060405160405180910390a380600260006101000a81548173ffffffffffffffffffffffffffffffffffffffff021916908373ffffffffffffffffffffffffffffffffffffffff160217905550506129e7806101406000396000f3006080604052600436106100a4576000357c0100000000000000000000000000000000000000000000000000000000900463ffffffff16806355937ba2146100a9578063715018a6146102c95780637868bb2e146102e05780638da5cb5b146103655780638f32d59b146103bc5780639281fced146103eb578063b8bc81dd14610476578063f2fde38b146104e3578063f433eff214610526578063f4a33ae614610569575b600080fd5b3480156100b557600080fd5b5061010a600480360381019080803573ffffffffffffffffffffffffffffffffffffffff169060200190929190803573ffffffffffffffffffffffffffffffffffffffff1690602001909291905050506105c0565b6040518080602001806020018060200180602001806020018060200187810387528d818151815260200191508051906020019060200280838360005b83811015610161578082015181840152602081019050610146565b5050505090500187810386528c818151815260200191508051906020019060200280838360005b838110156101a3578082015181840152602081019050610188565b5050505090500187810385528b818151815260200191508051906020019060200280838360005b838110156101e55780820151818401526020810190506101ca565b5050505090500187810384528a818151815260200191508051906020019060200280838360005b8381101561022757808201518184015260208101905061020c565b50505050905001878103835289818151815260200191508051906020019060200280838360005b8381101561026957808201518184015260208101905061024e565b50505050905001878103825288818151815260200191508051906020019060200280838360005b838110156102ab578082015181840152602081019050610290565b505050509050019c5050505050505050505050505060405180910390f35b3480156102d557600080fd5b506102de610c2e565b005b3480156102ec57600080fd5b5061034b600480360381019080803573ffffffffffffffffffffffffffffffffffffffff16906020019092919080359060200190929190803573ffffffffffffffffffffffffffffffffffffffff169060200190929190505050610d00565b604051808215151515815260200191505060405180910390f35b34801561037157600080fd5b5061037a610db3565b604051808273ffffffffffffffffffffffffffffffffffffffff1673ffffffffffffffffffffffffffffffffffffffff16815260200191505060405180910390f35b3480156103c857600080fd5b506103d1610ddc565b604051808215151515815260200191505060405180910390f35b3480156103f757600080fd5b50610474600480360381019080803573ffffffffffffffffffffffffffffffffffffffff169060200190929190803573ffffffffffffffffffffffffffffffffffffffff16906020019092919080359060200190929190803590602001909291908035906020019092919080359060200190929190505050610e33565b005b34801561048257600080fd5b506104e1600480360381019080803573ffffffffffffffffffffffffffffffffffffffff16906020019092919080359060200190929190803573ffffffffffffffffffffffffffffffffffffffff1690602001909291905050506110ac565b005b3480156104ef57600080fd5b50610524600480360381019080803573ffffffffffffffffffffffffffffffffffffffff169060200190929190505050611c9e565b005b34801561053257600080fd5b50610567600480360381019080803573ffffffffffffffffffffffffffffffffffffffff169060200190929190505050611cbd565b005b34801561057557600080fd5b506105aa600480360381019080803573ffffffffffffffffffffffffffffffffffffffff169060200190929190505050612468565b6040518082815260200191505060405180910390f35b6060806060806060806000600160008a73ffffffffffffffffffffffffffffffffffffffff1673ffffffffffffffffffffffffffffffffffffffff1681526020019081526020016000208054905060405190808252806020026020018201604052801561063c5781602001602082028038833980820191505090505b509650600160008a73ffffffffffffffffffffffffffffffffffffffff1673ffffffffffffffffffffffffffffffffffffffff168152602001908152602001600020805490506040519080825280602002602001820160405280156106b05781602001602082028038833980820191505090505b509550600160008a73ffffffffffffffffffffffffffffffffffffffff1673ffffffffffffffffffffffffffffffffffffffff168152602001908152602001600020805490506040519080825280602002602001820160405280156107245781602001602082028038833980820191505090505b509450600160008a73ffffffffffffffffffffffffffffffffffffffff1673ffffffffffffffffffffffffffffffffffffffff168152602001908152602001600020805490506040519080825280602002602001820160405280156107985781602001602082028038833980820191505090505b509350600160008a73ffffffffffffffffffffffffffffffffffffffff1673ffffffffffffffffffffffffffffffffffffffff1681526020019081526020016000208054905060405190808252806020026020018201604052801561080c5781602001602082028038833980820191505090505b509250600160008a73ffffffffffffffffffffffffffffffffffffffff1673ffffffffffffffffffffffffffffffffffffffff168152602001908152602001600020805490506040519080825280602002602001820160405280156108805781602001602082028038833980820191505090505b509150600090505b600160008a73ffffffffffffffffffffffffffffffffffffffff1673ffffffffffffffffffffffffffffffffffffffff16815260200190815260200160002080549050811015610c2357600160008a73ffffffffffffffffffffffffffffffffffffffff1673ffffffffffffffffffffffffffffffffffffffff1681526020019081526020016000208181548110151561091e57fe5b906000526020600020906009020160030154878281518110151561093e57fe5b9060200190602002018181525050600160008a73ffffffffffffffffffffffffffffffffffffffff1673ffffffffffffffffffffffffffffffffffffffff1681526020019081526020016000208181548110151561099857fe5b90600052602060002090600902016004015486828151811015156109b857fe5b9060200190602002018181525050600160008a73ffffffffffffffffffffffffffffffffffffffff1673ffffffffffffffffffffffffffffffffffffffff16815260200190815260200160002081815481101515610a1257fe5b9060005260206000209060090201600501548582815181101515610a3257fe5b9060200190602002018181525050600160008a73ffffffffffffffffffffffffffffffffffffffff1673ffffffffffffffffffffffffffffffffffffffff16815260200190815260200160002081815481101515610a8c57fe5b906000526020600020906009020160060160009054906101000a900460ff166002811115610ab657fe5b8482815181101515610ac457fe5b9060200190602002018181525050600160008a73ffffffffffffffffffffffffffffffffffffffff1673ffffffffffffffffffffffffffffffffffffffff16815260200190815260200160002081815481101515610b1e57fe5b9060005260206000209060090201600701548382815181101515610b3e57fe5b9060200190602002018181525050600160008a73ffffffffffffffffffffffffffffffffffffffff1673ffffffffffffffffffffffffffffffffffffffff16815260200190815260200160002081815481101515610b9857fe5b906000526020600020906009020160080160008973ffffffffffffffffffffffffffffffffffffffff1673ffffffffffffffffffffffffffffffffffffffff16815260200190815260200160002060009054906101000a900460ff168282815181101515610c0257fe5b90602001906020020190151590811515815250508080600101915050610888565b509295509295509295565b610c36610ddc565b1515610c4157600080fd5b600073ffffffffffffffffffffffffffffffffffffffff166000809054906101000a900473ffffffffffffffffffffffffffffffffffffffff1673ffffffffffffffffffffffffffffffffffffffff167f8be0079c531659141344cd1fd0a4f28419497f9722a3daafe3b4186f6b6457e060405160405180910390a360008060006101000a81548173ffffffffffffffffffffffffffffffffffffffff021916908373ffffffffffffffffffffffffffffffffffffffff160217905550565b6000600160008573ffffffffffffffffffffffffffffffffffffffff1673ffffffffffffffffffffffffffffffffffffffff16815260200190815260200160002083815481101515610d4e57fe5b906000526020600020906009020160080160008373ffffffffffffffffffffffffffffffffffffffff1673ffffffffffffffffffffffffffffffffffffffff16815260200190815260200160002060009054906101000a900460ff1690509392505050565b60008060009054906101000a900473ffffffffffffffffffffffffffffffffffffffff16905090565b60008060009054906101000a900473ffffffffffffffffffffffffffffffffffffffff1673ffffffffffffffffffffffffffffffffffffffff163373ffffffffffffffffffffffffffffffffffffffff1614905090565b60008060003373ffffffffffffffffffffffffffffffffffffffff168973ffffffffffffffffffffffffffffffffffffffff16141515610edb576040517f08c379a00000000000000000000000000000000000000000000000000000000081526004018080602001828103825260168152602001807f6d73672073656e646572206973206e6f742066756e640000000000000000000081525060200191505060405180910390fd5b610eee85876124b490919063ffffffff16565b9250600091505b84821015610f1757610f0a89898987876124de565b8180600101925050610ef5565b610f3c610f2d86856127bc90919063ffffffff16565b876127fa90919063ffffffff16565b905060008111156110a157610ffb81600160008c73ffffffffffffffffffffffffffffffffffffffff1673ffffffffffffffffffffffffffffffffffffffff16815260200190815260200160002060018060008e73ffffffffffffffffffffffffffffffffffffffff1673ffffffffffffffffffffffffffffffffffffffff1681526020019081526020016000208054905003815481101515610fdb57fe5b90600052602060002090600902016003015461281b90919063ffffffff16565b600160008b73ffffffffffffffffffffffffffffffffffffffff1673ffffffffffffffffffffffffffffffffffffffff16815260200190815260200160002060018060008d73ffffffffffffffffffffffffffffffffffffffff1673ffffffffffffffffffffffffffffffffffffffff168152602001908152602001600020805490500381548110151561108b57fe5b9060005260206000209060090201600301819055505b505050505050505050565b60003373ffffffffffffffffffffffffffffffffffffffff16600260009054906101000a900473ffffffffffffffffffffffffffffffffffffffff1673ffffffffffffffffffffffffffffffffffffffff16632a9551c66040518163ffffffff167c0100000000000000000000000000000000000000000000000000000000028152600401602060405180830381600087803b15801561114b57600080fd5b505af115801561115f573d6000803e3d6000fd5b505050506040513d602081101561117557600080fd5b810190808051906020019092919050505073ffffffffffffffffffffffffffffffffffffffff16141515611211576040517f08c379a00000000000000000000000000000000000000000000000000000000081526004018080602001828103825260158152602001807f73656e646572206973206e6f742041706946756e64000000000000000000000081525060200191505060405180910390fd5b8373ffffffffffffffffffffffffffffffffffffffff1663b9cccee3836040518263ffffffff167c0100000000000000000000000000000000000000000000000000000000028152600401808273ffffffffffffffffffffffffffffffffffffffff1673ffffffffffffffffffffffffffffffffffffffff168152602001915050602060405180830381600087803b1580156112ac57600080fd5b505af11580156112c0573d6000803e3d6000fd5b505050506040513d60208110156112d657600080fd5b8101908080519060200190929190505050151561135b576040517f08c379a00000000000000000000000000000000000000000000000000000000081526004018080602001828103825260178152602001807f73656e646572206973206e6f7420537570706f7274657200000000000000000081525060200191505060405180910390fd5b82600160008673ffffffffffffffffffffffffffffffffffffffff1673ffffffffffffffffffffffffffffffffffffffff16815260200190815260200160002080549050111515611414576040517f08c379a00000000000000000000000000000000000000000000000000000000081526004018080602001828103825260118152602001807f66756e64206c656e677468206572726f7200000000000000000000000000000081525060200191505060405180910390fd5b6000600281111561142157fe5b600160008673ffffffffffffffffffffffffffffffffffffffff1673ffffffffffffffffffffffffffffffffffffffff1681526020019081526020016000208481548110151561146d57fe5b906000526020600020906009020160060160009054906101000a900460ff16600281111561149757fe5b14151561150c576040517f08c379a00000000000000000000000000000000000000000000000000000000081526004018080602001828103825260108152602001807f66756e64207374617465206572726f720000000000000000000000000000000081525060200191505060405180910390fd5b600160008573ffffffffffffffffffffffffffffffffffffffff1673ffffffffffffffffffffffffffffffffffffffff1681526020019081526020016000208381548110151561155857fe5b90600052602060002090600902016004015490506115f76115df600160008773ffffffffffffffffffffffffffffffffffffffff1673ffffffffffffffffffffffffffffffffffffffff168152602001908152602001600020858154811015156115be57fe5b906000526020600020906009020160020154836127fa90919063ffffffff16565b826115e861283c565b6128589092919063ffffffff16565b151561166b576040517f08c379a00000000000000000000000000000000000000000000000000000000081526004018080602001828103825260148152602001807f66756e6420766f74652074696d65206572726f7200000000000000000000000081525060200191505060405180910390fd5b600160008573ffffffffffffffffffffffffffffffffffffffff1673ffffffffffffffffffffffffffffffffffffffff168152602001908152602001600020838154811015156116b757fe5b906000526020600020906009020160080160008373ffffffffffffffffffffffffffffffffffffffff1673ffffffffffffffffffffffffffffffffffffffff16815260200190815260200160002060009054906101000a900460ff16151515611788576040517f08c379a000000000000000000000000000000000000000000000000000000000815260040180806020018281038252600c8152602001807f616c726561647920766f7465000000000000000000000000000000000000000081525060200191505060405180910390fd5b60018060008673ffffffffffffffffffffffffffffffffffffffff1673ffffffffffffffffffffffffffffffffffffffff168152602001908152602001600020848154811015156117d557fe5b906000526020600020906009020160080160008473ffffffffffffffffffffffffffffffffffffffff1673ffffffffffffffffffffffffffffffffffffffff16815260200190815260200160002060006101000a81548160ff0219169083151502179055506118aa60018060008773ffffffffffffffffffffffffffffffffffffffff1673ffffffffffffffffffffffffffffffffffffffff1681526020019081526020016000208581548110151561188a57fe5b90600052602060002090600902016007015461281b90919063ffffffff16565b600160008673ffffffffffffffffffffffffffffffffffffffff1673ffffffffffffffffffffffffffffffffffffffff168152602001908152602001600020848154811015156118f657fe5b906000526020600020906009020160070181905550611983670de0b6b3a7640000600160008773ffffffffffffffffffffffffffffffffffffffff1673ffffffffffffffffffffffffffffffffffffffff1681526020019081526020016000208581548110151561196357fe5b9060005260206000209060090201600701546127bc90919063ffffffff16565b611a4f6002611a41670de0b6b3a76400008873ffffffffffffffffffffffffffffffffffffffff166323fa46f16040518163ffffffff167c0100000000000000000000000000000000000000000000000000000000028152600401602060405180830381600087803b1580156119f857600080fd5b505af1158015611a0c573d6000803e3d6000fd5b505050506040513d6020811015611a2257600080fd5b81019080805190602001909291905050506127bc90919063ffffffff16565b6124b490919063ffffffff16565b111515611c98576002600160008673ffffffffffffffffffffffffffffffffffffffff1673ffffffffffffffffffffffffffffffffffffffff16815260200190815260200160002084815481101515611aa457fe5b906000526020600020906009020160060160006101000a81548160ff02191690836002811115611ad057fe5b0217905550611c97600160008673ffffffffffffffffffffffffffffffffffffffff1673ffffffffffffffffffffffffffffffffffffffff16815260200190815260200160002084815481101515611b2457fe5b906000526020600020906009020160000160009054906101000a900473ffffffffffffffffffffffffffffffffffffffff16600160008773ffffffffffffffffffffffffffffffffffffffff1673ffffffffffffffffffffffffffffffffffffffff16815260200190815260200160002085815481101515611ba257fe5b906000526020600020906009020160010160009054906101000a900473ffffffffffffffffffffffffffffffffffffffff16600160008873ffffffffffffffffffffffffffffffffffffffff1673ffffffffffffffffffffffffffffffffffffffff16815260200190815260200160002086815481101515611c2057fe5b9060005260206000209060090201600201546000600160008a73ffffffffffffffffffffffffffffffffffffffff1673ffffffffffffffffffffffffffffffffffffffff16815260200190815260200160002088815481101515611c8057fe5b9060005260206000209060090201600301546124de565b5b50505050565b611ca6610ddc565b1515611cb157600080fd5b611cba81612873565b50565b6000803373ffffffffffffffffffffffffffffffffffffffff16600260009054906101000a900473ffffffffffffffffffffffffffffffffffffffff1673ffffffffffffffffffffffffffffffffffffffff16632a9551c66040518163ffffffff167c0100000000000000000000000000000000000000000000000000000000028152600401602060405180830381600087803b158015611d5d57600080fd5b505af1158015611d71573d6000803e3d6000fd5b505050506040513d6020811015611d8757600080fd5b810190808051906020019092919050505073ffffffffffffffffffffffffffffffffffffffff16141515611e23576040517f08c379a00000000000000000000000000000000000000000000000000000000081526004018080602001828103825260198152602001807f6d73672073656e646572206973206e6f742041706946756e640000000000000081525060200191505060405180910390fd5b600260009054906101000a900473ffffffffffffffffffffffffffffffffffffffff1673ffffffffffffffffffffffffffffffffffffffff166321df0da76040518163ffffffff167c0100000000000000000000000000000000000000000000000000000000028152600401602060405180830381600087803b158015611ea957600080fd5b505af1158015611ebd573d6000803e3d6000fd5b505050506040513d6020811015611ed357600080fd5b81019080805190602001909291905050509150600090505b600160008473ffffffffffffffffffffffffffffffffffffffff1673ffffffffffffffffffffffffffffffffffffffff16815260200190815260200160002080549050811015612463576120af600160008573ffffffffffffffffffffffffffffffffffffffff1673ffffffffffffffffffffffffffffffffffffffff16815260200190815260200160002082815481101515611f8457fe5b906000526020600020906009020161010060405190810160405290816000820160009054906101000a900473ffffffffffffffffffffffffffffffffffffffff1673ffffffffffffffffffffffffffffffffffffffff1673ffffffffffffffffffffffffffffffffffffffff1681526020016001820160009054906101000a900473ffffffffffffffffffffffffffffffffffffffff1673ffffffffffffffffffffffffffffffffffffffff1673ffffffffffffffffffffffffffffffffffffffff168152602001600282015481526020016003820154815260200160048201548152602001600582015481526020016006820160009054906101000a900460ff16600281111561209157fe5b600281111561209c57fe5b815260200160078201548152505061296d565b15612456576120bc61283c565b600160008573ffffffffffffffffffffffffffffffffffffffff1673ffffffffffffffffffffffffffffffffffffffff1681526020019081526020016000208281548110151561210857fe5b90600052602060002090600902016005018190555060018060008573ffffffffffffffffffffffffffffffffffffffff1673ffffffffffffffffffffffffffffffffffffffff1681526020019081526020016000208281548110151561216a57fe5b906000526020600020906009020160060160006101000a81548160ff0219169083600281111561219657fe5b02179055508173ffffffffffffffffffffffffffffffffffffffff16634cbb72a8600160008673ffffffffffffffffffffffffffffffffffffffff1673ffffffffffffffffffffffffffffffffffffffff1681526020019081526020016000208381548110151561220357fe5b906000526020600020906009020160010160009054906101000a900473ffffffffffffffffffffffffffffffffffffffff16600160008773ffffffffffffffffffffffffffffffffffffffff1673ffffffffffffffffffffffffffffffffffffffff1681526020019081526020016000208481548110151561228157fe5b9060005260206000209060090201600301546040518363ffffffff167c0100000000000000000000000000000000000000000000000000000000028152600401808373ffffffffffffffffffffffffffffffffffffffff1673ffffffffffffffffffffffffffffffffffffffff16815260200182815260200180602001828103825260178152602001807fed88acec9e9020ebaaa8eab888ec95a120ec8898eba0b90000000000000000008152506020019350505050602060405180830381600087803b15801561235157600080fd5b505af1158015612365573d6000803e3d6000fd5b505050506040513d602081101561237b57600080fd5b8101908080519060200190929190505050507fba54caad83425c51c3962146d55ba0fb019409138080415b3cf0e7b00a293def83600160008673ffffffffffffffffffffffffffffffffffffffff1673ffffffffffffffffffffffffffffffffffffffff168152602001908152602001600020838154811015156123fb57fe5b906000526020600020906009020160030154604051808373ffffffffffffffffffffffffffffffffffffffff1673ffffffffffffffffffffffffffffffffffffffff1681526020018281526020019250505060405180910390a15b8080600101915050611eeb565b505050565b6000600160008373ffffffffffffffffffffffffffffffffffffffff1673ffffffffffffffffffffffffffffffffffffffff168152602001908152602001600020805490509050919050565b6000806000831115156124c657600080fd5b82848115156124d157fe5b0490508091505092915050565b600080600160008873ffffffffffffffffffffffffffffffffffffffff1673ffffffffffffffffffffffffffffffffffffffff168152602001908152602001600020805490501415612532578290506125e9565b6125e684600160008973ffffffffffffffffffffffffffffffffffffffff1673ffffffffffffffffffffffffffffffffffffffff16815260200190815260200160002060018060008b73ffffffffffffffffffffffffffffffffffffffff1673ffffffffffffffffffffffffffffffffffffffff16815260200190815260200160002080549050038154811015156125c657fe5b90600052602060002090600902016004015461281b90919063ffffffff16565b90505b600160008773ffffffffffffffffffffffffffffffffffffffff1673ffffffffffffffffffffffffffffffffffffffff168152602001908152602001600020610100604051908101604052808873ffffffffffffffffffffffffffffffffffffffff1681526020018773ffffffffffffffffffffffffffffffffffffffff168152602001868152602001848152602001838152602001600081526020016000600281111561269357fe5b815260200160008152509080600181540180825580915050906001820390600052602060002090600902016000909192909190915060008201518160000160006101000a81548173ffffffffffffffffffffffffffffffffffffffff021916908373ffffffffffffffffffffffffffffffffffffffff16021790555060208201518160010160006101000a81548173ffffffffffffffffffffffffffffffffffffffff021916908373ffffffffffffffffffffffffffffffffffffffff16021790555060408201518160020155606082015181600301556080820151816004015560a0820151816005015560c08201518160060160006101000a81548160ff021916908360028111156127a257fe5b021790555060e08201518160070155505050505050505050565b60008060008414156127d157600091506127f3565b82840290508284828115156127e257fe5b041415156127ef57600080fd5b8091505b5092915050565b60008083831115151561280c57600080fd5b82840390508091505092915050565b600080828401905083811015151561283257600080fd5b8091505092915050565b60006128536103e8426127bc90919063ffffffff16565b905090565b600083831115801561286a5750818411155b90509392505050565b600073ffffffffffffffffffffffffffffffffffffffff168173ffffffffffffffffffffffffffffffffffffffff16141515156128af57600080fd5b8073ffffffffffffffffffffffffffffffffffffffff166000809054906101000a900473ffffffffffffffffffffffffffffffffffffffff1673ffffffffffffffffffffffffffffffffffffffff167f8be0079c531659141344cd1fd0a4f28419497f9722a3daafe3b4186f6b6457e060405160405180910390a3806000806101000a81548173ffffffffffffffffffffffffffffffffffffffff021916908373ffffffffffffffffffffffffffffffffffffffff16021790555050565b600061297761283c565b8260800151111580156129a457506000600281111561299257fe5b8260c0015160028111156129a257fe5b145b80156129b4575060008260600151115b90509190505600a165627a7a723058205dca6ade870acf87ef32b2c350950f217ecec5437bf7830ec30f663feb6513470029",
  "source": "pragma solidity ^0.4.24;\r\n\r\nimport \"openzeppelin-solidity/contracts/token/ERC20/ERC20.sol\";\r\nimport \"openzeppelin-solidity/contracts/token/ERC20/SafeERC20.sol\";\r\nimport \"openzeppelin-solidity/contracts/math/SafeMath.sol\";\r\nimport \"openzeppelin-solidity/contracts/ownership/Ownable.sol\";\r\n\r\nimport \"contracts/interface/ICouncil.sol\";\r\nimport \"contracts/interface/IFund.sol\";\r\nimport \"contracts/interface/ISupporterPool.sol\";\r\nimport \"contracts/token/CustomToken.sol\";\r\n\r\nimport \"contracts/utils/TimeLib.sol\";\r\n\r\ncontract SupporterPool is Ownable, ISupporterPool {\r\n    using SafeERC20 for ERC20;\r\n    using SafeMath for uint256;\r\n    using TimeLib for *;\r\n\r\n    enum State {PENDING, PAID, CANCEL_PAYMENT}\r\n\r\n    struct Distribution {\r\n        address fund;\r\n        address writer;\r\n        uint256 interval;\r\n        uint256 amount;\r\n        uint256 distributableTime;\r\n        uint256 distributedTime;\r\n        State state;\r\n        uint256 votingCount;\r\n        mapping(address => bool) voting;\r\n    }\r\n\r\n    mapping(address => Distribution[]) funds;\r\n\r\n    ICouncil council;\r\n\r\n    constructor(address _council) public {\r\n        council = ICouncil(_council);\r\n    }\r\n\r\n    /**\r\n    * @dev       addDistribution \r\n    * @param _fund   \r\n    * @param _writer   \r\n    * @param _interval  \r\n    * @param _amount  \r\n    * @param _size  \r\n    * @param _supportFirstTime      \r\n    */\r\n    function addSupport(\r\n        address _fund,\r\n        address _writer,\r\n        uint256 _interval,\r\n        uint256 _amount,\r\n        uint256 _size,\r\n        uint256 _supportFirstTime)\r\n        external\r\n    {\r\n        require(_fund == msg.sender, \"msg sender is not fund\");\r\n        \r\n        uint256 poolAmount = _amount.div(_size);\r\n        for (uint256 i = 0; i < _size; i++) {\r\n            addDistribution(_fund, _writer, _interval, _supportFirstTime, poolAmount);\r\n        }\r\n\r\n        uint256 remainder = _amount.sub(poolAmount.mul(_size));\r\n        if (remainder > 0) {\r\n            funds[_fund][funds[_fund].length - 1].amount = funds[_fund][funds[_fund].length - 1].amount.add(remainder);\r\n        }\r\n    }\r\n\r\n    /**\r\n    * @dev   \r\n    * @param _fund   \r\n    * @param _writer   \r\n    * @param _interval  \r\n    * @param _supportFirstTime      \r\n    * @param _amount  \r\n    */\r\n    function addDistribution(\r\n        address _fund,\r\n        address _writer,\r\n        uint256 _interval,\r\n        uint256 _supportFirstTime,\r\n        uint256 _amount)\r\n        private\r\n    {\r\n        uint256 _distributableTime;\r\n        if (funds[_fund].length == 0) {\r\n            _distributableTime = _supportFirstTime;\r\n        } else {\r\n            _distributableTime = funds[_fund][funds[_fund].length - 1].distributableTime.add(_interval);\r\n        }\r\n        funds[_fund].push(Distribution(_fund, _writer, _interval, _amount, _distributableTime, 0, State.PENDING, 0));\r\n    }\r\n\r\n    /**\r\n    * @dev      \r\n    * @param _fund     \r\n    * @param _sender     \r\n    * @return amount_  \r\n    * @return distributableTime_   \r\n    * @return distributedTime_   \r\n    * @return isVoting_   \r\n    */\r\n    function getDistributions(address _fund, address _sender)\r\n        public\r\n        view\r\n        returns (\r\n            uint256[] memory amount_,\r\n            uint256[] memory distributableTime_,\r\n            uint256[] memory distributedTime_,\r\n            uint256[] memory state_,\r\n            uint256[] memory votingCount_,\r\n            bool[] memory isVoting_)\r\n    {\r\n        amount_ = new uint256[](funds[_fund].length);\r\n        distributableTime_ = new uint256[](funds[_fund].length);\r\n        distributedTime_ = new uint256[](funds[_fund].length);\r\n        state_ = new uint256[](funds[_fund].length);\r\n        votingCount_ = new uint256[](funds[_fund].length);\r\n        isVoting_ = new bool[](funds[_fund].length);\r\n\r\n        for (uint256 i = 0; i < funds[_fund].length; i++) {\r\n            amount_[i] = funds[_fund][i].amount;\r\n            distributableTime_[i] = funds[_fund][i].distributableTime;\r\n            distributedTime_[i] = funds[_fund][i].distributedTime;\r\n            state_[i] = uint256(funds[_fund][i].state);\r\n            votingCount_[i] = funds[_fund][i].votingCount;\r\n            isVoting_[i] = funds[_fund][i].voting[_sender];\r\n        }\r\n    }\r\n\r\n    /**\r\n    * @dev  \r\n    * @param _fund  \r\n    * @return count_  \r\n    */\r\n    function getDistributionsCount(address _fund) external view returns(uint256 count_) {\r\n        count_ = funds[_fund].length;\r\n    }\r\n\r\n    /**\r\n    * @dev    \r\n    * @param _fund  fund \r\n    * @param _index  Index\r\n    * @param _sender    \r\n    * @return voting_  \r\n    */\r\n    function isVoting(address _fund, uint256 _index, address _sender) external view returns (bool voting_){\r\n        return funds[_fund][_index].voting[_sender];\r\n    }\r\n\r\n    /**\r\n    * @dev        \r\n    * @param _fund   \r\n    * @param _index   index\r\n    * @param _sender     \r\n    */\r\n    function vote(address _fund, uint256 _index, address _sender) external {\r\n        require(ICouncil(council).getApiFund() == msg.sender, \"sender is not ApiFund\");\r\n        require(IFund(_fund).isSupporter(_sender), \"sender is not Supporter\");\r\n        require(funds[_fund].length > _index, \"fund length error\");\r\n        require(funds[_fund][_index].state == State.PENDING, \"fund state error\");\r\n        uint256 votableTime = funds[_fund][_index].distributableTime;\r\n        require(TimeLib.currentTime().between(votableTime.sub(funds[_fund][_index].interval), votableTime), \"fund vote time error\");\r\n        require(!funds[_fund][_index].voting[_sender], \"already vote\");\r\n        \r\n        funds[_fund][_index].voting[_sender] = true;\r\n        funds[_fund][_index].votingCount = funds[_fund][_index].votingCount.add(1);\r\n        if (IFund(_fund).getSupporterCount().mul(10 ** 18).div(2) <= funds[_fund][_index].votingCount.mul(10 ** 18)) {\r\n            funds[_fund][_index].state = State.CANCEL_PAYMENT;\r\n            addDistribution(\r\n                funds[_fund][_index].fund,\r\n                funds[_fund][_index].writer,\r\n                funds[_fund][_index].interval,\r\n                0,\r\n                funds[_fund][_index].amount);\r\n        }\r\n    \r\n    }\r\n\r\n    /**\r\n    * @dev        \r\n    * @param _fund    \r\n    */\r\n    function releaseDistribution(address _fund) external {\r\n        require(ICouncil(council).getApiFund() == msg.sender, \"msg sender is not ApiFund\");\r\n\r\n        ERC20 token = ERC20(ICouncil(council).getToken());\r\n        for (uint256 i = 0; i < funds[_fund].length; i++) {\r\n            if (distributable(funds[_fund][i])) {\r\n                funds[_fund][i].distributedTime = TimeLib.currentTime();\r\n                funds[_fund][i].state = State.PAID;\r\n                CustomToken(address(token)).transferPxl(funds[_fund][i].writer, funds[_fund][i].amount, \"  \");\r\n\r\n                emit ReleaseDistribution(_fund, funds[_fund][i].amount);\r\n            }\r\n        }\r\n    }\r\n\r\n    /**\r\n    * @dev       \r\n    * @param _distribution   \r\n    * @return distributable_  \r\n    */\r\n    function distributable(Distribution memory _distribution) private view returns (bool distributable_) {\r\n        return _distribution.distributableTime <= TimeLib.currentTime() && _distribution.state == State.PENDING && _distribution.amount > 0;\r\n    }\r\n\r\n    event ReleaseDistribution(address _fund, uint256 _amount);\r\n}\r\n",
  "sourcePath": "contracts/supporter/SupporterPool.sol",
  "compiler": {
    "name": "solc",
    "version": "0.4.24+commit.e67f0147.Emscripten.clang"
  },
  "schemaVersion": "2.0.1",
  "updatedAt": "2018-11-12T08:33:49.742Z"
}