{
  "contractName": "UserPaybackPool",
  "abi": [
    {
      "constant": false,
      "inputs": [
        {
          "name": "guest",
          "type": "address"
        }
      ],
      "name": "addOwner",
      "outputs": [],
      "payable": false,
      "stateMutability": "nonpayable",
      "type": "function"
    },
    {
      "constant": false,
      "inputs": [
        {
          "name": "newOwner",
          "type": "address"
        }
      ],
      "name": "transferOwnership",
      "outputs": [],
      "payable": false,
      "stateMutability": "nonpayable",
      "type": "function"
    },
    {
      "inputs": [
        {
          "name": "_councilAddress",
          "type": "address"
        }
      ],
      "payable": false,
      "stateMutability": "nonpayable",
      "type": "constructor"
    },
    {
      "anonymous": false,
      "inputs": [
        {
          "indexed": true,
          "name": "_userAddress",
          "type": "address"
        },
        {
          "indexed": false,
          "name": "_accumulationTime",
          "type": "uint256"
        },
        {
          "indexed": false,
          "name": "_contentAddress",
          "type": "address"
        },
        {
          "indexed": false,
          "name": "_episodeIndex",
          "type": "uint256"
        },
        {
          "indexed": false,
          "name": "_value",
          "type": "uint256"
        }
      ],
      "name": "AddPayback",
      "type": "event"
    },
    {
      "anonymous": false,
      "inputs": [
        {
          "indexed": true,
          "name": "_user",
          "type": "address"
        },
        {
          "indexed": false,
          "name": "releasedTime",
          "type": "uint256"
        },
        {
          "indexed": false,
          "name": "_amount",
          "type": "uint256"
        }
      ],
      "name": "Release",
      "type": "event"
    },
    {
      "anonymous": false,
      "inputs": [
        {
          "indexed": true,
          "name": "previousOwner",
          "type": "address"
        },
        {
          "indexed": true,
          "name": "newOwner",
          "type": "address"
        }
      ],
      "name": "OwnershipTransferred",
      "type": "event"
    },
    {
      "anonymous": false,
      "inputs": [
        {
          "indexed": true,
          "name": "host",
          "type": "address"
        },
        {
          "indexed": true,
          "name": "guest",
          "type": "address"
        }
      ],
      "name": "OwnershipExtended",
      "type": "event"
    },
    {
      "constant": false,
      "inputs": [
        {
          "name": "_from",
          "type": "address"
        },
        {
          "name": "_value",
          "type": "uint256"
        },
        {
          "name": "_token",
          "type": "address"
        },
        {
          "name": "_data",
          "type": "bytes"
        }
      ],
      "name": "receiveApproval",
      "outputs": [],
      "payable": false,
      "stateMutability": "nonpayable",
      "type": "function"
    },
    {
      "constant": false,
      "inputs": [],
      "name": "release",
      "outputs": [],
      "payable": false,
      "stateMutability": "nonpayable",
      "type": "function"
    },
    {
      "constant": true,
      "inputs": [],
      "name": "getPaybackInfo",
      "outputs": [
        {
          "name": "paybackPxlAmount_",
          "type": "uint256"
        },
        {
          "name": "releasedTime_",
          "type": "uint256"
        },
        {
          "name": "nextReleaseTime_",
          "type": "uint256"
        }
      ],
      "payable": false,
      "stateMutability": "view",
      "type": "function"
    },
    {
      "constant": true,
      "inputs": [],
      "name": "getUserPaybackPxl",
      "outputs": [
        {
          "name": "paybackPxlAmount_",
          "type": "uint256"
        }
      ],
      "payable": false,
      "stateMutability": "view",
      "type": "function"
    },
    {
      "constant": true,
      "inputs": [],
      "name": "getUserReleasedTime",
      "outputs": [
        {
          "name": "userReleasedTime_",
          "type": "uint256"
        }
      ],
      "payable": false,
      "stateMutability": "view",
      "type": "function"
    },
    {
      "constant": true,
      "inputs": [],
      "name": "getReleaseInterval",
      "outputs": [
        {
          "name": "releaseInterval_",
          "type": "uint256"
        }
      ],
      "payable": false,
      "stateMutability": "view",
      "type": "function"
    }
  ],
  "bytecode": "0x608060405234801561001057600080fd5b5060405160208061159f8339810180604052810190808051906020019092919050505060016000803373ffffffffffffffffffffffffffffffffffffffff1673ffffffffffffffffffffffffffffffffffffffff16815260200190815260200160002060006101000a81548160ff02191690831515021790555080600073ffffffffffffffffffffffffffffffffffffffff168173ffffffffffffffffffffffffffffffffffffffff16141515156100c757600080fd5b3073ffffffffffffffffffffffffffffffffffffffff168173ffffffffffffffffffffffffffffffffffffffff161415151561010257600080fd5b81600360006101000a81548173ffffffffffffffffffffffffffffffffffffffff021916908373ffffffffffffffffffffffffffffffffffffffff160217905550620927c060048190555050506114418061015e6000396000f30060806040526004361061008e576000357c0100000000000000000000000000000000000000000000000000000000900463ffffffff16806313552289146100935780636a3ebf54146100be5780637065cb48146100f757806386d1a69f1461013a578063897bb89e146101515780638f4ffcb11461017c578063bcaeca721461022f578063f2fde38b1461025a575b600080fd5b34801561009f57600080fd5b506100a861029d565b6040518082815260200191505060405180910390f35b3480156100ca57600080fd5b506100d36102e4565b60405180848152602001838152602001828152602001935050505060405180910390f35b34801561010357600080fd5b50610138600480360381019080803573ffffffffffffffffffffffffffffffffffffffff1690602001909291905050506103c8565b005b34801561014657600080fd5b5061014f61050f565b005b34801561015d57600080fd5b506101666109bf565b6040518082815260200191505060405180910390f35b34801561018857600080fd5b5061022d600480360381019080803573ffffffffffffffffffffffffffffffffffffffff16906020019092919080359060200190929190803573ffffffffffffffffffffffffffffffffffffffff169060200190929190803590602001908201803590602001908080601f0160208091040260200160405190810160405280939291908181526020018383808284378201915050505050509192919290505050610a06565b005b34801561023b57600080fd5b50610244610b0a565b6040518082815260200191505060405180910390f35b34801561026657600080fd5b5061029b600480360381019080803573ffffffffffffffffffffffffffffffffffffffff169060200190929190505050610b14565b005b6000600260003373ffffffffffffffffffffffffffffffffffffffff1673ffffffffffffffffffffffffffffffffffffffff16815260200190815260200160002054905090565b6000806000600160003373ffffffffffffffffffffffffffffffffffffffff1673ffffffffffffffffffffffffffffffffffffffff168152602001908152602001600020549250600260003373ffffffffffffffffffffffffffffffffffffffff1673ffffffffffffffffffffffffffffffffffffffff1681526020019081526020016000205491506103c1600454600260003373ffffffffffffffffffffffffffffffffffffffff1673ffffffffffffffffffffffffffffffffffffffff16815260200190815260200160002054610ca990919063ffffffff16565b9050909192565b6000803373ffffffffffffffffffffffffffffffffffffffff1673ffffffffffffffffffffffffffffffffffffffff16815260200190815260200160002060009054906101000a900460ff16151561041f57600080fd5b600073ffffffffffffffffffffffffffffffffffffffff168173ffffffffffffffffffffffffffffffffffffffff161415151561045b57600080fd5b60016000808373ffffffffffffffffffffffffffffffffffffffff1673ffffffffffffffffffffffffffffffffffffffff16815260200190815260200160002060006101000a81548160ff0219169083151502179055508073ffffffffffffffffffffffffffffffffffffffff163373ffffffffffffffffffffffffffffffffffffffff167f1d95aed2b82ae4cbdcccc214bb64bc277a20e8490d69a59d7f426c67fe46c61d60405160405180910390a350565b600080600360009054906101000a900473ffffffffffffffffffffffffffffffffffffffff1673ffffffffffffffffffffffffffffffffffffffff166321df0da76040518163ffffffff167c0100000000000000000000000000000000000000000000000000000000028152600401602060405180830381600087803b15801561059857600080fd5b505af11580156105ac573d6000803e3d6000fd5b505050506040513d60208110156105c257600080fd5b81019080805190602001909291905050509150610629600454600260003373ffffffffffffffffffffffffffffffffffffffff1673ffffffffffffffffffffffffffffffffffffffff16815260200190815260200160002054610ca990919063ffffffff16565b610631610cca565b101515156106cd576040517f08c379a00000000000000000000000000000000000000000000000000000000081526004018080602001828103825260268152602001807f52656c65617365206661696c65643a20436865636b2072656c6561736520696e81526020017f74657276616c000000000000000000000000000000000000000000000000000081525060400191505060405180910390fd5b6000600160003373ffffffffffffffffffffffffffffffffffffffff1673ffffffffffffffffffffffffffffffffffffffff1681526020019081526020016000205411156109bb5761071d610cca565b600260003373ffffffffffffffffffffffffffffffffffffffff1673ffffffffffffffffffffffffffffffffffffffff16815260200190815260200160002081905550600160003373ffffffffffffffffffffffffffffffffffffffff1673ffffffffffffffffffffffffffffffffffffffff1681526020019081526020016000205490506000600160003373ffffffffffffffffffffffffffffffffffffffff1673ffffffffffffffffffffffffffffffffffffffff168152602001908152602001600020819055508173ffffffffffffffffffffffffffffffffffffffff16634cbb72a833836040518363ffffffff167c0100000000000000000000000000000000000000000000000000000000028152600401808373ffffffffffffffffffffffffffffffffffffffff1673ffffffffffffffffffffffffffffffffffffffff16815260200182815260200180602001828103825260248152602001807fec9790ed94bcec868ceb939c20eab5aceba7a420eba6acec9b8ceb939c20eca781526020017f80eab889000000000000000000000000000000000000000000000000000000008152506040019350505050602060405180830381600087803b1580156108e957600080fd5b505af11580156108fd573d6000803e3d6000fd5b505050506040513d602081101561091357600080fd5b8101908080519060200190929190505050503373ffffffffffffffffffffffffffffffffffffffff167f2c57dec1db0095a6b800c2698d5bbceef2c180c6ac43429769a719658983f677600260003373ffffffffffffffffffffffffffffffffffffffff1673ffffffffffffffffffffffffffffffffffffffff1681526020019081526020016000205483604051808381526020018281526020019250505060405180910390a25b5050565b6000600160003373ffffffffffffffffffffffffffffffffffffffff1673ffffffffffffffffffffffffffffffffffffffff16815260200190815260200160002054905090565b83600073ffffffffffffffffffffffffffffffffffffffff168173ffffffffffffffffffffffffffffffffffffffff1614151515610a4357600080fd5b3073ffffffffffffffffffffffffffffffffffffffff168173ffffffffffffffffffffffffffffffffffffffff1614151515610a7e57600080fd5b82600073ffffffffffffffffffffffffffffffffffffffff168173ffffffffffffffffffffffffffffffffffffffff1614151515610abb57600080fd5b3073ffffffffffffffffffffffffffffffffffffffff168173ffffffffffffffffffffffffffffffffffffffff1614151515610af657600080fd5b610b0286868686610ce6565b505050505050565b6000600454905090565b6000803373ffffffffffffffffffffffffffffffffffffffff1673ffffffffffffffffffffffffffffffffffffffff16815260200190815260200160002060009054906101000a900460ff161515610b6b57600080fd5b600073ffffffffffffffffffffffffffffffffffffffff168173ffffffffffffffffffffffffffffffffffffffff1614151515610ba757600080fd5b60016000808373ffffffffffffffffffffffffffffffffffffffff1673ffffffffffffffffffffffffffffffffffffffff16815260200190815260200160002060006101000a81548160ff0219169083151502179055506000803373ffffffffffffffffffffffffffffffffffffffff1673ffffffffffffffffffffffffffffffffffffffff16815260200190815260200160002060006101000a81549060ff02191690558073ffffffffffffffffffffffffffffffffffffffff163373ffffffffffffffffffffffffffffffffffffffff167f8be0079c531659141344cd1fd0a4f28419497f9722a3daafe3b4186f6b6457e060405160405180910390a350565b6000808284019050838110151515610cc057600080fd5b8091505092915050565b6000610ce16103e84261137690919063ffffffff16565b905090565b6000808573ffffffffffffffffffffffffffffffffffffffff16600360009054906101000a900473ffffffffffffffffffffffffffffffffffffffff1673ffffffffffffffffffffffffffffffffffffffff16630cec1ecd6040518163ffffffff167c0100000000000000000000000000000000000000000000000000000000028152600401602060405180830381600087803b158015610d8657600080fd5b505af1158015610d9a573d6000803e3d6000fd5b505050506040513d6020811015610db057600080fd5b810190808051906020019092919050505073ffffffffffffffffffffffffffffffffffffffff16141515610e72576040517f08c379a00000000000000000000000000000000000000000000000000000000081526004018080602001828103825260228152602001807f416464207061796261636b206661696c65643a206163636573732064656e696581526020017f642e00000000000000000000000000000000000000000000000000000000000081525060400191505060405180910390fd5b600360009054906101000a900473ffffffffffffffffffffffffffffffffffffffff1673ffffffffffffffffffffffffffffffffffffffff166321df0da76040518163ffffffff167c0100000000000000000000000000000000000000000000000000000000028152600401602060405180830381600087803b158015610ef857600080fd5b505af1158015610f0c573d6000803e3d6000fd5b505050506040513d6020811015610f2257600080fd5b810190808051906020019092919050505091508373ffffffffffffffffffffffffffffffffffffffff168273ffffffffffffffffffffffffffffffffffffffff16141515610ffe576040517f08c379a00000000000000000000000000000000000000000000000000000000081526004018080602001828103825260278152602001807f416464207061796261636b206661696c65643a20636865636b20706978656c2081526020017f616464726573730000000000000000000000000000000000000000000000000081525060400191505060405180910390fd5b8173ffffffffffffffffffffffffffffffffffffffff166369b5a4618730886040518463ffffffff167c0100000000000000000000000000000000000000000000000000000000028152600401808473ffffffffffffffffffffffffffffffffffffffff1673ffffffffffffffffffffffffffffffffffffffff1681526020018373ffffffffffffffffffffffffffffffffffffffff1673ffffffffffffffffffffffffffffffffffffffff16815260200182815260200180602001828103825260248152602001807fec9790ed94bcec868ceb939c20eab5aceba7a420eba6acec9b8ceb939c20ec9881526020017f88ecb99800000000000000000000000000000000000000000000000000000000815250604001945050505050602060405180830381600087803b15801561113457600080fd5b505af1158015611148573d6000803e3d6000fd5b505050506040513d602081101561115e57600080fd5b8101908080519060200190929190505050506111846000846113b490919063ffffffff16565b90506111d885600160008473ffffffffffffffffffffffffffffffffffffffff1673ffffffffffffffffffffffffffffffffffffffff16815260200190815260200160002054610ca990919063ffffffff16565b600160008373ffffffffffffffffffffffffffffffffffffffff1673ffffffffffffffffffffffffffffffffffffffff168152602001908152602001600020819055506000600260008373ffffffffffffffffffffffffffffffffffffffff1673ffffffffffffffffffffffffffffffffffffffff1681526020019081526020016000205414156112af5761126b610cca565b600260008373ffffffffffffffffffffffffffffffffffffffff1673ffffffffffffffffffffffffffffffffffffffff168152602001908152602001600020819055505b8073ffffffffffffffffffffffffffffffffffffffff167f130750039a5e6f884759c38cf7a087cd5b4ed2d4a7ea62052424443152b0412f6112ef610cca565b6113036014876113b490919063ffffffff16565b6113176028886113ec90919063ffffffff16565b89604051808581526020018473ffffffffffffffffffffffffffffffffffffffff1673ffffffffffffffffffffffffffffffffffffffff16815260200183815260200182815260200194505050505060405180910390a2505050505050565b600080600084141561138b57600091506113ad565b828402905082848281151561139c57fe5b041415156113a957600080fd5b8091505b5092915050565b600080601483018451101515156113ca57600080fd5b6c01000000000000000000000000836020860101510490508091505092915050565b6000806020830184511015151561140257600080fd5b82602085010151905080915050929150505600a165627a7a72305820aac1b941729c8a1fbd58d6e44168313fd4bf7919f053633b4f7b2daad3648feb0029",
  "source": "pragma solidity ^0.4.24;\r\n\r\nimport \"openzeppelin-solidity/contracts/token/ERC20/ERC20.sol\";\r\nimport \"openzeppelin-solidity/contracts/token/ERC20/SafeERC20.sol\";\r\nimport \"openzeppelin-solidity/contracts/math/SafeMath.sol\";\r\n\r\nimport \"contracts/interface/ICouncil.sol\";\r\n\r\nimport \"contracts/token/CustomToken.sol\";\r\nimport \"contracts/token/ContractReceiver.sol\";\r\nimport \"contracts/utils/ValidValue.sol\";\r\nimport \"contracts/utils/TimeLib.sol\";\r\nimport \"contracts/utils/ExtendsOwnable.sol\";\r\nimport \"contracts/utils/BytesLib.sol\";\r\n\r\n\r\n/**\r\n * @title UserPaybackPool contract\r\n *\r\n * @author Junghoon Seo - <jh.seo@battleent.com>\r\n */\r\n\r\ncontract UserPaybackPool is ExtendsOwnable, ContractReceiver, ValidValue {\r\n    using SafeERC20 for ERC20;\r\n    using SafeMath for uint256;\r\n    using TimeLib for *;\r\n    using BytesLib for bytes;\r\n\r\n    mapping(address => uint256) userPaybackPxl;\r\n    mapping(address => uint256) userReleasedTime;\r\n\r\n    ICouncil council;\r\n\r\n    uint256 releaseInterval;\r\n\r\n    constructor(\r\n        address _councilAddress\r\n    )\r\n        public\r\n        validAddress(_councilAddress)\r\n    {\r\n        council = ICouncil(_councilAddress);\r\n        releaseInterval = 10 minutes * 1000; \r\n    }\r\n\r\n    function receiveApproval(\r\n        address _from,\r\n        uint256 _value,\r\n        address _token,\r\n        bytes _data)\r\n        public\r\n        validAddress(_from)\r\n        validAddress(_token)\r\n    {\r\n        addPayback(_from, _value, _token, _data);\r\n    }\r\n\r\n    function addPayback(\r\n        address _from, \r\n        uint256 _value, \r\n        address _token, \r\n        bytes _data\r\n    )\r\n        private \r\n    {\r\n        require(council.getPixelDistributor() == _from, \"Add payback failed: access denied.\");\r\n\r\n        ERC20 token = ERC20(council.getToken());\r\n        require(address(token) == _token, \"Add payback failed: check pixel address\");\r\n\r\n        CustomToken(address(token)).transferFromPxl(_from, address(this), _value, \"에피소드 구매 리워드 예치\");\r\n\r\n        address user = _data.toAddress(0);\r\n        userPaybackPxl[user] = userPaybackPxl[user].add(_value);\r\n\r\n        if(userReleasedTime[user] == 0) {\r\n            userReleasedTime[user] = TimeLib.currentTime();\r\n        }\r\n\r\n        emit AddPayback(user, TimeLib.currentTime(), _data.toAddress(20), _data.toUint(40), _value);\r\n    }\r\n \r\n    function release() public {\r\n        ERC20 token = ERC20(council.getToken());\r\n        require(TimeLib.currentTime() >= userReleasedTime[msg.sender].add(releaseInterval), \"Release failed: Check release interval\");\r\n\r\n        if(userPaybackPxl[msg.sender] > 0) {\r\n            userReleasedTime[msg.sender] = TimeLib.currentTime();\r\n            \r\n            uint256 rewardPxl = userPaybackPxl[msg.sender];\r\n            userPaybackPxl[msg.sender] = 0;\r\n            \r\n            CustomToken(address(token)).transferPxl(msg.sender, rewardPxl, \"에피소드 구매 리워드 지급\");\r\n\r\n            emit Release(msg.sender, userReleasedTime[msg.sender], rewardPxl);\r\n        }\r\n    }\r\n\r\n    function getPaybackInfo()\r\n        public\r\n        view\r\n        returns(\r\n            uint256 paybackPxlAmount_,\r\n            uint256 releasedTime_,\r\n            uint256 nextReleaseTime_\r\n        )\r\n    {\r\n        paybackPxlAmount_ = userPaybackPxl[msg.sender];\r\n        releasedTime_ = userReleasedTime[msg.sender];\r\n        nextReleaseTime_ = userReleasedTime[msg.sender].add(releaseInterval);\r\n    }\r\n\r\n    function getUserPaybackPxl() public view returns (uint256 paybackPxlAmount_) {\r\n        paybackPxlAmount_ = userPaybackPxl[msg.sender];\r\n    }\r\n\r\n    function getUserReleasedTime() public view returns (uint256 userReleasedTime_) {\r\n        userReleasedTime_ = userReleasedTime[msg.sender];\r\n    }\r\n\r\n    function getReleaseInterval() public view returns (uint256 releaseInterval_) {\r\n        releaseInterval_ = releaseInterval;\r\n    }\r\n    \r\n    event AddPayback(address indexed _userAddress, uint256 _accumulationTime, address _contentAddress, uint256 _episodeIndex, uint256 _value);\r\n    event Release(address indexed _user, uint256 releasedTime, uint256 _amount);\r\n}\r\n",
  "sourcePath": "C:\\piction\\piction-poc\\contracts\\user\\UserPaybackPool.sol",
  "compiler": {
    "name": "solc",
    "version": "0.4.24+commit.e67f0147.Emscripten.clang"
  },
  "schemaVersion": "2.0.1",
  "updatedAt": "2018-11-12T08:32:47.597Z"
}